{
  "transactions": [
    {
      "hash": "0x5487fb4f27b92bd92dfa2669b5f28caf691e1888a3ccf32ffe40a62fc3b94005",
      "transactionType": "CALL",
      "contractName": null,
      "contractAddress": "0x6fd36fd6d6f1d8a5e43b33b1881fd4ef167b6588",
      "function": "setPeer(uint32,bytes32)",
      "arguments": [
        "40232",
        "0x00000000000000000000000064e8c6db52bc99c39d7c2deb0f9cd52848a5772b"
      ],
      "transaction": {
        "from": "0x000ef5f21dc574226a06c76aae7060642a30eb74",
        "to": "0x6fd36fd6d6f1d8a5e43b33b1881fd4ef167b6588",
        "gas": "0x9d2b",
        "value": "0x0",
        "input": "0x3400288b0000000000000000000000000000000000000000000000000000000000009d2800000000000000000000000064e8c6db52bc99c39d7c2deb0f9cd52848a5772b",
        "nonce": "0xfe",
        "chainId": "0x66eee"
      },
      "additionalContracts": [],
      "isFixedGasLimit": false
    }
  ],
  "receipts": [
    {
      "status": "0x1",
      "cumulativeGasUsed": "0x7787",
      "logs": [
        {
          "address": "0x6fd36fd6d6f1d8a5e43b33b1881fd4ef167b6588",
          "topics": [
            "0x238399d427b947898edb290f5ff0f9109849b1c3ba196a42e35f00c50a54b98b"
          ],
          "data": "0x0000000000000000000000000000000000000000000000000000000000009d2800000000000000000000000064e8c6db52bc99c39d7c2deb0f9cd52848a5772b",
          "blockHash": "0x847ca6a2e5c744e599dd93198d2c83b0f29d4f0cb23e8f01e1e35420a83b9a21",
          "blockNumber": "0x5d75d2b",
          "transactionHash": "0x5487fb4f27b92bd92dfa2669b5f28caf691e1888a3ccf32ffe40a62fc3b94005",
          "transactionIndex": "0x1",
          "logIndex": "0x0",
          "removed": false
        }
      ],
      "logsBloom": "0x00000000000000000000000000000000000000000000000000004000000000000000000000000000000000000000000000000000000000000800000000000000000000000000010000000000000000000000000000000000000000000000000000000000000000000000000000000000000000000000000000000000000000000000000000000000000000000000000000000000000000000000000000000000000000000000000000000000000000000000000000000000000002000000000000000000000000000000000000000000000000000000000000040000000000000000000000000000000000000000000000000000000000800000000000000000",
      "type": "0x2",
      "transactionHash": "0x5487fb4f27b92bd92dfa2669b5f28caf691e1888a3ccf32ffe40a62fc3b94005",
      "transactionIndex": "0x1",
      "blockHash": "0x847ca6a2e5c744e599dd93198d2c83b0f29d4f0cb23e8f01e1e35420a83b9a21",
      "blockNumber": "0x5d75d2b",
      "gasUsed": "0x7787",
      "effectiveGasPrice": "0x5f5e100",
      "from": "0x000ef5f21dc574226a06c76aae7060642a30eb74",
      "to": "0x6fd36fd6d6f1d8a5e43b33b1881fd4ef167b6588",
      "contractAddress": null,
      "gasUsedForL1": "0x0",
      "l1BlockNumber": "0x6c384a"
    }
  ],
  "libraries": [],
  "pending": [],
  "returns": {},
  "timestamp": 1731805395,
  "chain": 421614,
  "commit": "f193f39"
}