{
  "transactions": [
    {
      "hash": "0x6da8366479c0d18c1f09e85fb208810e08fd71945609d2b9367bf0880a8b40cd",
      "transactionType": "CALL",
      "contractName": null,
      "contractAddress": "0xa56f2eb760131c39f2ddf4c6d4d245e3d5a1d796",
      "function": "setPeer(uint32,bytes32)",
      "arguments": [
        "40232",
        "0x000000000000000000000000ba397efef3914ab025f7f5706fade61f240a9ebc"
      ],
      "transaction": {
        "from": "0x000ef5f21dc574226a06c76aae7060642a30eb74",
        "to": "0xa56f2eb760131c39f2ddf4c6d4d245e3d5a1d796",
        "gas": "0xf42d",
        "value": "0x0",
        "input": "0x3400288b0000000000000000000000000000000000000000000000000000000000009d28000000000000000000000000ba397efef3914ab025f7f5706fade61f240a9ebc",
        "nonce": "0xc2",
        "chainId": "0x66eee"
      },
      "additionalContracts": [],
      "isFixedGasLimit": false
    }
  ],
  "receipts": [
    {
      "status": "0x1",
      "cumulativeGasUsed": "0xba53",
      "logs": [
        {
          "address": "0xa56f2eb760131c39f2ddf4c6d4d245e3d5a1d796",
          "topics": [
            "0x238399d427b947898edb290f5ff0f9109849b1c3ba196a42e35f00c50a54b98b"
          ],
          "data": "0x0000000000000000000000000000000000000000000000000000000000009d28000000000000000000000000ba397efef3914ab025f7f5706fade61f240a9ebc",
          "blockHash": "0x8f11ecbd3f678be99405c5f70f1bcd369e95b025a0328db13296561ab48cce76",
          "blockNumber": "0x5d3a06f",
          "transactionHash": "0x6da8366479c0d18c1f09e85fb208810e08fd71945609d2b9367bf0880a8b40cd",
          "transactionIndex": "0x1",
          "logIndex": "0x0",
          "removed": false
        }
      ],
      "logsBloom": "0x00000000000000000000000000000000000000000000000000000000000000000000000000000000000000000000000000000000000000000800000000000000000000000000000000000000000000000000000000000000000000000000000000000000000000000000000000000000000000000000000000000000000000000000000000000000000000000000000000000000000000000000000000000000000000000000000000000000000000000000000000000000000002000000000000000000000000000000000000000000040000000000000000040000000000000000000000008000000000000000000000000000000080000000000000000000",
      "type": "0x2",
      "transactionHash": "0x6da8366479c0d18c1f09e85fb208810e08fd71945609d2b9367bf0880a8b40cd",
      "transactionIndex": "0x1",
      "blockHash": "0x8f11ecbd3f678be99405c5f70f1bcd369e95b025a0328db13296561ab48cce76",
      "blockNumber": "0x5d3a06f",
      "gasUsed": "0xba53",
      "effectiveGasPrice": "0x5f5e100",
      "from": "0x000ef5f21dc574226a06c76aae7060642a30eb74",
      "to": "0xa56f2eb760131c39f2ddf4c6d4d245e3d5a1d796",
      "contractAddress": null,
      "gasUsedForL1": "0x0",
      "l1BlockNumber": "0x6c2108"
    }
  ],
  "libraries": [],
  "pending": [],
  "returns": {},
  "timestamp": 1731729173,
  "chain": 421614,
  "commit": "4ab1abf"
}