{
  "transactions": [
    {
      "hash": "0xab859c18d71ce17eeee7f99abdef8f2a742db0cabfa50187bef8e45db7c28fb4",
      "transactionType": "CALL",
      "contractName": null,
      "contractAddress": "0x6fd36fd6d6f1d8a5e43b33b1881fd4ef167b6588",
      "function": "setPeer(uint32,bytes32)",
      "arguments": [
        "40232",
        "0x00000000000000000000000015906379703940bc51a5881ad1a5fc481ebc8bb1"
      ],
      "transaction": {
        "from": "0x000ef5f21dc574226a06c76aae7060642a30eb74",
        "to": "0x6fd36fd6d6f1d8a5e43b33b1881fd4ef167b6588",
        "gas": "0x9d2b",
        "value": "0x0",
        "input": "0x3400288b0000000000000000000000000000000000000000000000000000000000009d2800000000000000000000000015906379703940bc51a5881ad1a5fc481ebc8bb1",
        "nonce": "0x103",
        "chainId": "0x66eee"
      },
      "additionalContracts": [],
      "isFixedGasLimit": false
    }
  ],
  "receipts": [
    {
      "status": "0x1",
      "cumulativeGasUsed": "0x7787",
      "logs": [
        {
          "address": "0x6fd36fd6d6f1d8a5e43b33b1881fd4ef167b6588",
          "topics": [
            "0x238399d427b947898edb290f5ff0f9109849b1c3ba196a42e35f00c50a54b98b"
          ],
          "data": "0x0000000000000000000000000000000000000000000000000000000000009d2800000000000000000000000015906379703940bc51a5881ad1a5fc481ebc8bb1",
          "blockHash": "0xcfba78766e372b712e1b085e8582bc4b344b7b386eec0e09c4bb0a73a36e4217",
          "blockNumber": "0x5d77e9c",
          "transactionHash": "0xab859c18d71ce17eeee7f99abdef8f2a742db0cabfa50187bef8e45db7c28fb4",
          "transactionIndex": "0x1",
          "logIndex": "0x0",
          "removed": false
        }
      ],
      "logsBloom": "0x00000000000000000000000000000000000000000000000000004000000000000000000000000000000000000000000000000000000000000800000000000000000000000000010000000000000000000000000000000000000000000000000000000000000000000000000000000000000000000000000000000000000000000000000000000000000000000000000000000000000000000000000000000000000000000000000000000000000000000000000000000000000002000000000000000000000000000000000000000000000000000000000000040000000000000000000000000000000000000000000000000000000000800000000000000000",
      "type": "0x2",
      "transactionHash": "0xab859c18d71ce17eeee7f99abdef8f2a742db0cabfa50187bef8e45db7c28fb4",
      "transactionIndex": "0x1",
      "blockHash": "0xcfba78766e372b712e1b085e8582bc4b344b7b386eec0e09c4bb0a73a36e4217",
      "blockNumber": "0x5d77e9c",
      "gasUsed": "0x7787",
      "effectiveGasPrice": "0x5f5e100",
      "from": "0x000ef5f21dc574226a06c76aae7060642a30eb74",
      "to": "0x6fd36fd6d6f1d8a5e43b33b1881fd4ef167b6588",
      "contractAddress": null,
      "gasUsedForL1": "0x0",
      "l1BlockNumber": "0x6c3930"
    }
  ],
  "libraries": [],
  "pending": [],
  "returns": {},
  "timestamp": 1731808313,
  "chain": 421614,
  "commit": "f193f39"
}