{
  "transactions": [
    {
      "hash": "0xf17270ef735a0903527f2fc3a0420e5be153b70471dd38976c68b39a9f49944e",
      "transactionType": "CALL",
      "contractName": null,
      "contractAddress": "0x6fd36fd6d6f1d8a5e43b33b1881fd4ef167b6588",
      "function": "setPeer(uint32,bytes32)",
      "arguments": [
        "40232",
        "0x00000000000000000000000015906379703940bc51a5881ad1a5fc481ebc8bb1"
      ],
      "transaction": {
        "from": "0x000ef5f21dc574226a06c76aae7060642a30eb74",
        "to": "0x6fd36fd6d6f1d8a5e43b33b1881fd4ef167b6588",
        "gas": "0xf42d",
        "value": "0x0",
        "input": "0x3400288b0000000000000000000000000000000000000000000000000000000000009d2800000000000000000000000015906379703940bc51a5881ad1a5fc481ebc8bb1",
        "nonce": "0xc0",
        "chainId": "0x66eee"
      },
      "additionalContracts": [],
      "isFixedGasLimit": false
    }
  ],
  "receipts": [
    {
      "status": "0x1",
      "cumulativeGasUsed": "0xba53",
      "logs": [
        {
          "address": "0x6fd36fd6d6f1d8a5e43b33b1881fd4ef167b6588",
          "topics": [
            "0x238399d427b947898edb290f5ff0f9109849b1c3ba196a42e35f00c50a54b98b"
          ],
          "data": "0x0000000000000000000000000000000000000000000000000000000000009d2800000000000000000000000015906379703940bc51a5881ad1a5fc481ebc8bb1",
          "blockHash": "0xa5d0dc0cc13fed4e03f90b2070e682740ed2720b9ed9047e8c0b010ce40ef511",
          "blockNumber": "0x5d396cf",
          "transactionHash": "0xf17270ef735a0903527f2fc3a0420e5be153b70471dd38976c68b39a9f49944e",
          "transactionIndex": "0x1",
          "logIndex": "0x0",
          "removed": false
        }
      ],
      "logsBloom": "0x00000000000000000000000000000000000000000000000000004000000000000000000000000000000000000000000000000000000000000800000000000000000000000000010000000000000000000000000000000000000000000000000000000000000000000000000000000000000000000000000000000000000000000000000000000000000000000000000000000000000000000000000000000000000000000000000000000000000000000000000000000000000002000000000000000000000000000000000000000000000000000000000000040000000000000000000000000000000000000000000000000000000000800000000000000000",
      "type": "0x2",
      "transactionHash": "0xf17270ef735a0903527f2fc3a0420e5be153b70471dd38976c68b39a9f49944e",
      "transactionIndex": "0x1",
      "blockHash": "0xa5d0dc0cc13fed4e03f90b2070e682740ed2720b9ed9047e8c0b010ce40ef511",
      "blockNumber": "0x5d396cf",
      "gasUsed": "0xba53",
      "effectiveGasPrice": "0x5f5e100",
      "from": "0x000ef5f21dc574226a06c76aae7060642a30eb74",
      "to": "0x6fd36fd6d6f1d8a5e43b33b1881fd4ef167b6588",
      "contractAddress": null,
      "gasUsedForL1": "0x0",
      "l1BlockNumber": "0x6c20c9"
    }
  ],
  "libraries": [],
  "pending": [],
  "returns": {},
  "timestamp": 1731728369,
  "chain": 421614,
  "commit": "0d9edc7"
}