{
  "transactions": [
    {
      "hash": "0xa2a5fe6b93e4928258fe376f034d171576399a673924aeec5c699289e3c6b976",
      "transactionType": "CALL",
      "contractName": null,
      "contractAddress": "0x15906379703940bc51a5881ad1a5fc481ebc8bb1",
      "function": "setPeer(uint32,bytes32)",
      "arguments": [
        "40232",
        "0x00000000000000000000000064e8c6db52bc99c39d7c2deb0f9cd52848a5772b"
      ],
      "transaction": {
        "from": "0x000ef5f21dc574226a06c76aae7060642a30eb74",
        "to": "0x15906379703940bc51a5881ad1a5fc481ebc8bb1",
        "gas": "0x1107f",
        "value": "0x0",
        "input": "0x3400288b0000000000000000000000000000000000000000000000000000000000009d2800000000000000000000000064e8c6db52bc99c39d7c2deb0f9cd52848a5772b",
        "nonce": "0x9f",
        "chainId": "0xaa37dc"
      },
      "additionalContracts": [],
      "isFixedGasLimit": false
    }
  ],
  "receipts": [
    {
      "status": "0x1",
      "cumulativeGasUsed": "0x10de17",
      "logs": [
        {
          "address": "0x15906379703940bc51a5881ad1a5fc481ebc8bb1",
          "topics": [
            "0x238399d427b947898edb290f5ff0f9109849b1c3ba196a42e35f00c50a54b98b"
          ],
          "data": "0x0000000000000000000000000000000000000000000000000000000000009d2800000000000000000000000064e8c6db52bc99c39d7c2deb0f9cd52848a5772b",
          "blockHash": "0x0ed7fc4a39f7041b9123049a10b31d29c54fd4d3664af98675f24dbb3f7ef4b7",
          "blockNumber": "0x13132aa",
          "transactionHash": "0xa2a5fe6b93e4928258fe376f034d171576399a673924aeec5c699289e3c6b976",
          "transactionIndex": "0x2",
          "logIndex": "0xf",
          "removed": false
        }
      ],
      "logsBloom": "0x00000000000000000000000000000000000000000000000000000000000000000000000000000000000000000000000000000000000000000800000000000008000000000000000000000000000000000000000000000000000000000000000000000000000000000000000000000000000000000000000000000000000000000000000000000000100000000000000000000000000000000000000000000000000000000000000000000000000000000000000000000000000002000000080000000000000000000000000000000000000000000000000000040000000000000000000000000000000000000000000000000000000000000000000000000000",
      "type": "0x2",
      "transactionHash": "0xa2a5fe6b93e4928258fe376f034d171576399a673924aeec5c699289e3c6b976",
      "transactionIndex": "0x2",
      "blockHash": "0x0ed7fc4a39f7041b9123049a10b31d29c54fd4d3664af98675f24dbb3f7ef4b7",
      "blockNumber": "0x13132aa",
      "gasUsed": "0xba53",
      "effectiveGasPrice": "0xf1b95",
      "from": "0x000ef5f21dc574226a06c76aae7060642a30eb74",
      "to": "0x15906379703940bc51a5881ad1a5fc481ebc8bb1",
      "contractAddress": null,
      "l1BaseFeeScalar": "0x1db0",
      "l1BlobBaseFee": "0x1",
      "l1BlobBaseFeeScalar": "0xd2730",
      "l1Fee": "0x9172eb",
      "l1GasPrice": "0xbf60e",
      "l1GasUsed": "0x640"
    }
  ],
  "libraries": [],
  "pending": [],
  "returns": {},
  "timestamp": 1731805440,
  "chain": 11155420,
  "commit": "f193f39"
}