{
  "transactions": [
    {
      "hash": "0x8f64874bfbd4cfcefa65be105b4419801f180054fe1a589b36f20da3b5f630d5",
      "transactionType": "CALL",
      "contractName": null,
      "contractAddress": "0x15906379703940bc51a5881ad1a5fc481ebc8bb1",
      "function": "setPeer(uint32,bytes32)",
      "arguments": [
        "40231",
        "0x0000000000000000000000006fd36fd6d6f1d8a5e43b33b1881fd4ef167b6588"
      ],
      "transaction": {
        "from": "0x000ef5f21dc574226a06c76aae7060642a30eb74",
        "to": "0x15906379703940bc51a5881ad1a5fc481ebc8bb1",
        "gas": "0x95fc",
        "value": "0x0",
        "input": "0x3400288b0000000000000000000000000000000000000000000000000000000000009d270000000000000000000000006fd36fd6d6f1d8a5e43b33b1881fd4ef167b6588",
        "nonce": "0xa9",
        "chainId": "0xaa37dc"
      },
      "additionalContracts": [],
      "isFixedGasLimit": false
    }
  ],
  "receipts": [
    {
      "status": "0x1",
      "cumulativeGasUsed": "0x4f566",
      "logs": [
        {
          "address": "0x15906379703940bc51a5881ad1a5fc481ebc8bb1",
          "topics": [
            "0x238399d427b947898edb290f5ff0f9109849b1c3ba196a42e35f00c50a54b98b"
          ],
          "data": "0x0000000000000000000000000000000000000000000000000000000000009d270000000000000000000000006fd36fd6d6f1d8a5e43b33b1881fd4ef167b6588",
          "blockHash": "0xf444b1504c3f4a80536fdafd9fae335434e290af3a0a952146391f8748e34d14",
          "blockNumber": "0x13137cf",
          "transactionHash": "0x8f64874bfbd4cfcefa65be105b4419801f180054fe1a589b36f20da3b5f630d5",
          "transactionIndex": "0x3",
          "logIndex": "0x6",
          "removed": false
        }
      ],
      "logsBloom": "0x00000000000000000000000000000000000000000000000000000000000000000000000000000000000000000000000000000000000000000800000000000008000000000000000000000000000000000000000000000000000000000000000000000000000000000000000000000000000000000000000000000000000000000000000000000000100000000000000000000000000000000000000000000000000000000000000000000000000000000000000000000000000002000000080000000000000000000000000000000000000000000000000000040000000000000000000000000000000000000000000000000000000000000000000000000000",
      "type": "0x2",
      "transactionHash": "0x8f64874bfbd4cfcefa65be105b4419801f180054fe1a589b36f20da3b5f630d5",
      "transactionIndex": "0x3",
      "blockHash": "0xf444b1504c3f4a80536fdafd9fae335434e290af3a0a952146391f8748e34d14",
      "blockNumber": "0x13137cf",
      "gasUsed": "0x6c97",
      "effectiveGasPrice": "0xf6a50",
      "from": "0x000ef5f21dc574226a06c76aae7060642a30eb74",
      "to": "0x15906379703940bc51a5881ad1a5fc481ebc8bb1",
      "contractAddress": null,
      "l1BaseFeeScalar": "0x1db0",
      "l1BlobBaseFee": "0x1",
      "l1BlobBaseFeeScalar": "0xd2730",
      "l1Fee": "0xa517fb",
      "l1GasPrice": "0xd93a1",
      "l1GasUsed": "0x640"
    }
  ],
  "libraries": [],
  "pending": [],
  "returns": {},
  "timestamp": 1731808075,
  "chain": 11155420,
  "commit": "f193f39"
}