{
  "transactions": [
    {
      "hash": "0x8977a9a9197cae15e8f2f60e020cfbfb5e8637fc4e90a0a63987334cbe90aa6a",
      "transactionType": "CALL",
      "contractName": null,
      "contractAddress": "0xba397efef3914ab025f7f5706fade61f240a9ebc",
      "function": "setPeer(uint32,bytes32)",
      "arguments": [
        "40231",
        "0x000000000000000000000000a56f2eb760131c39f2ddf4c6d4d245e3d5a1d796"
      ],
      "transaction": {
        "from": "0x000ef5f21dc574226a06c76aae7060642a30eb74",
        "to": "0xba397efef3914ab025f7f5706fade61f240a9ebc",
        "gas": "0x1107f",
        "value": "0x0",
        "input": "0x3400288b0000000000000000000000000000000000000000000000000000000000009d27000000000000000000000000a56f2eb760131c39f2ddf4c6d4d245e3d5a1d796",
        "nonce": "0x1b",
        "chainId": "0xaa37dc"
      },
      "additionalContracts": [],
      "isFixedGasLimit": false
    }
  ],
  "receipts": [
    {
      "status": "0x1",
      "cumulativeGasUsed": "0x72362",
      "logs": [
        {
          "address": "0xba397efef3914ab025f7f5706fade61f240a9ebc",
          "topics": [
            "0x238399d427b947898edb290f5ff0f9109849b1c3ba196a42e35f00c50a54b98b"
          ],
          "data": "0x0000000000000000000000000000000000000000000000000000000000009d27000000000000000000000000a56f2eb760131c39f2ddf4c6d4d245e3d5a1d796",
          "blockHash": "0x7b0f78eba49c865874a8f867b3b9a6b55f932332d9f92c907b81bb77d124a54f",
          "blockNumber": "0x1309dd4",
          "transactionHash": "0x8977a9a9197cae15e8f2f60e020cfbfb5e8637fc4e90a0a63987334cbe90aa6a",
          "transactionIndex": "0x4",
          "logIndex": "0x5",
          "removed": false
        }
      ],
      "logsBloom": "0x00000000000000000000000000000000000000000000000000000000000000000000000000010000000000000000000000000000000000000800000020000000000000000000000000000000004000000000000000000000000000000000000000000000000000000000000000000000000000000000000000000000000000000000000000000000000000000000000000000000000000000000000000000000000000000000000000000000000000000000000000000000000002000000000000000000000000000000000000000000000000000000000000040000000000000000000000000000000000000000000000000000000000000000000000000000",
      "type": "0x2",
      "transactionHash": "0x8977a9a9197cae15e8f2f60e020cfbfb5e8637fc4e90a0a63987334cbe90aa6a",
      "transactionIndex": "0x4",
      "blockHash": "0x7b0f78eba49c865874a8f867b3b9a6b55f932332d9f92c907b81bb77d124a54f",
      "blockNumber": "0x1309dd4",
      "gasUsed": "0xba53",
      "effectiveGasPrice": "0x2f4",
      "from": "0x000ef5f21dc574226a06c76aae7060642a30eb74",
      "to": "0xba397efef3914ab025f7f5706fade61f240a9ebc",
      "contractAddress": null,
      "l1BaseFeeScalar": "0x1db0",
      "l1BlobBaseFee": "0x1",
      "l1BlobBaseFeeScalar": "0xd2730",
      "l1Fee": "0x9f954717",
      "l1GasPrice": "0xd1fa4fa",
      "l1GasUsed": "0x640"
    }
  ],
  "libraries": [],
  "pending": [],
  "returns": {},
  "timestamp": 1731729242,
  "chain": 11155420,
  "commit": "4ab1abf"
}