{
  "transactions": [
    {
      "hash": "0x1cc0a84cccf0295de9be3d47125ad65fa27ff75dce512b6686c7c03ebadf0724",
      "transactionType": "CREATE",
      "contractName": "OmniSwapHub",
      "contractAddress": "0xa40560912f0c8824bb0c9cec803aeee9ac19a4a8",
      "function": null,
      "arguments": [
        "0x000ef5F21dC574226A06C76AAE7060642A30eB74"
      ],
      "transaction": {
        "from": "0x000ef5f21dc574226a06c76aae7060642a30eb74",
        "gas": "0xc80e5",
        "value": "0x0",
        "input": "0x60803460b857601f610ac038819003918201601f19168301916001600160401b0383118484101760bc5780849260209460405283398101031260b857516001600160a01b0381169081900360b857801560a5575f80546001600160a01b031981168317825560405192916001600160a01b03909116907f8be0079c531659141344cd1fd0a4f28419497f9722a3daafe3b4186f6b6457e09080a36109ef90816100d18239f35b631e4fbdf760e01b5f525f60045260245ffd5b5f80fd5b634e487b7160e01b5f52604160045260245ffdfe60806040526004361015610011575f80fd5b5f3560e01c80632161b35b146100745780636196dfc11461006f578063715018a61461006a5780638da5cb5b14610065578063d4b94d2b146100605763f2fde38b1461005b575f80fd5b61041f565b6103e2565b6103bb565b610364565b610308565b60803660031901126102b2576100886102b6565b6100906102cc565b6100986102e2565b6370a0823160e01b608090815233608452606435936001600160a01b031690602090602481845afa801561024b57845f9161027d575b6100d991101561051f565b6040516323b872dd60e01b815233600482015230602482015260448101859052926020846064815f865af190811561024b5761020f9560c09561015b93610250575b5061016961013761013261012d610743565b61075f565b61085f565b604080513360208201526001600160a01b0390951690850152929384906060820190565b03601f1981018552846104e0565b6101a361019761019761018a8863ffffffff165f52600160205260405f2090565b546001600160a01b031690565b6001600160a01b031690565b6101ba6101ae61058f565b63ffffffff9097168752565b60208601528060408601526060850152608084015260a08301526101dc6105af565b838301526101e86105a0565b3481525f602082015260405180958194829363c7c7f5b360e01b8452339160048501610694565b039134905af1801561024b5761022157005b6102429060c03d60c011610244575b61023a81836104e0565b8101906105fc565b005b503d610230565b610514565b6102719060203d602011610276575b61026981836104e0565b810190610577565b61011b565b503d61025f565b50506020843d6020116102aa575b6102a38261029b6100d9946104b8565b608001610502565b91506100ce565b3d915061028b565b5f80fd5b600435906001600160a01b03821682036102b257565b602435906001600160a01b03821682036102b257565b6044359063ffffffff821682036102b257565b6004359063ffffffff821682036102b257565b346102b25760403660031901126102b2576103216102f5565b63ffffffff61032e6102cc565b91610337610921565b165f90815260016020526040902080546001600160a01b0319166001600160a01b03909216919091179055005b346102b2575f3660031901126102b25761037c610921565b5f80546001600160a01b0319811682556001600160a01b03167f8be0079c531659141344cd1fd0a4f28419497f9722a3daafe3b4186f6b6457e08280a3005b346102b2575f3660031901126102b2575f546040516001600160a01b039091168152602090f35b346102b25760203660031901126102b25763ffffffff6104006102f5565b165f526001602052602060018060a01b0360405f205416604051908152f35b346102b25760203660031901126102b2576104386102b6565b610440610921565b6001600160a01b03168015610491575f80546001600160a01b03198116831782556001600160a01b0316907f8be0079c531659141344cd1fd0a4f28419497f9722a3daafe3b4186f6b6457e09080a3005b631e4fbdf760e01b5f525f60045260245ffd5b634e487b7160e01b5f52604160045260245ffd5b601f80199101166080016080811067ffffffffffffffff8211176104db57604052565b6104a4565b90601f8019910116810190811067ffffffffffffffff8211176104db57604052565b602090607f1901126102b25760805190565b6040513d5f823e3d90fd5b1561052657565b60405162461bcd60e51b815260206004820152602360248201527f496e73756666696369656e742042616c616e6365206f6620496e70757420546f60448201526235b2b760e91b6064820152608490fd5b908160209103126102b2575180151581036102b25790565b6040519061059e60e0836104e0565b565b6040519061059e6040836104e0565b604051906105be6020836104e0565b5f8252565b91908260409103126102b2576040516040810181811067ffffffffffffffff8211176104db576040526020808294805184520151910152565b919082810360c081126102b2576080136102b257604051906060820182811067ffffffffffffffff8211176104db5760405283518252602084015167ffffffffffffffff811681036102b25782608091602061066d95015261066183604088016105c3565b604082015294016105c3565b90565b805180835260209291819084018484015e5f828201840152601f01601f1916010190565b60609061073361071e61059e959796946080845263ffffffff8151166080850152602081015160a0850152604081015160c08501528481015160e085015260c06107096106f2608084015160e0610100890152610160880190610670565b60a0840151878203607f1901610120890152610670565b910151848203607f1901610140860152610670565b96602083019060208091805184520151910152565b6001600160a01b03909216910152565b604051600360f01b60208201526002815261066d6022826104e0565b600361ffff61076d8361095b565b160361085357604051610c3560861b6020820152601081526107906030826104e0565b600361ffff61079e8461095b565b160361083457805161ffff811161081d5761ffff60019116019161ffff83116108185761080a61066d9260046107de9560405196879560208701906109a7565b600160f81b80825260f09290921b6001600160f01b0319166001820152600381019190915201906109a7565b03601f1981018352826104e0565b610947565b6306dfcc6560e41b5f52601060045260245260445ffd5b61ffff6108408361095b565b633a51740d60e01b5f521660045260245ffd5b61084061ffff9161095b565b600361ffff61086d8361095b565b1603610853576040515f602082015261249f60861b602280830191909152642386f26fc160901b603283015281526108a66042826104e0565b600361ffff6108b48461095b565b160361083457805161ffff811161081d5761ffff60019116019161ffff83116108185761080a61066d9260046108f49560405196879560208701906109a7565b600160f81b815260f09190911b6001600160f01b0319166001820152600360f81b600382015201906109a7565b5f546001600160a01b0316330361093457565b63118cdaa760e01b5f523360045260245ffd5b634e487b7160e01b5f52601160045260245ffd5b600281511061096b576002015190565b60405162461bcd60e51b8152602060048201526014602482015273746f55696e7431365f6f75744f66426f756e647360601b6044820152606490fd5b805191908290602001825e015f81529056fea26469706673582212209018284c2c51550edaadd08b78c9e905635c55c2448a6861cd26a393832956e664736f6c634300081a0033000000000000000000000000000ef5f21dc574226a06c76aae7060642a30eb74",
        "nonce": "0xaa",
        "chainId": "0xaa37dc"
      },
      "additionalContracts": [],
      "isFixedGasLimit": false
    },
    {
      "hash": "0x8cafa5d8d74a80eb21496529ac0b8fcdc3bf9207569cf67ef361d6e493b3feac",
      "transactionType": "CALL",
      "contractName": "OmniSwapHub",
      "contractAddress": "0xa40560912f0c8824bb0c9cec803aeee9ac19a4a8",
      "function": "setSwapper(uint32,address)",
      "arguments": [
        "40231",
        "0xe8fA696FC058826f001c9B35627b548D94F85BbA"
      ],
      "transaction": {
        "from": "0x000ef5f21dc574226a06c76aae7060642a30eb74",
        "to": "0xa40560912f0c8824bb0c9cec803aeee9ac19a4a8",
        "gas": "0xf99d",
        "value": "0x0",
        "input": "0x6196dfc10000000000000000000000000000000000000000000000000000000000009d27000000000000000000000000e8fa696fc058826f001c9b35627b548d94f85bba",
        "nonce": "0xab",
        "chainId": "0xaa37dc"
      },
      "additionalContracts": [],
      "isFixedGasLimit": false
    },
    {
      "hash": "0x49f592a8104492472dfd49c29b557d490672c81993364b176b95eee73cf452a9",
      "transactionType": "CALL",
      "contractName": null,
      "contractAddress": "0x15906379703940bc51a5881ad1a5fc481ebc8bb1",
      "function": "approve(address,uint256)",
      "arguments": [
        "0xa40560912F0c8824BB0C9cec803aEEE9aC19A4a8",
        "100000000000000"
      ],
      "transaction": {
        "from": "0x000ef5f21dc574226a06c76aae7060642a30eb74",
        "to": "0x15906379703940bc51a5881ad1a5fc481ebc8bb1",
        "gas": "0xfa57",
        "value": "0x0",
        "input": "0x095ea7b3000000000000000000000000a40560912f0c8824bb0c9cec803aeee9ac19a4a800000000000000000000000000000000000000000000000000005af3107a4000",
        "nonce": "0xac",
        "chainId": "0xaa37dc"
      },
      "additionalContracts": [],
      "isFixedGasLimit": false
    },
    {
      "hash": "0xf219c4d83a8018e71805adf8f35e57f3939d9f09e9bd735573d09eee43396089",
      "transactionType": "CALL",
      "contractName": "OmniSwapHub",
      "contractAddress": "0xa40560912f0c8824bb0c9cec803aeee9ac19a4a8",
      "function": "swapTokenOn(address,address,uint32,uint256)",
      "arguments": [
        "0x15906379703940bc51a5881Ad1a5fc481Ebc8bB1",
        "0xa56F2Eb760131C39f2ddF4c6D4d245E3d5a1d796",
        "40231",
        "100000000000000"
      ],
      "transaction": {
        "from": "0x000ef5f21dc574226a06c76aae7060642a30eb74",
        "to": "0xa40560912f0c8824bb0c9cec803aeee9ac19a4a8",
        "gas": "0x58432",
        "value": "0x470de4df820000",
        "input": "0x2161b35b00000000000000000000000015906379703940bc51a5881ad1a5fc481ebc8bb1000000000000000000000000a56f2eb760131c39f2ddf4c6d4d245e3d5a1d7960000000000000000000000000000000000000000000000000000000000009d2700000000000000000000000000000000000000000000000000005af3107a4000",
        "nonce": "0xad",
        "chainId": "0xaa37dc"
      },
      "additionalContracts": [],
      "isFixedGasLimit": false
    }
  ],
  "receipts": [
    {
      "status": "0x1",
      "cumulativeGasUsed": "0xc98d7",
      "logs": [
        {
          "address": "0xa40560912f0c8824bb0c9cec803aeee9ac19a4a8",
          "topics": [
            "0x8be0079c531659141344cd1fd0a4f28419497f9722a3daafe3b4186f6b6457e0",
            "0x0000000000000000000000000000000000000000000000000000000000000000",
            "0x000000000000000000000000000ef5f21dc574226a06c76aae7060642a30eb74"
          ],
          "data": "0x",
          "blockHash": "0x22707b523827b955d9c7067e6b7ce5ec58e7550fed56f92d9a1e744a337a2382",
          "blockNumber": "0x1313805",
          "transactionHash": "0x1cc0a84cccf0295de9be3d47125ad65fa27ff75dce512b6686c7c03ebadf0724",
          "transactionIndex": "0x3",
          "logIndex": "0x3",
          "removed": false
        }
      ],
      "logsBloom": "0x00000000000000000000000000000000004000000000000000800000000000000000000000020000000000000000000000000000000000000000000000000000000000000000000000000000000000000001000000000000000000000000000000000000020000000000000400000800000000000000000000000000000000400000000000000000000000000000000000000000000000000000000000000000000000000000000000000000000000000000000000000000000000000000000000000000000080000000000000000000000000000000000000000000040020000000000000000000000000000000000000000000000000000000008000000000",
      "type": "0x2",
      "transactionHash": "0x1cc0a84cccf0295de9be3d47125ad65fa27ff75dce512b6686c7c03ebadf0724",
      "transactionIndex": "0x3",
      "blockHash": "0x22707b523827b955d9c7067e6b7ce5ec58e7550fed56f92d9a1e744a337a2382",
      "blockNumber": "0x1313805",
      "gasUsed": "0x99e3a",
      "effectiveGasPrice": "0xf6a51",
      "from": "0x000ef5f21dc574226a06c76aae7060642a30eb74",
      "to": null,
      "contractAddress": "0xa40560912f0c8824bb0c9cec803aeee9ac19a4a8",
      "l1BaseFeeScalar": "0x1db0",
      "l1BlobBaseFee": "0x1",
      "l1BlobBaseFeeScalar": "0xd2730",
      "l1Fee": "0x90220b4",
      "l1GasPrice": "0xaf667",
      "l1GasUsed": "0x6c1f"
    },
    {
      "status": "0x1",
      "cumulativeGasUsed": "0xd4d8f",
      "logs": [],
      "logsBloom": "0x00000000000000000000000000000000000000000000000000000000000000000000000000000000000000000000000000000000000000000000000000000000000000000000000000000000000000000000000000000000000000000000000000000000000000000000000000000000000000000000000000000000000000000000000000000000000000000000000000000000000000000000000000000000000000000000000000000000000000000000000000000000000000000000000000000000000000000000000000000000000000000000000000000000000000000000000000000000000000000000000000000000000000000000000000000000",
      "type": "0x2",
      "transactionHash": "0x8cafa5d8d74a80eb21496529ac0b8fcdc3bf9207569cf67ef361d6e493b3feac",
      "transactionIndex": "0x4",
      "blockHash": "0x22707b523827b955d9c7067e6b7ce5ec58e7550fed56f92d9a1e744a337a2382",
      "blockNumber": "0x1313805",
      "gasUsed": "0xb4b8",
      "effectiveGasPrice": "0xf6a51",
      "from": "0x000ef5f21dc574226a06c76aae7060642a30eb74",
      "to": "0xa40560912f0c8824bb0c9cec803aeee9ac19a4a8",
      "contractAddress": null,
      "l1BaseFeeScalar": "0x1db0",
      "l1BlobBaseFee": "0x1",
      "l1BlobBaseFeeScalar": "0xd2730",
      "l1Fee": "0x854e30",
      "l1GasPrice": "0xaf667",
      "l1GasUsed": "0x640"
    },
    {
      "status": "0x1",
      "cumulativeGasUsed": "0xe02ce",
      "logs": [
        {
          "address": "0x15906379703940bc51a5881ad1a5fc481ebc8bb1",
          "topics": [
            "0x8c5be1e5ebec7d5bd14f71427d1e84f3dd0314c0f7b2291e5b200ac8c7c3b925",
            "0x000000000000000000000000000ef5f21dc574226a06c76aae7060642a30eb74",
            "0x000000000000000000000000a40560912f0c8824bb0c9cec803aeee9ac19a4a8"
          ],
          "data": "0x00000000000000000000000000000000000000000000000000005af3107a4000",
          "blockHash": "0x22707b523827b955d9c7067e6b7ce5ec58e7550fed56f92d9a1e744a337a2382",
          "blockNumber": "0x1313805",
          "transactionHash": "0x49f592a8104492472dfd49c29b557d490672c81993364b176b95eee73cf452a9",
          "transactionIndex": "0x5",
          "logIndex": "0x4",
          "removed": false
        }
      ],
      "logsBloom": "0x00000000000000000000000000000000000000000000000000000000000000000000400000020000000000000000000000000000000000000000000000200008000000000000000000000000000000000000000000000000000000000000000000000000000000000000000400000000000000000000000000000000000000000000000000000000100000000000000000000000000000000000000000000000020000000000000000000000000000000000000002000000000002000000080000000000000000000000000000000000000000000000000000000000040000000010000000000000000000000000000000000000000000000000000000000000",
      "type": "0x2",
      "transactionHash": "0x49f592a8104492472dfd49c29b557d490672c81993364b176b95eee73cf452a9",
      "transactionIndex": "0x5",
      "blockHash": "0x22707b523827b955d9c7067e6b7ce5ec58e7550fed56f92d9a1e744a337a2382",
      "blockNumber": "0x1313805",
      "gasUsed": "0xb53f",
      "effectiveGasPrice": "0xf6a51",
      "from": "0x000ef5f21dc574226a06c76aae7060642a30eb74",
      "to": "0x15906379703940bc51a5881ad1a5fc481ebc8bb1",
      "contractAddress": null,
      "l1BaseFeeScalar": "0x1db0",
      "l1BlobBaseFee": "0x1",
      "l1BlobBaseFeeScalar": "0xd2730",
      "l1Fee": "0x854e30",
      "l1GasPrice": "0xaf667",
      "l1GasUsed": "0x640"
    },
    {
      "status": "0x1",
      "cumulativeGasUsed": "0x120136",
      "logs": [
        {
          "address": "0x15906379703940bc51a5881ad1a5fc481ebc8bb1",
          "topics": [
            "0xddf252ad1be2c89b69c2b068fc378daa952ba7f163c4a11628f55a4df523b3ef",
            "0x000000000000000000000000000ef5f21dc574226a06c76aae7060642a30eb74",
            "0x000000000000000000000000a40560912f0c8824bb0c9cec803aeee9ac19a4a8"
          ],
          "data": "0x00000000000000000000000000000000000000000000000000005af3107a4000",
          "blockHash": "0x22707b523827b955d9c7067e6b7ce5ec58e7550fed56f92d9a1e744a337a2382",
          "blockNumber": "0x1313805",
          "transactionHash": "0xf219c4d83a8018e71805adf8f35e57f3939d9f09e9bd735573d09eee43396089",
          "transactionIndex": "0x6",
          "logIndex": "0x5",
          "removed": false
        },
        {
          "address": "0x15906379703940bc51a5881ad1a5fc481ebc8bb1",
          "topics": [
            "0xddf252ad1be2c89b69c2b068fc378daa952ba7f163c4a11628f55a4df523b3ef",
            "0x000000000000000000000000a40560912f0c8824bb0c9cec803aeee9ac19a4a8",
            "0x0000000000000000000000000000000000000000000000000000000000000000"
          ],
          "data": "0x00000000000000000000000000000000000000000000000000005af3107a4000",
          "blockHash": "0x22707b523827b955d9c7067e6b7ce5ec58e7550fed56f92d9a1e744a337a2382",
          "blockNumber": "0x1313805",
          "transactionHash": "0xf219c4d83a8018e71805adf8f35e57f3939d9f09e9bd735573d09eee43396089",
          "transactionIndex": "0x6",
          "logIndex": "0x6",
          "removed": false
        },
        {
          "address": "0xb31d2cb502e25b30c651842c7c3293c51fe6d16f",
          "topics": [
            "0x61ed099e74a97a1d7f8bb0952a88ca8b7b8ebd00c126ea04671f92a81213318a"
          ],
          "data": "0x000000000000000000000000dc0d68899405673b932f0db7f8a49191491a5bcb000000000000000000000000000000000000000000000000002b49191d957439",
          "blockHash": "0x22707b523827b955d9c7067e6b7ce5ec58e7550fed56f92d9a1e744a337a2382",
          "blockNumber": "0x1313805",
          "transactionHash": "0xf219c4d83a8018e71805adf8f35e57f3939d9f09e9bd735573d09eee43396089",
          "transactionIndex": "0x6",
          "logIndex": "0x7",
          "removed": false
        },
        {
          "address": "0xb31d2cb502e25b30c651842c7c3293c51fe6d16f",
          "topics": [
            "0x07ea52d82345d6e838192107d8fd7123d9c2ec8e916cd0aad13fd2b60db24644"
          ],
          "data": "0x000000000000000000000000000000000000000000000000000000000000006000000000000000000000000000000000000000000000000000000000000000a000000000000000000000000000000000000000000000000000000000000000c00000000000000000000000000000000000000000000000000000000000000001000000000000000000000000d680ec569f269aa7015f7979b4f1239b5aa4582c0000000000000000000000000000000000000000000000000000000000000000000000000000000000000000000000000000000000000000000000000000000100000000000000000000000000000000000000000000000000000de8165df902",
          "blockHash": "0x22707b523827b955d9c7067e6b7ce5ec58e7550fed56f92d9a1e744a337a2382",
          "blockNumber": "0x1313805",
          "transactionHash": "0xf219c4d83a8018e71805adf8f35e57f3939d9f09e9bd735573d09eee43396089",
          "transactionIndex": "0x6",
          "logIndex": "0x8",
          "removed": false
        },
        {
          "address": "0x6edce65403992e310a62460808c4b910d972f10f",
          "topics": [
            "0x1ab700d4ced0c005b164c0f789fd09fcbb0156d4c2041b8a3bfbcd961cd1567f"
          ],
          "data": "0x00000000000000000000000000000000000000000000000000000000000000600000000000000000000000000000000000000000000000000000000000000180000000000000000000000000b31d2cb502e25b30c651842c7c3293c51fe6d16f00000000000000000000000000000000000000000000000000000000000000f901000000000000000200009d2800000000000000000000000015906379703940bc51a5881ad1a5fc481ebc8bb100009d270000000000000000000000006fd36fd6d6f1d8a5e43b33b1881fd4ef167b6588ed3d0427289aa41b094642951fbfe8d72f51a14ff1313bf1161307ec14b85b4b000000000000000000000000e8fa696fc058826f001c9b35627b548d94f85bba0000000000000064000000000000000000000000a40560912f0c8824bb0c9cec803aeee9ac19a4a8000000000000000000000000000ef5f21dc574226a06c76aae7060642a30eb74000000000000000000000000a56f2eb760131c39f2ddf4c6d4d245e3d5a1d79600000000000000000000000000000000000000000000000000000000000000000000000000003c00030100110100000000000000000000000000030d40010023030000000000000000000000000000000927c00000000000000000002386f26fc1000000000000",
          "blockHash": "0x22707b523827b955d9c7067e6b7ce5ec58e7550fed56f92d9a1e744a337a2382",
          "blockNumber": "0x1313805",
          "transactionHash": "0xf219c4d83a8018e71805adf8f35e57f3939d9f09e9bd735573d09eee43396089",
          "transactionIndex": "0x6",
          "logIndex": "0x9",
          "removed": false
        },
        {
          "address": "0x15906379703940bc51a5881ad1a5fc481ebc8bb1",
          "topics": [
            "0x85496b760a4b7f8d66384b9df21b381f5d1b1e79f229a47aaf4c232edc2fe59a",
            "0xed3d0427289aa41b094642951fbfe8d72f51a14ff1313bf1161307ec14b85b4b",
            "0x000000000000000000000000a40560912f0c8824bb0c9cec803aeee9ac19a4a8"
          ],
          "data": "0x0000000000000000000000000000000000000000000000000000000000009d2700000000000000000000000000000000000000000000000000005af3107a400000000000000000000000000000000000000000000000000000005af3107a4000",
          "blockHash": "0x22707b523827b955d9c7067e6b7ce5ec58e7550fed56f92d9a1e744a337a2382",
          "blockNumber": "0x1313805",
          "transactionHash": "0xf219c4d83a8018e71805adf8f35e57f3939d9f09e9bd735573d09eee43396089",
          "transactionIndex": "0x6",
          "logIndex": "0xa",
          "removed": false
        }
      ],
      "logsBloom": "0x00000100000000000000000000000000000000000000000000000000000000000000400000024000200000000000000000000000000000000000000000000008000002000000000000000008000000000000000000000000000000000000000000000000020000008200000400000800000000000000000000000010000000000000000100000020100000080000000000000000000000000000000000000000000000008000000000100000000000000000000002401004000442000000080000000002000000000000100080000000000000000000000000000000040020000000040000000000000000000000002000000000008000000000000000000000",
      "type": "0x2",
      "transactionHash": "0xf219c4d83a8018e71805adf8f35e57f3939d9f09e9bd735573d09eee43396089",
      "transactionIndex": "0x6",
      "blockHash": "0x22707b523827b955d9c7067e6b7ce5ec58e7550fed56f92d9a1e744a337a2382",
      "blockNumber": "0x1313805",
      "gasUsed": "0x3fe68",
      "effectiveGasPrice": "0xf6a51",
      "from": "0x000ef5f21dc574226a06c76aae7060642a30eb74",
      "to": "0xa40560912f0c8824bb0c9cec803aeee9ac19a4a8",
      "contractAddress": null,
      "l1BaseFeeScalar": "0x1db0",
      "l1BlobBaseFee": "0x1",
      "l1BlobBaseFeeScalar": "0xd2730",
      "l1Fee": "0xa1ca68",
      "l1GasPrice": "0xaf667",
      "l1GasUsed": "0x795"
    }
  ],
  "libraries": [],
  "pending": [],
  "returns": {},
  "timestamp": 1731808185,
  "chain": 11155420,
  "commit": "f193f39"
}