{
  "transactions": [
    {
      "hash": "0x76bfe5d91b543758ba6243114894280379cd6c3dd32acbeb8224132e2527eddf",
      "transactionType": "CALL",
      "contractName": null,
      "contractAddress": "0x64e8c6db52bc99c39d7c2deb0f9cd52848a5772b",
      "function": "setPeer(uint32,bytes32)",
      "arguments": [
        "40232",
        "0x00000000000000000000000015906379703940bc51a5881ad1a5fc481ebc8bb1"
      ],
      "transaction": {
        "from": "0x000ef5f21dc574226a06c76aae7060642a30eb74",
        "to": "0x64e8c6db52bc99c39d7c2deb0f9cd52848a5772b",
        "gas": "0x1107f",
        "value": "0x0",
        "input": "0x3400288b0000000000000000000000000000000000000000000000000000000000009d2800000000000000000000000015906379703940bc51a5881ad1a5fc481ebc8bb1",
        "nonce": "0x21",
        "chainId": "0x515"
      },
      "additionalContracts": [],
      "isFixedGasLimit": false
    }
  ],
  "receipts": [
    {
      "status": "0x1",
      "cumulativeGasUsed": "0x816bc",
      "logs": [
        {
          "address": "0x64e8c6db52bc99c39d7c2deb0f9cd52848a5772b",
          "topics": [
            "0x238399d427b947898edb290f5ff0f9109849b1c3ba196a42e35f00c50a54b98b"
          ],
          "data": "0x0000000000000000000000000000000000000000000000000000000000009d2800000000000000000000000015906379703940bc51a5881ad1a5fc481ebc8bb1",
          "blockHash": "0xbfd4891a37d1781554e1a5b95dbd4f1eb22e159364cfa9465cf2f23813d5e3d5",
          "blockNumber": "0x4b99c4",
          "transactionHash": "0x76bfe5d91b543758ba6243114894280379cd6c3dd32acbeb8224132e2527eddf",
          "transactionIndex": "0xe",
          "logIndex": "0xa",
          "removed": false
        }
      ],
      "logsBloom": "0x00000000000000000000000000000000000000000000000000000000000000000000000000000000000000000000000000000000000000000800000000000000000000000000000000000000000000000000000000000000000000000000000000000000000000000000000000000000000020000000000000000000000000000000000000000000000000000000000000000000000000000000000000008000000000000000000000000000004000000000000000000000000002000000000000000000000000000000000000000000000000000000000000040000000000000000000000000000000000000000000000000000000000000000000000000000",
      "type": "0x2",
      "transactionHash": "0x76bfe5d91b543758ba6243114894280379cd6c3dd32acbeb8224132e2527eddf",
      "transactionIndex": "0xe",
      "blockHash": "0xbfd4891a37d1781554e1a5b95dbd4f1eb22e159364cfa9465cf2f23813d5e3d5",
      "blockNumber": "0x4b99c4",
      "gasUsed": "0xba53",
      "effectiveGasPrice": "0xf433f",
      "from": "0x000ef5f21dc574226a06c76aae7060642a30eb74",
      "to": "0x64e8c6db52bc99c39d7c2deb0f9cd52848a5772b",
      "contractAddress": null,
      "l1BaseFeeScalar": "0x7d0",
      "l1BlobBaseFee": "0x1",
      "l1BlobBaseFeeScalar": "0xdbba0",
      "l1Fee": "0x5015f3",
      "l1GasPrice": "0x1906c0",
      "l1GasUsed": "0x640"
    }
  ],
  "libraries": [],
  "pending": [],
  "returns": {},
  "timestamp": 1731806998,
  "chain": 1301,
  "commit": "f193f39"
}