{
  "transactions": [
    {
      "hash": "0x336953d248fcef8821d2f2a4f99d93686c7c8b66ce76b7fac91409c46141e5d3",
      "transactionType": "CALL",
      "contractName": null,
      "contractAddress": "0xa14c098c96201b303c6fc4f7aa78f4e422e05d54",
      "function": "setPeer(uint32,bytes32)",
      "arguments": [
        "40232",
        "0x000000000000000000000000ba397efef3914ab025f7f5706fade61f240a9ebc"
      ],
      "transaction": {
        "from": "0x000ef5f21dc574226a06c76aae7060642a30eb74",
        "to": "0xa14c098c96201b303c6fc4f7aa78f4e422e05d54",
        "gas": "0x1107f",
        "value": "0x0",
        "input": "0x3400288b0000000000000000000000000000000000000000000000000000000000009d28000000000000000000000000ba397efef3914ab025f7f5706fade61f240a9ebc",
        "nonce": "0x20",
        "chainId": "0x515"
      },
      "additionalContracts": [],
      "isFixedGasLimit": false
    }
  ],
  "receipts": [
    {
      "status": "0x1",
      "cumulativeGasUsed": "0xb42df",
      "logs": [
        {
          "address": "0xa14c098c96201b303c6fc4f7aa78f4e422e05d54",
          "topics": [
            "0x238399d427b947898edb290f5ff0f9109849b1c3ba196a42e35f00c50a54b98b"
          ],
          "data": "0x0000000000000000000000000000000000000000000000000000000000009d28000000000000000000000000ba397efef3914ab025f7f5706fade61f240a9ebc",
          "blockHash": "0xfd4337c2e2b7ff0ed61a8192eba2957d3abecb02f0ddaec02c8346cd76c0643d",
          "blockNumber": "0x4b9310",
          "transactionHash": "0x336953d248fcef8821d2f2a4f99d93686c7c8b66ce76b7fac91409c46141e5d3",
          "transactionIndex": "0x17",
          "logIndex": "0x14",
          "removed": false
        }
      ],
      "logsBloom": "0x00000000000000000000000000000000000000000000000000000000000000000000000000000080000000000000000000000000000000000800000000000000000000000080000000000000000000000000000000000000000000000000000000000000000000000000000000000000000000000000000000000000000000000000000000000000000000000000000000000000000000000000000000000000000000000000000000000000000000000000000000000000000002000000000000000000020000000000000000000000000000000000000000040000000000000000000000000000000000000000000000000000000000000000000000000000",
      "type": "0x2",
      "transactionHash": "0x336953d248fcef8821d2f2a4f99d93686c7c8b66ce76b7fac91409c46141e5d3",
      "transactionIndex": "0x17",
      "blockHash": "0xfd4337c2e2b7ff0ed61a8192eba2957d3abecb02f0ddaec02c8346cd76c0643d",
      "blockNumber": "0x4b9310",
      "gasUsed": "0xba53",
      "effectiveGasPrice": "0xf433e",
      "from": "0x000ef5f21dc574226a06c76aae7060642a30eb74",
      "to": "0xa14c098c96201b303c6fc4f7aa78f4e422e05d54",
      "contractAddress": null,
      "l1BaseFeeScalar": "0x7d0",
      "l1BlobBaseFee": "0x1",
      "l1BlobBaseFeeScalar": "0xdbba0",
      "l1Fee": "0x298c8d",
      "l1GasPrice": "0xcfbd0",
      "l1GasUsed": "0x640"
    }
  ],
  "libraries": [],
  "pending": [],
  "returns": {},
  "timestamp": 1731805278,
  "chain": 1301,
  "commit": "f193f39"
}