{
  "transactions": [
    {
      "hash": "0x3d67903d027f67efc8cf5ddb1da24f76cde3b1147463969e1807f73dd3ad8658",
      "transactionType": "CALL",
      "contractName": null,
      "contractAddress": "0x15906379703940bc51a5881ad1a5fc481ebc8bb1",
      "function": "approve(address,uint256)",
      "arguments": [
        "0x69801C169647Ad125707Dd40096D4EDC20Bb521a",
        "115792089237316195423570985008687907853269984665640564039457584007913129639935"
      ],
      "transaction": {
        "from": "0x000ef5f21dc574226a06c76aae7060642a30eb74",
        "to": "0x15906379703940bc51a5881ad1a5fc481ebc8bb1",
        "gas": "0x90b8",
        "value": "0x0",
        "input": "0x095ea7b300000000000000000000000069801c169647ad125707dd40096d4edc20bb521affffffffffffffffffffffffffffffffffffffffffffffffffffffffffffffff",
        "nonce": "0x87",
        "chainId": "0xaa37dc"
      },
      "additionalContracts": [],
      "isFixedGasLimit": false
    },
    {
      "hash": "0x5990817f59b2822108caa13b5ec789126a84c5f8afc8e9e97fa53b9cb9e09958",
      "transactionType": "CALL",
      "contractName": null,
      "contractAddress": "0xba397efef3914ab025f7f5706fade61f240a9ebc",
      "function": "approve(address,uint256)",
      "arguments": [
        "0x69801C169647Ad125707Dd40096D4EDC20Bb521a",
        "115792089237316195423570985008687907853269984665640564039457584007913129639935"
      ],
      "transaction": {
        "from": "0x000ef5f21dc574226a06c76aae7060642a30eb74",
        "to": "0xba397efef3914ab025f7f5706fade61f240a9ebc",
        "gas": "0x90b8",
        "value": "0x0",
        "input": "0x095ea7b300000000000000000000000069801c169647ad125707dd40096d4edc20bb521affffffffffffffffffffffffffffffffffffffffffffffffffffffffffffffff",
        "nonce": "0x88",
        "chainId": "0xaa37dc"
      },
      "additionalContracts": [],
      "isFixedGasLimit": false
    },
    {
      "hash": "0x4cbf456d29708bb0710bd1c8dc52bc8e8b497b8d62386ce8ec8ef9c5cec8fb31",
      "transactionType": "CALL",
      "contractName": null,
      "contractAddress": "0x69801c169647ad125707dd40096d4edc20bb521a",
      "function": "swap((address,address,uint24,int24,address),(bool,int256,uint160),(bool,bool),bytes)",
      "arguments": [
        "(0x15906379703940bc51a5881Ad1a5fc481Ebc8bB1, 0xbA397eFEF3914aB025F7f5706fADE61f240A9EbC, 3000, 120, 0xBbd735DB53cE42a7423B0861864dAD6253588040)",
        "(true, -100000000000000000, 4295128740)",
        "(false, false)",
        "0x000000000000000000000000000ef5f21dc574226a06c76aae7060642a30eb74"
      ],
      "transaction": {
        "from": "0x000ef5f21dc574226a06c76aae7060642a30eb74",
        "to": "0x69801c169647ad125707dd40096d4edc20bb521a",
        "gas": "0x2fcb5",
        "value": "0x0",
        "input": "0x2229d0b400000000000000000000000015906379703940bc51a5881ad1a5fc481ebc8bb1000000000000000000000000ba397efef3914ab025f7f5706fade61f240a9ebc0000000000000000000000000000000000000000000000000000000000000bb80000000000000000000000000000000000000000000000000000000000000078000000000000000000000000bbd735db53ce42a7423b0861864dad62535880400000000000000000000000000000000000000000000000000000000000000001fffffffffffffffffffffffffffffffffffffffffffffffffe9cba87a276000000000000000000000000000000000000000000000000000000000001000276a40000000000000000000000000000000000000000000000000000000000000000000000000000000000000000000000000000000000000000000000000000000000000000000000000000000000000000000000000000000000000000000001600000000000000000000000000000000000000000000000000000000000000020000000000000000000000000000ef5f21dc574226a06c76aae7060642a30eb74",
        "nonce": "0x89",
        "chainId": "0xaa37dc"
      },
      "additionalContracts": [],
      "isFixedGasLimit": false
    }
  ],
  "receipts": [
    {
      "status": "0x1",
      "cumulativeGasUsed": "0x294d09",
      "logs": [
        {
          "address": "0x15906379703940bc51a5881ad1a5fc481ebc8bb1",
          "topics": [
            "0x8c5be1e5ebec7d5bd14f71427d1e84f3dd0314c0f7b2291e5b200ac8c7c3b925",
            "0x000000000000000000000000000ef5f21dc574226a06c76aae7060642a30eb74",
            "0x00000000000000000000000069801c169647ad125707dd40096d4edc20bb521a"
          ],
          "data": "0xffffffffffffffffffffffffffffffffffffffffffffffffffffffffffffffff",
          "blockHash": "0x8db0b7113bc4509bb71fa52503d58d0a0fffc7628cfe289a11f047f0c166d3d9",
          "blockNumber": "0x131263e",
          "transactionHash": "0x3d67903d027f67efc8cf5ddb1da24f76cde3b1147463969e1807f73dd3ad8658",
          "transactionIndex": "0x4",
          "logIndex": "0x17",
          "removed": false
        }
      ],
      "logsBloom": "0x00000000000000000000000000000000000000000000000000000000000000000000000000020000000800000000000000000000000000000000000000200008000000000000000000000000000000000000000000000000000000000000000000000000000000000000000400000000000000000000000000000000000000000000000000000000100000000000000000000000000000000000000000000000020000000000000000000000000000000000000000000000000000000000080010000000000000000100000000000000000000000000000000000000040000000010000000000000000000000000000000000000000000000000000000000000",
      "type": "0x2",
      "transactionHash": "0x3d67903d027f67efc8cf5ddb1da24f76cde3b1147463969e1807f73dd3ad8658",
      "transactionIndex": "0x4",
      "blockHash": "0x8db0b7113bc4509bb71fa52503d58d0a0fffc7628cfe289a11f047f0c166d3d9",
      "blockNumber": "0x131263e",
      "gasUsed": "0x68c7",
      "effectiveGasPrice": "0xf6a4d",
      "from": "0x000ef5f21dc574226a06c76aae7060642a30eb74",
      "to": "0x15906379703940bc51a5881ad1a5fc481ebc8bb1",
      "contractAddress": null,
      "l1BaseFeeScalar": "0x1db0",
      "l1BlobBaseFee": "0x1",
      "l1BlobBaseFeeScalar": "0xd2730",
      "l1Fee": "0x87f235",
      "l1GasPrice": "0xb2dff",
      "l1GasUsed": "0x640"
    },
    {
      "status": "0x1",
      "cumulativeGasUsed": "0x4bdf79",
      "logs": [
        {
          "address": "0xba397efef3914ab025f7f5706fade61f240a9ebc",
          "topics": [
            "0x8c5be1e5ebec7d5bd14f71427d1e84f3dd0314c0f7b2291e5b200ac8c7c3b925",
            "0x000000000000000000000000000ef5f21dc574226a06c76aae7060642a30eb74",
            "0x00000000000000000000000069801c169647ad125707dd40096d4edc20bb521a"
          ],
          "data": "0xffffffffffffffffffffffffffffffffffffffffffffffffffffffffffffffff",
          "blockHash": "0x8db0b7113bc4509bb71fa52503d58d0a0fffc7628cfe289a11f047f0c166d3d9",
          "blockNumber": "0x131263e",
          "transactionHash": "0x5990817f59b2822108caa13b5ec789126a84c5f8afc8e9e97fa53b9cb9e09958",
          "transactionIndex": "0x7",
          "logIndex": "0x2d",
          "removed": false
        }
      ],
      "logsBloom": "0x00000000000000000000000000000000000000000000000000000000000000000000000000030000000800000000000000000000000000000000000020200000000000000000000000000000004000000000000000000000000000000000000000000000000000000000000400000000000000000000000000000000000000000000000000000000000000000000000000000000000000000000000000000000020000000000000000000000000000000000000000000000000000000000000010000000000000000100000000000000000000000000000000000000040000000010000000000000000000000000000000000000000000000000000000000000",
      "type": "0x2",
      "transactionHash": "0x5990817f59b2822108caa13b5ec789126a84c5f8afc8e9e97fa53b9cb9e09958",
      "transactionIndex": "0x7",
      "blockHash": "0x8db0b7113bc4509bb71fa52503d58d0a0fffc7628cfe289a11f047f0c166d3d9",
      "blockNumber": "0x131263e",
      "gasUsed": "0x68c7",
      "effectiveGasPrice": "0xf6a4d",
      "from": "0x000ef5f21dc574226a06c76aae7060642a30eb74",
      "to": "0xba397efef3914ab025f7f5706fade61f240a9ebc",
      "contractAddress": null,
      "l1BaseFeeScalar": "0x1db0",
      "l1BlobBaseFee": "0x1",
      "l1BlobBaseFeeScalar": "0xd2730",
      "l1Fee": "0x87f235",
      "l1GasPrice": "0xb2dff",
      "l1GasUsed": "0x640"
    },
    {
      "status": "0x1",
      "cumulativeGasUsed": "0x2b608",
      "logs": [
        {
          "address": "0x536527976e98e253b424a3655e695d144e343341",
          "topics": [
            "0x40e9cecb9f5f1f1c5b9c97dec2917b7ee92e57ba5563708daca94dd84ad7112f",
            "0x90aa240e15ba025cea34cc5e314e0bbe1bd10d88fe6615ee1eb7b1b0cf89faca",
            "0x00000000000000000000000069801c169647ad125707dd40096d4edc20bb521a"
          ],
          "data": "0xfffffffffffffffffffffffffffffffffffffffffffffffffe9cba87a2760000000000000000000000000000000000000000000000000000016232d04e193c0b0000000000000000000000000000000000000000ffff58bb5a407f5538a149ce000000000000000000000000000000000000000060ef6d38d44fd0dde2400000ffffffffffffffffffffffffffffffffffffffffffffffffffffffffffffffff0000000000000000000000000000000000000000000000000000000000000bb8",
          "blockHash": "0xf3780c0cb5bfdd457e1e62f78d75e9e86037ddb2ab2366f8df522ad11530a38c",
          "blockNumber": "0x131263f",
          "transactionHash": "0x4cbf456d29708bb0710bd1c8dc52bc8e8b497b8d62386ce8ec8ef9c5cec8fb31",
          "transactionIndex": "0x1",
          "logIndex": "0x0",
          "removed": false
        },
        {
          "address": "0x15906379703940bc51a5881ad1a5fc481ebc8bb1",
          "topics": [
            "0xddf252ad1be2c89b69c2b068fc378daa952ba7f163c4a11628f55a4df523b3ef",
            "0x000000000000000000000000000ef5f21dc574226a06c76aae7060642a30eb74",
            "0x000000000000000000000000536527976e98e253b424a3655e695d144e343341"
          ],
          "data": "0x000000000000000000000000000000000000000000000000016345785d8a0000",
          "blockHash": "0xf3780c0cb5bfdd457e1e62f78d75e9e86037ddb2ab2366f8df522ad11530a38c",
          "blockNumber": "0x131263f",
          "transactionHash": "0x4cbf456d29708bb0710bd1c8dc52bc8e8b497b8d62386ce8ec8ef9c5cec8fb31",
          "transactionIndex": "0x1",
          "logIndex": "0x1",
          "removed": false
        },
        {
          "address": "0xba397efef3914ab025f7f5706fade61f240a9ebc",
          "topics": [
            "0xddf252ad1be2c89b69c2b068fc378daa952ba7f163c4a11628f55a4df523b3ef",
            "0x000000000000000000000000536527976e98e253b424a3655e695d144e343341",
            "0x000000000000000000000000000ef5f21dc574226a06c76aae7060642a30eb74"
          ],
          "data": "0x000000000000000000000000000000000000000000000000016232d04e193c0b",
          "blockHash": "0xf3780c0cb5bfdd457e1e62f78d75e9e86037ddb2ab2366f8df522ad11530a38c",
          "blockNumber": "0x131263f",
          "transactionHash": "0x4cbf456d29708bb0710bd1c8dc52bc8e8b497b8d62386ce8ec8ef9c5cec8fb31",
          "transactionIndex": "0x1",
          "logIndex": "0x2",
          "removed": false
        }
      ],
      "logsBloom": "0x0000000000400000000000000000000000000000000000000000000000000000000000000003000000080000000000000000000004000000000000002000000800000000000000000000020800400000000000000000002000000000000000000000000000000000000000040000000004000000000000000000001000000000000002000000000010000000000000000000000000000000004000000000000000000000000000000000400000000000000000000000000000000000000008001000000200020000010000000000000000000000000000000000000004000000000000000000000000c000000000000000000000008000000000000000000000",
      "type": "0x2",
      "transactionHash": "0x4cbf456d29708bb0710bd1c8dc52bc8e8b497b8d62386ce8ec8ef9c5cec8fb31",
      "transactionIndex": "0x1",
      "blockHash": "0xf3780c0cb5bfdd457e1e62f78d75e9e86037ddb2ab2366f8df522ad11530a38c",
      "blockNumber": "0x131263f",
      "gasUsed": "0x20ae1",
      "effectiveGasPrice": "0xf6a4d",
      "from": "0x000ef5f21dc574226a06c76aae7060642a30eb74",
      "to": "0x69801c169647ad125707dd40096d4edc20bb521a",
      "contractAddress": null,
      "l1BaseFeeScalar": "0x1db0",
      "l1BlobBaseFee": "0x1",
      "l1BlobBaseFeeScalar": "0xd2730",
      "l1Fee": "0x1023ec3",
      "l1GasPrice": "0xb2dff",
      "l1GasUsed": "0xbdf"
    }
  ],
  "libraries": [],
  "pending": [],
  "returns": {},
  "timestamp": 1731799083,
  "chain": 11155420,
  "commit": "f193f39"
}