{
  "transactions": [
    {
      "hash": "0xe6f8763f17896846ac9468655d02bfeacc05b7a5f014cbd385292cb7a05a3150",
      "transactionType": "CALL",
      "contractName": null,
      "contractAddress": "0x9d8f28b52504112a8c89df9095ca3bf346286787",
      "function": "swap((address,address,uint24,int24,address),(bool,int256,uint160),(bool,bool),bytes)",
      "arguments": [
        "(0x15906379703940bc51a5881Ad1a5fc481Ebc8bB1, 0xbA397eFEF3914aB025F7f5706fADE61f240A9EbC, 3000, 120, 0x9DEB19C2942Bf08678c9C82B188b9b4F82e3C040)",
        "(true, -100000000000000000, 4295128740)",
        "(false, false)",
        "0x"
      ],
      "transaction": {
        "from": "0x000ef5f21dc574226a06c76aae7060642a30eb74",
        "to": "0x9d8f28b52504112a8c89df9095ca3bf346286787",
        "gas": "0x7e0cd",
        "value": "0x0",
        "input": "0x2229d0b400000000000000000000000015906379703940bc51a5881ad1a5fc481ebc8bb1000000000000000000000000ba397efef3914ab025f7f5706fade61f240a9ebc0000000000000000000000000000000000000000000000000000000000000bb800000000000000000000000000000000000000000000000000000000000000780000000000000000000000009deb19c2942bf08678c9c82b188b9b4f82e3c0400000000000000000000000000000000000000000000000000000000000000001fffffffffffffffffffffffffffffffffffffffffffffffffe9cba87a276000000000000000000000000000000000000000000000000000000000001000276a40000000000000000000000000000000000000000000000000000000000000000000000000000000000000000000000000000000000000000000000000000000000000000000000000000000000000000000000000000000000000000000001600000000000000000000000000000000000000000000000000000000000000000",
        "nonce": "0x2e",
        "chainId": "0xaa37dc"
      },
      "additionalContracts": [],
      "isFixedGasLimit": false
    }
  ],
  "receipts": [
    {
      "status": "0x1",
      "cumulativeGasUsed": "0x253886",
      "logs": [
        {
          "address": "0x74bb711d032b5df4f63dc04ea4422807d768ac08",
          "topics": [
            "0x40e9cecb9f5f1f1c5b9c97dec2917b7ee92e57ba5563708daca94dd84ad7112f",
            "0x8e887fac8ee2b396c8e3e9b0476d94e951b1250d60e5e02aeb01d84b194d6e9b",
            "0x0000000000000000000000009d8f28b52504112a8c89df9095ca3bf346286787"
          ],
          "data": "0xffffffffffffffffffffffffffffffffffffffffffffffffff299056b35cb08300000000000000000000000000000000000000000000000000d48396878c14b100000000000000000000000000000000000000000000000000000001000276a40000000000000000000000000000000000000000000000000000000000000000fffffffffffffffffffffffffffffffffffffffffffffffffffffffffff276180000000000000000000000000000000000000000000000000000000000000bb8",
          "blockHash": "0x15b391b497a4e1b87bbb61b29f1fc8ffcc8ecee8e0c1c2e6dd9f88b06a3db9bf",
          "blockNumber": "0x130fc34",
          "transactionHash": "0xe6f8763f17896846ac9468655d02bfeacc05b7a5f014cbd385292cb7a05a3150",
          "transactionIndex": "0x5",
          "logIndex": "0x1c",
          "removed": false
        },
        {
          "address": "0x15906379703940bc51a5881ad1a5fc481ebc8bb1",
          "topics": [
            "0xddf252ad1be2c89b69c2b068fc378daa952ba7f163c4a11628f55a4df523b3ef",
            "0x000000000000000000000000000ef5f21dc574226a06c76aae7060642a30eb74",
            "0x00000000000000000000000074bb711d032b5df4f63dc04ea4422807d768ac08"
          ],
          "data": "0x00000000000000000000000000000000000000000000000000d66fa94ca34f7d",
          "blockHash": "0x15b391b497a4e1b87bbb61b29f1fc8ffcc8ecee8e0c1c2e6dd9f88b06a3db9bf",
          "blockNumber": "0x130fc34",
          "transactionHash": "0xe6f8763f17896846ac9468655d02bfeacc05b7a5f014cbd385292cb7a05a3150",
          "transactionIndex": "0x5",
          "logIndex": "0x1d",
          "removed": false
        },
        {
          "address": "0xba397efef3914ab025f7f5706fade61f240a9ebc",
          "topics": [
            "0xddf252ad1be2c89b69c2b068fc378daa952ba7f163c4a11628f55a4df523b3ef",
            "0x00000000000000000000000074bb711d032b5df4f63dc04ea4422807d768ac08",
            "0x000000000000000000000000000ef5f21dc574226a06c76aae7060642a30eb74"
          ],
          "data": "0x00000000000000000000000000000000000000000000000000d48396878c14b1",
          "blockHash": "0x15b391b497a4e1b87bbb61b29f1fc8ffcc8ecee8e0c1c2e6dd9f88b06a3db9bf",
          "blockNumber": "0x130fc34",
          "transactionHash": "0xe6f8763f17896846ac9468655d02bfeacc05b7a5f014cbd385292cb7a05a3150",
          "transactionIndex": "0x5",
          "logIndex": "0x1e",
          "removed": false
        }
      ],
      "logsBloom": "0x0002000000000000000000000000000000000000000000020000000000400000000000000003000000000000000000000000000044000000000000002000000800000000000000000000000800c000000000000000000020000000000000200000800000000000000400000400000000000000000000000000000010000000000000000000000000100000000000000000000000000000000001000000000000000000000000000000000000000000000000000000000000000000000000080000000082000000000000000000000000000000000000000000000000040000000000000000000000004000000000010000000000000000000000000800000000",
      "type": "0x2",
      "transactionHash": "0xe6f8763f17896846ac9468655d02bfeacc05b7a5f014cbd385292cb7a05a3150",
      "transactionIndex": "0x5",
      "blockHash": "0x15b391b497a4e1b87bbb61b29f1fc8ffcc8ecee8e0c1c2e6dd9f88b06a3db9bf",
      "blockNumber": "0x130fc34",
      "gasUsed": "0x56303",
      "effectiveGasPrice": "0xf6a4f",
      "from": "0x000ef5f21dc574226a06c76aae7060642a30eb74",
      "to": "0x9d8f28b52504112a8c89df9095ca3bf346286787",
      "contractAddress": null,
      "l1BaseFeeScalar": "0x1db0",
      "l1BlobBaseFee": "0x1",
      "l1BlobBaseFeeScalar": "0xd2730",
      "l1Fee": "0x1617d5b49",
      "l1GasPrice": "0x113235c7",
      "l1GasUsed": "0xa90"
    }
  ],
  "libraries": [],
  "pending": [],
  "returns": {},
  "timestamp": 1731777556,
  "chain": 11155420,
  "commit": "93d8b93"
}