{
  "transactions": [
    {
      "hash": "0x485dcdba4267c8c9a7792eb0106bf69f730244c6fbf5e835cfe9347cfb70ebbe",
      "transactionType": "CALL",
      "contractName": null,
      "contractAddress": "0x15906379703940bc51a5881ad1a5fc481ebc8bb1",
      "function": "approve(address,uint256)",
      "arguments": [
        "0x69801C169647Ad125707Dd40096D4EDC20Bb521a",
        "115792089237316195423570985008687907853269984665640564039457584007913129639935"
      ],
      "transaction": {
        "from": "0x000ef5f21dc574226a06c76aae7060642a30eb74",
        "to": "0x15906379703940bc51a5881ad1a5fc481ebc8bb1",
        "gas": "0x90b8",
        "value": "0x0",
        "input": "0x095ea7b300000000000000000000000069801c169647ad125707dd40096d4edc20bb521affffffffffffffffffffffffffffffffffffffffffffffffffffffffffffffff",
        "nonce": "0x4f",
        "chainId": "0xaa37dc"
      },
      "additionalContracts": [],
      "isFixedGasLimit": false
    },
    {
      "hash": "0x6eb79373133e4b125e8692bb1c6ba7254c5b60de4a8a4feca0e84732574e4984",
      "transactionType": "CALL",
      "contractName": null,
      "contractAddress": "0xba397efef3914ab025f7f5706fade61f240a9ebc",
      "function": "approve(address,uint256)",
      "arguments": [
        "0x69801C169647Ad125707Dd40096D4EDC20Bb521a",
        "115792089237316195423570985008687907853269984665640564039457584007913129639935"
      ],
      "transaction": {
        "from": "0x000ef5f21dc574226a06c76aae7060642a30eb74",
        "to": "0xba397efef3914ab025f7f5706fade61f240a9ebc",
        "gas": "0x90b8",
        "value": "0x0",
        "input": "0x095ea7b300000000000000000000000069801c169647ad125707dd40096d4edc20bb521affffffffffffffffffffffffffffffffffffffffffffffffffffffffffffffff",
        "nonce": "0x50",
        "chainId": "0xaa37dc"
      },
      "additionalContracts": [],
      "isFixedGasLimit": false
    },
    {
      "hash": "0x43bbe6f8d981c4642fa1ea8f2c5771007a799f90301fc6e7e09021b8ee721693",
      "transactionType": "CALL",
      "contractName": null,
      "contractAddress": "0x15906379703940bc51a5881ad1a5fc481ebc8bb1",
      "function": "approve(address,uint256)",
      "arguments": [
        "0x440D0bEe5706987be528Fec5C4cA5947E38161d2",
        "115792089237316195423570985008687907853269984665640564039457584007913129639935"
      ],
      "transaction": {
        "from": "0x000ef5f21dc574226a06c76aae7060642a30eb74",
        "to": "0x15906379703940bc51a5881ad1a5fc481ebc8bb1",
        "gas": "0x90b8",
        "value": "0x0",
        "input": "0x095ea7b3000000000000000000000000440d0bee5706987be528fec5c4ca5947e38161d2ffffffffffffffffffffffffffffffffffffffffffffffffffffffffffffffff",
        "nonce": "0x51",
        "chainId": "0xaa37dc"
      },
      "additionalContracts": [],
      "isFixedGasLimit": false
    },
    {
      "hash": "0x5790ba3d151f967332d9e1d30af4c545da8b95f69374c547c275596a91e76bfc",
      "transactionType": "CALL",
      "contractName": null,
      "contractAddress": "0xba397efef3914ab025f7f5706fade61f240a9ebc",
      "function": "approve(address,uint256)",
      "arguments": [
        "0x440D0bEe5706987be528Fec5C4cA5947E38161d2",
        "115792089237316195423570985008687907853269984665640564039457584007913129639935"
      ],
      "transaction": {
        "from": "0x000ef5f21dc574226a06c76aae7060642a30eb74",
        "to": "0xba397efef3914ab025f7f5706fade61f240a9ebc",
        "gas": "0x90b8",
        "value": "0x0",
        "input": "0x095ea7b3000000000000000000000000440d0bee5706987be528fec5c4ca5947e38161d2ffffffffffffffffffffffffffffffffffffffffffffffffffffffffffffffff",
        "nonce": "0x52",
        "chainId": "0xaa37dc"
      },
      "additionalContracts": [],
      "isFixedGasLimit": false
    },
    {
      "hash": "0x44f1f1ffaaed4de644c6370c720d0f3b02f3c922a1697e3234f457845340febe",
      "transactionType": "CALL",
      "contractName": null,
      "contractAddress": "0x15906379703940bc51a5881ad1a5fc481ebc8bb1",
      "function": "approve(address,uint256)",
      "arguments": [
        "0xBbd735DB53cE42a7423B0861864dAD6253588040",
        "115792089237316195423570985008687907853269984665640564039457584007913129639935"
      ],
      "transaction": {
        "from": "0x000ef5f21dc574226a06c76aae7060642a30eb74",
        "to": "0x15906379703940bc51a5881ad1a5fc481ebc8bb1",
        "gas": "0x90b8",
        "value": "0x0",
        "input": "0x095ea7b3000000000000000000000000bbd735db53ce42a7423b0861864dad6253588040ffffffffffffffffffffffffffffffffffffffffffffffffffffffffffffffff",
        "nonce": "0x53",
        "chainId": "0xaa37dc"
      },
      "additionalContracts": [],
      "isFixedGasLimit": false
    },
    {
      "hash": "0x7eb32be1ef7b4071039a75853b60e861c3cc61d71547199c0f5a4e6378cd341e",
      "transactionType": "CALL",
      "contractName": null,
      "contractAddress": "0xba397efef3914ab025f7f5706fade61f240a9ebc",
      "function": "approve(address,uint256)",
      "arguments": [
        "0xBbd735DB53cE42a7423B0861864dAD6253588040",
        "115792089237316195423570985008687907853269984665640564039457584007913129639935"
      ],
      "transaction": {
        "from": "0x000ef5f21dc574226a06c76aae7060642a30eb74",
        "to": "0xba397efef3914ab025f7f5706fade61f240a9ebc",
        "gas": "0x90b8",
        "value": "0x0",
        "input": "0x095ea7b3000000000000000000000000bbd735db53ce42a7423b0861864dad6253588040ffffffffffffffffffffffffffffffffffffffffffffffffffffffffffffffff",
        "nonce": "0x54",
        "chainId": "0xaa37dc"
      },
      "additionalContracts": [],
      "isFixedGasLimit": false
    },
    {
      "hash": "0xbe4608ab11a140edf234e281aebdce81e22ce57aac9b9660dbd0a97f3974b6dd",
      "transactionType": "CALL",
      "contractName": null,
      "contractAddress": "0x440d0bee5706987be528fec5c4ca5947e38161d2",
      "function": "modifyLiquidity((address,address,uint24,int24,address),(int24,int24,int256,bytes32),bytes)",
      "arguments": [
        "(0x15906379703940bc51a5881Ad1a5fc481Ebc8bB1, 0xbA397eFEF3914aB025F7f5706fADE61f240A9EbC, 3000, 120, 0xBbd735DB53cE42a7423B0861864dAD6253588040)",
        "(-120, 120, 10000000000000000000000000000, 0x0000000000000000000000000000000000000000000000000000000000000000)",
        "0x"
      ],
      "transaction": {
        "from": "0x000ef5f21dc574226a06c76aae7060642a30eb74",
        "to": "0x440d0bee5706987be528fec5c4ca5947e38161d2",
        "gas": "0x3a3ad",
        "value": "0x0",
        "input": "0x5a6bcfda00000000000000000000000015906379703940bc51a5881ad1a5fc481ebc8bb1000000000000000000000000ba397efef3914ab025f7f5706fade61f240a9ebc0000000000000000000000000000000000000000000000000000000000000bb80000000000000000000000000000000000000000000000000000000000000078000000000000000000000000bbd735db53ce42a7423b0861864dad6253588040ffffffffffffffffffffffffffffffffffffffffffffffffffffffffffffff8800000000000000000000000000000000000000000000000000000000000000780000000000000000000000000000000000000000204fce5e3e25026110000000000000000000000000000000000000000000000000000000000000000000000000000000000000000000000000000000000000000000000000000000000001400000000000000000000000000000000000000000000000000000000000000000",
        "nonce": "0x55",
        "chainId": "0xaa37dc"
      },
      "additionalContracts": [],
      "isFixedGasLimit": false
    }
  ],
  "receipts": [
    {
      "status": "0x1",
      "cumulativeGasUsed": "0x310fa7",
      "logs": [
        {
          "address": "0x15906379703940bc51a5881ad1a5fc481ebc8bb1",
          "topics": [
            "0x8c5be1e5ebec7d5bd14f71427d1e84f3dd0314c0f7b2291e5b200ac8c7c3b925",
            "0x000000000000000000000000000ef5f21dc574226a06c76aae7060642a30eb74",
            "0x00000000000000000000000069801c169647ad125707dd40096d4edc20bb521a"
          ],
          "data": "0xffffffffffffffffffffffffffffffffffffffffffffffffffffffffffffffff",
          "blockHash": "0x17206e364208d20f6f31651cb1cf059242ad2b5b0ffc1b7c5ca94a10b09f03be",
          "blockNumber": "0x130ffb3",
          "transactionHash": "0x485dcdba4267c8c9a7792eb0106bf69f730244c6fbf5e835cfe9347cfb70ebbe",
          "transactionIndex": "0x5",
          "logIndex": "0x27",
          "removed": false
        }
      ],
      "logsBloom": "0x00000000000000000000000000000000000000000000000000000000000000000000000000020000000800000000000000000000000000000000000000200008000000000000000000000000000000000000000000000000000000000000000000000000000000000000000400000000000000000000000000000000000000000000000000000000100000000000000000000000000000000000000000000000020000000000000000000000000000000000000000000000000000000000080010000000000000000100000000000000000000000000000000000000040000000010000000000000000000000000000000000000000000000000000000000000",
      "type": "0x2",
      "transactionHash": "0x485dcdba4267c8c9a7792eb0106bf69f730244c6fbf5e835cfe9347cfb70ebbe",
      "transactionIndex": "0x5",
      "blockHash": "0x17206e364208d20f6f31651cb1cf059242ad2b5b0ffc1b7c5ca94a10b09f03be",
      "blockNumber": "0x130ffb3",
      "gasUsed": "0x68c7",
      "effectiveGasPrice": "0xf6a4d",
      "from": "0x000ef5f21dc574226a06c76aae7060642a30eb74",
      "to": "0x15906379703940bc51a5881ad1a5fc481ebc8bb1",
      "contractAddress": null,
      "l1BaseFeeScalar": "0x1db0",
      "l1BlobBaseFee": "0x1",
      "l1BlobBaseFeeScalar": "0xd2730",
      "l1Fee": "0x1ccf5cb0f",
      "l1GasPrice": "0x25e86c76",
      "l1GasUsed": "0x640"
    },
    {
      "status": "0x1",
      "cumulativeGasUsed": "0x31786e",
      "logs": [
        {
          "address": "0xba397efef3914ab025f7f5706fade61f240a9ebc",
          "topics": [
            "0x8c5be1e5ebec7d5bd14f71427d1e84f3dd0314c0f7b2291e5b200ac8c7c3b925",
            "0x000000000000000000000000000ef5f21dc574226a06c76aae7060642a30eb74",
            "0x00000000000000000000000069801c169647ad125707dd40096d4edc20bb521a"
          ],
          "data": "0xffffffffffffffffffffffffffffffffffffffffffffffffffffffffffffffff",
          "blockHash": "0x17206e364208d20f6f31651cb1cf059242ad2b5b0ffc1b7c5ca94a10b09f03be",
          "blockNumber": "0x130ffb3",
          "transactionHash": "0x6eb79373133e4b125e8692bb1c6ba7254c5b60de4a8a4feca0e84732574e4984",
          "transactionIndex": "0x6",
          "logIndex": "0x28",
          "removed": false
        }
      ],
      "logsBloom": "0x00000000000000000000000000000000000000000000000000000000000000000000000000030000000800000000000000000000000000000000000020200000000000000000000000000000004000000000000000000000000000000000000000000000000000000000000400000000000000000000000000000000000000000000000000000000000000000000000000000000000000000000000000000000020000000000000000000000000000000000000000000000000000000000000010000000000000000100000000000000000000000000000000000000040000000010000000000000000000000000000000000000000000000000000000000000",
      "type": "0x2",
      "transactionHash": "0x6eb79373133e4b125e8692bb1c6ba7254c5b60de4a8a4feca0e84732574e4984",
      "transactionIndex": "0x6",
      "blockHash": "0x17206e364208d20f6f31651cb1cf059242ad2b5b0ffc1b7c5ca94a10b09f03be",
      "blockNumber": "0x130ffb3",
      "gasUsed": "0x68c7",
      "effectiveGasPrice": "0xf6a4d",
      "from": "0x000ef5f21dc574226a06c76aae7060642a30eb74",
      "to": "0xba397efef3914ab025f7f5706fade61f240a9ebc",
      "contractAddress": null,
      "l1BaseFeeScalar": "0x1db0",
      "l1BlobBaseFee": "0x1",
      "l1BlobBaseFeeScalar": "0xd2730",
      "l1Fee": "0x1ccf5cb0f",
      "l1GasPrice": "0x25e86c76",
      "l1GasUsed": "0x640"
    },
    {
      "status": "0x1",
      "cumulativeGasUsed": "0x31e135",
      "logs": [
        {
          "address": "0x15906379703940bc51a5881ad1a5fc481ebc8bb1",
          "topics": [
            "0x8c5be1e5ebec7d5bd14f71427d1e84f3dd0314c0f7b2291e5b200ac8c7c3b925",
            "0x000000000000000000000000000ef5f21dc574226a06c76aae7060642a30eb74",
            "0x000000000000000000000000440d0bee5706987be528fec5c4ca5947e38161d2"
          ],
          "data": "0xffffffffffffffffffffffffffffffffffffffffffffffffffffffffffffffff",
          "blockHash": "0x17206e364208d20f6f31651cb1cf059242ad2b5b0ffc1b7c5ca94a10b09f03be",
          "blockNumber": "0x130ffb3",
          "transactionHash": "0x43bbe6f8d981c4642fa1ea8f2c5771007a799f90301fc6e7e09021b8ee721693",
          "transactionIndex": "0x7",
          "logIndex": "0x29",
          "removed": false
        }
      ],
      "logsBloom": "0x00000000000000000000000000000000000000000000000000000000000000000000000000020000000000000000000000000000000000000000000000200008000000000000000000000000000000000008000000000000000000000000000000000000000000000000000400000000000000000000000000000000000002000000000000000000100000000000000000000000000000000000000000000000020000000000000000000000000000000000000000000000000000000000080000000000000000000000000000000000800000000000000000000000040000000010000000000000000000000000000000000000000000000000000000000000",
      "type": "0x2",
      "transactionHash": "0x43bbe6f8d981c4642fa1ea8f2c5771007a799f90301fc6e7e09021b8ee721693",
      "transactionIndex": "0x7",
      "blockHash": "0x17206e364208d20f6f31651cb1cf059242ad2b5b0ffc1b7c5ca94a10b09f03be",
      "blockNumber": "0x130ffb3",
      "gasUsed": "0x68c7",
      "effectiveGasPrice": "0xf6a4d",
      "from": "0x000ef5f21dc574226a06c76aae7060642a30eb74",
      "to": "0x15906379703940bc51a5881ad1a5fc481ebc8bb1",
      "contractAddress": null,
      "l1BaseFeeScalar": "0x1db0",
      "l1BlobBaseFee": "0x1",
      "l1BlobBaseFeeScalar": "0xd2730",
      "l1Fee": "0x1ccf5cb0f",
      "l1GasPrice": "0x25e86c76",
      "l1GasUsed": "0x640"
    },
    {
      "status": "0x1",
      "cumulativeGasUsed": "0x3249fc",
      "logs": [
        {
          "address": "0xba397efef3914ab025f7f5706fade61f240a9ebc",
          "topics": [
            "0x8c5be1e5ebec7d5bd14f71427d1e84f3dd0314c0f7b2291e5b200ac8c7c3b925",
            "0x000000000000000000000000000ef5f21dc574226a06c76aae7060642a30eb74",
            "0x000000000000000000000000440d0bee5706987be528fec5c4ca5947e38161d2"
          ],
          "data": "0xffffffffffffffffffffffffffffffffffffffffffffffffffffffffffffffff",
          "blockHash": "0x17206e364208d20f6f31651cb1cf059242ad2b5b0ffc1b7c5ca94a10b09f03be",
          "blockNumber": "0x130ffb3",
          "transactionHash": "0x5790ba3d151f967332d9e1d30af4c545da8b95f69374c547c275596a91e76bfc",
          "transactionIndex": "0x8",
          "logIndex": "0x2a",
          "removed": false
        }
      ],
      "logsBloom": "0x00000000000000000000000000000000000000000000000000000000000000000000000000030000000000000000000000000000000000000000000020200000000000000000000000000000004000000008000000000000000000000000000000000000000000000000000400000000000000000000000000000000000002000000000000000000000000000000000000000000000000000000000000000000020000000000000000000000000000000000000000000000000000000000000000000000000000000000000000000000800000000000000000000000040000000010000000000000000000000000000000000000000000000000000000000000",
      "type": "0x2",
      "transactionHash": "0x5790ba3d151f967332d9e1d30af4c545da8b95f69374c547c275596a91e76bfc",
      "transactionIndex": "0x8",
      "blockHash": "0x17206e364208d20f6f31651cb1cf059242ad2b5b0ffc1b7c5ca94a10b09f03be",
      "blockNumber": "0x130ffb3",
      "gasUsed": "0x68c7",
      "effectiveGasPrice": "0xf6a4d",
      "from": "0x000ef5f21dc574226a06c76aae7060642a30eb74",
      "to": "0xba397efef3914ab025f7f5706fade61f240a9ebc",
      "contractAddress": null,
      "l1BaseFeeScalar": "0x1db0",
      "l1BlobBaseFee": "0x1",
      "l1BlobBaseFeeScalar": "0xd2730",
      "l1Fee": "0x1ccf5cb0f",
      "l1GasPrice": "0x25e86c76",
      "l1GasUsed": "0x640"
    },
    {
      "status": "0x1",
      "cumulativeGasUsed": "0x32b2c3",
      "logs": [
        {
          "address": "0x15906379703940bc51a5881ad1a5fc481ebc8bb1",
          "topics": [
            "0x8c5be1e5ebec7d5bd14f71427d1e84f3dd0314c0f7b2291e5b200ac8c7c3b925",
            "0x000000000000000000000000000ef5f21dc574226a06c76aae7060642a30eb74",
            "0x000000000000000000000000bbd735db53ce42a7423b0861864dad6253588040"
          ],
          "data": "0xffffffffffffffffffffffffffffffffffffffffffffffffffffffffffffffff",
          "blockHash": "0x17206e364208d20f6f31651cb1cf059242ad2b5b0ffc1b7c5ca94a10b09f03be",
          "blockNumber": "0x130ffb3",
          "transactionHash": "0x44f1f1ffaaed4de644c6370c720d0f3b02f3c922a1697e3234f457845340febe",
          "transactionIndex": "0x9",
          "logIndex": "0x2b",
          "removed": false
        }
      ],
      "logsBloom": "0x00000000000000000000000000000000000000000000000000000000000000000000000000020000000000000000000000000000000000000000000000200008000000000000000000000000000000000000000000000000000000000040000000000000000000000000000400000000000000000000000000004000000000000000000000000000100000000000000000000000000000000000000000000000020000000000000000000000000000000000000000000000000000000000080000000000000000000000000000000000000000000000000000000000040000000010000000000000010000000000000000000000000000000000000000000000",
      "type": "0x2",
      "transactionHash": "0x44f1f1ffaaed4de644c6370c720d0f3b02f3c922a1697e3234f457845340febe",
      "transactionIndex": "0x9",
      "blockHash": "0x17206e364208d20f6f31651cb1cf059242ad2b5b0ffc1b7c5ca94a10b09f03be",
      "blockNumber": "0x130ffb3",
      "gasUsed": "0x68c7",
      "effectiveGasPrice": "0xf6a4d",
      "from": "0x000ef5f21dc574226a06c76aae7060642a30eb74",
      "to": "0x15906379703940bc51a5881ad1a5fc481ebc8bb1",
      "contractAddress": null,
      "l1BaseFeeScalar": "0x1db0",
      "l1BlobBaseFee": "0x1",
      "l1BlobBaseFeeScalar": "0xd2730",
      "l1Fee": "0x1ccf5cb0f",
      "l1GasPrice": "0x25e86c76",
      "l1GasUsed": "0x640"
    },
    {
      "status": "0x1",
      "cumulativeGasUsed": "0x236046",
      "logs": [
        {
          "address": "0xba397efef3914ab025f7f5706fade61f240a9ebc",
          "topics": [
            "0x8c5be1e5ebec7d5bd14f71427d1e84f3dd0314c0f7b2291e5b200ac8c7c3b925",
            "0x000000000000000000000000000ef5f21dc574226a06c76aae7060642a30eb74",
            "0x000000000000000000000000bbd735db53ce42a7423b0861864dad6253588040"
          ],
          "data": "0xffffffffffffffffffffffffffffffffffffffffffffffffffffffffffffffff",
          "blockHash": "0xd857a3569235057368ba6c235b7c1874f40ccf7be775e823c97e7e71c7dda1a5",
          "blockNumber": "0x130ffb4",
          "transactionHash": "0x7eb32be1ef7b4071039a75853b60e861c3cc61d71547199c0f5a4e6378cd341e",
          "transactionIndex": "0x5",
          "logIndex": "0x21",
          "removed": false
        }
      ],
      "logsBloom": "0x00000000000000000000000000000000000000000000000000000000000000000000000000030000000000000000000000000000000000000000000020200000000000000000000000000000004000000000000000000000000000000040000000000000000000000000000400000000000000000000000000004000000000000000000000000000000000000000000000000000000000000000000000000000020000000000000000000000000000000000000000000000000000000000000000000000000000000000000000000000000000000000000000000000040000000010000000000000010000000000000000000000000000000000000000000000",
      "type": "0x2",
      "transactionHash": "0x7eb32be1ef7b4071039a75853b60e861c3cc61d71547199c0f5a4e6378cd341e",
      "transactionIndex": "0x5",
      "blockHash": "0xd857a3569235057368ba6c235b7c1874f40ccf7be775e823c97e7e71c7dda1a5",
      "blockNumber": "0x130ffb4",
      "gasUsed": "0x68c7",
      "effectiveGasPrice": "0xf6a4d",
      "from": "0x000ef5f21dc574226a06c76aae7060642a30eb74",
      "to": "0xba397efef3914ab025f7f5706fade61f240a9ebc",
      "contractAddress": null,
      "l1BaseFeeScalar": "0x1db0",
      "l1BlobBaseFee": "0x1",
      "l1BlobBaseFeeScalar": "0xd2730",
      "l1Fee": "0x1ccf5cb0f",
      "l1GasPrice": "0x25e86c76",
      "l1GasUsed": "0x640"
    },
    {
      "status": "0x1",
      "cumulativeGasUsed": "0x2602cb",
      "logs": [
        {
          "address": "0x536527976e98e253b424a3655e695d144e343341",
          "topics": [
            "0xf208f4912782fd25c7f114ca3723a2d5dd6f3bcc3ac8db5af63baa85f711d5ec",
            "0x90aa240e15ba025cea34cc5e314e0bbe1bd10d88fe6615ee1eb7b1b0cf89faca",
            "0x000000000000000000000000440d0bee5706987be528fec5c4ca5947e38161d2"
          ],
          "data": "0xffffffffffffffffffffffffffffffffffffffffffffffffffffffffffffff8800000000000000000000000000000000000000000000000000000000000000780000000000000000000000000000000000000000204fce5e3e250261100000000000000000000000000000000000000000000000000000000000000000000000",
          "blockHash": "0xd857a3569235057368ba6c235b7c1874f40ccf7be775e823c97e7e71c7dda1a5",
          "blockNumber": "0x130ffb4",
          "transactionHash": "0xbe4608ab11a140edf234e281aebdce81e22ce57aac9b9660dbd0a97f3974b6dd",
          "transactionIndex": "0x6",
          "logIndex": "0x22",
          "removed": false
        },
        {
          "address": "0x15906379703940bc51a5881ad1a5fc481ebc8bb1",
          "topics": [
            "0xddf252ad1be2c89b69c2b068fc378daa952ba7f163c4a11628f55a4df523b3ef",
            "0x000000000000000000000000000ef5f21dc574226a06c76aae7060642a30eb74",
            "0x000000000000000000000000536527976e98e253b424a3655e695d144e343341"
          ],
          "data": "0x000000000000000000000000000000000000000000318fef49104fe79ca70262",
          "blockHash": "0xd857a3569235057368ba6c235b7c1874f40ccf7be775e823c97e7e71c7dda1a5",
          "blockNumber": "0x130ffb4",
          "transactionHash": "0xbe4608ab11a140edf234e281aebdce81e22ce57aac9b9660dbd0a97f3974b6dd",
          "transactionIndex": "0x6",
          "logIndex": "0x23",
          "removed": false
        },
        {
          "address": "0xba397efef3914ab025f7f5706fade61f240a9ebc",
          "topics": [
            "0xddf252ad1be2c89b69c2b068fc378daa952ba7f163c4a11628f55a4df523b3ef",
            "0x000000000000000000000000000ef5f21dc574226a06c76aae7060642a30eb74",
            "0x000000000000000000000000536527976e98e253b424a3655e695d144e343341"
          ],
          "data": "0x0000000000000000000000000000000000000000003165b5d7f9382313c89845",
          "blockHash": "0xd857a3569235057368ba6c235b7c1874f40ccf7be775e823c97e7e71c7dda1a5",
          "blockNumber": "0x130ffb4",
          "transactionHash": "0xbe4608ab11a140edf234e281aebdce81e22ce57aac9b9660dbd0a97f3974b6dd",
          "transactionIndex": "0x6",
          "logIndex": "0x24",
          "removed": false
        }
      ],
      "logsBloom": "0x00000000004000000000000000000000000000000000000000000000000000000000000000030000000000000000000000000000000000000000000020000008000000000000000000000208004000000008000000000000000000000000000000000000000000000000000400000000040000000000000000000010000002000000020001000000100000000000000000000000000000000040000000000000000004000000000000004000000000000000000000000000000000000000080000000002000200000000000000000000800000000000000000000000040000000000000000000000008000000000000004000000008000000000000000000000",
      "type": "0x2",
      "transactionHash": "0xbe4608ab11a140edf234e281aebdce81e22ce57aac9b9660dbd0a97f3974b6dd",
      "transactionIndex": "0x6",
      "blockHash": "0xd857a3569235057368ba6c235b7c1874f40ccf7be775e823c97e7e71c7dda1a5",
      "blockNumber": "0x130ffb4",
      "gasUsed": "0x2a285",
      "effectiveGasPrice": "0xf6a4d",
      "from": "0x000ef5f21dc574226a06c76aae7060642a30eb74",
      "to": "0x440d0bee5706987be528fec5c4ca5947e38161d2",
      "contractAddress": null,
      "l1BaseFeeScalar": "0x1db0",
      "l1BlobBaseFee": "0x1",
      "l1BlobBaseFeeScalar": "0xd2730",
      "l1Fee": "0x2ffae23d5",
      "l1GasPrice": "0x25e86c76",
      "l1GasUsed": "0xa68"
    }
  ],
  "libraries": [],
  "pending": [],
  "returns": {},
  "timestamp": 1731779348,
  "chain": 11155420,
  "commit": "93d8b93"
}