{
  "transactions": [
    {
      "hash": "0xb78104e17d34b4cb227e780143b4eb90c22e0351b68553997dcea8160f10bfb4",
      "transactionType": "CALL",
      "contractName": null,
      "contractAddress": "0x15906379703940bc51a5881ad1a5fc481ebc8bb1",
      "function": "approve(address,uint256)",
      "arguments": [
        "0x69801C169647Ad125707Dd40096D4EDC20Bb521a",
        "115792089237316195423570985008687907853269984665640564039457584007913129639935"
      ],
      "transaction": {
        "from": "0x000ef5f21dc574226a06c76aae7060642a30eb74",
        "to": "0x15906379703940bc51a5881ad1a5fc481ebc8bb1",
        "gas": "0x90b8",
        "value": "0x0",
        "input": "0x095ea7b300000000000000000000000069801c169647ad125707dd40096d4edc20bb521affffffffffffffffffffffffffffffffffffffffffffffffffffffffffffffff",
        "nonce": "0x76",
        "chainId": "0xaa37dc"
      },
      "additionalContracts": [],
      "isFixedGasLimit": false
    },
    {
      "hash": "0xd1ab8f743b66b7399a2b4d3fb826452587200c1fb83c6f877899862e5ea54201",
      "transactionType": "CALL",
      "contractName": null,
      "contractAddress": "0xba397efef3914ab025f7f5706fade61f240a9ebc",
      "function": "approve(address,uint256)",
      "arguments": [
        "0x69801C169647Ad125707Dd40096D4EDC20Bb521a",
        "115792089237316195423570985008687907853269984665640564039457584007913129639935"
      ],
      "transaction": {
        "from": "0x000ef5f21dc574226a06c76aae7060642a30eb74",
        "to": "0xba397efef3914ab025f7f5706fade61f240a9ebc",
        "gas": "0x90b8",
        "value": "0x0",
        "input": "0x095ea7b300000000000000000000000069801c169647ad125707dd40096d4edc20bb521affffffffffffffffffffffffffffffffffffffffffffffffffffffffffffffff",
        "nonce": "0x77",
        "chainId": "0xaa37dc"
      },
      "additionalContracts": [],
      "isFixedGasLimit": false
    },
    {
      "hash": "0xfb583495a282df10b60c27f7e58adda0bae3b6edfdbc9af6d3adea399402d868",
      "transactionType": "CALL",
      "contractName": null,
      "contractAddress": "0x15906379703940bc51a5881ad1a5fc481ebc8bb1",
      "function": "approve(address,uint256)",
      "arguments": [
        "0xBbd735DB53cE42a7423B0861864dAD6253588040",
        "115792089237316195423570985008687907853269984665640564039457584007913129639935"
      ],
      "transaction": {
        "from": "0x000ef5f21dc574226a06c76aae7060642a30eb74",
        "to": "0x15906379703940bc51a5881ad1a5fc481ebc8bb1",
        "gas": "0x90b8",
        "value": "0x0",
        "input": "0x095ea7b3000000000000000000000000bbd735db53ce42a7423b0861864dad6253588040ffffffffffffffffffffffffffffffffffffffffffffffffffffffffffffffff",
        "nonce": "0x78",
        "chainId": "0xaa37dc"
      },
      "additionalContracts": [],
      "isFixedGasLimit": false
    },
    {
      "hash": "0xd1e895654d016df769b0e575dce15e7c4d299d670e386c814b74b809c763a923",
      "transactionType": "CALL",
      "contractName": null,
      "contractAddress": "0xba397efef3914ab025f7f5706fade61f240a9ebc",
      "function": "approve(address,uint256)",
      "arguments": [
        "0xBbd735DB53cE42a7423B0861864dAD6253588040",
        "115792089237316195423570985008687907853269984665640564039457584007913129639935"
      ],
      "transaction": {
        "from": "0x000ef5f21dc574226a06c76aae7060642a30eb74",
        "to": "0xba397efef3914ab025f7f5706fade61f240a9ebc",
        "gas": "0x90b8",
        "value": "0x0",
        "input": "0x095ea7b3000000000000000000000000bbd735db53ce42a7423b0861864dad6253588040ffffffffffffffffffffffffffffffffffffffffffffffffffffffffffffffff",
        "nonce": "0x79",
        "chainId": "0xaa37dc"
      },
      "additionalContracts": [],
      "isFixedGasLimit": false
    },
    {
      "hash": "0x462f799466acb4acfd44237595a19a28e16f84c6bdf5d0ab766d629b7aed4ed8",
      "transactionType": "CALL",
      "contractName": null,
      "contractAddress": "0x69801c169647ad125707dd40096d4edc20bb521a",
      "function": "swap((address,address,uint24,int24,address),(bool,int256,uint160),(bool,bool),bytes)",
      "arguments": [
        "(0x15906379703940bc51a5881Ad1a5fc481Ebc8bB1, 0xbA397eFEF3914aB025F7f5706fADE61f240A9EbC, 3000, 120, 0xBbd735DB53cE42a7423B0861864dAD6253588040)",
        "(true, 500000000000000000, 4295128740)",
        "(false, false)",
        "0x000000000000000000000000000ef5f21dc574226a06c76aae7060642a30eb74"
      ],
      "transaction": {
        "from": "0x000ef5f21dc574226a06c76aae7060642a30eb74",
        "to": "0x69801c169647ad125707dd40096d4edc20bb521a",
        "gas": "0x2f6d3",
        "value": "0x0",
        "input": "0x2229d0b400000000000000000000000015906379703940bc51a5881ad1a5fc481ebc8bb1000000000000000000000000ba397efef3914ab025f7f5706fade61f240a9ebc0000000000000000000000000000000000000000000000000000000000000bb80000000000000000000000000000000000000000000000000000000000000078000000000000000000000000bbd735db53ce42a7423b0861864dad6253588040000000000000000000000000000000000000000000000000000000000000000100000000000000000000000000000000000000000000000006f05b59d3b2000000000000000000000000000000000000000000000000000000000001000276a40000000000000000000000000000000000000000000000000000000000000000000000000000000000000000000000000000000000000000000000000000000000000000000000000000000000000000000000000000000000000000000001600000000000000000000000000000000000000000000000000000000000000020000000000000000000000000000ef5f21dc574226a06c76aae7060642a30eb74",
        "nonce": "0x7a",
        "chainId": "0xaa37dc"
      },
      "additionalContracts": [],
      "isFixedGasLimit": false
    }
  ],
  "receipts": [
    {
      "status": "0x1",
      "cumulativeGasUsed": "0x113ee",
      "logs": [
        {
          "address": "0x15906379703940bc51a5881ad1a5fc481ebc8bb1",
          "topics": [
            "0x8c5be1e5ebec7d5bd14f71427d1e84f3dd0314c0f7b2291e5b200ac8c7c3b925",
            "0x000000000000000000000000000ef5f21dc574226a06c76aae7060642a30eb74",
            "0x00000000000000000000000069801c169647ad125707dd40096d4edc20bb521a"
          ],
          "data": "0xffffffffffffffffffffffffffffffffffffffffffffffffffffffffffffffff",
          "blockHash": "0x1b31c5324029ed9d536a24e6106a1e7bfbdd6b9de293b518f6e7e877df39ec84",
          "blockNumber": "0x1311f1c",
          "transactionHash": "0xb78104e17d34b4cb227e780143b4eb90c22e0351b68553997dcea8160f10bfb4",
          "transactionIndex": "0x1",
          "logIndex": "0x0",
          "removed": false
        }
      ],
      "logsBloom": "0x00000000000000000000000000000000000000000000000000000000000000000000000000020000000800000000000000000000000000000000000000200008000000000000000000000000000000000000000000000000000000000000000000000000000000000000000400000000000000000000000000000000000000000000000000000000100000000000000000000000000000000000000000000000020000000000000000000000000000000000000000000000000000000000080010000000000000000100000000000000000000000000000000000000040000000010000000000000000000000000000000000000000000000000000000000000",
      "type": "0x2",
      "transactionHash": "0xb78104e17d34b4cb227e780143b4eb90c22e0351b68553997dcea8160f10bfb4",
      "transactionIndex": "0x1",
      "blockHash": "0x1b31c5324029ed9d536a24e6106a1e7bfbdd6b9de293b518f6e7e877df39ec84",
      "blockNumber": "0x1311f1c",
      "gasUsed": "0x68c7",
      "effectiveGasPrice": "0xf6a50",
      "from": "0x000ef5f21dc574226a06c76aae7060642a30eb74",
      "to": "0x15906379703940bc51a5881ad1a5fc481ebc8bb1",
      "contractAddress": null,
      "l1BaseFeeScalar": "0x1db0",
      "l1BlobBaseFee": "0x1",
      "l1BlobBaseFeeScalar": "0xd2730",
      "l1Fee": "0xb43058",
      "l1GasPrice": "0xed16c",
      "l1GasUsed": "0x640"
    },
    {
      "status": "0x1",
      "cumulativeGasUsed": "0x36035",
      "logs": [
        {
          "address": "0xba397efef3914ab025f7f5706fade61f240a9ebc",
          "topics": [
            "0x8c5be1e5ebec7d5bd14f71427d1e84f3dd0314c0f7b2291e5b200ac8c7c3b925",
            "0x000000000000000000000000000ef5f21dc574226a06c76aae7060642a30eb74",
            "0x00000000000000000000000069801c169647ad125707dd40096d4edc20bb521a"
          ],
          "data": "0xffffffffffffffffffffffffffffffffffffffffffffffffffffffffffffffff",
          "blockHash": "0x1b31c5324029ed9d536a24e6106a1e7bfbdd6b9de293b518f6e7e877df39ec84",
          "blockNumber": "0x1311f1c",
          "transactionHash": "0xd1ab8f743b66b7399a2b4d3fb826452587200c1fb83c6f877899862e5ea54201",
          "transactionIndex": "0x3",
          "logIndex": "0x4",
          "removed": false
        }
      ],
      "logsBloom": "0x00000000000000000000000000000000000000000000000000000000000000000000000000030000000800000000000000000000000000000000000020200000000000000000000000000000004000000000000000000000000000000000000000000000000000000000000400000000000000000000000000000000000000000000000000000000000000000000000000000000000000000000000000000000020000000000000000000000000000000000000000000000000000000000000010000000000000000100000000000000000000000000000000000000040000000010000000000000000000000000000000000000000000000000000000000000",
      "type": "0x2",
      "transactionHash": "0xd1ab8f743b66b7399a2b4d3fb826452587200c1fb83c6f877899862e5ea54201",
      "transactionIndex": "0x3",
      "blockHash": "0x1b31c5324029ed9d536a24e6106a1e7bfbdd6b9de293b518f6e7e877df39ec84",
      "blockNumber": "0x1311f1c",
      "gasUsed": "0x68c7",
      "effectiveGasPrice": "0xf6a50",
      "from": "0x000ef5f21dc574226a06c76aae7060642a30eb74",
      "to": "0xba397efef3914ab025f7f5706fade61f240a9ebc",
      "contractAddress": null,
      "l1BaseFeeScalar": "0x1db0",
      "l1BlobBaseFee": "0x1",
      "l1BlobBaseFeeScalar": "0xd2730",
      "l1Fee": "0xb43058",
      "l1GasPrice": "0xed16c",
      "l1GasUsed": "0x640"
    },
    {
      "status": "0x1",
      "cumulativeGasUsed": "0x3c8fc",
      "logs": [
        {
          "address": "0x15906379703940bc51a5881ad1a5fc481ebc8bb1",
          "topics": [
            "0x8c5be1e5ebec7d5bd14f71427d1e84f3dd0314c0f7b2291e5b200ac8c7c3b925",
            "0x000000000000000000000000000ef5f21dc574226a06c76aae7060642a30eb74",
            "0x000000000000000000000000bbd735db53ce42a7423b0861864dad6253588040"
          ],
          "data": "0xffffffffffffffffffffffffffffffffffffffffffffffffffffffffffffffff",
          "blockHash": "0x1b31c5324029ed9d536a24e6106a1e7bfbdd6b9de293b518f6e7e877df39ec84",
          "blockNumber": "0x1311f1c",
          "transactionHash": "0xfb583495a282df10b60c27f7e58adda0bae3b6edfdbc9af6d3adea399402d868",
          "transactionIndex": "0x4",
          "logIndex": "0x5",
          "removed": false
        }
      ],
      "logsBloom": "0x00000000000000000000000000000000000000000000000000000000000000000000000000020000000000000000000000000000000000000000000000200008000000000000000000000000000000000000000000000000000000000040000000000000000000000000000400000000000000000000000000004000000000000000000000000000100000000000000000000000000000000000000000000000020000000000000000000000000000000000000000000000000000000000080000000000000000000000000000000000000000000000000000000000040000000010000000000000010000000000000000000000000000000000000000000000",
      "type": "0x2",
      "transactionHash": "0xfb583495a282df10b60c27f7e58adda0bae3b6edfdbc9af6d3adea399402d868",
      "transactionIndex": "0x4",
      "blockHash": "0x1b31c5324029ed9d536a24e6106a1e7bfbdd6b9de293b518f6e7e877df39ec84",
      "blockNumber": "0x1311f1c",
      "gasUsed": "0x68c7",
      "effectiveGasPrice": "0xf6a50",
      "from": "0x000ef5f21dc574226a06c76aae7060642a30eb74",
      "to": "0x15906379703940bc51a5881ad1a5fc481ebc8bb1",
      "contractAddress": null,
      "l1BaseFeeScalar": "0x1db0",
      "l1BlobBaseFee": "0x1",
      "l1BlobBaseFeeScalar": "0xd2730",
      "l1Fee": "0xb43058",
      "l1GasPrice": "0xed16c",
      "l1GasUsed": "0x640"
    },
    {
      "status": "0x1",
      "cumulativeGasUsed": "0x431c3",
      "logs": [
        {
          "address": "0xba397efef3914ab025f7f5706fade61f240a9ebc",
          "topics": [
            "0x8c5be1e5ebec7d5bd14f71427d1e84f3dd0314c0f7b2291e5b200ac8c7c3b925",
            "0x000000000000000000000000000ef5f21dc574226a06c76aae7060642a30eb74",
            "0x000000000000000000000000bbd735db53ce42a7423b0861864dad6253588040"
          ],
          "data": "0xffffffffffffffffffffffffffffffffffffffffffffffffffffffffffffffff",
          "blockHash": "0x1b31c5324029ed9d536a24e6106a1e7bfbdd6b9de293b518f6e7e877df39ec84",
          "blockNumber": "0x1311f1c",
          "transactionHash": "0xd1e895654d016df769b0e575dce15e7c4d299d670e386c814b74b809c763a923",
          "transactionIndex": "0x5",
          "logIndex": "0x6",
          "removed": false
        }
      ],
      "logsBloom": "0x00000000000000000000000000000000000000000000000000000000000000000000000000030000000000000000000000000000000000000000000020200000000000000000000000000000004000000000000000000000000000000040000000000000000000000000000400000000000000000000000000004000000000000000000000000000000000000000000000000000000000000000000000000000020000000000000000000000000000000000000000000000000000000000000000000000000000000000000000000000000000000000000000000000040000000010000000000000010000000000000000000000000000000000000000000000",
      "type": "0x2",
      "transactionHash": "0xd1e895654d016df769b0e575dce15e7c4d299d670e386c814b74b809c763a923",
      "transactionIndex": "0x5",
      "blockHash": "0x1b31c5324029ed9d536a24e6106a1e7bfbdd6b9de293b518f6e7e877df39ec84",
      "blockNumber": "0x1311f1c",
      "gasUsed": "0x68c7",
      "effectiveGasPrice": "0xf6a50",
      "from": "0x000ef5f21dc574226a06c76aae7060642a30eb74",
      "to": "0xba397efef3914ab025f7f5706fade61f240a9ebc",
      "contractAddress": null,
      "l1BaseFeeScalar": "0x1db0",
      "l1BlobBaseFee": "0x1",
      "l1BlobBaseFeeScalar": "0xd2730",
      "l1Fee": "0xb43058",
      "l1GasPrice": "0xed16c",
      "l1GasUsed": "0x640"
    },
    {
      "status": "0x1",
      "cumulativeGasUsed": "0x6389e",
      "logs": [
        {
          "address": "0x536527976e98e253b424a3655e695d144e343341",
          "topics": [
            "0x40e9cecb9f5f1f1c5b9c97dec2917b7ee92e57ba5563708daca94dd84ad7112f",
            "0x90aa240e15ba025cea34cc5e314e0bbe1bd10d88fe6615ee1eb7b1b0cf89faca",
            "0x00000000000000000000000069801c169647ad125707dd40096d4edc20bb521a"
          ],
          "data": "0xfffffffffffffffffffffffffffffffffffffffffffffffff90a4334fcf2b0d700000000000000000000000000000000000000000000000006f05b59d3b200000000000000000000000000000000000000000000ffff58bb5de7e9e1dab91f7d000000000000000000000000000000000000000060ef6d38d44fd0dde2400000ffffffffffffffffffffffffffffffffffffffffffffffffffffffffffffffff0000000000000000000000000000000000000000000000000000000000000bb8",
          "blockHash": "0x1b31c5324029ed9d536a24e6106a1e7bfbdd6b9de293b518f6e7e877df39ec84",
          "blockNumber": "0x1311f1c",
          "transactionHash": "0x462f799466acb4acfd44237595a19a28e16f84c6bdf5d0ab766d629b7aed4ed8",
          "transactionIndex": "0x6",
          "logIndex": "0x7",
          "removed": false
        },
        {
          "address": "0x15906379703940bc51a5881ad1a5fc481ebc8bb1",
          "topics": [
            "0xddf252ad1be2c89b69c2b068fc378daa952ba7f163c4a11628f55a4df523b3ef",
            "0x000000000000000000000000000ef5f21dc574226a06c76aae7060642a30eb74",
            "0x000000000000000000000000536527976e98e253b424a3655e695d144e343341"
          ],
          "data": "0x00000000000000000000000000000000000000000000000006f5bccb030d4f29",
          "blockHash": "0x1b31c5324029ed9d536a24e6106a1e7bfbdd6b9de293b518f6e7e877df39ec84",
          "blockNumber": "0x1311f1c",
          "transactionHash": "0x462f799466acb4acfd44237595a19a28e16f84c6bdf5d0ab766d629b7aed4ed8",
          "transactionIndex": "0x6",
          "logIndex": "0x8",
          "removed": false
        },
        {
          "address": "0xba397efef3914ab025f7f5706fade61f240a9ebc",
          "topics": [
            "0xddf252ad1be2c89b69c2b068fc378daa952ba7f163c4a11628f55a4df523b3ef",
            "0x000000000000000000000000536527976e98e253b424a3655e695d144e343341",
            "0x000000000000000000000000000ef5f21dc574226a06c76aae7060642a30eb74"
          ],
          "data": "0x00000000000000000000000000000000000000000000000006f05b59d3b20000",
          "blockHash": "0x1b31c5324029ed9d536a24e6106a1e7bfbdd6b9de293b518f6e7e877df39ec84",
          "blockNumber": "0x1311f1c",
          "transactionHash": "0x462f799466acb4acfd44237595a19a28e16f84c6bdf5d0ab766d629b7aed4ed8",
          "transactionIndex": "0x6",
          "logIndex": "0x9",
          "removed": false
        }
      ],
      "logsBloom": "0x0000000000400000000000000000000000000000000000000000000000000000000000000003000000080000000000000000000004000000000000002000000800000000000000000000020800400000000000000000002000000000000000000000000000000000000000040000000004000000000000000000001000000000000002000000000010000000000000000000000000000000004000000000000000000000000000000000400000000000000000000000000000000000000008001000000200020000010000000000000000000000000000000000000004000000000000000000000000c000000000000000000000008000000000000000000000",
      "type": "0x2",
      "transactionHash": "0x462f799466acb4acfd44237595a19a28e16f84c6bdf5d0ab766d629b7aed4ed8",
      "transactionIndex": "0x6",
      "blockHash": "0x1b31c5324029ed9d536a24e6106a1e7bfbdd6b9de293b518f6e7e877df39ec84",
      "blockNumber": "0x1311f1c",
      "gasUsed": "0x206db",
      "effectiveGasPrice": "0xf6a50",
      "from": "0x000ef5f21dc574226a06c76aae7060642a30eb74",
      "to": "0x69801c169647ad125707dd40096d4edc20bb521a",
      "contractAddress": null,
      "l1BaseFeeScalar": "0x1db0",
      "l1BlobBaseFee": "0x1",
      "l1BlobBaseFeeScalar": "0xd2730",
      "l1Fee": "0x1564a0d",
      "l1GasPrice": "0xed16c",
      "l1GasUsed": "0xbdf"
    }
  ],
  "libraries": [],
  "pending": [],
  "returns": {},
  "timestamp": 1731795430,
  "chain": 11155420,
  "commit": "f193f39"
}