{
  "transactions": [
    {
      "hash": "0x78d96b7c0c9b83a519e2063cf8799526eeb54b0fb86e5693f576ae5b47029baa",
      "transactionType": "CALL",
      "contractName": null,
      "contractAddress": "0x15906379703940bc51a5881ad1a5fc481ebc8bb1",
      "function": "approve(address,uint256)",
      "arguments": [
        "0x69801C169647Ad125707Dd40096D4EDC20Bb521a",
        "115792089237316195423570985008687907853269984665640564039457584007913129639935"
      ],
      "transaction": {
        "from": "0x000ef5f21dc574226a06c76aae7060642a30eb74",
        "to": "0x15906379703940bc51a5881ad1a5fc481ebc8bb1",
        "gas": "0x90b8",
        "value": "0x0",
        "input": "0x095ea7b300000000000000000000000069801c169647ad125707dd40096d4edc20bb521affffffffffffffffffffffffffffffffffffffffffffffffffffffffffffffff",
        "nonce": "0x48",
        "chainId": "0xaa37dc"
      },
      "additionalContracts": [],
      "isFixedGasLimit": false
    },
    {
      "hash": "0x674b1a3f6e5564440fcb3163b45daec75f43ee1e9428abf3a119caa73fd5638b",
      "transactionType": "CALL",
      "contractName": null,
      "contractAddress": "0xba397efef3914ab025f7f5706fade61f240a9ebc",
      "function": "approve(address,uint256)",
      "arguments": [
        "0x69801C169647Ad125707Dd40096D4EDC20Bb521a",
        "115792089237316195423570985008687907853269984665640564039457584007913129639935"
      ],
      "transaction": {
        "from": "0x000ef5f21dc574226a06c76aae7060642a30eb74",
        "to": "0xba397efef3914ab025f7f5706fade61f240a9ebc",
        "gas": "0x90b8",
        "value": "0x0",
        "input": "0x095ea7b300000000000000000000000069801c169647ad125707dd40096d4edc20bb521affffffffffffffffffffffffffffffffffffffffffffffffffffffffffffffff",
        "nonce": "0x49",
        "chainId": "0xaa37dc"
      },
      "additionalContracts": [],
      "isFixedGasLimit": false
    },
    {
      "hash": "0xf9f7f0adcaf691c9492bdff8dd11d9c716ae125befb8d72938c27ec0f5a72b12",
      "transactionType": "CALL",
      "contractName": null,
      "contractAddress": "0x15906379703940bc51a5881ad1a5fc481ebc8bb1",
      "function": "approve(address,uint256)",
      "arguments": [
        "0x440D0bEe5706987be528Fec5C4cA5947E38161d2",
        "115792089237316195423570985008687907853269984665640564039457584007913129639935"
      ],
      "transaction": {
        "from": "0x000ef5f21dc574226a06c76aae7060642a30eb74",
        "to": "0x15906379703940bc51a5881ad1a5fc481ebc8bb1",
        "gas": "0x90b8",
        "value": "0x0",
        "input": "0x095ea7b3000000000000000000000000440d0bee5706987be528fec5c4ca5947e38161d2ffffffffffffffffffffffffffffffffffffffffffffffffffffffffffffffff",
        "nonce": "0x4a",
        "chainId": "0xaa37dc"
      },
      "additionalContracts": [],
      "isFixedGasLimit": false
    },
    {
      "hash": "0xddbee86f7204af37b0c01b95b7bf252e54c4ede435fd28dca395ac319ca1c11e",
      "transactionType": "CALL",
      "contractName": null,
      "contractAddress": "0xba397efef3914ab025f7f5706fade61f240a9ebc",
      "function": "approve(address,uint256)",
      "arguments": [
        "0x440D0bEe5706987be528Fec5C4cA5947E38161d2",
        "115792089237316195423570985008687907853269984665640564039457584007913129639935"
      ],
      "transaction": {
        "from": "0x000ef5f21dc574226a06c76aae7060642a30eb74",
        "to": "0xba397efef3914ab025f7f5706fade61f240a9ebc",
        "gas": "0x90b8",
        "value": "0x0",
        "input": "0x095ea7b3000000000000000000000000440d0bee5706987be528fec5c4ca5947e38161d2ffffffffffffffffffffffffffffffffffffffffffffffffffffffffffffffff",
        "nonce": "0x4b",
        "chainId": "0xaa37dc"
      },
      "additionalContracts": [],
      "isFixedGasLimit": false
    },
    {
      "hash": "0x2f76863dc0ed4230f8de31fbaabc4fd7631390dd04e6b5c42fd7fbb2d27ac9a5",
      "transactionType": "CALL",
      "contractName": null,
      "contractAddress": "0x15906379703940bc51a5881ad1a5fc481ebc8bb1",
      "function": "approve(address,uint256)",
      "arguments": [
        "0xBbd735DB53cE42a7423B0861864dAD6253588040",
        "115792089237316195423570985008687907853269984665640564039457584007913129639935"
      ],
      "transaction": {
        "from": "0x000ef5f21dc574226a06c76aae7060642a30eb74",
        "to": "0x15906379703940bc51a5881ad1a5fc481ebc8bb1",
        "gas": "0x10aeb",
        "value": "0x0",
        "input": "0x095ea7b3000000000000000000000000bbd735db53ce42a7423b0861864dad6253588040ffffffffffffffffffffffffffffffffffffffffffffffffffffffffffffffff",
        "nonce": "0x4c",
        "chainId": "0xaa37dc"
      },
      "additionalContracts": [],
      "isFixedGasLimit": false
    },
    {
      "hash": "0x3923ac52fcd40d0acac3f01bf74692ab21a0922cb18eab8bab633b41f07bce23",
      "transactionType": "CALL",
      "contractName": null,
      "contractAddress": "0xba397efef3914ab025f7f5706fade61f240a9ebc",
      "function": "approve(address,uint256)",
      "arguments": [
        "0xBbd735DB53cE42a7423B0861864dAD6253588040",
        "115792089237316195423570985008687907853269984665640564039457584007913129639935"
      ],
      "transaction": {
        "from": "0x000ef5f21dc574226a06c76aae7060642a30eb74",
        "to": "0xba397efef3914ab025f7f5706fade61f240a9ebc",
        "gas": "0x10aeb",
        "value": "0x0",
        "input": "0x095ea7b3000000000000000000000000bbd735db53ce42a7423b0861864dad6253588040ffffffffffffffffffffffffffffffffffffffffffffffffffffffffffffffff",
        "nonce": "0x4d",
        "chainId": "0xaa37dc"
      },
      "additionalContracts": [],
      "isFixedGasLimit": false
    },
    {
      "hash": "0xab3e01a07b1c607fbd687cdfaa9156a5e3f29523ce33bfa294fa1f57feb6bb0e",
      "transactionType": "CALL",
      "contractName": null,
      "contractAddress": "0x69801c169647ad125707dd40096d4edc20bb521a",
      "function": "swap((address,address,uint24,int24,address),(bool,int256,uint160),(bool,bool),bytes)",
      "arguments": [
        "(0x15906379703940bc51a5881Ad1a5fc481Ebc8bB1, 0xbA397eFEF3914aB025F7f5706fADE61f240A9EbC, 3000, 120, 0xBbd735DB53cE42a7423B0861864dAD6253588040)",
        "(true, -100000000000000000, 4295128740)",
        "(false, false)",
        "0x"
      ],
      "transaction": {
        "from": "0x000ef5f21dc574226a06c76aae7060642a30eb74",
        "to": "0x69801c169647ad125707dd40096d4edc20bb521a",
        "gas": "0x34cd3",
        "value": "0x0",
        "input": "0x2229d0b400000000000000000000000015906379703940bc51a5881ad1a5fc481ebc8bb1000000000000000000000000ba397efef3914ab025f7f5706fade61f240a9ebc0000000000000000000000000000000000000000000000000000000000000bb80000000000000000000000000000000000000000000000000000000000000078000000000000000000000000bbd735db53ce42a7423b0861864dad62535880400000000000000000000000000000000000000000000000000000000000000001fffffffffffffffffffffffffffffffffffffffffffffffffe9cba87a276000000000000000000000000000000000000000000000000000000000001000276a40000000000000000000000000000000000000000000000000000000000000000000000000000000000000000000000000000000000000000000000000000000000000000000000000000000000000000000000000000000000000000000001600000000000000000000000000000000000000000000000000000000000000000",
        "nonce": "0x4e",
        "chainId": "0xaa37dc"
      },
      "additionalContracts": [],
      "isFixedGasLimit": false
    }
  ],
  "receipts": [
    {
      "status": "0x1",
      "cumulativeGasUsed": "0x1de451",
      "logs": [
        {
          "address": "0x15906379703940bc51a5881ad1a5fc481ebc8bb1",
          "topics": [
            "0x8c5be1e5ebec7d5bd14f71427d1e84f3dd0314c0f7b2291e5b200ac8c7c3b925",
            "0x000000000000000000000000000ef5f21dc574226a06c76aae7060642a30eb74",
            "0x00000000000000000000000069801c169647ad125707dd40096d4edc20bb521a"
          ],
          "data": "0xffffffffffffffffffffffffffffffffffffffffffffffffffffffffffffffff",
          "blockHash": "0xcff0b11a81fc0769947cbf088f6787bd04aca9fb042ddefa4b00f6ea6947c9e8",
          "blockNumber": "0x130ff81",
          "transactionHash": "0x78d96b7c0c9b83a519e2063cf8799526eeb54b0fb86e5693f576ae5b47029baa",
          "transactionIndex": "0x6",
          "logIndex": "0x1b",
          "removed": false
        }
      ],
      "logsBloom": "0x00000000000000000000000000000000000000000000000000000000000000000000000000020000000800000000000000000000000000000000000000200008000000000000000000000000000000000000000000000000000000000000000000000000000000000000000400000000000000000000000000000000000000000000000000000000100000000000000000000000000000000000000000000000020000000000000000000000000000000000000000000000000000000000080010000000000000000100000000000000000000000000000000000000040000000010000000000000000000000000000000000000000000000000000000000000",
      "type": "0x2",
      "transactionHash": "0x78d96b7c0c9b83a519e2063cf8799526eeb54b0fb86e5693f576ae5b47029baa",
      "transactionIndex": "0x6",
      "blockHash": "0xcff0b11a81fc0769947cbf088f6787bd04aca9fb042ddefa4b00f6ea6947c9e8",
      "blockNumber": "0x130ff81",
      "gasUsed": "0x68c7",
      "effectiveGasPrice": "0xf6a4d",
      "from": "0x000ef5f21dc574226a06c76aae7060642a30eb74",
      "to": "0x15906379703940bc51a5881ad1a5fc481ebc8bb1",
      "contractAddress": null,
      "l1BaseFeeScalar": "0x1db0",
      "l1BlobBaseFee": "0x1",
      "l1BlobBaseFeeScalar": "0xd2730",
      "l1Fee": "0x1b887dd2d",
      "l1GasPrice": "0x243a54b0",
      "l1GasUsed": "0x640"
    },
    {
      "status": "0x1",
      "cumulativeGasUsed": "0x25d304",
      "logs": [
        {
          "address": "0xba397efef3914ab025f7f5706fade61f240a9ebc",
          "topics": [
            "0x8c5be1e5ebec7d5bd14f71427d1e84f3dd0314c0f7b2291e5b200ac8c7c3b925",
            "0x000000000000000000000000000ef5f21dc574226a06c76aae7060642a30eb74",
            "0x00000000000000000000000069801c169647ad125707dd40096d4edc20bb521a"
          ],
          "data": "0xffffffffffffffffffffffffffffffffffffffffffffffffffffffffffffffff",
          "blockHash": "0xcff0b11a81fc0769947cbf088f6787bd04aca9fb042ddefa4b00f6ea6947c9e8",
          "blockNumber": "0x130ff81",
          "transactionHash": "0x674b1a3f6e5564440fcb3163b45daec75f43ee1e9428abf3a119caa73fd5638b",
          "transactionIndex": "0x8",
          "logIndex": "0x21",
          "removed": false
        }
      ],
      "logsBloom": "0x00000000000000000000000000000000000000000000000000000000000000000000000000030000000800000000000000000000000000000000000020200000000000000000000000000000004000000000000000000000000000000000000000000000000000000000000400000000000000000000000000000000000000000000000000000000000000000000000000000000000000000000000000000000020000000000000000000000000000000000000000000000000000000000000010000000000000000100000000000000000000000000000000000000040000000010000000000000000000000000000000000000000000000000000000000000",
      "type": "0x2",
      "transactionHash": "0x674b1a3f6e5564440fcb3163b45daec75f43ee1e9428abf3a119caa73fd5638b",
      "transactionIndex": "0x8",
      "blockHash": "0xcff0b11a81fc0769947cbf088f6787bd04aca9fb042ddefa4b00f6ea6947c9e8",
      "blockNumber": "0x130ff81",
      "gasUsed": "0x68c7",
      "effectiveGasPrice": "0xf6a4d",
      "from": "0x000ef5f21dc574226a06c76aae7060642a30eb74",
      "to": "0xba397efef3914ab025f7f5706fade61f240a9ebc",
      "contractAddress": null,
      "l1BaseFeeScalar": "0x1db0",
      "l1BlobBaseFee": "0x1",
      "l1BlobBaseFeeScalar": "0xd2730",
      "l1Fee": "0x1b887dd2d",
      "l1GasPrice": "0x243a54b0",
      "l1GasUsed": "0x640"
    },
    {
      "status": "0x1",
      "cumulativeGasUsed": "0x1f86a",
      "logs": [
        {
          "address": "0x15906379703940bc51a5881ad1a5fc481ebc8bb1",
          "topics": [
            "0x8c5be1e5ebec7d5bd14f71427d1e84f3dd0314c0f7b2291e5b200ac8c7c3b925",
            "0x000000000000000000000000000ef5f21dc574226a06c76aae7060642a30eb74",
            "0x000000000000000000000000440d0bee5706987be528fec5c4ca5947e38161d2"
          ],
          "data": "0xffffffffffffffffffffffffffffffffffffffffffffffffffffffffffffffff",
          "blockHash": "0x93579db78c53cdf52233895f4fda9225db95e903745abc36385bb33e808b2e50",
          "blockNumber": "0x130ff82",
          "transactionHash": "0xf9f7f0adcaf691c9492bdff8dd11d9c716ae125befb8d72938c27ec0f5a72b12",
          "transactionIndex": "0x3",
          "logIndex": "0x1",
          "removed": false
        }
      ],
      "logsBloom": "0x00000000000000000000000000000000000000000000000000000000000000000000000000020000000000000000000000000000000000000000000000200008000000000000000000000000000000000008000000000000000000000000000000000000000000000000000400000000000000000000000000000000000002000000000000000000100000000000000000000000000000000000000000000000020000000000000000000000000000000000000000000000000000000000080000000000000000000000000000000000800000000000000000000000040000000010000000000000000000000000000000000000000000000000000000000000",
      "type": "0x2",
      "transactionHash": "0xf9f7f0adcaf691c9492bdff8dd11d9c716ae125befb8d72938c27ec0f5a72b12",
      "transactionIndex": "0x3",
      "blockHash": "0x93579db78c53cdf52233895f4fda9225db95e903745abc36385bb33e808b2e50",
      "blockNumber": "0x130ff82",
      "gasUsed": "0x68c7",
      "effectiveGasPrice": "0xf6a4d",
      "from": "0x000ef5f21dc574226a06c76aae7060642a30eb74",
      "to": "0x15906379703940bc51a5881ad1a5fc481ebc8bb1",
      "contractAddress": null,
      "l1BaseFeeScalar": "0x1db0",
      "l1BlobBaseFee": "0x1",
      "l1BlobBaseFeeScalar": "0xd2730",
      "l1Fee": "0x1b887dd2d",
      "l1GasPrice": "0x243a54b0",
      "l1GasUsed": "0x640"
    },
    {
      "status": "0x1",
      "cumulativeGasUsed": "0x26131",
      "logs": [
        {
          "address": "0xba397efef3914ab025f7f5706fade61f240a9ebc",
          "topics": [
            "0x8c5be1e5ebec7d5bd14f71427d1e84f3dd0314c0f7b2291e5b200ac8c7c3b925",
            "0x000000000000000000000000000ef5f21dc574226a06c76aae7060642a30eb74",
            "0x000000000000000000000000440d0bee5706987be528fec5c4ca5947e38161d2"
          ],
          "data": "0xffffffffffffffffffffffffffffffffffffffffffffffffffffffffffffffff",
          "blockHash": "0x93579db78c53cdf52233895f4fda9225db95e903745abc36385bb33e808b2e50",
          "blockNumber": "0x130ff82",
          "transactionHash": "0xddbee86f7204af37b0c01b95b7bf252e54c4ede435fd28dca395ac319ca1c11e",
          "transactionIndex": "0x4",
          "logIndex": "0x2",
          "removed": false
        }
      ],
      "logsBloom": "0x00000000000000000000000000000000000000000000000000000000000000000000000000030000000000000000000000000000000000000000000020200000000000000000000000000000004000000008000000000000000000000000000000000000000000000000000400000000000000000000000000000000000002000000000000000000000000000000000000000000000000000000000000000000020000000000000000000000000000000000000000000000000000000000000000000000000000000000000000000000800000000000000000000000040000000010000000000000000000000000000000000000000000000000000000000000",
      "type": "0x2",
      "transactionHash": "0xddbee86f7204af37b0c01b95b7bf252e54c4ede435fd28dca395ac319ca1c11e",
      "transactionIndex": "0x4",
      "blockHash": "0x93579db78c53cdf52233895f4fda9225db95e903745abc36385bb33e808b2e50",
      "blockNumber": "0x130ff82",
      "gasUsed": "0x68c7",
      "effectiveGasPrice": "0xf6a4d",
      "from": "0x000ef5f21dc574226a06c76aae7060642a30eb74",
      "to": "0xba397efef3914ab025f7f5706fade61f240a9ebc",
      "contractAddress": null,
      "l1BaseFeeScalar": "0x1db0",
      "l1BlobBaseFee": "0x1",
      "l1BlobBaseFeeScalar": "0xd2730",
      "l1Fee": "0x1b887dd2d",
      "l1GasPrice": "0x243a54b0",
      "l1GasUsed": "0x640"
    },
    {
      "status": "0x1",
      "cumulativeGasUsed": "0x317b4",
      "logs": [
        {
          "address": "0x15906379703940bc51a5881ad1a5fc481ebc8bb1",
          "topics": [
            "0x8c5be1e5ebec7d5bd14f71427d1e84f3dd0314c0f7b2291e5b200ac8c7c3b925",
            "0x000000000000000000000000000ef5f21dc574226a06c76aae7060642a30eb74",
            "0x000000000000000000000000bbd735db53ce42a7423b0861864dad6253588040"
          ],
          "data": "0xffffffffffffffffffffffffffffffffffffffffffffffffffffffffffffffff",
          "blockHash": "0x93579db78c53cdf52233895f4fda9225db95e903745abc36385bb33e808b2e50",
          "blockNumber": "0x130ff82",
          "transactionHash": "0x2f76863dc0ed4230f8de31fbaabc4fd7631390dd04e6b5c42fd7fbb2d27ac9a5",
          "transactionIndex": "0x5",
          "logIndex": "0x3",
          "removed": false
        }
      ],
      "logsBloom": "0x00000000000000000000000000000000000000000000000000000000000000000000000000020000000000000000000000000000000000000000000000200008000000000000000000000000000000000000000000000000000000000040000000000000000000000000000400000000000000000000000000004000000000000000000000000000100000000000000000000000000000000000000000000000020000000000000000000000000000000000000000000000000000000000080000000000000000000000000000000000000000000000000000000000040000000010000000000000010000000000000000000000000000000000000000000000",
      "type": "0x2",
      "transactionHash": "0x2f76863dc0ed4230f8de31fbaabc4fd7631390dd04e6b5c42fd7fbb2d27ac9a5",
      "transactionIndex": "0x5",
      "blockHash": "0x93579db78c53cdf52233895f4fda9225db95e903745abc36385bb33e808b2e50",
      "blockNumber": "0x130ff82",
      "gasUsed": "0xb683",
      "effectiveGasPrice": "0xf6a4d",
      "from": "0x000ef5f21dc574226a06c76aae7060642a30eb74",
      "to": "0x15906379703940bc51a5881ad1a5fc481ebc8bb1",
      "contractAddress": null,
      "l1BaseFeeScalar": "0x1db0",
      "l1BlobBaseFee": "0x1",
      "l1BlobBaseFeeScalar": "0xd2730",
      "l1Fee": "0x1b887dd2d",
      "l1GasPrice": "0x243a54b0",
      "l1GasUsed": "0x640"
    },
    {
      "status": "0x1",
      "cumulativeGasUsed": "0x3ce37",
      "logs": [
        {
          "address": "0xba397efef3914ab025f7f5706fade61f240a9ebc",
          "topics": [
            "0x8c5be1e5ebec7d5bd14f71427d1e84f3dd0314c0f7b2291e5b200ac8c7c3b925",
            "0x000000000000000000000000000ef5f21dc574226a06c76aae7060642a30eb74",
            "0x000000000000000000000000bbd735db53ce42a7423b0861864dad6253588040"
          ],
          "data": "0xffffffffffffffffffffffffffffffffffffffffffffffffffffffffffffffff",
          "blockHash": "0x93579db78c53cdf52233895f4fda9225db95e903745abc36385bb33e808b2e50",
          "blockNumber": "0x130ff82",
          "transactionHash": "0x3923ac52fcd40d0acac3f01bf74692ab21a0922cb18eab8bab633b41f07bce23",
          "transactionIndex": "0x6",
          "logIndex": "0x4",
          "removed": false
        }
      ],
      "logsBloom": "0x00000000000000000000000000000000000000000000000000000000000000000000000000030000000000000000000000000000000000000000000020200000000000000000000000000000004000000000000000000000000000000040000000000000000000000000000400000000000000000000000000004000000000000000000000000000000000000000000000000000000000000000000000000000020000000000000000000000000000000000000000000000000000000000000000000000000000000000000000000000000000000000000000000000040000000010000000000000010000000000000000000000000000000000000000000000",
      "type": "0x2",
      "transactionHash": "0x3923ac52fcd40d0acac3f01bf74692ab21a0922cb18eab8bab633b41f07bce23",
      "transactionIndex": "0x6",
      "blockHash": "0x93579db78c53cdf52233895f4fda9225db95e903745abc36385bb33e808b2e50",
      "blockNumber": "0x130ff82",
      "gasUsed": "0xb683",
      "effectiveGasPrice": "0xf6a4d",
      "from": "0x000ef5f21dc574226a06c76aae7060642a30eb74",
      "to": "0xba397efef3914ab025f7f5706fade61f240a9ebc",
      "contractAddress": null,
      "l1BaseFeeScalar": "0x1db0",
      "l1BlobBaseFee": "0x1",
      "l1BlobBaseFeeScalar": "0xd2730",
      "l1Fee": "0x1b887dd2d",
      "l1GasPrice": "0x243a54b0",
      "l1GasUsed": "0x640"
    },
    {
      "status": "0x1",
      "cumulativeGasUsed": "0x631db",
      "logs": [
        {
          "address": "0x536527976e98e253b424a3655e695d144e343341",
          "topics": [
            "0x40e9cecb9f5f1f1c5b9c97dec2917b7ee92e57ba5563708daca94dd84ad7112f",
            "0x90aa240e15ba025cea34cc5e314e0bbe1bd10d88fe6615ee1eb7b1b0cf89faca",
            "0x00000000000000000000000069801c169647ad125707dd40096d4edc20bb521a"
          ],
          "data": "0xfffffffffffffffffffffffffffffffffffffffffffffffffe9cba87a2760000000000000000000000000000000000000000000000000000016233b7bd24cf5a0000000000000000000000000000000000000000ffff58bb9a5cc825ba65190d00000000000000000000000000000000000000000000021e19e0c9bab2400000ffffffffffffffffffffffffffffffffffffffffffffffffffffffffffffffff0000000000000000000000000000000000000000000000000000000000000bb8",
          "blockHash": "0x93579db78c53cdf52233895f4fda9225db95e903745abc36385bb33e808b2e50",
          "blockNumber": "0x130ff82",
          "transactionHash": "0xab3e01a07b1c607fbd687cdfaa9156a5e3f29523ce33bfa294fa1f57feb6bb0e",
          "transactionIndex": "0x7",
          "logIndex": "0x5",
          "removed": false
        },
        {
          "address": "0x15906379703940bc51a5881ad1a5fc481ebc8bb1",
          "topics": [
            "0xddf252ad1be2c89b69c2b068fc378daa952ba7f163c4a11628f55a4df523b3ef",
            "0x000000000000000000000000000ef5f21dc574226a06c76aae7060642a30eb74",
            "0x000000000000000000000000536527976e98e253b424a3655e695d144e343341"
          ],
          "data": "0x000000000000000000000000000000000000000000000000016345785d8a0000",
          "blockHash": "0x93579db78c53cdf52233895f4fda9225db95e903745abc36385bb33e808b2e50",
          "blockNumber": "0x130ff82",
          "transactionHash": "0xab3e01a07b1c607fbd687cdfaa9156a5e3f29523ce33bfa294fa1f57feb6bb0e",
          "transactionIndex": "0x7",
          "logIndex": "0x6",
          "removed": false
        },
        {
          "address": "0xba397efef3914ab025f7f5706fade61f240a9ebc",
          "topics": [
            "0xddf252ad1be2c89b69c2b068fc378daa952ba7f163c4a11628f55a4df523b3ef",
            "0x000000000000000000000000536527976e98e253b424a3655e695d144e343341",
            "0x000000000000000000000000000ef5f21dc574226a06c76aae7060642a30eb74"
          ],
          "data": "0x000000000000000000000000000000000000000000000000016233b7bd24cf5a",
          "blockHash": "0x93579db78c53cdf52233895f4fda9225db95e903745abc36385bb33e808b2e50",
          "blockNumber": "0x130ff82",
          "transactionHash": "0xab3e01a07b1c607fbd687cdfaa9156a5e3f29523ce33bfa294fa1f57feb6bb0e",
          "transactionIndex": "0x7",
          "logIndex": "0x7",
          "removed": false
        }
      ],
      "logsBloom": "0x0000000000400000000000000000000000000000000000000000000000000000000000000003000000080000000000000000000004000000000000002000000800000000000000000000020800400000000000000000002000000000000000000000000000000000000000040000000004000000000000000000001000000000000002000000000010000000000000000000000000000000004000000000000000000000000000000000400000000000000000000000000000000000000008001000000200020000010000000000000000000000000000000000000004000000000000000000000000c000000000000000000000008000000000000000000000",
      "type": "0x2",
      "transactionHash": "0xab3e01a07b1c607fbd687cdfaa9156a5e3f29523ce33bfa294fa1f57feb6bb0e",
      "transactionIndex": "0x7",
      "blockHash": "0x93579db78c53cdf52233895f4fda9225db95e903745abc36385bb33e808b2e50",
      "blockNumber": "0x130ff82",
      "gasUsed": "0x263a4",
      "effectiveGasPrice": "0xf6a4d",
      "from": "0x000ef5f21dc574226a06c76aae7060642a30eb74",
      "to": "0x69801c169647ad125707dd40096d4edc20bb521a",
      "contractAddress": null,
      "l1BaseFeeScalar": "0x1db0",
      "l1BlobBaseFee": "0x1",
      "l1BlobBaseFeeScalar": "0xd2730",
      "l1Fee": "0x2e8b65b85",
      "l1GasPrice": "0x243a54b0",
      "l1GasUsed": "0xa90"
    }
  ],
  "libraries": [],
  "pending": [],
  "returns": {},
  "timestamp": 1731779249,
  "chain": 11155420,
  "commit": "93d8b93"
}