{
  "transactions": [
    {
      "hash": "0x9082bb86f1a7df279cd16bc5a2b91c4efecd2cf408b3c4ebe531df29db00970f",
      "transactionType": "CALL",
      "contractName": null,
      "contractAddress": "0x15906379703940bc51a5881ad1a5fc481ebc8bb1",
      "function": "approve(address,uint256)",
      "arguments": [
        "0x69801C169647Ad125707Dd40096D4EDC20Bb521a",
        "115792089237316195423570985008687907853269984665640564039457584007913129639935"
      ],
      "transaction": {
        "from": "0x000ef5f21dc574226a06c76aae7060642a30eb74",
        "to": "0x15906379703940bc51a5881ad1a5fc481ebc8bb1",
        "gas": "0x90b8",
        "value": "0x0",
        "input": "0x095ea7b300000000000000000000000069801c169647ad125707dd40096d4edc20bb521affffffffffffffffffffffffffffffffffffffffffffffffffffffffffffffff",
        "nonce": "0x6f",
        "chainId": "0xaa37dc"
      },
      "additionalContracts": [],
      "isFixedGasLimit": false
    },
    {
      "hash": "0x5399697aeea4de2c9cb7a7a00575b0c994926f90d44a3cb305ea0eab123d4681",
      "transactionType": "CALL",
      "contractName": null,
      "contractAddress": "0xba397efef3914ab025f7f5706fade61f240a9ebc",
      "function": "approve(address,uint256)",
      "arguments": [
        "0x69801C169647Ad125707Dd40096D4EDC20Bb521a",
        "115792089237316195423570985008687907853269984665640564039457584007913129639935"
      ],
      "transaction": {
        "from": "0x000ef5f21dc574226a06c76aae7060642a30eb74",
        "to": "0xba397efef3914ab025f7f5706fade61f240a9ebc",
        "gas": "0x90b8",
        "value": "0x0",
        "input": "0x095ea7b300000000000000000000000069801c169647ad125707dd40096d4edc20bb521affffffffffffffffffffffffffffffffffffffffffffffffffffffffffffffff",
        "nonce": "0x70",
        "chainId": "0xaa37dc"
      },
      "additionalContracts": [],
      "isFixedGasLimit": false
    },
    {
      "hash": "0x46c5523ce3bcd5bb07294ec6fe79e0be3d9ff9d8c5c21d141a040bb4d39d7fce",
      "transactionType": "CALL",
      "contractName": null,
      "contractAddress": "0x15906379703940bc51a5881ad1a5fc481ebc8bb1",
      "function": "approve(address,uint256)",
      "arguments": [
        "0x440D0bEe5706987be528Fec5C4cA5947E38161d2",
        "115792089237316195423570985008687907853269984665640564039457584007913129639935"
      ],
      "transaction": {
        "from": "0x000ef5f21dc574226a06c76aae7060642a30eb74",
        "to": "0x15906379703940bc51a5881ad1a5fc481ebc8bb1",
        "gas": "0x90b8",
        "value": "0x0",
        "input": "0x095ea7b3000000000000000000000000440d0bee5706987be528fec5c4ca5947e38161d2ffffffffffffffffffffffffffffffffffffffffffffffffffffffffffffffff",
        "nonce": "0x71",
        "chainId": "0xaa37dc"
      },
      "additionalContracts": [],
      "isFixedGasLimit": false
    },
    {
      "hash": "0xfcd4498c78410b958b7ccde2097e725d786694c8ed440b2573df18e2a0f0359a",
      "transactionType": "CALL",
      "contractName": null,
      "contractAddress": "0xba397efef3914ab025f7f5706fade61f240a9ebc",
      "function": "approve(address,uint256)",
      "arguments": [
        "0x440D0bEe5706987be528Fec5C4cA5947E38161d2",
        "115792089237316195423570985008687907853269984665640564039457584007913129639935"
      ],
      "transaction": {
        "from": "0x000ef5f21dc574226a06c76aae7060642a30eb74",
        "to": "0xba397efef3914ab025f7f5706fade61f240a9ebc",
        "gas": "0x90b8",
        "value": "0x0",
        "input": "0x095ea7b3000000000000000000000000440d0bee5706987be528fec5c4ca5947e38161d2ffffffffffffffffffffffffffffffffffffffffffffffffffffffffffffffff",
        "nonce": "0x72",
        "chainId": "0xaa37dc"
      },
      "additionalContracts": [],
      "isFixedGasLimit": false
    },
    {
      "hash": "0xbf652cf42ca96b8d4c3c97dfaec87aeff5164cc683a0ead7dc2dc364c43358f7",
      "transactionType": "CALL",
      "contractName": null,
      "contractAddress": "0x15906379703940bc51a5881ad1a5fc481ebc8bb1",
      "function": "approve(address,uint256)",
      "arguments": [
        "0xBbd735DB53cE42a7423B0861864dAD6253588040",
        "115792089237316195423570985008687907853269984665640564039457584007913129639935"
      ],
      "transaction": {
        "from": "0x000ef5f21dc574226a06c76aae7060642a30eb74",
        "to": "0x15906379703940bc51a5881ad1a5fc481ebc8bb1",
        "gas": "0x90b8",
        "value": "0x0",
        "input": "0x095ea7b3000000000000000000000000bbd735db53ce42a7423b0861864dad6253588040ffffffffffffffffffffffffffffffffffffffffffffffffffffffffffffffff",
        "nonce": "0x73",
        "chainId": "0xaa37dc"
      },
      "additionalContracts": [],
      "isFixedGasLimit": false
    },
    {
      "hash": "0xf007d9ca2daded608f25a50b669bf8e1488fdb3e67a405d70895eaf5d6d29392",
      "transactionType": "CALL",
      "contractName": null,
      "contractAddress": "0xba397efef3914ab025f7f5706fade61f240a9ebc",
      "function": "approve(address,uint256)",
      "arguments": [
        "0xBbd735DB53cE42a7423B0861864dAD6253588040",
        "115792089237316195423570985008687907853269984665640564039457584007913129639935"
      ],
      "transaction": {
        "from": "0x000ef5f21dc574226a06c76aae7060642a30eb74",
        "to": "0xba397efef3914ab025f7f5706fade61f240a9ebc",
        "gas": "0x90b8",
        "value": "0x0",
        "input": "0x095ea7b3000000000000000000000000bbd735db53ce42a7423b0861864dad6253588040ffffffffffffffffffffffffffffffffffffffffffffffffffffffffffffffff",
        "nonce": "0x74",
        "chainId": "0xaa37dc"
      },
      "additionalContracts": [],
      "isFixedGasLimit": false
    },
    {
      "hash": "0x68519545279f2a527c70f9160002deda41692e1ba2474ee66d6bd088ca501b62",
      "transactionType": "CALL",
      "contractName": null,
      "contractAddress": "0x69801c169647ad125707dd40096d4edc20bb521a",
      "function": "swap((address,address,uint24,int24,address),(bool,int256,uint160),(bool,bool),bytes)",
      "arguments": [
        "(0x15906379703940bc51a5881Ad1a5fc481Ebc8bB1, 0xbA397eFEF3914aB025F7f5706fADE61f240A9EbC, 3000, 120, 0xBbd735DB53cE42a7423B0861864dAD6253588040)",
        "(true, 500000000000000000, 4295128740)",
        "(false, false)",
        "0x000000000000000000000000000ef5f21dc574226a06c76aae7060642a30eb74"
      ],
      "transaction": {
        "from": "0x000ef5f21dc574226a06c76aae7060642a30eb74",
        "to": "0x69801c169647ad125707dd40096d4edc20bb521a",
        "gas": "0x2f6d3",
        "value": "0x0",
        "input": "0x2229d0b400000000000000000000000015906379703940bc51a5881ad1a5fc481ebc8bb1000000000000000000000000ba397efef3914ab025f7f5706fade61f240a9ebc0000000000000000000000000000000000000000000000000000000000000bb80000000000000000000000000000000000000000000000000000000000000078000000000000000000000000bbd735db53ce42a7423b0861864dad6253588040000000000000000000000000000000000000000000000000000000000000000100000000000000000000000000000000000000000000000006f05b59d3b2000000000000000000000000000000000000000000000000000000000001000276a40000000000000000000000000000000000000000000000000000000000000000000000000000000000000000000000000000000000000000000000000000000000000000000000000000000000000000000000000000000000000000000001600000000000000000000000000000000000000000000000000000000000000020000000000000000000000000000ef5f21dc574226a06c76aae7060642a30eb74",
        "nonce": "0x75",
        "chainId": "0xaa37dc"
      },
      "additionalContracts": [],
      "isFixedGasLimit": false
    }
  ],
  "receipts": [
    {
      "status": "0x1",
      "cumulativeGasUsed": "0x46449",
      "logs": [
        {
          "address": "0x15906379703940bc51a5881ad1a5fc481ebc8bb1",
          "topics": [
            "0x8c5be1e5ebec7d5bd14f71427d1e84f3dd0314c0f7b2291e5b200ac8c7c3b925",
            "0x000000000000000000000000000ef5f21dc574226a06c76aae7060642a30eb74",
            "0x00000000000000000000000069801c169647ad125707dd40096d4edc20bb521a"
          ],
          "data": "0xffffffffffffffffffffffffffffffffffffffffffffffffffffffffffffffff",
          "blockHash": "0x0896f7655a31edd05260ef68a8da80c80bd5a7c1d1577c6ab20330d25e555a03",
          "blockNumber": "0x1311eda",
          "transactionHash": "0x9082bb86f1a7df279cd16bc5a2b91c4efecd2cf408b3c4ebe531df29db00970f",
          "transactionIndex": "0x4",
          "logIndex": "0x5",
          "removed": false
        }
      ],
      "logsBloom": "0x00000000000000000000000000000000000000000000000000000000000000000000000000020000000800000000000000000000000000000000000000200008000000000000000000000000000000000000000000000000000000000000000000000000000000000000000400000000000000000000000000000000000000000000000000000000100000000000000000000000000000000000000000000000020000000000000000000000000000000000000000000000000000000000080010000000000000000100000000000000000000000000000000000000040000000010000000000000000000000000000000000000000000000000000000000000",
      "type": "0x2",
      "transactionHash": "0x9082bb86f1a7df279cd16bc5a2b91c4efecd2cf408b3c4ebe531df29db00970f",
      "transactionIndex": "0x4",
      "blockHash": "0x0896f7655a31edd05260ef68a8da80c80bd5a7c1d1577c6ab20330d25e555a03",
      "blockNumber": "0x1311eda",
      "gasUsed": "0x68c7",
      "effectiveGasPrice": "0xf6a51",
      "from": "0x000ef5f21dc574226a06c76aae7060642a30eb74",
      "to": "0x15906379703940bc51a5881ad1a5fc481ebc8bb1",
      "contractAddress": null,
      "l1BaseFeeScalar": "0x1db0",
      "l1BlobBaseFee": "0x1",
      "l1BlobBaseFeeScalar": "0xd2730",
      "l1Fee": "0x10b0b31",
      "l1GasPrice": "0x15f5f2",
      "l1GasUsed": "0x640"
    },
    {
      "status": "0x1",
      "cumulativeGasUsed": "0x1a0ee7",
      "logs": [
        {
          "address": "0xba397efef3914ab025f7f5706fade61f240a9ebc",
          "topics": [
            "0x8c5be1e5ebec7d5bd14f71427d1e84f3dd0314c0f7b2291e5b200ac8c7c3b925",
            "0x000000000000000000000000000ef5f21dc574226a06c76aae7060642a30eb74",
            "0x00000000000000000000000069801c169647ad125707dd40096d4edc20bb521a"
          ],
          "data": "0xffffffffffffffffffffffffffffffffffffffffffffffffffffffffffffffff",
          "blockHash": "0x0896f7655a31edd05260ef68a8da80c80bd5a7c1d1577c6ab20330d25e555a03",
          "blockNumber": "0x1311eda",
          "transactionHash": "0x5399697aeea4de2c9cb7a7a00575b0c994926f90d44a3cb305ea0eab123d4681",
          "transactionIndex": "0x6",
          "logIndex": "0x10",
          "removed": false
        }
      ],
      "logsBloom": "0x00000000000000000000000000000000000000000000000000000000000000000000000000030000000800000000000000000000000000000000000020200000000000000000000000000000004000000000000000000000000000000000000000000000000000000000000400000000000000000000000000000000000000000000000000000000000000000000000000000000000000000000000000000000020000000000000000000000000000000000000000000000000000000000000010000000000000000100000000000000000000000000000000000000040000000010000000000000000000000000000000000000000000000000000000000000",
      "type": "0x2",
      "transactionHash": "0x5399697aeea4de2c9cb7a7a00575b0c994926f90d44a3cb305ea0eab123d4681",
      "transactionIndex": "0x6",
      "blockHash": "0x0896f7655a31edd05260ef68a8da80c80bd5a7c1d1577c6ab20330d25e555a03",
      "blockNumber": "0x1311eda",
      "gasUsed": "0x68c7",
      "effectiveGasPrice": "0xf6a51",
      "from": "0x000ef5f21dc574226a06c76aae7060642a30eb74",
      "to": "0xba397efef3914ab025f7f5706fade61f240a9ebc",
      "contractAddress": null,
      "l1BaseFeeScalar": "0x1db0",
      "l1BlobBaseFee": "0x1",
      "l1BlobBaseFeeScalar": "0xd2730",
      "l1Fee": "0x10b0b31",
      "l1GasPrice": "0x15f5f2",
      "l1GasUsed": "0x640"
    },
    {
      "status": "0x1",
      "cumulativeGasUsed": "0x1a77ae",
      "logs": [
        {
          "address": "0x15906379703940bc51a5881ad1a5fc481ebc8bb1",
          "topics": [
            "0x8c5be1e5ebec7d5bd14f71427d1e84f3dd0314c0f7b2291e5b200ac8c7c3b925",
            "0x000000000000000000000000000ef5f21dc574226a06c76aae7060642a30eb74",
            "0x000000000000000000000000440d0bee5706987be528fec5c4ca5947e38161d2"
          ],
          "data": "0xffffffffffffffffffffffffffffffffffffffffffffffffffffffffffffffff",
          "blockHash": "0x0896f7655a31edd05260ef68a8da80c80bd5a7c1d1577c6ab20330d25e555a03",
          "blockNumber": "0x1311eda",
          "transactionHash": "0x46c5523ce3bcd5bb07294ec6fe79e0be3d9ff9d8c5c21d141a040bb4d39d7fce",
          "transactionIndex": "0x7",
          "logIndex": "0x11",
          "removed": false
        }
      ],
      "logsBloom": "0x00000000000000000000000000000000000000000000000000000000000000000000000000020000000000000000000000000000000000000000000000200008000000000000000000000000000000000008000000000000000000000000000000000000000000000000000400000000000000000000000000000000000002000000000000000000100000000000000000000000000000000000000000000000020000000000000000000000000000000000000000000000000000000000080000000000000000000000000000000000800000000000000000000000040000000010000000000000000000000000000000000000000000000000000000000000",
      "type": "0x2",
      "transactionHash": "0x46c5523ce3bcd5bb07294ec6fe79e0be3d9ff9d8c5c21d141a040bb4d39d7fce",
      "transactionIndex": "0x7",
      "blockHash": "0x0896f7655a31edd05260ef68a8da80c80bd5a7c1d1577c6ab20330d25e555a03",
      "blockNumber": "0x1311eda",
      "gasUsed": "0x68c7",
      "effectiveGasPrice": "0xf6a51",
      "from": "0x000ef5f21dc574226a06c76aae7060642a30eb74",
      "to": "0x15906379703940bc51a5881ad1a5fc481ebc8bb1",
      "contractAddress": null,
      "l1BaseFeeScalar": "0x1db0",
      "l1BlobBaseFee": "0x1",
      "l1BlobBaseFeeScalar": "0xd2730",
      "l1Fee": "0x10b0b31",
      "l1GasPrice": "0x15f5f2",
      "l1GasUsed": "0x640"
    },
    {
      "status": "0x1",
      "cumulativeGasUsed": "0x1ae075",
      "logs": [
        {
          "address": "0xba397efef3914ab025f7f5706fade61f240a9ebc",
          "topics": [
            "0x8c5be1e5ebec7d5bd14f71427d1e84f3dd0314c0f7b2291e5b200ac8c7c3b925",
            "0x000000000000000000000000000ef5f21dc574226a06c76aae7060642a30eb74",
            "0x000000000000000000000000440d0bee5706987be528fec5c4ca5947e38161d2"
          ],
          "data": "0xffffffffffffffffffffffffffffffffffffffffffffffffffffffffffffffff",
          "blockHash": "0x0896f7655a31edd05260ef68a8da80c80bd5a7c1d1577c6ab20330d25e555a03",
          "blockNumber": "0x1311eda",
          "transactionHash": "0xfcd4498c78410b958b7ccde2097e725d786694c8ed440b2573df18e2a0f0359a",
          "transactionIndex": "0x8",
          "logIndex": "0x12",
          "removed": false
        }
      ],
      "logsBloom": "0x00000000000000000000000000000000000000000000000000000000000000000000000000030000000000000000000000000000000000000000000020200000000000000000000000000000004000000008000000000000000000000000000000000000000000000000000400000000000000000000000000000000000002000000000000000000000000000000000000000000000000000000000000000000020000000000000000000000000000000000000000000000000000000000000000000000000000000000000000000000800000000000000000000000040000000010000000000000000000000000000000000000000000000000000000000000",
      "type": "0x2",
      "transactionHash": "0xfcd4498c78410b958b7ccde2097e725d786694c8ed440b2573df18e2a0f0359a",
      "transactionIndex": "0x8",
      "blockHash": "0x0896f7655a31edd05260ef68a8da80c80bd5a7c1d1577c6ab20330d25e555a03",
      "blockNumber": "0x1311eda",
      "gasUsed": "0x68c7",
      "effectiveGasPrice": "0xf6a51",
      "from": "0x000ef5f21dc574226a06c76aae7060642a30eb74",
      "to": "0xba397efef3914ab025f7f5706fade61f240a9ebc",
      "contractAddress": null,
      "l1BaseFeeScalar": "0x1db0",
      "l1BlobBaseFee": "0x1",
      "l1BlobBaseFeeScalar": "0xd2730",
      "l1Fee": "0x10b0b31",
      "l1GasPrice": "0x15f5f2",
      "l1GasUsed": "0x640"
    },
    {
      "status": "0x1",
      "cumulativeGasUsed": "0x1b493c",
      "logs": [
        {
          "address": "0x15906379703940bc51a5881ad1a5fc481ebc8bb1",
          "topics": [
            "0x8c5be1e5ebec7d5bd14f71427d1e84f3dd0314c0f7b2291e5b200ac8c7c3b925",
            "0x000000000000000000000000000ef5f21dc574226a06c76aae7060642a30eb74",
            "0x000000000000000000000000bbd735db53ce42a7423b0861864dad6253588040"
          ],
          "data": "0xffffffffffffffffffffffffffffffffffffffffffffffffffffffffffffffff",
          "blockHash": "0x0896f7655a31edd05260ef68a8da80c80bd5a7c1d1577c6ab20330d25e555a03",
          "blockNumber": "0x1311eda",
          "transactionHash": "0xbf652cf42ca96b8d4c3c97dfaec87aeff5164cc683a0ead7dc2dc364c43358f7",
          "transactionIndex": "0x9",
          "logIndex": "0x13",
          "removed": false
        }
      ],
      "logsBloom": "0x00000000000000000000000000000000000000000000000000000000000000000000000000020000000000000000000000000000000000000000000000200008000000000000000000000000000000000000000000000000000000000040000000000000000000000000000400000000000000000000000000004000000000000000000000000000100000000000000000000000000000000000000000000000020000000000000000000000000000000000000000000000000000000000080000000000000000000000000000000000000000000000000000000000040000000010000000000000010000000000000000000000000000000000000000000000",
      "type": "0x2",
      "transactionHash": "0xbf652cf42ca96b8d4c3c97dfaec87aeff5164cc683a0ead7dc2dc364c43358f7",
      "transactionIndex": "0x9",
      "blockHash": "0x0896f7655a31edd05260ef68a8da80c80bd5a7c1d1577c6ab20330d25e555a03",
      "blockNumber": "0x1311eda",
      "gasUsed": "0x68c7",
      "effectiveGasPrice": "0xf6a51",
      "from": "0x000ef5f21dc574226a06c76aae7060642a30eb74",
      "to": "0x15906379703940bc51a5881ad1a5fc481ebc8bb1",
      "contractAddress": null,
      "l1BaseFeeScalar": "0x1db0",
      "l1BlobBaseFee": "0x1",
      "l1BlobBaseFeeScalar": "0xd2730",
      "l1Fee": "0x10b0b31",
      "l1GasPrice": "0x15f5f2",
      "l1GasUsed": "0x640"
    },
    {
      "status": "0x1",
      "cumulativeGasUsed": "0x1bb203",
      "logs": [
        {
          "address": "0xba397efef3914ab025f7f5706fade61f240a9ebc",
          "topics": [
            "0x8c5be1e5ebec7d5bd14f71427d1e84f3dd0314c0f7b2291e5b200ac8c7c3b925",
            "0x000000000000000000000000000ef5f21dc574226a06c76aae7060642a30eb74",
            "0x000000000000000000000000bbd735db53ce42a7423b0861864dad6253588040"
          ],
          "data": "0xffffffffffffffffffffffffffffffffffffffffffffffffffffffffffffffff",
          "blockHash": "0x0896f7655a31edd05260ef68a8da80c80bd5a7c1d1577c6ab20330d25e555a03",
          "blockNumber": "0x1311eda",
          "transactionHash": "0xf007d9ca2daded608f25a50b669bf8e1488fdb3e67a405d70895eaf5d6d29392",
          "transactionIndex": "0xa",
          "logIndex": "0x14",
          "removed": false
        }
      ],
      "logsBloom": "0x00000000000000000000000000000000000000000000000000000000000000000000000000030000000000000000000000000000000000000000000020200000000000000000000000000000004000000000000000000000000000000040000000000000000000000000000400000000000000000000000000004000000000000000000000000000000000000000000000000000000000000000000000000000020000000000000000000000000000000000000000000000000000000000000000000000000000000000000000000000000000000000000000000000040000000010000000000000010000000000000000000000000000000000000000000000",
      "type": "0x2",
      "transactionHash": "0xf007d9ca2daded608f25a50b669bf8e1488fdb3e67a405d70895eaf5d6d29392",
      "transactionIndex": "0xa",
      "blockHash": "0x0896f7655a31edd05260ef68a8da80c80bd5a7c1d1577c6ab20330d25e555a03",
      "blockNumber": "0x1311eda",
      "gasUsed": "0x68c7",
      "effectiveGasPrice": "0xf6a51",
      "from": "0x000ef5f21dc574226a06c76aae7060642a30eb74",
      "to": "0xba397efef3914ab025f7f5706fade61f240a9ebc",
      "contractAddress": null,
      "l1BaseFeeScalar": "0x1db0",
      "l1BlobBaseFee": "0x1",
      "l1BlobBaseFeeScalar": "0xd2730",
      "l1Fee": "0x10b0b31",
      "l1GasPrice": "0x15f5f2",
      "l1GasUsed": "0x640"
    },
    {
      "status": "0x1",
      "cumulativeGasUsed": "0x1db8de",
      "logs": [
        {
          "address": "0x536527976e98e253b424a3655e695d144e343341",
          "topics": [
            "0x40e9cecb9f5f1f1c5b9c97dec2917b7ee92e57ba5563708daca94dd84ad7112f",
            "0x90aa240e15ba025cea34cc5e314e0bbe1bd10d88fe6615ee1eb7b1b0cf89faca",
            "0x00000000000000000000000069801c169647ad125707dd40096d4edc20bb521a"
          ],
          "data": "0xfffffffffffffffffffffffffffffffffffffffffffffffff90a4334fdf1c6d700000000000000000000000000000000000000000000000006f05b59d3b200000000000000000000000000000000000000000000ffff58bb703b2961ef30a0c0000000000000000000000000000000000000000060ef6d38d44fd0dde2400000ffffffffffffffffffffffffffffffffffffffffffffffffffffffffffffffff0000000000000000000000000000000000000000000000000000000000000bb8",
          "blockHash": "0x0896f7655a31edd05260ef68a8da80c80bd5a7c1d1577c6ab20330d25e555a03",
          "blockNumber": "0x1311eda",
          "transactionHash": "0x68519545279f2a527c70f9160002deda41692e1ba2474ee66d6bd088ca501b62",
          "transactionIndex": "0xb",
          "logIndex": "0x15",
          "removed": false
        },
        {
          "address": "0x15906379703940bc51a5881ad1a5fc481ebc8bb1",
          "topics": [
            "0xddf252ad1be2c89b69c2b068fc378daa952ba7f163c4a11628f55a4df523b3ef",
            "0x000000000000000000000000000ef5f21dc574226a06c76aae7060642a30eb74",
            "0x000000000000000000000000536527976e98e253b424a3655e695d144e343341"
          ],
          "data": "0x00000000000000000000000000000000000000000000000006f5bccb020e3929",
          "blockHash": "0x0896f7655a31edd05260ef68a8da80c80bd5a7c1d1577c6ab20330d25e555a03",
          "blockNumber": "0x1311eda",
          "transactionHash": "0x68519545279f2a527c70f9160002deda41692e1ba2474ee66d6bd088ca501b62",
          "transactionIndex": "0xb",
          "logIndex": "0x16",
          "removed": false
        },
        {
          "address": "0xba397efef3914ab025f7f5706fade61f240a9ebc",
          "topics": [
            "0xddf252ad1be2c89b69c2b068fc378daa952ba7f163c4a11628f55a4df523b3ef",
            "0x000000000000000000000000536527976e98e253b424a3655e695d144e343341",
            "0x000000000000000000000000000ef5f21dc574226a06c76aae7060642a30eb74"
          ],
          "data": "0x00000000000000000000000000000000000000000000000006f05b59d3b20000",
          "blockHash": "0x0896f7655a31edd05260ef68a8da80c80bd5a7c1d1577c6ab20330d25e555a03",
          "blockNumber": "0x1311eda",
          "transactionHash": "0x68519545279f2a527c70f9160002deda41692e1ba2474ee66d6bd088ca501b62",
          "transactionIndex": "0xb",
          "logIndex": "0x17",
          "removed": false
        }
      ],
      "logsBloom": "0x0000000000400000000000000000000000000000000000000000000000000000000000000003000000080000000000000000000004000000000000002000000800000000000000000000020800400000000000000000002000000000000000000000000000000000000000040000000004000000000000000000001000000000000002000000000010000000000000000000000000000000004000000000000000000000000000000000400000000000000000000000000000000000000008001000000200020000010000000000000000000000000000000000000004000000000000000000000000c000000000000000000000008000000000000000000000",
      "type": "0x2",
      "transactionHash": "0x68519545279f2a527c70f9160002deda41692e1ba2474ee66d6bd088ca501b62",
      "transactionIndex": "0xb",
      "blockHash": "0x0896f7655a31edd05260ef68a8da80c80bd5a7c1d1577c6ab20330d25e555a03",
      "blockNumber": "0x1311eda",
      "gasUsed": "0x206db",
      "effectiveGasPrice": "0xf6a51",
      "from": "0x000ef5f21dc574226a06c76aae7060642a30eb74",
      "to": "0x69801c169647ad125707dd40096d4edc20bb521a",
      "contractAddress": null,
      "l1BaseFeeScalar": "0x1db0",
      "l1BlobBaseFee": "0x1",
      "l1BlobBaseFeeScalar": "0xd2730",
      "l1Fee": "0x1fb47ad",
      "l1GasPrice": "0x15f5f2",
      "l1GasUsed": "0xbdf"
    }
  ],
  "libraries": [],
  "pending": [],
  "returns": {},
  "timestamp": 1731795298,
  "chain": 11155420,
  "commit": "f193f39"
}