{
  "transactions": [
    {
      "hash": "0x3ecc02edd11baefa55723a2c722cb9a2755318052275fc92715ad0e283b759b2",
      "transactionType": "CALL",
      "contractName": null,
      "contractAddress": "0x15906379703940bc51a5881ad1a5fc481ebc8bb1",
      "function": "approve(address,uint256)",
      "arguments": [
        "0x69801C169647Ad125707Dd40096D4EDC20Bb521a",
        "115792089237316195423570985008687907853269984665640564039457584007913129639935"
      ],
      "transaction": {
        "from": "0x000ef5f21dc574226a06c76aae7060642a30eb74",
        "to": "0x15906379703940bc51a5881ad1a5fc481ebc8bb1",
        "gas": "0x90b8",
        "value": "0x0",
        "input": "0x095ea7b300000000000000000000000069801c169647ad125707dd40096d4edc20bb521affffffffffffffffffffffffffffffffffffffffffffffffffffffffffffffff",
        "nonce": "0x5e",
        "chainId": "0xaa37dc"
      },
      "additionalContracts": [],
      "isFixedGasLimit": false
    },
    {
      "hash": "0xdab406831c57c70dc6619f85fb8737cc2682b9f63c2803cadddcb064b8acb7dd",
      "transactionType": "CALL",
      "contractName": null,
      "contractAddress": "0xba397efef3914ab025f7f5706fade61f240a9ebc",
      "function": "approve(address,uint256)",
      "arguments": [
        "0x69801C169647Ad125707Dd40096D4EDC20Bb521a",
        "115792089237316195423570985008687907853269984665640564039457584007913129639935"
      ],
      "transaction": {
        "from": "0x000ef5f21dc574226a06c76aae7060642a30eb74",
        "to": "0xba397efef3914ab025f7f5706fade61f240a9ebc",
        "gas": "0x90b8",
        "value": "0x0",
        "input": "0x095ea7b300000000000000000000000069801c169647ad125707dd40096d4edc20bb521affffffffffffffffffffffffffffffffffffffffffffffffffffffffffffffff",
        "nonce": "0x5f",
        "chainId": "0xaa37dc"
      },
      "additionalContracts": [],
      "isFixedGasLimit": false
    },
    {
      "hash": "0xd5bdbbfda622dc3ef8c30aefa08dbd4abef03fc03ce47c7bb1407ee08be4dc05",
      "transactionType": "CALL",
      "contractName": null,
      "contractAddress": "0x15906379703940bc51a5881ad1a5fc481ebc8bb1",
      "function": "approve(address,uint256)",
      "arguments": [
        "0x440D0bEe5706987be528Fec5C4cA5947E38161d2",
        "115792089237316195423570985008687907853269984665640564039457584007913129639935"
      ],
      "transaction": {
        "from": "0x000ef5f21dc574226a06c76aae7060642a30eb74",
        "to": "0x15906379703940bc51a5881ad1a5fc481ebc8bb1",
        "gas": "0x90b8",
        "value": "0x0",
        "input": "0x095ea7b3000000000000000000000000440d0bee5706987be528fec5c4ca5947e38161d2ffffffffffffffffffffffffffffffffffffffffffffffffffffffffffffffff",
        "nonce": "0x60",
        "chainId": "0xaa37dc"
      },
      "additionalContracts": [],
      "isFixedGasLimit": false
    },
    {
      "hash": "0xa0c28bf8f8db8a57dcede6af22d9df9d71afe56e5880fe2e309c10152f88930a",
      "transactionType": "CALL",
      "contractName": null,
      "contractAddress": "0xba397efef3914ab025f7f5706fade61f240a9ebc",
      "function": "approve(address,uint256)",
      "arguments": [
        "0x440D0bEe5706987be528Fec5C4cA5947E38161d2",
        "115792089237316195423570985008687907853269984665640564039457584007913129639935"
      ],
      "transaction": {
        "from": "0x000ef5f21dc574226a06c76aae7060642a30eb74",
        "to": "0xba397efef3914ab025f7f5706fade61f240a9ebc",
        "gas": "0x90b8",
        "value": "0x0",
        "input": "0x095ea7b3000000000000000000000000440d0bee5706987be528fec5c4ca5947e38161d2ffffffffffffffffffffffffffffffffffffffffffffffffffffffffffffffff",
        "nonce": "0x61",
        "chainId": "0xaa37dc"
      },
      "additionalContracts": [],
      "isFixedGasLimit": false
    },
    {
      "hash": "0xdb3ed5f4d74f6907c0017914048191e7ac486c0849201283df0bfc82f668e422",
      "transactionType": "CALL",
      "contractName": null,
      "contractAddress": "0x15906379703940bc51a5881ad1a5fc481ebc8bb1",
      "function": "approve(address,uint256)",
      "arguments": [
        "0xBbd735DB53cE42a7423B0861864dAD6253588040",
        "115792089237316195423570985008687907853269984665640564039457584007913129639935"
      ],
      "transaction": {
        "from": "0x000ef5f21dc574226a06c76aae7060642a30eb74",
        "to": "0x15906379703940bc51a5881ad1a5fc481ebc8bb1",
        "gas": "0x90b8",
        "value": "0x0",
        "input": "0x095ea7b3000000000000000000000000bbd735db53ce42a7423b0861864dad6253588040ffffffffffffffffffffffffffffffffffffffffffffffffffffffffffffffff",
        "nonce": "0x62",
        "chainId": "0xaa37dc"
      },
      "additionalContracts": [],
      "isFixedGasLimit": false
    },
    {
      "hash": "0xf68ff3e5927daed18b34717c5d2249e258d35c2da3ca6518fa5f0a5fefd111fa",
      "transactionType": "CALL",
      "contractName": null,
      "contractAddress": "0xba397efef3914ab025f7f5706fade61f240a9ebc",
      "function": "approve(address,uint256)",
      "arguments": [
        "0xBbd735DB53cE42a7423B0861864dAD6253588040",
        "115792089237316195423570985008687907853269984665640564039457584007913129639935"
      ],
      "transaction": {
        "from": "0x000ef5f21dc574226a06c76aae7060642a30eb74",
        "to": "0xba397efef3914ab025f7f5706fade61f240a9ebc",
        "gas": "0x90b8",
        "value": "0x0",
        "input": "0x095ea7b3000000000000000000000000bbd735db53ce42a7423b0861864dad6253588040ffffffffffffffffffffffffffffffffffffffffffffffffffffffffffffffff",
        "nonce": "0x63",
        "chainId": "0xaa37dc"
      },
      "additionalContracts": [],
      "isFixedGasLimit": false
    },
    {
      "hash": "0x994b23c7f68def65a866825adc7772e84f46b76cf17424ba0fd75efef9773e15",
      "transactionType": "CALL",
      "contractName": null,
      "contractAddress": "0x440d0bee5706987be528fec5c4ca5947e38161d2",
      "function": "modifyLiquidity((address,address,uint24,int24,address),(int24,int24,int256,bytes32),bytes)",
      "arguments": [
        "(0x15906379703940bc51a5881Ad1a5fc481Ebc8bB1, 0xbA397eFEF3914aB025F7f5706fADE61f240A9EbC, 3000, 120, 0xBbd735DB53cE42a7423B0861864dAD6253588040)",
        "(-120, 120, 10000000000000000000000000000, 0x0000000000000000000000000000000000000000000000000000000000000000)",
        "0x"
      ],
      "transaction": {
        "from": "0x000ef5f21dc574226a06c76aae7060642a30eb74",
        "to": "0x440d0bee5706987be528fec5c4ca5947e38161d2",
        "gas": "0x378cb",
        "value": "0x0",
        "input": "0x5a6bcfda00000000000000000000000015906379703940bc51a5881ad1a5fc481ebc8bb1000000000000000000000000ba397efef3914ab025f7f5706fade61f240a9ebc0000000000000000000000000000000000000000000000000000000000000bb80000000000000000000000000000000000000000000000000000000000000078000000000000000000000000bbd735db53ce42a7423b0861864dad6253588040ffffffffffffffffffffffffffffffffffffffffffffffffffffffffffffff8800000000000000000000000000000000000000000000000000000000000000780000000000000000000000000000000000000000204fce5e3e25026110000000000000000000000000000000000000000000000000000000000000000000000000000000000000000000000000000000000000000000000000000000000001400000000000000000000000000000000000000000000000000000000000000000",
        "nonce": "0x64",
        "chainId": "0xaa37dc"
      },
      "additionalContracts": [],
      "isFixedGasLimit": false
    },
    {
      "hash": "0x732a9b0ff2b9cffcbe896a083bd0b4af4e0fba23b797a0350ecb9a83440c9139",
      "transactionType": "CALL",
      "contractName": null,
      "contractAddress": "0x69801c169647ad125707dd40096d4edc20bb521a",
      "function": "swap((address,address,uint24,int24,address),(bool,int256,uint160),(bool,bool),bytes)",
      "arguments": [
        "(0x15906379703940bc51a5881Ad1a5fc481Ebc8bB1, 0xbA397eFEF3914aB025F7f5706fADE61f240A9EbC, 3000, 120, 0xBbd735DB53cE42a7423B0861864dAD6253588040)",
        "(true, 500000000000000000, 4295128740)",
        "(false, false)",
        "0x000000000000000000000000000ef5f21dc574226a06c76aae7060642a30eb74"
      ],
      "transaction": {
        "from": "0x000ef5f21dc574226a06c76aae7060642a30eb74",
        "to": "0x69801c169647ad125707dd40096d4edc20bb521a",
        "gas": "0x2f6d3",
        "value": "0x0",
        "input": "0x2229d0b400000000000000000000000015906379703940bc51a5881ad1a5fc481ebc8bb1000000000000000000000000ba397efef3914ab025f7f5706fade61f240a9ebc0000000000000000000000000000000000000000000000000000000000000bb80000000000000000000000000000000000000000000000000000000000000078000000000000000000000000bbd735db53ce42a7423b0861864dad6253588040000000000000000000000000000000000000000000000000000000000000000100000000000000000000000000000000000000000000000006f05b59d3b2000000000000000000000000000000000000000000000000000000000001000276a40000000000000000000000000000000000000000000000000000000000000000000000000000000000000000000000000000000000000000000000000000000000000000000000000000000000000000000000000000000000000000000001600000000000000000000000000000000000000000000000000000000000000020000000000000000000000000000ef5f21dc574226a06c76aae7060642a30eb74",
        "nonce": "0x65",
        "chainId": "0xaa37dc"
      },
      "additionalContracts": [],
      "isFixedGasLimit": false
    }
  ],
  "receipts": [
    {
      "status": "0x1",
      "cumulativeGasUsed": "0x113fa",
      "logs": [
        {
          "address": "0x15906379703940bc51a5881ad1a5fc481ebc8bb1",
          "topics": [
            "0x8c5be1e5ebec7d5bd14f71427d1e84f3dd0314c0f7b2291e5b200ac8c7c3b925",
            "0x000000000000000000000000000ef5f21dc574226a06c76aae7060642a30eb74",
            "0x00000000000000000000000069801c169647ad125707dd40096d4edc20bb521a"
          ],
          "data": "0xffffffffffffffffffffffffffffffffffffffffffffffffffffffffffffffff",
          "blockHash": "0xde691e90131abb0be0f9478528049ad6170fa00d2c6e4b61a4b2bc0b1d9bc56f",
          "blockNumber": "0x13108aa",
          "transactionHash": "0x3ecc02edd11baefa55723a2c722cb9a2755318052275fc92715ad0e283b759b2",
          "transactionIndex": "0x1",
          "logIndex": "0x0",
          "removed": false
        }
      ],
      "logsBloom": "0x00000000000000000000000000000000000000000000000000000000000000000000000000020000000800000000000000000000000000000000000000200008000000000000000000000000000000000000000000000000000000000000000000000000000000000000000400000000000000000000000000000000000000000000000000000000100000000000000000000000000000000000000000000000020000000000000000000000000000000000000000000000000000000000080010000000000000000100000000000000000000000000000000000000040000000010000000000000000000000000000000000000000000000000000000000000",
      "type": "0x2",
      "transactionHash": "0x3ecc02edd11baefa55723a2c722cb9a2755318052275fc92715ad0e283b759b2",
      "transactionIndex": "0x1",
      "blockHash": "0xde691e90131abb0be0f9478528049ad6170fa00d2c6e4b61a4b2bc0b1d9bc56f",
      "blockNumber": "0x13108aa",
      "gasUsed": "0x68c7",
      "effectiveGasPrice": "0xf6a4e",
      "from": "0x000ef5f21dc574226a06c76aae7060642a30eb74",
      "to": "0x15906379703940bc51a5881ad1a5fc481ebc8bb1",
      "contractAddress": null,
      "l1BaseFeeScalar": "0x1db0",
      "l1BlobBaseFee": "0x1",
      "l1BlobBaseFeeScalar": "0xd2730",
      "l1Fee": "0x1364e87ec",
      "l1GasPrice": "0x1984c619",
      "l1GasUsed": "0x640"
    },
    {
      "status": "0x1",
      "cumulativeGasUsed": "0x17cc1",
      "logs": [
        {
          "address": "0xba397efef3914ab025f7f5706fade61f240a9ebc",
          "topics": [
            "0x8c5be1e5ebec7d5bd14f71427d1e84f3dd0314c0f7b2291e5b200ac8c7c3b925",
            "0x000000000000000000000000000ef5f21dc574226a06c76aae7060642a30eb74",
            "0x00000000000000000000000069801c169647ad125707dd40096d4edc20bb521a"
          ],
          "data": "0xffffffffffffffffffffffffffffffffffffffffffffffffffffffffffffffff",
          "blockHash": "0xde691e90131abb0be0f9478528049ad6170fa00d2c6e4b61a4b2bc0b1d9bc56f",
          "blockNumber": "0x13108aa",
          "transactionHash": "0xdab406831c57c70dc6619f85fb8737cc2682b9f63c2803cadddcb064b8acb7dd",
          "transactionIndex": "0x2",
          "logIndex": "0x1",
          "removed": false
        }
      ],
      "logsBloom": "0x00000000000000000000000000000000000000000000000000000000000000000000000000030000000800000000000000000000000000000000000020200000000000000000000000000000004000000000000000000000000000000000000000000000000000000000000400000000000000000000000000000000000000000000000000000000000000000000000000000000000000000000000000000000020000000000000000000000000000000000000000000000000000000000000010000000000000000100000000000000000000000000000000000000040000000010000000000000000000000000000000000000000000000000000000000000",
      "type": "0x2",
      "transactionHash": "0xdab406831c57c70dc6619f85fb8737cc2682b9f63c2803cadddcb064b8acb7dd",
      "transactionIndex": "0x2",
      "blockHash": "0xde691e90131abb0be0f9478528049ad6170fa00d2c6e4b61a4b2bc0b1d9bc56f",
      "blockNumber": "0x13108aa",
      "gasUsed": "0x68c7",
      "effectiveGasPrice": "0xf6a4e",
      "from": "0x000ef5f21dc574226a06c76aae7060642a30eb74",
      "to": "0xba397efef3914ab025f7f5706fade61f240a9ebc",
      "contractAddress": null,
      "l1BaseFeeScalar": "0x1db0",
      "l1BlobBaseFee": "0x1",
      "l1BlobBaseFeeScalar": "0xd2730",
      "l1Fee": "0x1364e87ec",
      "l1GasPrice": "0x1984c619",
      "l1GasUsed": "0x640"
    },
    {
      "status": "0x1",
      "cumulativeGasUsed": "0x1e588",
      "logs": [
        {
          "address": "0x15906379703940bc51a5881ad1a5fc481ebc8bb1",
          "topics": [
            "0x8c5be1e5ebec7d5bd14f71427d1e84f3dd0314c0f7b2291e5b200ac8c7c3b925",
            "0x000000000000000000000000000ef5f21dc574226a06c76aae7060642a30eb74",
            "0x000000000000000000000000440d0bee5706987be528fec5c4ca5947e38161d2"
          ],
          "data": "0xffffffffffffffffffffffffffffffffffffffffffffffffffffffffffffffff",
          "blockHash": "0xde691e90131abb0be0f9478528049ad6170fa00d2c6e4b61a4b2bc0b1d9bc56f",
          "blockNumber": "0x13108aa",
          "transactionHash": "0xd5bdbbfda622dc3ef8c30aefa08dbd4abef03fc03ce47c7bb1407ee08be4dc05",
          "transactionIndex": "0x3",
          "logIndex": "0x2",
          "removed": false
        }
      ],
      "logsBloom": "0x00000000000000000000000000000000000000000000000000000000000000000000000000020000000000000000000000000000000000000000000000200008000000000000000000000000000000000008000000000000000000000000000000000000000000000000000400000000000000000000000000000000000002000000000000000000100000000000000000000000000000000000000000000000020000000000000000000000000000000000000000000000000000000000080000000000000000000000000000000000800000000000000000000000040000000010000000000000000000000000000000000000000000000000000000000000",
      "type": "0x2",
      "transactionHash": "0xd5bdbbfda622dc3ef8c30aefa08dbd4abef03fc03ce47c7bb1407ee08be4dc05",
      "transactionIndex": "0x3",
      "blockHash": "0xde691e90131abb0be0f9478528049ad6170fa00d2c6e4b61a4b2bc0b1d9bc56f",
      "blockNumber": "0x13108aa",
      "gasUsed": "0x68c7",
      "effectiveGasPrice": "0xf6a4e",
      "from": "0x000ef5f21dc574226a06c76aae7060642a30eb74",
      "to": "0x15906379703940bc51a5881ad1a5fc481ebc8bb1",
      "contractAddress": null,
      "l1BaseFeeScalar": "0x1db0",
      "l1BlobBaseFee": "0x1",
      "l1BlobBaseFeeScalar": "0xd2730",
      "l1Fee": "0x1364e87ec",
      "l1GasPrice": "0x1984c619",
      "l1GasUsed": "0x640"
    },
    {
      "status": "0x1",
      "cumulativeGasUsed": "0x24e4f",
      "logs": [
        {
          "address": "0xba397efef3914ab025f7f5706fade61f240a9ebc",
          "topics": [
            "0x8c5be1e5ebec7d5bd14f71427d1e84f3dd0314c0f7b2291e5b200ac8c7c3b925",
            "0x000000000000000000000000000ef5f21dc574226a06c76aae7060642a30eb74",
            "0x000000000000000000000000440d0bee5706987be528fec5c4ca5947e38161d2"
          ],
          "data": "0xffffffffffffffffffffffffffffffffffffffffffffffffffffffffffffffff",
          "blockHash": "0xde691e90131abb0be0f9478528049ad6170fa00d2c6e4b61a4b2bc0b1d9bc56f",
          "blockNumber": "0x13108aa",
          "transactionHash": "0xa0c28bf8f8db8a57dcede6af22d9df9d71afe56e5880fe2e309c10152f88930a",
          "transactionIndex": "0x4",
          "logIndex": "0x3",
          "removed": false
        }
      ],
      "logsBloom": "0x00000000000000000000000000000000000000000000000000000000000000000000000000030000000000000000000000000000000000000000000020200000000000000000000000000000004000000008000000000000000000000000000000000000000000000000000400000000000000000000000000000000000002000000000000000000000000000000000000000000000000000000000000000000020000000000000000000000000000000000000000000000000000000000000000000000000000000000000000000000800000000000000000000000040000000010000000000000000000000000000000000000000000000000000000000000",
      "type": "0x2",
      "transactionHash": "0xa0c28bf8f8db8a57dcede6af22d9df9d71afe56e5880fe2e309c10152f88930a",
      "transactionIndex": "0x4",
      "blockHash": "0xde691e90131abb0be0f9478528049ad6170fa00d2c6e4b61a4b2bc0b1d9bc56f",
      "blockNumber": "0x13108aa",
      "gasUsed": "0x68c7",
      "effectiveGasPrice": "0xf6a4e",
      "from": "0x000ef5f21dc574226a06c76aae7060642a30eb74",
      "to": "0xba397efef3914ab025f7f5706fade61f240a9ebc",
      "contractAddress": null,
      "l1BaseFeeScalar": "0x1db0",
      "l1BlobBaseFee": "0x1",
      "l1BlobBaseFeeScalar": "0xd2730",
      "l1Fee": "0x1364e87ec",
      "l1GasPrice": "0x1984c619",
      "l1GasUsed": "0x640"
    },
    {
      "status": "0x1",
      "cumulativeGasUsed": "0x2b716",
      "logs": [
        {
          "address": "0x15906379703940bc51a5881ad1a5fc481ebc8bb1",
          "topics": [
            "0x8c5be1e5ebec7d5bd14f71427d1e84f3dd0314c0f7b2291e5b200ac8c7c3b925",
            "0x000000000000000000000000000ef5f21dc574226a06c76aae7060642a30eb74",
            "0x000000000000000000000000bbd735db53ce42a7423b0861864dad6253588040"
          ],
          "data": "0xffffffffffffffffffffffffffffffffffffffffffffffffffffffffffffffff",
          "blockHash": "0xde691e90131abb0be0f9478528049ad6170fa00d2c6e4b61a4b2bc0b1d9bc56f",
          "blockNumber": "0x13108aa",
          "transactionHash": "0xdb3ed5f4d74f6907c0017914048191e7ac486c0849201283df0bfc82f668e422",
          "transactionIndex": "0x5",
          "logIndex": "0x4",
          "removed": false
        }
      ],
      "logsBloom": "0x00000000000000000000000000000000000000000000000000000000000000000000000000020000000000000000000000000000000000000000000000200008000000000000000000000000000000000000000000000000000000000040000000000000000000000000000400000000000000000000000000004000000000000000000000000000100000000000000000000000000000000000000000000000020000000000000000000000000000000000000000000000000000000000080000000000000000000000000000000000000000000000000000000000040000000010000000000000010000000000000000000000000000000000000000000000",
      "type": "0x2",
      "transactionHash": "0xdb3ed5f4d74f6907c0017914048191e7ac486c0849201283df0bfc82f668e422",
      "transactionIndex": "0x5",
      "blockHash": "0xde691e90131abb0be0f9478528049ad6170fa00d2c6e4b61a4b2bc0b1d9bc56f",
      "blockNumber": "0x13108aa",
      "gasUsed": "0x68c7",
      "effectiveGasPrice": "0xf6a4e",
      "from": "0x000ef5f21dc574226a06c76aae7060642a30eb74",
      "to": "0x15906379703940bc51a5881ad1a5fc481ebc8bb1",
      "contractAddress": null,
      "l1BaseFeeScalar": "0x1db0",
      "l1BlobBaseFee": "0x1",
      "l1BlobBaseFeeScalar": "0xd2730",
      "l1Fee": "0x1364e87ec",
      "l1GasPrice": "0x1984c619",
      "l1GasUsed": "0x640"
    },
    {
      "status": "0x1",
      "cumulativeGasUsed": "0x31fdd",
      "logs": [
        {
          "address": "0xba397efef3914ab025f7f5706fade61f240a9ebc",
          "topics": [
            "0x8c5be1e5ebec7d5bd14f71427d1e84f3dd0314c0f7b2291e5b200ac8c7c3b925",
            "0x000000000000000000000000000ef5f21dc574226a06c76aae7060642a30eb74",
            "0x000000000000000000000000bbd735db53ce42a7423b0861864dad6253588040"
          ],
          "data": "0xffffffffffffffffffffffffffffffffffffffffffffffffffffffffffffffff",
          "blockHash": "0xde691e90131abb0be0f9478528049ad6170fa00d2c6e4b61a4b2bc0b1d9bc56f",
          "blockNumber": "0x13108aa",
          "transactionHash": "0xf68ff3e5927daed18b34717c5d2249e258d35c2da3ca6518fa5f0a5fefd111fa",
          "transactionIndex": "0x6",
          "logIndex": "0x5",
          "removed": false
        }
      ],
      "logsBloom": "0x00000000000000000000000000000000000000000000000000000000000000000000000000030000000000000000000000000000000000000000000020200000000000000000000000000000004000000000000000000000000000000040000000000000000000000000000400000000000000000000000000004000000000000000000000000000000000000000000000000000000000000000000000000000020000000000000000000000000000000000000000000000000000000000000000000000000000000000000000000000000000000000000000000000040000000010000000000000010000000000000000000000000000000000000000000000",
      "type": "0x2",
      "transactionHash": "0xf68ff3e5927daed18b34717c5d2249e258d35c2da3ca6518fa5f0a5fefd111fa",
      "transactionIndex": "0x6",
      "blockHash": "0xde691e90131abb0be0f9478528049ad6170fa00d2c6e4b61a4b2bc0b1d9bc56f",
      "blockNumber": "0x13108aa",
      "gasUsed": "0x68c7",
      "effectiveGasPrice": "0xf6a4e",
      "from": "0x000ef5f21dc574226a06c76aae7060642a30eb74",
      "to": "0xba397efef3914ab025f7f5706fade61f240a9ebc",
      "contractAddress": null,
      "l1BaseFeeScalar": "0x1db0",
      "l1BlobBaseFee": "0x1",
      "l1BlobBaseFeeScalar": "0xd2730",
      "l1Fee": "0x1364e87ec",
      "l1GasPrice": "0x1984c619",
      "l1GasUsed": "0x640"
    },
    {
      "status": "0x1",
      "cumulativeGasUsed": "0x57f96",
      "logs": [
        {
          "address": "0x536527976e98e253b424a3655e695d144e343341",
          "topics": [
            "0xf208f4912782fd25c7f114ca3723a2d5dd6f3bcc3ac8db5af63baa85f711d5ec",
            "0x90aa240e15ba025cea34cc5e314e0bbe1bd10d88fe6615ee1eb7b1b0cf89faca",
            "0x000000000000000000000000440d0bee5706987be528fec5c4ca5947e38161d2"
          ],
          "data": "0xffffffffffffffffffffffffffffffffffffffffffffffffffffffffffffff8800000000000000000000000000000000000000000000000000000000000000780000000000000000000000000000000000000000204fce5e3e250261100000000000000000000000000000000000000000000000000000000000000000000000",
          "blockHash": "0xde691e90131abb0be0f9478528049ad6170fa00d2c6e4b61a4b2bc0b1d9bc56f",
          "blockNumber": "0x13108aa",
          "transactionHash": "0x994b23c7f68def65a866825adc7772e84f46b76cf17424ba0fd75efef9773e15",
          "transactionIndex": "0x7",
          "logIndex": "0x6",
          "removed": false
        },
        {
          "address": "0x15906379703940bc51a5881ad1a5fc481ebc8bb1",
          "topics": [
            "0xddf252ad1be2c89b69c2b068fc378daa952ba7f163c4a11628f55a4df523b3ef",
            "0x000000000000000000000000000ef5f21dc574226a06c76aae7060642a30eb74",
            "0x000000000000000000000000536527976e98e253b424a3655e695d144e343341"
          ],
          "data": "0x000000000000000000000000000000000000000000318fef49c16a31650f81d0",
          "blockHash": "0xde691e90131abb0be0f9478528049ad6170fa00d2c6e4b61a4b2bc0b1d9bc56f",
          "blockNumber": "0x13108aa",
          "transactionHash": "0x994b23c7f68def65a866825adc7772e84f46b76cf17424ba0fd75efef9773e15",
          "transactionIndex": "0x7",
          "logIndex": "0x7",
          "removed": false
        },
        {
          "address": "0xba397efef3914ab025f7f5706fade61f240a9ebc",
          "topics": [
            "0xddf252ad1be2c89b69c2b068fc378daa952ba7f163c4a11628f55a4df523b3ef",
            "0x000000000000000000000000000ef5f21dc574226a06c76aae7060642a30eb74",
            "0x000000000000000000000000536527976e98e253b424a3655e695d144e343341"
          ],
          "data": "0x0000000000000000000000000000000000000000003165b5d7481ec0ba072329",
          "blockHash": "0xde691e90131abb0be0f9478528049ad6170fa00d2c6e4b61a4b2bc0b1d9bc56f",
          "blockNumber": "0x13108aa",
          "transactionHash": "0x994b23c7f68def65a866825adc7772e84f46b76cf17424ba0fd75efef9773e15",
          "transactionIndex": "0x7",
          "logIndex": "0x8",
          "removed": false
        }
      ],
      "logsBloom": "0x00000000004000000000000000000000000000000000000000000000000000000000000000030000000000000000000000000000000000000000000020000008000000000000000000000208004000000008000000000000000000000000000000000000000000000000000400000000040000000000000000000010000002000000020001000000100000000000000000000000000000000040000000000000000004000000000000004000000000000000000000000000000000000000080000000002000200000000000000000000800000000000000000000000040000000000000000000000008000000000000004000000008000000000000000000000",
      "type": "0x2",
      "transactionHash": "0x994b23c7f68def65a866825adc7772e84f46b76cf17424ba0fd75efef9773e15",
      "transactionIndex": "0x7",
      "blockHash": "0xde691e90131abb0be0f9478528049ad6170fa00d2c6e4b61a4b2bc0b1d9bc56f",
      "blockNumber": "0x13108aa",
      "gasUsed": "0x25fb9",
      "effectiveGasPrice": "0xf6a4e",
      "from": "0x000ef5f21dc574226a06c76aae7060642a30eb74",
      "to": "0x440d0bee5706987be528fec5c4ca5947e38161d2",
      "contractAddress": null,
      "l1BaseFeeScalar": "0x1db0",
      "l1BlobBaseFee": "0x1",
      "l1BlobBaseFeeScalar": "0xd2730",
      "l1Fee": "0x204c873eb",
      "l1GasPrice": "0x1984c619",
      "l1GasUsed": "0xa68"
    },
    {
      "status": "0x1",
      "cumulativeGasUsed": "0x78671",
      "logs": [
        {
          "address": "0x536527976e98e253b424a3655e695d144e343341",
          "topics": [
            "0x40e9cecb9f5f1f1c5b9c97dec2917b7ee92e57ba5563708daca94dd84ad7112f",
            "0x90aa240e15ba025cea34cc5e314e0bbe1bd10d88fe6615ee1eb7b1b0cf89faca",
            "0x00000000000000000000000069801c169647ad125707dd40096d4edc20bb521a"
          ],
          "data": "0xfffffffffffffffffffffffffffffffffffffffffffffffff90a4334fef0dcd600000000000000000000000000000000000000000000000006f05b59d3b200000000000000000000000000000000000000000000ffff58bb828e68e203a82203000000000000000000000000000000000000000060ef6d38d44fd0dde2400000ffffffffffffffffffffffffffffffffffffffffffffffffffffffffffffffff0000000000000000000000000000000000000000000000000000000000000bb8",
          "blockHash": "0xde691e90131abb0be0f9478528049ad6170fa00d2c6e4b61a4b2bc0b1d9bc56f",
          "blockNumber": "0x13108aa",
          "transactionHash": "0x732a9b0ff2b9cffcbe896a083bd0b4af4e0fba23b797a0350ecb9a83440c9139",
          "transactionIndex": "0x8",
          "logIndex": "0x9",
          "removed": false
        },
        {
          "address": "0x15906379703940bc51a5881ad1a5fc481ebc8bb1",
          "topics": [
            "0xddf252ad1be2c89b69c2b068fc378daa952ba7f163c4a11628f55a4df523b3ef",
            "0x000000000000000000000000000ef5f21dc574226a06c76aae7060642a30eb74",
            "0x000000000000000000000000536527976e98e253b424a3655e695d144e343341"
          ],
          "data": "0x00000000000000000000000000000000000000000000000006f5bccb010f232a",
          "blockHash": "0xde691e90131abb0be0f9478528049ad6170fa00d2c6e4b61a4b2bc0b1d9bc56f",
          "blockNumber": "0x13108aa",
          "transactionHash": "0x732a9b0ff2b9cffcbe896a083bd0b4af4e0fba23b797a0350ecb9a83440c9139",
          "transactionIndex": "0x8",
          "logIndex": "0xa",
          "removed": false
        },
        {
          "address": "0xba397efef3914ab025f7f5706fade61f240a9ebc",
          "topics": [
            "0xddf252ad1be2c89b69c2b068fc378daa952ba7f163c4a11628f55a4df523b3ef",
            "0x000000000000000000000000536527976e98e253b424a3655e695d144e343341",
            "0x000000000000000000000000000ef5f21dc574226a06c76aae7060642a30eb74"
          ],
          "data": "0x00000000000000000000000000000000000000000000000006f05b59d3b20000",
          "blockHash": "0xde691e90131abb0be0f9478528049ad6170fa00d2c6e4b61a4b2bc0b1d9bc56f",
          "blockNumber": "0x13108aa",
          "transactionHash": "0x732a9b0ff2b9cffcbe896a083bd0b4af4e0fba23b797a0350ecb9a83440c9139",
          "transactionIndex": "0x8",
          "logIndex": "0xb",
          "removed": false
        }
      ],
      "logsBloom": "0x0000000000400000000000000000000000000000000000000000000000000000000000000003000000080000000000000000000004000000000000002000000800000000000000000000020800400000000000000000002000000000000000000000000000000000000000040000000004000000000000000000001000000000000002000000000010000000000000000000000000000000004000000000000000000000000000000000400000000000000000000000000000000000000008001000000200020000010000000000000000000000000000000000000004000000000000000000000000c000000000000000000000008000000000000000000000",
      "type": "0x2",
      "transactionHash": "0x732a9b0ff2b9cffcbe896a083bd0b4af4e0fba23b797a0350ecb9a83440c9139",
      "transactionIndex": "0x8",
      "blockHash": "0xde691e90131abb0be0f9478528049ad6170fa00d2c6e4b61a4b2bc0b1d9bc56f",
      "blockNumber": "0x13108aa",
      "gasUsed": "0x206db",
      "effectiveGasPrice": "0xf6a4e",
      "from": "0x000ef5f21dc574226a06c76aae7060642a30eb74",
      "to": "0x69801c169647ad125707dd40096d4edc20bb521a",
      "contractAddress": null,
      "l1BaseFeeScalar": "0x1db0",
      "l1BlobBaseFee": "0x1",
      "l1BlobBaseFeeScalar": "0xd2730",
      "l1Fee": "0x24d768ba8",
      "l1GasPrice": "0x1984c619",
      "l1GasUsed": "0xbdf"
    }
  ],
  "libraries": [],
  "pending": [],
  "returns": {},
  "timestamp": 1731783938,
  "chain": 11155420,
  "commit": "f193f39"
}