{
  "transactions": [
    {
      "hash": "0xe70b8a6bca716bee64894a0cfae6ca50bbe89f11ea6ca722522cdf4cb3b1b0a5",
      "transactionType": "CREATE",
      "contractName": "OmniSwapSpoke",
      "contractAddress": "0x11d1e6fab5be8365a9e2b09b7fbce17eb2f85425",
      "function": null,
      "arguments": [
        "0x6EDCE65403992e310A62460808c4b910D972f10f"
      ],
      "transaction": {
        "from": "0x000ef5f21dc574226a06c76aae7060642a30eb74",
        "gas": "0x113747",
        "value": "0x0",
        "input": "0x60803460cd57601f610eb838819003918201601f19168301916001600160401b0383118484101760d15780849260209460405283398101031260cd57516001600160a01b0381169081900360cd57331560ba575f8054336001600160a01b0319821681178355604051939290916001600160a01b0316907f8be0079c531659141344cd1fd0a4f28419497f9722a3daafe3b4186f6b6457e09080a3600380546001600160a01b031916919091179055610dd290816100e68239f35b631e4fbdf760e01b5f525f60045260245ffd5b5f80fd5b634e487b7160e01b5f52604160045260245ffdfe60806040526004361015610011575f80fd5b5f3560e01c8063542524dd146100c45780636c1a032c146100bf578063715018a6146100ba5780637f5a7c7b146100b55780638b02705d146100b05780638da5cb5b146100ab578063b353aaa7146100a6578063c31c9c07146100a1578063c7b8e15d1461009c578063d0a10260146100975763f2fde38b14610092575f80fd5b6106dd565b610305565b6102b7565b61028f565b610267565b610240565b61020f565b6101e7565b610190565b610148565b6100dd565b634e487b7160e01b5f52601160045260245ffd5b3461010b575f36600319011261010b57602060405173fffd8963efd1fc6a506488495d951d5263988d258152f35b5f80fd5b6001600160a01b0381160361010b57565b604090600319011261010b576004356101388161010f565b906024356101458161010f565b90565b3461010b5761015636610120565b9061015f610adf565b600180546001600160a01b039283166001600160a01b03199182161790915560028054939092169216919091179055005b3461010b575f36600319011261010b576101a8610adf565b5f80546001600160a01b0319811682556001600160a01b03167f8be0079c531659141344cd1fd0a4f28419497f9722a3daafe3b4186f6b6457e08280a3005b3461010b575f36600319011261010b576002546040516001600160a01b039091168152602090f35b3461010b57604061022861022236610120565b90610766565b82516001600160a01b03928316815291166020820152f35b3461010b575f36600319011261010b575f546040516001600160a01b039091168152602090f35b3461010b575f36600319011261010b576003546040516001600160a01b039091168152602090f35b3461010b575f36600319011261010b576001546040516001600160a01b039091168152602090f35b3461010b575f36600319011261010b5760206401000276a4604051908152f35b9181601f8401121561010b5782359167ffffffffffffffff831161010b576020838186019501011161010b57565b60a036600319011261010b5760043561031d8161010f565b60443567ffffffffffffffff811161010b5761033d9036906004016102d7565b909161034a60643561010f565b6084359167ffffffffffffffff831161010b5761036e61042b9336906004016102d7565b505060035461039890610391906001600160a01b03165b6001600160a01b031690565b3314610780565b6103a28185610b05565b6103be6103af8387610b14565b602080825183010191016107cc565b6001600160a01b0390811696911694906103d88786610766565b6001546001600160a01b03978816979194929160209187916103fa9116610385565b60405163095ea7b360e01b81526001600160a01b039091166004820152602481019190915292839081906044820190565b03815f8b5af180156106805761051a946020936104a1926106b2575b50600254610482906001600160a01b03169161047361046461084f565b6001600160a01b039096168652565b6001600160a01b031684860152565b610bb86040840152607860608401526001600160a01b03166080830152565b6001546104b6906001600160a01b0316610385565b6401000276a46104e76104c7610860565b6001815291655af3107a4000838701526001600160a01b03166040830152565b5f6104f061086f565b9381855281868601526105288c604051998a91898301919091602081019260018060a01b03169052565b03601f1981018a5289610805565b6105486040519889968795869463088a742d60e21b8652600486016108c0565b03925af1801561068057869460c09361057f92610685575b5061057961057461056f610b5e565b610b7a565b610c7a565b92610d2c565b9061059761058b61087e565b63ffffffff9093168352565b846020830152655af3107a40006040830152655af3107a4000606083015260808201526105c2610972565b60a08201526105cf610972565b828201526105db61086f565b3481525f602082015260405163c7c7f5b360e01b81529485928392610604929160048501610a30565b038134895af1908115610680577fd6fad783f6ce60919b6ee64c639cbdcedc0dd52b96be62e1df509272cdd4e4a29261064d92610652575b506040519081529081906020820190565b0390a4005b6106739060c03d60c011610679575b61066b8183610805565b8101906109bf565b5061063c565b503d610661565b610844565b6106a69060203d6020116106ab575b61069e8183610805565b81019061088d565b610560565b503d610694565b6106d190853d87116106d6575b6106c98183610805565b81019061082c565b610447565b503d6106bf565b3461010b57602036600319011261010b576004356106fa8161010f565b610702610adf565b6001600160a01b03168015610753575f80546001600160a01b03198116831782556001600160a01b0316907f8be0079c531659141344cd1fd0a4f28419497f9722a3daafe3b4186f6b6457e09080a3005b631e4fbdf760e01b5f525f60045260245ffd5b6001600160a01b0391821692911682811115610145579190565b1561078757565b60405162461bcd60e51b815260206004820152601c60248201527f4f6e6c79204c5a20656e64706f696e742063616e20636f6d706f7365000000006044820152606490fd5b919082604091031261010b57602082516107e58161010f565b9201516101458161010f565b634e487b7160e01b5f52604160045260245ffd5b90601f8019910116810190811067ffffffffffffffff82111761082757604052565b6107f1565b9081602091031261010b5751801515810361010b5790565b6040513d5f823e3d90fd5b6040519061085e60a083610805565b565b6040519061085e606083610805565b6040519061085e604083610805565b6040519061085e60e083610805565b9081602091031261010b575190565b805180835260209291819084018484015e5f828201840152601f01601f1916010190565b81516001600160a01b03908116825260208084015182168184015260408085015162ffffff168185015260608086015160020b908501526080948501518316948401949094528451151560a084015284015160c083015291909201511660e0820152610145929161016091906109489080511515610100840152602001511515610120830152565b81610140820152019061089c565b67ffffffffffffffff811161082757601f01601f191660200190565b60405190610981602083610805565b5f8252565b919082604091031261010b576040516040810181811067ffffffffffffffff821117610827576040526020808294805184520151910152565b919082810360c0811261010b5760801361010b57604051906060820182811067ffffffffffffffff8211176108275760405283518252602084015167ffffffffffffffff8116810361010b57826080916020610145950152610a248360408801610986565b60408201529401610986565b606090610acf610aba61085e959796946080845263ffffffff8151166080850152602081015160a0850152604081015160c08501528481015160e085015260c0610aa5610a8e608084015160e061010089015261016088019061089c565b60a0840151878203607f190161012089015261089c565b910151848203607f190161014086015261089c565b96602083019060208091805184520151910152565b6001600160a01b03909216910152565b5f546001600160a01b03163303610af257565b63118cdaa760e01b5f523360045260245ffd5b90602c1161010b57600c013590565b9080604c1161010b57604c8201604b19820191610b3083610956565b93610b3e6040519586610805565b838552369082011161010b575f9260209283860137830101604b19015290565b604051600360f01b602082015260028152610145602282610805565b600361ffff610b8883610d3e565b1603610c6e57604051610c3560861b602082015260108152610bab603082610805565b600361ffff610bb984610d3e565b1603610c4f57805161ffff8111610c385761ffff60019116019161ffff8311610c3357610c25610145926004610bf9956040519687956020870190610d8a565b600160f81b80825260f09290921b6001600160f01b031916600182015260038101919091520190610d8a565b03601f198101835282610805565b6100c9565b6306dfcc6560e41b5f52601060045260245260445ffd5b61ffff610c5b83610d3e565b633a51740d60e01b5f521660045260245ffd5b610c5b61ffff91610d3e565b600361ffff610c8883610d3e565b1603610c6e576040515f6020820152613d0960851b602282015260128152610cb1603282610805565b600361ffff610cbf84610d3e565b1603610c4f57805161ffff8111610c385761ffff60019116019161ffff8311610c3357610c25610145926004610cff956040519687956020870190610d8a565b600160f81b815260f09190911b6001600160f01b0319166001820152600360f81b60038201520190610d8a565b90600c1161010b576008013560e01c90565b6002815110610d4e576002015190565b60405162461bcd60e51b8152602060048201526014602482015273746f55696e7431365f6f75744f66426f756e647360601b6044820152606490fd5b805191908290602001825e015f81529056fea2646970667358221220bc7542284d2b1149ee31b8ab8b0dfaecddb6f93eabebcab3658705673006d0fd64736f6c634300081a00330000000000000000000000006edce65403992e310a62460808c4b910d972f10f",
        "nonce": "0x69",
        "chainId": "0xaa37dc"
      },
      "additionalContracts": [],
      "isFixedGasLimit": false
    },
    {
      "hash": "0x639f700ed2c18021a6adecd46975113f4eace040c166cc3ed5bd66d4fcace841",
      "transactionType": "CALL",
      "contractName": "OmniSwapSpoke",
      "contractAddress": "0x11d1e6fab5be8365a9e2b09b7fbce17eb2f85425",
      "function": "configurePool(address,address)",
      "arguments": [
        "0x69801C169647Ad125707Dd40096D4EDC20Bb521a",
        "0xBbd735DB53cE42a7423B0861864dAD6253588040"
      ],
      "transaction": {
        "from": "0x000ef5f21dc574226a06c76aae7060642a30eb74",
        "to": "0x11d1e6fab5be8365a9e2b09b7fbce17eb2f85425",
        "gas": "0x1721f",
        "value": "0x0",
        "input": "0x6c1a032c00000000000000000000000069801c169647ad125707dd40096d4edc20bb521a000000000000000000000000bbd735db53ce42a7423b0861864dad6253588040",
        "nonce": "0x6a",
        "chainId": "0xaa37dc"
      },
      "additionalContracts": [],
      "isFixedGasLimit": false
    },
    {
      "hash": "0x62d8c576a723618a77d961bb62af5511b77daf54fa81bb03a4bfecdd8ba7b9ce",
      "transactionType": "CALL",
      "contractName": null,
      "contractAddress": "0xba397efef3914ab025f7f5706fade61f240a9ebc",
      "function": "mint(address,uint256)",
      "arguments": [
        "0x11d1e6FAb5be8365a9e2b09b7fbce17Eb2f85425",
        "10000000000000000000000000000000"
      ],
      "transaction": {
        "from": "0x000ef5f21dc574226a06c76aae7060642a30eb74",
        "to": "0xba397efef3914ab025f7f5706fade61f240a9ebc",
        "gas": "0x1328a",
        "value": "0x0",
        "input": "0x40c10f1900000000000000000000000011d1e6fab5be8365a9e2b09b7fbce17eb2f85425000000000000000000000000000000000000007e37be2022c0914b2680000000",
        "nonce": "0x6b",
        "chainId": "0xaa37dc"
      },
      "additionalContracts": [],
      "isFixedGasLimit": false
    }
  ],
  "receipts": [
    {
      "status": "0x1",
      "cumulativeGasUsed": "0xe3b66",
      "logs": [
        {
          "address": "0x11d1e6fab5be8365a9e2b09b7fbce17eb2f85425",
          "topics": [
            "0x8be0079c531659141344cd1fd0a4f28419497f9722a3daafe3b4186f6b6457e0",
            "0x0000000000000000000000000000000000000000000000000000000000000000",
            "0x000000000000000000000000000ef5f21dc574226a06c76aae7060642a30eb74"
          ],
          "data": "0x",
          "blockHash": "0xe89023a1049a1ac095e38cf2d7a36afbdb0dfa452cdf7763e94163d01cb71bb1",
          "blockNumber": "0x1311d53",
          "transactionHash": "0xe70b8a6bca716bee64894a0cfae6ca50bbe89f11ea6ca722522cdf4cb3b1b0a5",
          "transactionIndex": "0x2",
          "logIndex": "0x0",
          "removed": false
        }
      ],
      "logsBloom": "0x00000000000000000000000000000000000000000000000000800000000000000000000000020000000000000000000000000000000000000000000000000000000000000000000000000000000000000001000000000000000000000000000000000000020000000000000400000800000000000000000000000000000000400004000000000000000000000000000000000000000000000000000000000000000000000000000000000000000000000000000000000000000000000000000000000000000000000000000000000000000000080000000000000000040020000000000000000000000000000000000000002000000000000000000000000000",
      "type": "0x2",
      "transactionHash": "0xe70b8a6bca716bee64894a0cfae6ca50bbe89f11ea6ca722522cdf4cb3b1b0a5",
      "transactionIndex": "0x2",
      "blockHash": "0xe89023a1049a1ac095e38cf2d7a36afbdb0dfa452cdf7763e94163d01cb71bb1",
      "blockNumber": "0x1311d53",
      "gasUsed": "0xd3e37",
      "effectiveGasPrice": "0xf6a4f",
      "from": "0x000ef5f21dc574226a06c76aae7060642a30eb74",
      "to": null,
      "contractAddress": "0x11d1e6fab5be8365a9e2b09b7fbce17eb2f85425",
      "l1BaseFeeScalar": "0x1db0",
      "l1BlobBaseFee": "0x1",
      "l1BlobBaseFeeScalar": "0xd2730",
      "l1Fee": "0x266a9d7c",
      "l1GasPrice": "0x227488",
      "l1GasUsed": "0x92b4"
    },
    {
      "status": "0x1",
      "cumulativeGasUsed": "0xf475d",
      "logs": [],
      "logsBloom": "0x00000000000000000000000000000000000000000000000000000000000000000000000000000000000000000000000000000000000000000000000000000000000000000000000000000000000000000000000000000000000000000000000000000000000000000000000000000000000000000000000000000000000000000000000000000000000000000000000000000000000000000000000000000000000000000000000000000000000000000000000000000000000000000000000000000000000000000000000000000000000000000000000000000000000000000000000000000000000000000000000000000000000000000000000000000000",
      "type": "0x2",
      "transactionHash": "0x639f700ed2c18021a6adecd46975113f4eace040c166cc3ed5bd66d4fcace841",
      "transactionIndex": "0x3",
      "blockHash": "0xe89023a1049a1ac095e38cf2d7a36afbdb0dfa452cdf7763e94163d01cb71bb1",
      "blockNumber": "0x1311d53",
      "gasUsed": "0x10bf7",
      "effectiveGasPrice": "0xf6a4f",
      "from": "0x000ef5f21dc574226a06c76aae7060642a30eb74",
      "to": "0x11d1e6fab5be8365a9e2b09b7fbce17eb2f85425",
      "contractAddress": null,
      "l1BaseFeeScalar": "0x1db0",
      "l1BlobBaseFee": "0x1",
      "l1BlobBaseFeeScalar": "0xd2730",
      "l1Fee": "0x1a2f9ff",
      "l1GasPrice": "0x227488",
      "l1GasUsed": "0x640"
    },
    {
      "status": "0x1",
      "cumulativeGasUsed": "0x1018f7",
      "logs": [
        {
          "address": "0xba397efef3914ab025f7f5706fade61f240a9ebc",
          "topics": [
            "0xddf252ad1be2c89b69c2b068fc378daa952ba7f163c4a11628f55a4df523b3ef",
            "0x0000000000000000000000000000000000000000000000000000000000000000",
            "0x00000000000000000000000011d1e6fab5be8365a9e2b09b7fbce17eb2f85425"
          ],
          "data": "0x000000000000000000000000000000000000007e37be2022c0914b2680000000",
          "blockHash": "0xe89023a1049a1ac095e38cf2d7a36afbdb0dfa452cdf7763e94163d01cb71bb1",
          "blockNumber": "0x1311d53",
          "transactionHash": "0x62d8c576a723618a77d961bb62af5511b77daf54fa81bb03a4bfecdd8ba7b9ce",
          "transactionIndex": "0x4",
          "logIndex": "0x1",
          "removed": false
        }
      ],
      "logsBloom": "0x00000000000000000000000000000000000000000000000000000000000000000000000000010000000000000000000000000000000000000000000020000000000000020000000000000008004000000000000000000000000000000000000000000000020000000000000000000800000000000000000000000010000000000000000000000200000000000000000000000000000000000000000000000000000000000000000000000000000000000000000000000000000000000000000000000002000000000000000000000000000000000000800000000000000020000000000000000000000000000000000000000000000000000000000000000000",
      "type": "0x2",
      "transactionHash": "0x62d8c576a723618a77d961bb62af5511b77daf54fa81bb03a4bfecdd8ba7b9ce",
      "transactionIndex": "0x4",
      "blockHash": "0xe89023a1049a1ac095e38cf2d7a36afbdb0dfa452cdf7763e94163d01cb71bb1",
      "blockNumber": "0x1311d53",
      "gasUsed": "0xd19a",
      "effectiveGasPrice": "0xf6a4f",
      "from": "0x000ef5f21dc574226a06c76aae7060642a30eb74",
      "to": "0xba397efef3914ab025f7f5706fade61f240a9ebc",
      "contractAddress": null,
      "l1BaseFeeScalar": "0x1db0",
      "l1BlobBaseFee": "0x1",
      "l1BlobBaseFeeScalar": "0xd2730",
      "l1Fee": "0x1a2f9ff",
      "l1GasPrice": "0x227488",
      "l1GasUsed": "0x640"
    }
  ],
  "libraries": [],
  "pending": [],
  "returns": {},
  "timestamp": 1731794515,
  "chain": 11155420,
  "commit": "f193f39"
}