{
  "transactions": [
    {
      "hash": "0x618b0027d4d4004e5dfb9755aa752581451013a8afb2b4a60391bb1d183ce2f9",
      "transactionType": "CREATE",
      "contractName": "OmniSwapSpoke",
      "contractAddress": "0xa01b91317af828685c182f94c1816d22790f382f",
      "function": null,
      "arguments": [
        "0x6EDCE65403992e310A62460808c4b910D972f10f"
      ],
      "transaction": {
        "from": "0x000ef5f21dc574226a06c76aae7060642a30eb74",
        "gas": "0xe23e1",
        "value": "0x0",
        "input": "0x60803460cd57601f610bed38819003918201601f19168301916001600160401b0383118484101760d15780849260209460405283398101031260cd57516001600160a01b0381169081900360cd57331560ba575f8054336001600160a01b0319821681178355604051939290916001600160a01b0316907f8be0079c531659141344cd1fd0a4f28419497f9722a3daafe3b4186f6b6457e09080a3600380546001600160a01b031916919091179055610b0790816100e68239f35b631e4fbdf760e01b5f525f60045260245ffd5b5f80fd5b634e487b7160e01b5f52604160045260245ffdfe60806040526004361015610011575f80fd5b5f3560e01c8063542524dd146100b45780636c1a032c146100af578063715018a6146100aa5780637f5a7c7b146100a55780638da5cb5b146100a0578063b353aaa71461009b578063c31c9c0714610096578063c7b8e15d14610091578063d0a102601461008c5763f2fde38b14610087575f80fd5b61059e565b6102b1565b610264565b61023c565b610214565b6101ed565b6101c5565b61016e565b61010b565b346100e2575f3660031901126100e257602060405173fffd8963efd1fc6a506488495d951d5263988d258152f35b5f80fd5b634e487b7160e01b5f52601160045260245ffd5b6001600160a01b038116036100e257565b346100e25760403660031901126100e257600435610128816100fa565b60243590610135826100fa565b61013d6108c6565b600180546001600160a01b039283166001600160a01b03199182161790915560028054939092169216919091179055005b346100e2575f3660031901126100e2576101866108c6565b5f80546001600160a01b0319811682556001600160a01b03167f8be0079c531659141344cd1fd0a4f28419497f9722a3daafe3b4186f6b6457e08280a3005b346100e2575f3660031901126100e2576002546040516001600160a01b039091168152602090f35b346100e2575f3660031901126100e2575f546040516001600160a01b039091168152602090f35b346100e2575f3660031901126100e2576003546040516001600160a01b039091168152602090f35b346100e2575f3660031901126100e2576001546040516001600160a01b039091168152602090f35b346100e2575f3660031901126100e25760206040516401000276a48152f35b9181601f840112156100e25782359167ffffffffffffffff83116100e257602083818601950101116100e257565b60a03660031901126100e2576004356102c9816100fa565b60443567ffffffffffffffff81116100e2576102e9903690600401610283565b906102f56064356100fa565b60843567ffffffffffffffff81116100e257610315903690600401610283565b505060035461032e906001600160a01b03163314610627565b61033882826108ec565b9161035561034682846108fb565b60208082518301019101610673565b60405163095ea7b360e01b815273536527976e98e253b424a3655e695d144e34334160048201525f1960248201526001600160a01b0391821696929091169491906020816044815f7315906379703940bc51a5881ad1a5fc481ebc8bb15af1801561054a57610581575b5060405163095ea7b360e01b815273536527976e98e253b424a3655e695d144e34334160048201525f196024820152926020846044815f73ba397efef3914ab025f7f5706fade61f240a9ebc5af191821561054a57869460c093610554575b506001600160a01b0316948588111561054f575b61045661043f8560011c90565b9261045061044b610945565b610961565b92610a61565b9161046e6104626106f9565b63ffffffff9094168452565b8560208401528060408401526060830152608082015261048c610735565b60a0820152610499610735565b828201526104a561070a565b3481525f602082015260405163c7c7f5b360e01b815294859283926104ce929160048501610817565b038134895af190811561054a577fd6fad783f6ce60919b6ee64c639cbdcedc0dd52b96be62e1df509272cdd4e4a2926105179261051c575b506040519081529081906020820190565b0390a4005b61053d9060c03d60c011610543575b61053581836106af565b810190610782565b50610506565b503d61052b565b6106ee565b610432565b6105759060203d60201161057a575b61056d81836106af565b8101906106d6565b61041e565b503d610563565b6105999060203d60201161057a5761056d81836106af565b6103bf565b346100e25760203660031901126100e2576004356105bb816100fa565b6105c36108c6565b6001600160a01b03168015610614575f80546001600160a01b03198116831782556001600160a01b0316907f8be0079c531659141344cd1fd0a4f28419497f9722a3daafe3b4186f6b6457e09080a3005b631e4fbdf760e01b5f525f60045260245ffd5b1561062e57565b60405162461bcd60e51b815260206004820152601c60248201527f4f6e6c79204c5a20656e64706f696e742063616e20636f6d706f7365000000006044820152606490fd5b91908260409103126100e2576020825161068c816100fa565b920151610698816100fa565b90565b634e487b7160e01b5f52604160045260245ffd5b90601f8019910116810190811067ffffffffffffffff8211176106d157604052565b61069b565b908160209103126100e2575180151581036100e25790565b6040513d5f823e3d90fd5b6040519061070860e0836106af565b565b604051906107086040836106af565b67ffffffffffffffff81116106d157601f01601f191660200190565b604051906107446020836106af565b5f8252565b91908260409103126100e2576040516040810181811067ffffffffffffffff8211176106d1576040526020808294805184520151910152565b919082810360c081126100e2576080136100e257604051906060820182811067ffffffffffffffff8211176106d15760405283518252602084015167ffffffffffffffff811681036100e2578260809160206106989501526107e78360408801610749565b60408201529401610749565b805180835260209291819084018484015e5f828201840152601f01601f1916010190565b6060906108b66108a1610708959796946080845263ffffffff8151166080850152602081015160a0850152604081015160c08501528481015160e085015260c061088c610875608084015160e06101008901526101608801906107f3565b60a0840151878203607f19016101208901526107f3565b910151848203607f19016101408601526107f3565b96602083019060208091805184520151910152565b6001600160a01b03909216910152565b5f546001600160a01b031633036108d957565b63118cdaa760e01b5f523360045260245ffd5b90602c116100e257600c013590565b9080604c116100e257604c8201604b1982019161091783610719565b9361092560405195866106af565b83855236908201116100e2575f9260209283860137830101604b19015290565b604051600360f01b6020820152600281526106986022826106af565b600361ffff61096f83610a73565b1603610a5557604051610c3560861b6020820152601081526109926030826106af565b600361ffff6109a084610a73565b1603610a3657805161ffff8111610a1f5761ffff60019116019161ffff8311610a1a57610a0c6106989260046109e0956040519687956020870190610abf565b600160f81b80825260f09290921b6001600160f01b031916600182015260038101919091520190610abf565b03601f1981018352826106af565b6100e6565b6306dfcc6560e41b5f52601060045260245260445ffd5b61ffff610a4283610a73565b633a51740d60e01b5f521660045260245ffd5b610a4261ffff91610a73565b90600c116100e2576008013560e01c90565b6002815110610a83576002015190565b60405162461bcd60e51b8152602060048201526014602482015273746f55696e7431365f6f75744f66426f756e647360601b6044820152606490fd5b805191908290602001825e015f81529056fea26469706673582212205a965c0ded410266de171d1fd3e2488e95079939a1a37ebaa8192335da45bfd864736f6c634300081a00330000000000000000000000006edce65403992e310a62460808c4b910d972f10f",
        "nonce": "0x8a",
        "chainId": "0xaa37dc"
      },
      "additionalContracts": [],
      "isFixedGasLimit": false
    },
    {
      "hash": "0x21970d70c9c1808593ab96ab8d54cdba8c2ef4d5011b6d24d3184e943bcc4347",
      "transactionType": "CALL",
      "contractName": "OmniSwapSpoke",
      "contractAddress": "0xa01b91317af828685c182f94c1816d22790f382f",
      "function": "configurePool(address,address)",
      "arguments": [
        "0x69801C169647Ad125707Dd40096D4EDC20Bb521a",
        "0xBbd735DB53cE42a7423B0861864dAD6253588040"
      ],
      "transaction": {
        "from": "0x000ef5f21dc574226a06c76aae7060642a30eb74",
        "to": "0xa01b91317af828685c182f94c1816d22790f382f",
        "gas": "0x171f2",
        "value": "0x0",
        "input": "0x6c1a032c00000000000000000000000069801c169647ad125707dd40096d4edc20bb521a000000000000000000000000bbd735db53ce42a7423b0861864dad6253588040",
        "nonce": "0x8b",
        "chainId": "0xaa37dc"
      },
      "additionalContracts": [],
      "isFixedGasLimit": false
    },
    {
      "hash": "0x0d2141477cd05b6bb5350268b92ff4c571b5009913352acd70976f73bb98ad1a",
      "transactionType": "CALL",
      "contractName": null,
      "contractAddress": "0x15906379703940bc51a5881ad1a5fc481ebc8bb1",
      "function": "mint(address,uint256)",
      "arguments": [
        "0xa01b91317Af828685c182F94C1816D22790F382f",
        "10000000000000000000000000000000"
      ],
      "transaction": {
        "from": "0x000ef5f21dc574226a06c76aae7060642a30eb74",
        "to": "0x15906379703940bc51a5881ad1a5fc481ebc8bb1",
        "gas": "0x1328a",
        "value": "0x0",
        "input": "0x40c10f19000000000000000000000000a01b91317af828685c182f94c1816d22790f382f000000000000000000000000000000000000007e37be2022c0914b2680000000",
        "nonce": "0x8c",
        "chainId": "0xaa37dc"
      },
      "additionalContracts": [],
      "isFixedGasLimit": false
    },
    {
      "hash": "0xdde1433225c876feb91a88614c5e92e577325cee43269701f623045b08fe2ea8",
      "transactionType": "CALL",
      "contractName": null,
      "contractAddress": "0xba397efef3914ab025f7f5706fade61f240a9ebc",
      "function": "mint(address,uint256)",
      "arguments": [
        "0xa01b91317Af828685c182F94C1816D22790F382f",
        "10000000000000000000000000000000"
      ],
      "transaction": {
        "from": "0x000ef5f21dc574226a06c76aae7060642a30eb74",
        "to": "0xba397efef3914ab025f7f5706fade61f240a9ebc",
        "gas": "0x1328a",
        "value": "0x0",
        "input": "0x40c10f19000000000000000000000000a01b91317af828685c182f94c1816d22790f382f000000000000000000000000000000000000007e37be2022c0914b2680000000",
        "nonce": "0x8d",
        "chainId": "0xaa37dc"
      },
      "additionalContracts": [],
      "isFixedGasLimit": false
    }
  ],
  "receipts": [
    {
      "status": "0x1",
      "cumulativeGasUsed": "0x24d500",
      "logs": [
        {
          "address": "0xa01b91317af828685c182f94c1816d22790f382f",
          "topics": [
            "0x8be0079c531659141344cd1fd0a4f28419497f9722a3daafe3b4186f6b6457e0",
            "0x0000000000000000000000000000000000000000000000000000000000000000",
            "0x000000000000000000000000000ef5f21dc574226a06c76aae7060642a30eb74"
          ],
          "data": "0x",
          "blockHash": "0xc7b550d47bcd36175f3ef8115b0dbd1f33d9cbf20a7316c5e89061ff225acbc8",
          "blockNumber": "0x1312794",
          "transactionHash": "0x618b0027d4d4004e5dfb9755aa752581451013a8afb2b4a60391bb1d183ce2f9",
          "transactionIndex": "0x3",
          "logIndex": "0x13",
          "removed": false
        }
      ],
      "logsBloom": "0x00000000000000000000000000000000000000000000000000800000000000000000000000020000000000001000000000000000000000010000000000000000000000000000000000000000000000000001000000000000000000000000000000000000020000000000000400000800000000000000000000000000000000400000000000000000000000000000000000000000000000000000000000000000000000000000000000000000000000000000000000000000000000000000000000000000000000000000800000000000000000000000000000000000040020000000000000000000000000000000000000000000000000000000000000000000",
      "type": "0x2",
      "transactionHash": "0x618b0027d4d4004e5dfb9755aa752581451013a8afb2b4a60391bb1d183ce2f9",
      "transactionIndex": "0x3",
      "blockHash": "0xc7b550d47bcd36175f3ef8115b0dbd1f33d9cbf20a7316c5e89061ff225acbc8",
      "blockNumber": "0x1312794",
      "gasUsed": "0xae086",
      "effectiveGasPrice": "0xf6a4d",
      "from": "0x000ef5f21dc574226a06c76aae7060642a30eb74",
      "to": null,
      "contractAddress": "0xa01b91317af828685c182f94c1816d22790f382f",
      "l1BaseFeeScalar": "0x1db0",
      "l1BlobBaseFee": "0x1",
      "l1BlobBaseFeeScalar": "0xd2730",
      "l1Fee": "0x99742d8",
      "l1GasPrice": "0xa61a0",
      "l1GasUsed": "0x798f"
    },
    {
      "status": "0x1",
      "cumulativeGasUsed": "0x25e0d6",
      "logs": [],
      "logsBloom": "0x00000000000000000000000000000000000000000000000000000000000000000000000000000000000000000000000000000000000000000000000000000000000000000000000000000000000000000000000000000000000000000000000000000000000000000000000000000000000000000000000000000000000000000000000000000000000000000000000000000000000000000000000000000000000000000000000000000000000000000000000000000000000000000000000000000000000000000000000000000000000000000000000000000000000000000000000000000000000000000000000000000000000000000000000000000000",
      "type": "0x2",
      "transactionHash": "0x21970d70c9c1808593ab96ab8d54cdba8c2ef4d5011b6d24d3184e943bcc4347",
      "transactionIndex": "0x4",
      "blockHash": "0xc7b550d47bcd36175f3ef8115b0dbd1f33d9cbf20a7316c5e89061ff225acbc8",
      "blockNumber": "0x1312794",
      "gasUsed": "0x10bd6",
      "effectiveGasPrice": "0xf6a4d",
      "from": "0x000ef5f21dc574226a06c76aae7060642a30eb74",
      "to": "0xa01b91317af828685c182f94c1816d22790f382f",
      "contractAddress": null,
      "l1BaseFeeScalar": "0x1db0",
      "l1BlobBaseFee": "0x1",
      "l1BlobBaseFeeScalar": "0xd2730",
      "l1Fee": "0x7ed063",
      "l1GasPrice": "0xa61a0",
      "l1GasUsed": "0x647"
    },
    {
      "status": "0x1",
      "cumulativeGasUsed": "0x26b270",
      "logs": [
        {
          "address": "0x15906379703940bc51a5881ad1a5fc481ebc8bb1",
          "topics": [
            "0xddf252ad1be2c89b69c2b068fc378daa952ba7f163c4a11628f55a4df523b3ef",
            "0x0000000000000000000000000000000000000000000000000000000000000000",
            "0x000000000000000000000000a01b91317af828685c182f94c1816d22790f382f"
          ],
          "data": "0x000000000000000000000000000000000000007e37be2022c0914b2680000000",
          "blockHash": "0xc7b550d47bcd36175f3ef8115b0dbd1f33d9cbf20a7316c5e89061ff225acbc8",
          "blockNumber": "0x1312794",
          "transactionHash": "0x0d2141477cd05b6bb5350268b92ff4c571b5009913352acd70976f73bb98ad1a",
          "transactionIndex": "0x5",
          "logIndex": "0x14",
          "removed": false
        }
      ],
      "logsBloom": "0x00000000000000000000000000000000000000000000000000000000000010000000000000000000000000000000000000000000000000000000000000000008000000000000000000000008000000000000000000000000000000000000000000000000020000000000000000000800000000000000000000000010000000000000000800000200100000000000000000000000000000000000000000000000000000000000000000000000000000000000000000000000000000000000080000000002000000000000000000000000000000000000000000000000000020000000000000000000000000000000000000000000000000000000000000000000",
      "type": "0x2",
      "transactionHash": "0x0d2141477cd05b6bb5350268b92ff4c571b5009913352acd70976f73bb98ad1a",
      "transactionIndex": "0x5",
      "blockHash": "0xc7b550d47bcd36175f3ef8115b0dbd1f33d9cbf20a7316c5e89061ff225acbc8",
      "blockNumber": "0x1312794",
      "gasUsed": "0xd19a",
      "effectiveGasPrice": "0xf6a4d",
      "from": "0x000ef5f21dc574226a06c76aae7060642a30eb74",
      "to": "0x15906379703940bc51a5881ad1a5fc481ebc8bb1",
      "contractAddress": null,
      "l1BaseFeeScalar": "0x1db0",
      "l1BlobBaseFee": "0x1",
      "l1BlobBaseFeeScalar": "0xd2730",
      "l1Fee": "0x7e3d0e",
      "l1GasPrice": "0xa61a0",
      "l1GasUsed": "0x640"
    },
    {
      "status": "0x1",
      "cumulativeGasUsed": "0x27840a",
      "logs": [
        {
          "address": "0xba397efef3914ab025f7f5706fade61f240a9ebc",
          "topics": [
            "0xddf252ad1be2c89b69c2b068fc378daa952ba7f163c4a11628f55a4df523b3ef",
            "0x0000000000000000000000000000000000000000000000000000000000000000",
            "0x000000000000000000000000a01b91317af828685c182f94c1816d22790f382f"
          ],
          "data": "0x000000000000000000000000000000000000007e37be2022c0914b2680000000",
          "blockHash": "0xc7b550d47bcd36175f3ef8115b0dbd1f33d9cbf20a7316c5e89061ff225acbc8",
          "blockNumber": "0x1312794",
          "transactionHash": "0xdde1433225c876feb91a88614c5e92e577325cee43269701f623045b08fe2ea8",
          "transactionIndex": "0x6",
          "logIndex": "0x15",
          "removed": false
        }
      ],
      "logsBloom": "0x00000000000000000000000000000000000000000000000000000000000010000000000000010000000000000000000000000000000000000000000020000000000000000000000000000008004000000000000000000000000000000000000000000000020000000000000000000800000000000000000000000010000000000000000800000200000000000000000000000000000000000000000000000000000000000000000000000000000000000000000000000000000000000000000000000002000000000000000000000000000000000000000000000000000020000000000000000000000000000000000000000000000000000000000000000000",
      "type": "0x2",
      "transactionHash": "0xdde1433225c876feb91a88614c5e92e577325cee43269701f623045b08fe2ea8",
      "transactionIndex": "0x6",
      "blockHash": "0xc7b550d47bcd36175f3ef8115b0dbd1f33d9cbf20a7316c5e89061ff225acbc8",
      "blockNumber": "0x1312794",
      "gasUsed": "0xd19a",
      "effectiveGasPrice": "0xf6a4d",
      "from": "0x000ef5f21dc574226a06c76aae7060642a30eb74",
      "to": "0xba397efef3914ab025f7f5706fade61f240a9ebc",
      "contractAddress": null,
      "l1BaseFeeScalar": "0x1db0",
      "l1BlobBaseFee": "0x1",
      "l1BlobBaseFeeScalar": "0xd2730",
      "l1Fee": "0x7e3d0e",
      "l1GasPrice": "0xa61a0",
      "l1GasUsed": "0x640"
    }
  ],
  "libraries": [],
  "pending": [],
  "returns": {},
  "timestamp": 1731799765,
  "chain": 11155420,
  "commit": "f193f39"
}