{
  "transactions": [
    {
      "hash": "0x7befaf347537c8efe55eeb4a1f8d55eb7e2b82f10acc7395e5fb0f282237be64",
      "transactionType": "CREATE",
      "contractName": "OmniSwapSpoke",
      "contractAddress": "0xae133bed32fb31e182d900ab482b8fc0defda25d",
      "function": null,
      "arguments": [
        "0x6EDCE65403992e310A62460808c4b910D972f10f"
      ],
      "transaction": {
        "from": "0x000ef5f21dc574226a06c76aae7060642a30eb74",
        "gas": "0xfa54a",
        "value": "0x0",
        "input": "0x60803460cd57601f610d4c38819003918201601f19168301916001600160401b0383118484101760d15780849260209460405283398101031260cd57516001600160a01b0381169081900360cd57331560ba575f8054336001600160a01b0319821681178355604051939290916001600160a01b0316907f8be0079c531659141344cd1fd0a4f28419497f9722a3daafe3b4186f6b6457e09080a3600380546001600160a01b031916919091179055610c6690816100e68239f35b631e4fbdf760e01b5f525f60045260245ffd5b5f80fd5b634e487b7160e01b5f52604160045260245ffdfe60806040526004361015610011575f80fd5b5f3560e01c8063542524dd146100b45780636c1a032c146100af578063715018a6146100aa5780637f5a7c7b146100a55780638da5cb5b146100a0578063b353aaa71461009b578063c31c9c0714610096578063c7b8e15d14610091578063d0a102601461008c5763f2fde38b14610087575f80fd5b6106fe565b6102b1565b610264565b61023c565b610214565b6101ed565b6101c5565b61016e565b61010b565b346100e2575f3660031901126100e257602060405173fffd8963efd1fc6a506488495d951d5263988d258152f35b5f80fd5b634e487b7160e01b5f52601160045260245ffd5b6001600160a01b038116036100e257565b346100e25760403660031901126100e257600435610128816100fa565b60243590610135826100fa565b61013d610a25565b600180546001600160a01b039283166001600160a01b03199182161790915560028054939092169216919091179055005b346100e2575f3660031901126100e257610186610a25565b5f80546001600160a01b0319811682556001600160a01b03167f8be0079c531659141344cd1fd0a4f28419497f9722a3daafe3b4186f6b6457e08280a3005b346100e2575f3660031901126100e2576002546040516001600160a01b039091168152602090f35b346100e2575f3660031901126100e2575f546040516001600160a01b039091168152602090f35b346100e2575f3660031901126100e2576003546040516001600160a01b039091168152602090f35b346100e2575f3660031901126100e2576001546040516001600160a01b039091168152602090f35b346100e2575f3660031901126100e25760206040516401000276a48152f35b9181601f840112156100e25782359167ffffffffffffffff83116100e257602083818601950101116100e257565b60a03660031901126100e2576004356102c9816100fa565b60443567ffffffffffffffff81116100e2576102e9903690600401610283565b90916102f66064356100fa565b60843567ffffffffffffffff81116100e257610316903690600401610283565b505060035461032f906001600160a01b03163314610787565b6103398284610a4b565b906103566103478486610a5a565b602080825183010191016107d3565b60405163095ea7b360e01b815273536527976e98e253b424a3655e695d144e34334160048201525f1960248201526001600160a01b03928316959291909116906020816044815f7315906379703940bc51a5881ad1a5fc481ebc8bb15af1801561066a576106e1575b5060405163095ea7b360e01b815273536527976e98e253b424a3655e695d144e34334160048201525f1960248201526020816044815f73ba397efef3914ab025f7f5706fade61f240a9ebc5af1801561066a576106c4575b5060405163095ea7b360e01b815273440d0bee5706987be528fec5c4ca5947e38161d26004820152602481018590526020816044815f7315906379703940bc51a5881ad1a5fc481ebc8bb15af1801561066a576106a7575b5060405163095ea7b360e01b815273440d0bee5706987be528fec5c4ca5947e38161d2600482015260248101859052926020846044815f73ba397efef3914ab025f7f5706fade61f240a9ebc5af190811561066a576105e094879261067a575b506001600160a01b0316918281111561066f5760c092938194985b600254610546906001600160a01b031660808c610517610508610859565b6001600160a01b039092168252565b6001600160a01b038a166020820152610bb86040820152607860608201525b6001600160a01b03909216910152565b61056a6105538960011c90565b9261056461055f610aa4565b610ac0565b92610bc0565b9161058261057661086a565b63ffffffff9094168452565b846020840152806040840152606083015260808201526105a06108a4565b60a08201526105ad6108a4565b848201526105b9610879565b3481525f602082015260405163c7c7f5b360e01b8152968794859384939060048501610986565b039134905af190811561066a577fd6fad783f6ce60919b6ee64c639cbdcedc0dd52b96be62e1df509272cdd4e4a2926106379261063c575b506040519384526001600160a01b039081169516929081906020820190565b0390a4005b61065d9060c03d60c011610663575b610655818361080f565b8101906108f1565b50610618565b503d61064b565b61084e565b60c0929381986104ea565b61069b9060203d6020116106a0575b610693818361080f565b810190610836565b6104cf565b503d610689565b6106bf9060203d6020116106a057610693818361080f565b61046f565b6106dc9060203d6020116106a057610693818361080f565b610417565b6106f99060203d6020116106a057610693818361080f565b6103bf565b346100e25760203660031901126100e25760043561071b816100fa565b610723610a25565b6001600160a01b03168015610774575f80546001600160a01b03198116831782556001600160a01b0316907f8be0079c531659141344cd1fd0a4f28419497f9722a3daafe3b4186f6b6457e09080a3005b631e4fbdf760e01b5f525f60045260245ffd5b1561078e57565b60405162461bcd60e51b815260206004820152601c60248201527f4f6e6c79204c5a20656e64706f696e742063616e20636f6d706f7365000000006044820152606490fd5b91908260409103126100e257602082516107ec816100fa565b9201516107f8816100fa565b90565b634e487b7160e01b5f52604160045260245ffd5b90601f8019910116810190811067ffffffffffffffff82111761083157604052565b6107fb565b908160209103126100e2575180151581036100e25790565b6040513d5f823e3d90fd5b6040519061086860a08361080f565b565b6040519061086860e08361080f565b6040519061086860408361080f565b67ffffffffffffffff811161083157601f01601f191660200190565b604051906108b360208361080f565b5f8252565b91908260409103126100e2576040516040810181811067ffffffffffffffff821117610831576040526020808294805184520151910152565b919082810360c081126100e2576080136100e257604051906060820182811067ffffffffffffffff8211176108315760405283518252602084015167ffffffffffffffff811681036100e2578260809160206107f895015261095683604088016108b8565b604082015294016108b8565b805180835260209291819084018484015e5f828201840152601f01601f1916010190565b606090610536610a10610868959796946080845263ffffffff8151166080850152602081015160a0850152604081015160c08501528481015160e085015260c06109fb6109e4608084015160e0610100890152610160880190610962565b60a0840151878203607f1901610120890152610962565b910151848203607f1901610140860152610962565b96602083019060208091805184520151910152565b5f546001600160a01b03163303610a3857565b63118cdaa760e01b5f523360045260245ffd5b90602c116100e257600c013590565b9080604c116100e257604c8201604b19820191610a7683610888565b93610a84604051958661080f565b83855236908201116100e2575f9260209283860137830101604b19015290565b604051600360f01b6020820152600281526107f860228261080f565b600361ffff610ace83610bd2565b1603610bb457604051610c3560861b602082015260108152610af160308261080f565b600361ffff610aff84610bd2565b1603610b9557805161ffff8111610b7e5761ffff60019116019161ffff8311610b7957610b6b6107f8926004610b3f956040519687956020870190610c1e565b600160f81b80825260f09290921b6001600160f01b031916600182015260038101919091520190610c1e565b03601f19810183528261080f565b6100e6565b6306dfcc6560e41b5f52601060045260245260445ffd5b61ffff610ba183610bd2565b633a51740d60e01b5f521660045260245ffd5b610ba161ffff91610bd2565b90600c116100e2576008013560e01c90565b6002815110610be2576002015190565b60405162461bcd60e51b8152602060048201526014602482015273746f55696e7431365f6f75744f66426f756e647360601b6044820152606490fd5b805191908290602001825e015f81529056fea26469706673582212203729f8747e89360f1413e0a3e7a5e9bae7317a07572c99ab8af1d93000b0dd0964736f6c634300081a00330000000000000000000000006edce65403992e310a62460808c4b910d972f10f",
        "nonce": "0xa0",
        "chainId": "0xaa37dc"
      },
      "additionalContracts": [],
      "isFixedGasLimit": false
    },
    {
      "hash": "0xf0c794c82117fac66acd05fe9b211320cf8fff5ffc20913e25ff10d4a1571535",
      "transactionType": "CALL",
      "contractName": "OmniSwapSpoke",
      "contractAddress": "0xae133bed32fb31e182d900ab482b8fc0defda25d",
      "function": "configurePool(address,address)",
      "arguments": [
        "0x69801C169647Ad125707Dd40096D4EDC20Bb521a",
        "0xBbd735DB53cE42a7423B0861864dAD6253588040"
      ],
      "transaction": {
        "from": "0x000ef5f21dc574226a06c76aae7060642a30eb74",
        "to": "0xae133bed32fb31e182d900ab482b8fc0defda25d",
        "gas": "0x171f2",
        "value": "0x0",
        "input": "0x6c1a032c00000000000000000000000069801c169647ad125707dd40096d4edc20bb521a000000000000000000000000bbd735db53ce42a7423b0861864dad6253588040",
        "nonce": "0xa1",
        "chainId": "0xaa37dc"
      },
      "additionalContracts": [],
      "isFixedGasLimit": false
    },
    {
      "hash": "0x9f318e4118a1dd286bb5c5df805cb3011bea46ace484cb6fae92fb1213c94d30",
      "transactionType": "CALL",
      "contractName": null,
      "contractAddress": "0x15906379703940bc51a5881ad1a5fc481ebc8bb1",
      "function": "mint(address,uint256)",
      "arguments": [
        "0xae133BED32fB31E182D900AB482B8fC0defDa25D",
        "10000000000000000000000000000000"
      ],
      "transaction": {
        "from": "0x000ef5f21dc574226a06c76aae7060642a30eb74",
        "to": "0x15906379703940bc51a5881ad1a5fc481ebc8bb1",
        "gas": "0x12171",
        "value": "0x0",
        "input": "0x40c10f19000000000000000000000000ae133bed32fb31e182d900ab482b8fc0defda25d000000000000000000000000000000000000007e37be2022c0914b2680000000",
        "nonce": "0xa2",
        "chainId": "0xaa37dc"
      },
      "additionalContracts": [],
      "isFixedGasLimit": false
    },
    {
      "hash": "0xcdf509b4f0e8c45b961c5c32312494aca1829d39c5ce058d19d806ecfc678f93",
      "transactionType": "CALL",
      "contractName": null,
      "contractAddress": "0xba397efef3914ab025f7f5706fade61f240a9ebc",
      "function": "mint(address,uint256)",
      "arguments": [
        "0xae133BED32fB31E182D900AB482B8fC0defDa25D",
        "10000000000000000000000000000000"
      ],
      "transaction": {
        "from": "0x000ef5f21dc574226a06c76aae7060642a30eb74",
        "to": "0xba397efef3914ab025f7f5706fade61f240a9ebc",
        "gas": "0x12171",
        "value": "0x0",
        "input": "0x40c10f19000000000000000000000000ae133bed32fb31e182d900ab482b8fc0defda25d000000000000000000000000000000000000007e37be2022c0914b2680000000",
        "nonce": "0xa3",
        "chainId": "0xaa37dc"
      },
      "additionalContracts": [],
      "isFixedGasLimit": false
    }
  ],
  "receipts": [
    {
      "status": "0x1",
      "cumulativeGasUsed": "0x13de65",
      "logs": [
        {
          "address": "0xae133bed32fb31e182d900ab482b8fc0defda25d",
          "topics": [
            "0x8be0079c531659141344cd1fd0a4f28419497f9722a3daafe3b4186f6b6457e0",
            "0x0000000000000000000000000000000000000000000000000000000000000000",
            "0x000000000000000000000000000ef5f21dc574226a06c76aae7060642a30eb74"
          ],
          "data": "0x",
          "blockHash": "0x234c35bf28b56abe6f07b38e467359ce49627ef07811f051a47c0f82bf178cde",
          "blockNumber": "0x1313465",
          "transactionHash": "0x7befaf347537c8efe55eeb4a1f8d55eb7e2b82f10acc7395e5fb0f282237be64",
          "transactionIndex": "0x2",
          "logIndex": "0x4",
          "removed": false
        }
      ],
      "logsBloom": "0x00000000000000000000000000000000000000000000000000800020000000000000004000020000000000000000000000000000000100000000000000000000000000000000000000000000000000000001000000000000000000000000000000000000020000000000000400000800000000000000000000000000000000400000000000000000000000000000000000000000000000000000000000000000000000000000000000000000000000000000000000000000000000000000000000000000000000000000000000000000000000000000000000000000040020000000000000000000000000000000000000000000000000000000000000000000",
      "type": "0x2",
      "transactionHash": "0x7befaf347537c8efe55eeb4a1f8d55eb7e2b82f10acc7395e5fb0f282237be64",
      "transactionIndex": "0x2",
      "blockHash": "0x234c35bf28b56abe6f07b38e467359ce49627ef07811f051a47c0f82bf178cde",
      "blockNumber": "0x1313465",
      "gasUsed": "0xc08fe",
      "effectiveGasPrice": "0xf6a4e",
      "from": "0x000ef5f21dc574226a06c76aae7060642a30eb74",
      "to": null,
      "contractAddress": "0xae133bed32fb31e182d900ab482b8fc0defda25d",
      "l1BaseFeeScalar": "0x1db0",
      "l1BlobBaseFee": "0x1",
      "l1BlobBaseFeeScalar": "0xd2730",
      "l1Fee": "0xbde7c97",
      "l1GasPrice": "0xc0ddd",
      "l1GasUsed": "0x818e"
    },
    {
      "status": "0x1",
      "cumulativeGasUsed": "0x14ea3b",
      "logs": [],
      "logsBloom": "0x00000000000000000000000000000000000000000000000000000000000000000000000000000000000000000000000000000000000000000000000000000000000000000000000000000000000000000000000000000000000000000000000000000000000000000000000000000000000000000000000000000000000000000000000000000000000000000000000000000000000000000000000000000000000000000000000000000000000000000000000000000000000000000000000000000000000000000000000000000000000000000000000000000000000000000000000000000000000000000000000000000000000000000000000000000000",
      "type": "0x2",
      "transactionHash": "0xf0c794c82117fac66acd05fe9b211320cf8fff5ffc20913e25ff10d4a1571535",
      "transactionIndex": "0x3",
      "blockHash": "0x234c35bf28b56abe6f07b38e467359ce49627ef07811f051a47c0f82bf178cde",
      "blockNumber": "0x1313465",
      "gasUsed": "0x10bd6",
      "effectiveGasPrice": "0xf6a4e",
      "from": "0x000ef5f21dc574226a06c76aae7060642a30eb74",
      "to": "0xae133bed32fb31e182d900ab482b8fc0defda25d",
      "contractAddress": null,
      "l1BaseFeeScalar": "0x1db0",
      "l1BlobBaseFee": "0x1",
      "l1BlobBaseFeeScalar": "0xd2730",
      "l1Fee": "0x933f82",
      "l1GasPrice": "0xc0ddd",
      "l1GasUsed": "0x647"
    },
    {
      "status": "0x1",
      "cumulativeGasUsed": "0x1f73cd",
      "logs": [
        {
          "address": "0x15906379703940bc51a5881ad1a5fc481ebc8bb1",
          "topics": [
            "0xddf252ad1be2c89b69c2b068fc378daa952ba7f163c4a11628f55a4df523b3ef",
            "0x0000000000000000000000000000000000000000000000000000000000000000",
            "0x000000000000000000000000ae133bed32fb31e182d900ab482b8fc0defda25d"
          ],
          "data": "0x000000000000000000000000000000000000007e37be2022c0914b2680000000",
          "blockHash": "0x234c35bf28b56abe6f07b38e467359ce49627ef07811f051a47c0f82bf178cde",
          "blockNumber": "0x1313465",
          "transactionHash": "0x9f318e4118a1dd286bb5c5df805cb3011bea46ace484cb6fae92fb1213c94d30",
          "transactionIndex": "0x6",
          "logIndex": "0xd",
          "removed": false
        }
      ],
      "logsBloom": "0x00000000000000000000000000000000000000000000000000000000000000000000000000000000000000000000000000000000000000000000000000000008000000000000000000000008000000000000000000000000000000000000000000000000020000000000000000000800000000000000000000000010000000000000000000000000100000000000000000000000000000000000000000000000000000000000000000000000000000000040000000000000000000000000080200000002000000000000000000000000000000000000000000000000000020000000000000000000000000000000000000000000000000000000000800000000",
      "type": "0x2",
      "transactionHash": "0x9f318e4118a1dd286bb5c5df805cb3011bea46ace484cb6fae92fb1213c94d30",
      "transactionIndex": "0x6",
      "blockHash": "0x234c35bf28b56abe6f07b38e467359ce49627ef07811f051a47c0f82bf178cde",
      "blockNumber": "0x1313465",
      "gasUsed": "0xd18e",
      "effectiveGasPrice": "0xf6a4e",
      "from": "0x000ef5f21dc574226a06c76aae7060642a30eb74",
      "to": "0x15906379703940bc51a5881ad1a5fc481ebc8bb1",
      "contractAddress": null,
      "l1BaseFeeScalar": "0x1db0",
      "l1BlobBaseFee": "0x1",
      "l1BlobBaseFeeScalar": "0xd2730",
      "l1Fee": "0x92946f",
      "l1GasPrice": "0xc0ddd",
      "l1GasUsed": "0x640"
    },
    {
      "status": "0x1",
      "cumulativeGasUsed": "0x20455b",
      "logs": [
        {
          "address": "0xba397efef3914ab025f7f5706fade61f240a9ebc",
          "topics": [
            "0xddf252ad1be2c89b69c2b068fc378daa952ba7f163c4a11628f55a4df523b3ef",
            "0x0000000000000000000000000000000000000000000000000000000000000000",
            "0x000000000000000000000000ae133bed32fb31e182d900ab482b8fc0defda25d"
          ],
          "data": "0x000000000000000000000000000000000000007e37be2022c0914b2680000000",
          "blockHash": "0x234c35bf28b56abe6f07b38e467359ce49627ef07811f051a47c0f82bf178cde",
          "blockNumber": "0x1313465",
          "transactionHash": "0xcdf509b4f0e8c45b961c5c32312494aca1829d39c5ce058d19d806ecfc678f93",
          "transactionIndex": "0x7",
          "logIndex": "0xe",
          "removed": false
        }
      ],
      "logsBloom": "0x00000000000000000000000000000000000000000000000000000000000000000000000000010000000000000000000000000000000000000000000020000000000000000000000000000008004000000000000000000000000000000000000000000000020000000000000000000800000000000000000000000010000000000000000000000000000000000000000000000000000000000000000000000000000000000000000000000000000000000040000000000000000000000000000200000002000000000000000000000000000000000000000000000000000020000000000000000000000000000000000000000000000000000000000800000000",
      "type": "0x2",
      "transactionHash": "0xcdf509b4f0e8c45b961c5c32312494aca1829d39c5ce058d19d806ecfc678f93",
      "transactionIndex": "0x7",
      "blockHash": "0x234c35bf28b56abe6f07b38e467359ce49627ef07811f051a47c0f82bf178cde",
      "blockNumber": "0x1313465",
      "gasUsed": "0xd18e",
      "effectiveGasPrice": "0xf6a4e",
      "from": "0x000ef5f21dc574226a06c76aae7060642a30eb74",
      "to": "0xba397efef3914ab025f7f5706fade61f240a9ebc",
      "contractAddress": null,
      "l1BaseFeeScalar": "0x1db0",
      "l1BlobBaseFee": "0x1",
      "l1BlobBaseFeeScalar": "0xd2730",
      "l1Fee": "0x92946f",
      "l1GasPrice": "0xc0ddd",
      "l1GasUsed": "0x640"
    }
  ],
  "libraries": [],
  "pending": [],
  "returns": {},
  "timestamp": 1731806326,
  "chain": 11155420,
  "commit": "f193f39"
}