{
  "transactions": [
    {
      "hash": "0x7374cea5e4e57d8bd3a8d696a4461c7a81937ef3a5cd3e0993e1479e3bc89626",
      "transactionType": "CREATE",
      "contractName": "OmniSwapSpoke",
      "contractAddress": "0x06a345728c9fbcba5e3bd533330c0d19bcacabbd",
      "function": null,
      "arguments": [
        "0x6EDCE65403992e310A62460808c4b910D972f10f"
      ],
      "transaction": {
        "from": "0x000ef5f21dc574226a06c76aae7060642a30eb74",
        "gas": "0x116b68",
        "value": "0x0",
        "input": "0x60803460cd57601f610eea38819003918201601f19168301916001600160401b0383118484101760d15780849260209460405283398101031260cd57516001600160a01b0381169081900360cd57331560ba575f8054336001600160a01b0319821681178355604051939290916001600160a01b0316907f8be0079c531659141344cd1fd0a4f28419497f9722a3daafe3b4186f6b6457e09080a3600380546001600160a01b031916919091179055610e0490816100e68239f35b631e4fbdf760e01b5f525f60045260245ffd5b5f80fd5b634e487b7160e01b5f52604160045260245ffdfe60806040526004361015610011575f80fd5b5f3560e01c8063542524dd146100b45780636c1a032c146100af578063715018a6146100aa5780637f5a7c7b146100a55780638da5cb5b146100a0578063b353aaa71461009b578063c31c9c0714610096578063c7b8e15d14610091578063d0a102601461008c5763f2fde38b14610087575f80fd5b6107bd565b6102b2565b610264565b61023c565b610214565b6101ed565b6101c5565b61016e565b61010b565b346100e2575f3660031901126100e257602060405173fffd8963efd1fc6a506488495d951d5263988d258152f35b5f80fd5b634e487b7160e01b5f52601160045260245ffd5b6001600160a01b038116036100e257565b346100e25760403660031901126100e257600435610128816100fa565b60243590610135826100fa565b61013d610bc3565b600180546001600160a01b039283166001600160a01b03199182161790915560028054939092169216919091179055005b346100e2575f3660031901126100e257610186610bc3565b5f80546001600160a01b0319811682556001600160a01b03167f8be0079c531659141344cd1fd0a4f28419497f9722a3daafe3b4186f6b6457e08280a3005b346100e2575f3660031901126100e2576002546040516001600160a01b039091168152602090f35b346100e2575f3660031901126100e2575f546040516001600160a01b039091168152602090f35b346100e2575f3660031901126100e2576003546040516001600160a01b039091168152602090f35b346100e2575f3660031901126100e2576001546040516001600160a01b039091168152602090f35b346100e2575f3660031901126100e25760206401000276a4604051908152f35b9181601f840112156100e25782359167ffffffffffffffff83116100e257602083818601950101116100e257565b60a03660031901126100e2576004356102ca816100fa565b60443567ffffffffffffffff81116100e2576102ea903690600401610284565b91906102f76064356100fa565b60843567ffffffffffffffff81116100e257610317903690600401610284565b50506003546103419061033a906001600160a01b03165b6001600160a01b031690565b3314610846565b61034b8382610be9565b906103686103598583610bf8565b60208082518301019101610892565b60405163095ea7b360e01b815273536527976e98e253b424a3655e695d144e34334160048201525f1960248201526001600160a01b039283169591909216916020816044815f7315906379703940bc51a5881ad1a5fc481ebc8bb15af18015610700576107a0575b5060405163095ea7b360e01b815273536527976e98e253b424a3655e695d144e34334160048201525f1960248201526020816044815f73ba397efef3914ab025f7f5706fade61f240a9ebc5af1801561070057610783575b5060405163095ea7b360e01b815273440d0bee5706987be528fec5c4ca5947e38161d26004820152602481018590526020816044815f7315906379703940bc51a5881ad1a5fc481ebc8bb15af1801561070057610766575b5060405163095ea7b360e01b815273440d0bee5706987be528fec5c4ca5947e38161d26004820152602481018590526020816044815f73ba397efef3914ab025f7f5706fade61f240a9ebc5af1801561070057610739575b506001600160a01b03169081811115610732578091955b6002546001600160a01b031691610542610507610918565b6001600160a01b038a168152936001600160a01b0386166020860152610bb86040860152607860608601526001600160a01b03166080850152565b60015460209061055a906001600160a01b031661032e565b6401000276a49061058761056c610929565b60018152928385018b90526001600160a01b03166040840152565b61058f610938565b915f83525f848401525f6105a1610986565b976105c2604051998a968795869463088a742d60e21b8652600486016109d4565b03925af1918215610700576106769560c0948994610705575b506106006105e98960011c90565b926105fa6105f5610c42565b610c5e565b92610d5e565b9161061861060c610947565b63ffffffff9094168452565b84602084015280604084015260608301526080820152610636610972565b60a0820152610643610972565b8482015261064f610938565b3481525f602082015260405163c7c7f5b360e01b8152968794859384939060048501610b14565b039134905af1908115610700577fd6fad783f6ce60919b6ee64c639cbdcedc0dd52b96be62e1df509272cdd4e4a2926106cd926106d2575b506040519384526001600160a01b039081169516929081906020820190565b0390a4005b6106f39060c03d60c0116106f9575b6106eb81836108ce565b810190610aa3565b506106ae565b503d6106e1565b61090d565b6107269060203d60201161072b575b61071e81836108ce565b8101906109a1565b6105db565b503d610714565b80956104ef565b61075a9060203d60201161075f575b61075281836108ce565b8101906108f5565b6104d8565b503d610748565b61077e9060203d60201161075f5761075281836108ce565b610480565b61079b9060203d60201161075f5761075281836108ce565b610428565b6107b89060203d60201161075f5761075281836108ce565b6103d0565b346100e25760203660031901126100e2576004356107da816100fa565b6107e2610bc3565b6001600160a01b03168015610833575f80546001600160a01b03198116831782556001600160a01b0316907f8be0079c531659141344cd1fd0a4f28419497f9722a3daafe3b4186f6b6457e09080a3005b631e4fbdf760e01b5f525f60045260245ffd5b1561084d57565b60405162461bcd60e51b815260206004820152601c60248201527f4f6e6c79204c5a20656e64706f696e742063616e20636f6d706f7365000000006044820152606490fd5b91908260409103126100e257602082516108ab816100fa565b9201516108b7816100fa565b90565b634e487b7160e01b5f52604160045260245ffd5b90601f8019910116810190811067ffffffffffffffff8211176108f057604052565b6108ba565b908160209103126100e2575180151581036100e25790565b6040513d5f823e3d90fd5b6040519061092760a0836108ce565b565b604051906109276060836108ce565b604051906109276040836108ce565b6040519061092760e0836108ce565b67ffffffffffffffff81116108f057601f01601f191660200190565b604051906109816020836108ce565b5f8252565b604051906109956020836108ce565b5f808352366020840137565b908160209103126100e2575190565b805180835260209291819084018484015e5f828201840152601f01601f1916010190565b81516001600160a01b03908116825260208084015182168184015260408085015162ffffff168185015260608086015160020b908501526080948501518316948401949094528451151560a084015284015160c083015291909201511660e08201526108b792916101609190610a5c9080511515610100840152602001511515610120830152565b8161014082015201906109b0565b91908260409103126100e2576040516040810181811067ffffffffffffffff8211176108f0576040526020808294805184520151910152565b919082810360c081126100e2576080136100e257604051906060820182811067ffffffffffffffff8211176108f05760405283518252602084015167ffffffffffffffff811681036100e2578260809160206108b7950152610b088360408801610a6a565b60408201529401610a6a565b606090610bb3610b9e610927959796946080845263ffffffff8151166080850152602081015160a0850152604081015160c08501528481015160e085015260c0610b89610b72608084015160e06101008901526101608801906109b0565b60a0840151878203607f19016101208901526109b0565b910151848203607f19016101408601526109b0565b96602083019060208091805184520151910152565b6001600160a01b03909216910152565b5f546001600160a01b03163303610bd657565b63118cdaa760e01b5f523360045260245ffd5b90602c116100e257600c013590565b9080604c116100e257604c8201604b19820191610c1483610956565b93610c2260405195866108ce565b83855236908201116100e2575f9260209283860137830101604b19015290565b604051600360f01b6020820152600281526108b76022826108ce565b600361ffff610c6c83610d70565b1603610d5257604051610c3560861b602082015260108152610c8f6030826108ce565b600361ffff610c9d84610d70565b1603610d3357805161ffff8111610d1c5761ffff60019116019161ffff8311610d1757610d096108b7926004610cdd956040519687956020870190610dbc565b600160f81b80825260f09290921b6001600160f01b031916600182015260038101919091520190610dbc565b03601f1981018352826108ce565b6100e6565b6306dfcc6560e41b5f52601060045260245260445ffd5b61ffff610d3f83610d70565b633a51740d60e01b5f521660045260245ffd5b610d3f61ffff91610d70565b90600c116100e2576008013560e01c90565b6002815110610d80576002015190565b60405162461bcd60e51b8152602060048201526014602482015273746f55696e7431365f6f75744f66426f756e647360601b6044820152606490fd5b805191908290602001825e015f81529056fea26469706673582212208b7c60e63064feab78bb798b12e209b1997fd5de88cf1240a5cfd6dfd818a77564736f6c634300081a00330000000000000000000000006edce65403992e310a62460808c4b910d972f10f",
        "nonce": "0x9a",
        "chainId": "0xaa37dc"
      },
      "additionalContracts": [],
      "isFixedGasLimit": false
    },
    {
      "hash": "0x242403d619c6c41a3e703415a5e7c8066803e6f55d06299d14c0301346da330d",
      "transactionType": "CALL",
      "contractName": "OmniSwapSpoke",
      "contractAddress": "0x06a345728c9fbcba5e3bd533330c0d19bcacabbd",
      "function": "configurePool(address,address)",
      "arguments": [
        "0x69801C169647Ad125707Dd40096D4EDC20Bb521a",
        "0xBbd735DB53cE42a7423B0861864dAD6253588040"
      ],
      "transaction": {
        "from": "0x000ef5f21dc574226a06c76aae7060642a30eb74",
        "to": "0x06a345728c9fbcba5e3bd533330c0d19bcacabbd",
        "gas": "0x171f2",
        "value": "0x0",
        "input": "0x6c1a032c00000000000000000000000069801c169647ad125707dd40096d4edc20bb521a000000000000000000000000bbd735db53ce42a7423b0861864dad6253588040",
        "nonce": "0x9b",
        "chainId": "0xaa37dc"
      },
      "additionalContracts": [],
      "isFixedGasLimit": false
    },
    {
      "hash": "0x48c14982f0fefd328e1cc1bbdf350d2a55329fae40cc6296958059d19f812e6b",
      "transactionType": "CALL",
      "contractName": null,
      "contractAddress": "0x15906379703940bc51a5881ad1a5fc481ebc8bb1",
      "function": "mint(address,uint256)",
      "arguments": [
        "0x06A345728C9fBCbA5E3BD533330c0d19bcaCAbbd",
        "10000000000000000000000000000000"
      ],
      "transaction": {
        "from": "0x000ef5f21dc574226a06c76aae7060642a30eb74",
        "to": "0x15906379703940bc51a5881ad1a5fc481ebc8bb1",
        "gas": "0x1328a",
        "value": "0x0",
        "input": "0x40c10f1900000000000000000000000006a345728c9fbcba5e3bd533330c0d19bcacabbd000000000000000000000000000000000000007e37be2022c0914b2680000000",
        "nonce": "0x9c",
        "chainId": "0xaa37dc"
      },
      "additionalContracts": [],
      "isFixedGasLimit": false
    },
    {
      "hash": "0x45437df2bc1d6426be7967467f05d573528f8b1572388bcc1c1393704b3e8e2f",
      "transactionType": "CALL",
      "contractName": null,
      "contractAddress": "0xba397efef3914ab025f7f5706fade61f240a9ebc",
      "function": "mint(address,uint256)",
      "arguments": [
        "0x06A345728C9fBCbA5E3BD533330c0d19bcaCAbbd",
        "10000000000000000000000000000000"
      ],
      "transaction": {
        "from": "0x000ef5f21dc574226a06c76aae7060642a30eb74",
        "to": "0xba397efef3914ab025f7f5706fade61f240a9ebc",
        "gas": "0x1328a",
        "value": "0x0",
        "input": "0x40c10f1900000000000000000000000006a345728c9fbcba5e3bd533330c0d19bcacabbd000000000000000000000000000000000000007e37be2022c0914b2680000000",
        "nonce": "0x9d",
        "chainId": "0xaa37dc"
      },
      "additionalContracts": [],
      "isFixedGasLimit": false
    }
  ],
  "receipts": [
    {
      "status": "0x1",
      "cumulativeGasUsed": "0x2798fc",
      "logs": [
        {
          "address": "0x06a345728c9fbcba5e3bd533330c0d19bcacabbd",
          "topics": [
            "0x8be0079c531659141344cd1fd0a4f28419497f9722a3daafe3b4186f6b6457e0",
            "0x0000000000000000000000000000000000000000000000000000000000000000",
            "0x000000000000000000000000000ef5f21dc574226a06c76aae7060642a30eb74"
          ],
          "data": "0x",
          "blockHash": "0x6059e82102ae6eb3c0717c9dfb97e2dad1dc224b936aac0e49ee787f65775d7b",
          "blockNumber": "0x1312dba",
          "transactionHash": "0x7374cea5e4e57d8bd3a8d696a4461c7a81937ef3a5cd3e0993e1479e3bc89626",
          "transactionIndex": "0x2",
          "logIndex": "0xd",
          "removed": false
        }
      ],
      "logsBloom": "0x00000080000000000000000000000000000000000000000000800000000000000000000000020000000000000000000000000000000000000000000000000000000000000000000000000000000000000001000000000000000000000000000000000000020000000000000400000800000000000000000000000000000000400000000000000000000000000000000000000000000000000000000000000000000000000000000000000000000000000000000000000000000000000000000000000000000000000000000000000000000000000000000000000000040020000000000000400000000000000000000000000000000000000000000000000080",
      "type": "0x2",
      "transactionHash": "0x7374cea5e4e57d8bd3a8d696a4461c7a81937ef3a5cd3e0993e1479e3bc89626",
      "transactionIndex": "0x2",
      "blockHash": "0x6059e82102ae6eb3c0717c9dfb97e2dad1dc224b936aac0e49ee787f65775d7b",
      "blockNumber": "0x1312dba",
      "gasUsed": "0xd6650",
      "effectiveGasPrice": "0xf6a4d",
      "from": "0x000ef5f21dc574226a06c76aae7060642a30eb74",
      "to": null,
      "contractAddress": "0x06a345728c9fbcba5e3bd533330c0d19bcacabbd",
      "l1BaseFeeScalar": "0x1db0",
      "l1BlobBaseFee": "0x1",
      "l1BlobBaseFeeScalar": "0xd2730",
      "l1Fee": "0x811b95e7",
      "l1GasPrice": "0x74eb94",
      "l1GasUsed": "0x914b"
    },
    {
      "status": "0x1",
      "cumulativeGasUsed": "0x28a4d2",
      "logs": [],
      "logsBloom": "0x00000000000000000000000000000000000000000000000000000000000000000000000000000000000000000000000000000000000000000000000000000000000000000000000000000000000000000000000000000000000000000000000000000000000000000000000000000000000000000000000000000000000000000000000000000000000000000000000000000000000000000000000000000000000000000000000000000000000000000000000000000000000000000000000000000000000000000000000000000000000000000000000000000000000000000000000000000000000000000000000000000000000000000000000000000000",
      "type": "0x2",
      "transactionHash": "0x242403d619c6c41a3e703415a5e7c8066803e6f55d06299d14c0301346da330d",
      "transactionIndex": "0x3",
      "blockHash": "0x6059e82102ae6eb3c0717c9dfb97e2dad1dc224b936aac0e49ee787f65775d7b",
      "blockNumber": "0x1312dba",
      "gasUsed": "0x10bd6",
      "effectiveGasPrice": "0xf6a4d",
      "from": "0x000ef5f21dc574226a06c76aae7060642a30eb74",
      "to": "0x06a345728c9fbcba5e3bd533330c0d19bcacabbd",
      "contractAddress": null,
      "l1BaseFeeScalar": "0x1db0",
      "l1BlobBaseFee": "0x1",
      "l1BlobBaseFeeScalar": "0xd2730",
      "l1Fee": "0x5943ba8",
      "l1GasPrice": "0x74eb94",
      "l1GasUsed": "0x647"
    },
    {
      "status": "0x1",
      "cumulativeGasUsed": "0x42fca6",
      "logs": [
        {
          "address": "0x15906379703940bc51a5881ad1a5fc481ebc8bb1",
          "topics": [
            "0xddf252ad1be2c89b69c2b068fc378daa952ba7f163c4a11628f55a4df523b3ef",
            "0x0000000000000000000000000000000000000000000000000000000000000000",
            "0x00000000000000000000000006a345728c9fbcba5e3bd533330c0d19bcacabbd"
          ],
          "data": "0x000000000000000000000000000000000000007e37be2022c0914b2680000000",
          "blockHash": "0x6059e82102ae6eb3c0717c9dfb97e2dad1dc224b936aac0e49ee787f65775d7b",
          "blockNumber": "0x1312dba",
          "transactionHash": "0x48c14982f0fefd328e1cc1bbdf350d2a55329fae40cc6296958059d19f812e6b",
          "transactionIndex": "0x5",
          "logIndex": "0x1b",
          "removed": false
        }
      ],
      "logsBloom": "0x00000000000000000000000000000000000000000000000000000000000000000000000000000000000000000000000000000000000000000000000000000008000000000000000000100008000000000000000000000000000000000000000000000000020000000000000000000800000000000000000000000010000000000000000000000000100000000000000000000000000000000000000000000000000000000000000080000000000000000000000000000000000000000000080000000002000000000000000000000000000040000000000000000000000020000000000000000000000000000000000000000000000000000000000000000000",
      "type": "0x2",
      "transactionHash": "0x48c14982f0fefd328e1cc1bbdf350d2a55329fae40cc6296958059d19f812e6b",
      "transactionIndex": "0x5",
      "blockHash": "0x6059e82102ae6eb3c0717c9dfb97e2dad1dc224b936aac0e49ee787f65775d7b",
      "blockNumber": "0x1312dba",
      "gasUsed": "0xd19a",
      "effectiveGasPrice": "0xf6a4d",
      "from": "0x000ef5f21dc574226a06c76aae7060642a30eb74",
      "to": "0x15906379703940bc51a5881ad1a5fc481ebc8bb1",
      "contractAddress": null,
      "l1BaseFeeScalar": "0x1db0",
      "l1BlobBaseFee": "0x1",
      "l1BlobBaseFeeScalar": "0xd2730",
      "l1Fee": "0x58dc053",
      "l1GasPrice": "0x74eb94",
      "l1GasUsed": "0x640"
    },
    {
      "status": "0x1",
      "cumulativeGasUsed": "0x43ce40",
      "logs": [
        {
          "address": "0xba397efef3914ab025f7f5706fade61f240a9ebc",
          "topics": [
            "0xddf252ad1be2c89b69c2b068fc378daa952ba7f163c4a11628f55a4df523b3ef",
            "0x0000000000000000000000000000000000000000000000000000000000000000",
            "0x00000000000000000000000006a345728c9fbcba5e3bd533330c0d19bcacabbd"
          ],
          "data": "0x000000000000000000000000000000000000007e37be2022c0914b2680000000",
          "blockHash": "0x6059e82102ae6eb3c0717c9dfb97e2dad1dc224b936aac0e49ee787f65775d7b",
          "blockNumber": "0x1312dba",
          "transactionHash": "0x45437df2bc1d6426be7967467f05d573528f8b1572388bcc1c1393704b3e8e2f",
          "transactionIndex": "0x6",
          "logIndex": "0x1c",
          "removed": false
        }
      ],
      "logsBloom": "0x00000000000000000000000000000000000000000000000000000000000000000000000000010000000000000000000000000000000000000000000020000000000000000000000000100008004000000000000000000000000000000000000000000000020000000000000000000800000000000000000000000010000000000000000000000000000000000000000000000000000000000000000000000000000000000000000080000000000000000000000000000000000000000000000000000002000000000000000000000000000040000000000000000000000020000000000000000000000000000000000000000000000000000000000000000000",
      "type": "0x2",
      "transactionHash": "0x45437df2bc1d6426be7967467f05d573528f8b1572388bcc1c1393704b3e8e2f",
      "transactionIndex": "0x6",
      "blockHash": "0x6059e82102ae6eb3c0717c9dfb97e2dad1dc224b936aac0e49ee787f65775d7b",
      "blockNumber": "0x1312dba",
      "gasUsed": "0xd19a",
      "effectiveGasPrice": "0xf6a4d",
      "from": "0x000ef5f21dc574226a06c76aae7060642a30eb74",
      "to": "0xba397efef3914ab025f7f5706fade61f240a9ebc",
      "contractAddress": null,
      "l1BaseFeeScalar": "0x1db0",
      "l1BlobBaseFee": "0x1",
      "l1BlobBaseFeeScalar": "0xd2730",
      "l1Fee": "0x58dc053",
      "l1GasPrice": "0x74eb94",
      "l1GasUsed": "0x640"
    }
  ],
  "libraries": [],
  "pending": [],
  "returns": {},
  "timestamp": 1731802914,
  "chain": 11155420,
  "commit": "f193f39"
}