{
  "transactions": [
    {
      "hash": "0x2ecf96851b2971e963a3d8f93238b46cc0f857fbbd14a3ddad03219ba35bad61",
      "transactionType": "CREATE",
      "contractName": "OmniSwapSpoke",
      "contractAddress": "0xbc1334118db099327fb0a2d2a6a3e701af28bf17",
      "function": null,
      "arguments": [
        "0x6EDCE65403992e310A62460808c4b910D972f10f"
      ],
      "transaction": {
        "from": "0x000ef5f21dc574226a06c76aae7060642a30eb74",
        "gas": "0x11dc15",
        "value": "0x0",
        "input": "0x60803460cd57601f610f4e38819003918201601f19168301916001600160401b0383118484101760d15780849260209460405283398101031260cd57516001600160a01b0381169081900360cd57331560ba575f8054336001600160a01b0319821681178355604051939290916001600160a01b0316907f8be0079c531659141344cd1fd0a4f28419497f9722a3daafe3b4186f6b6457e09080a3600380546001600160a01b031916919091179055610e6890816100e68239f35b631e4fbdf760e01b5f525f60045260245ffd5b5f80fd5b634e487b7160e01b5f52604160045260245ffdfe60806040526004361015610011575f80fd5b5f3560e01c8063542524dd146100c45780636c1a032c146100bf578063715018a6146100ba5780637f5a7c7b146100b55780638b02705d146100b05780638da5cb5b146100ab578063b353aaa7146100a6578063c31c9c07146100a1578063c7b8e15d1461009c578063d0a10260146100975763f2fde38b14610092575f80fd5b610753565b610305565b6102b7565b61028f565b610267565b610240565b61020f565b6101e7565b610190565b610148565b6100dd565b634e487b7160e01b5f52601160045260245ffd5b3461010b575f36600319011261010b57602060405173fffd8963efd1fc6a506488495d951d5263988d258152f35b5f80fd5b6001600160a01b0381160361010b57565b604090600319011261010b576004356101388161010f565b906024356101458161010f565b90565b3461010b5761015636610120565b9061015f610b7a565b600180546001600160a01b039283166001600160a01b03199182161790915560028054939092169216919091179055005b3461010b575f36600319011261010b576101a8610b7a565b5f80546001600160a01b0319811682556001600160a01b03167f8be0079c531659141344cd1fd0a4f28419497f9722a3daafe3b4186f6b6457e08280a3005b3461010b575f36600319011261010b576002546040516001600160a01b039091168152602090f35b3461010b57604061022861022236610120565b906107dc565b82516001600160a01b03928316815291166020820152f35b3461010b575f36600319011261010b575f546040516001600160a01b039091168152602090f35b3461010b575f36600319011261010b576003546040516001600160a01b039091168152602090f35b3461010b575f36600319011261010b576001546040516001600160a01b039091168152602090f35b3461010b575f36600319011261010b5760206401000276a4604051908152f35b9181601f8401121561010b5782359167ffffffffffffffff831161010b576020838186019501011161010b57565b60a036600319011261010b5760043561031d8161010f565b60443567ffffffffffffffff811161010b5761033d9036906004016102d7565b919061034a60643561010f565b60843567ffffffffffffffff811161010b5761036a9036906004016102d7565b50506003546103949061038d906001600160a01b03165b6001600160a01b031690565b33146107f6565b61039e8382610ba0565b916103bb6103ac8584610baf565b60208082518301019101610842565b6001600160a01b0390811695911693906103d586846107dc565b6001600160a01b039485169591949092919085168603610749576104416001955b6001546020908790610410906001600160a01b0316610381565b60405163095ea7b360e01b81526001600160a01b039091166004820152602481019190915292839081906044820190565b03815f8c5af180156106b15761052c956020936104b79261071e575b50600254610498906001600160a01b03169161048961047a6108c5565b6001600160a01b039096168652565b6001600160a01b031684860152565b610bb86040840152607860608401526001600160a01b03166080830152565b6001546104cc906001600160a01b0316610381565b6401000276a46104f96104dd6108d6565b8a15158152918286018a90526001600160a01b03166040830152565b5f6105026108e5565b93818552818686015261053a8d6040519a8b91898301919091602081019260018060a01b03169052565b03601f1981018b528a61087b565b61055a604051998a968795869463088a742d60e21b865260048601610936565b03925af180156106b157879560c0945f926106ed575b50156106e457600f0b915b826001600160801b0316925f81600f0b126106b6575b506105bc6001600160801b03916105b66105b16105ac610bf9565b610c15565b610d10565b93610dc2565b926105d46105c86108f4565b63ffffffff9095168552565b86602085015216806040840152606083015260808201526105f3610a0d565b60a0820152610600610a0d565b8282015261060c6108e5565b3481525f602082015260405163c7c7f5b360e01b81529485928392610635929160048501610acb565b038134895af19081156106b1577fd6fad783f6ce60919b6ee64c639cbdcedc0dd52b96be62e1df509272cdd4e4a29261067e92610683575b506040519081529081906020820190565b0390a4005b6106a49060c03d60c0116106aa575b61069c818361087b565b810190610a5a565b5061066d565b503d610692565b6108ba565b6001600160801b039193506106dc6106d06105bc926109cc565b6001600160801b031690565b939150610591565b60801d9161057b565b61071091925060203d602011610717575b610708818361087b565b810190610903565b905f610570565b503d6106fe565b61073d90853d8711610742575b610735818361087b565b8101906108a2565b61045d565b503d61072b565b6104415f956103f6565b3461010b57602036600319011261010b576004356107708161010f565b610778610b7a565b6001600160a01b031680156107c9575f80546001600160a01b03198116831782556001600160a01b0316907f8be0079c531659141344cd1fd0a4f28419497f9722a3daafe3b4186f6b6457e09080a3005b631e4fbdf760e01b5f525f60045260245ffd5b6001600160a01b0391821692911682811115610145579190565b156107fd57565b60405162461bcd60e51b815260206004820152601c60248201527f4f6e6c79204c5a20656e64706f696e742063616e20636f6d706f7365000000006044820152606490fd5b919082604091031261010b576020825161085b8161010f565b9201516101458161010f565b634e487b7160e01b5f52604160045260245ffd5b90601f8019910116810190811067ffffffffffffffff82111761089d57604052565b610867565b9081602091031261010b5751801515810361010b5790565b6040513d5f823e3d90fd5b604051906108d460a08361087b565b565b604051906108d460608361087b565b604051906108d460408361087b565b604051906108d460e08361087b565b9081602091031261010b575190565b805180835260209291819084018484015e5f828201840152601f01601f1916010190565b81516001600160a01b03908116825260208084015182168184015260408085015162ffffff168185015260608086015160020b908501526080948501518316948401949094528451151560a084015284015160c083015291909201511660e0820152610145929161016091906109be9080511515610100840152602001511515610120830152565b816101408201520190610912565b600f0b6f7fffffffffffffffffffffffffffffff1981146109ec575f0390565b6100c9565b67ffffffffffffffff811161089d57601f01601f191660200190565b60405190610a1c60208361087b565b5f8252565b919082604091031261010b576040516040810181811067ffffffffffffffff82111761089d576040526020808294805184520151910152565b919082810360c0811261010b5760801361010b57604051906060820182811067ffffffffffffffff82111761089d5760405283518252602084015167ffffffffffffffff8116810361010b57826080916020610145950152610abf8360408801610a21565b60408201529401610a21565b606090610b6a610b556108d4959796946080845263ffffffff8151166080850152602081015160a0850152604081015160c08501528481015160e085015260c0610b40610b29608084015160e0610100890152610160880190610912565b60a0840151878203607f1901610120890152610912565b910151848203607f1901610140860152610912565b96602083019060208091805184520151910152565b6001600160a01b03909216910152565b5f546001600160a01b03163303610b8d57565b63118cdaa760e01b5f523360045260245ffd5b90602c1161010b57600c013590565b9080604c1161010b57604c8201604b19820191610bcb836109f1565b93610bd9604051958661087b565b838552369082011161010b575f9260209283860137830101604b19015290565b604051600360f01b60208201526002815261014560228261087b565b600361ffff610c2383610dd4565b1603610d0457604051610c3560861b602082015260108152610c4660308261087b565b600361ffff610c5484610dd4565b1603610ce557805161ffff8111610cce5761ffff60019116019161ffff83116109ec57610cc0610145926004610c94956040519687956020870190610e20565b600160f81b80825260f09290921b6001600160f01b031916600182015260038101919091520190610e20565b03601f19810183528261087b565b6306dfcc6560e41b5f52601060045260245260445ffd5b61ffff610cf183610dd4565b633a51740d60e01b5f521660045260245ffd5b610cf161ffff91610dd4565b600361ffff610d1e83610dd4565b1603610d04576040515f6020820152613d0960851b602282015260128152610d4760328261087b565b600361ffff610d5584610dd4565b1603610ce557805161ffff8111610cce5761ffff60019116019161ffff83116109ec57610cc0610145926004610d95956040519687956020870190610e20565b600160f81b815260f09190911b6001600160f01b0319166001820152600360f81b60038201520190610e20565b90600c1161010b576008013560e01c90565b6002815110610de4576002015190565b60405162461bcd60e51b8152602060048201526014602482015273746f55696e7431365f6f75744f66426f756e647360601b6044820152606490fd5b805191908290602001825e015f81529056fea2646970667358221220fef3362d152feaf0efe8fce5088ed77572d53c73f18a72002754d9e41f31e89c64736f6c634300081a00330000000000000000000000006edce65403992e310a62460808c4b910d972f10f",
        "nonce": "0x66",
        "chainId": "0xaa37dc"
      },
      "additionalContracts": [],
      "isFixedGasLimit": false
    },
    {
      "hash": "0x082482f5d42fe946e4cf3a754dfe8a58380efb0a039279ad83683c311eb150f0",
      "transactionType": "CALL",
      "contractName": "OmniSwapSpoke",
      "contractAddress": "0xbc1334118db099327fb0a2d2a6a3e701af28bf17",
      "function": "configurePool(address,address)",
      "arguments": [
        "0x69801C169647Ad125707Dd40096D4EDC20Bb521a",
        "0xBbd735DB53cE42a7423B0861864dAD6253588040"
      ],
      "transaction": {
        "from": "0x000ef5f21dc574226a06c76aae7060642a30eb74",
        "to": "0xbc1334118db099327fb0a2d2a6a3e701af28bf17",
        "gas": "0x1721f",
        "value": "0x0",
        "input": "0x6c1a032c00000000000000000000000069801c169647ad125707dd40096d4edc20bb521a000000000000000000000000bbd735db53ce42a7423b0861864dad6253588040",
        "nonce": "0x67",
        "chainId": "0xaa37dc"
      },
      "additionalContracts": [],
      "isFixedGasLimit": false
    },
    {
      "hash": "0x59d28f6590505358c12625de29f3b41f39f487d19541b13b486be34ff62433ea",
      "transactionType": "CALL",
      "contractName": null,
      "contractAddress": "0xba397efef3914ab025f7f5706fade61f240a9ebc",
      "function": "mint(address,uint256)",
      "arguments": [
        "0xbc1334118Db099327fB0a2D2A6A3E701af28bF17",
        "10000000000000000000000000000000"
      ],
      "transaction": {
        "from": "0x000ef5f21dc574226a06c76aae7060642a30eb74",
        "to": "0xba397efef3914ab025f7f5706fade61f240a9ebc",
        "gas": "0x1328a",
        "value": "0x0",
        "input": "0x40c10f19000000000000000000000000bc1334118db099327fb0a2d2a6a3e701af28bf17000000000000000000000000000000000000007e37be2022c0914b2680000000",
        "nonce": "0x68",
        "chainId": "0xaa37dc"
      },
      "additionalContracts": [],
      "isFixedGasLimit": false
    }
  ],
  "receipts": [
    {
      "status": "0x1",
      "cumulativeGasUsed": "0xfc0e6",
      "logs": [
        {
          "address": "0xbc1334118db099327fb0a2d2a6a3e701af28bf17",
          "topics": [
            "0x8be0079c531659141344cd1fd0a4f28419497f9722a3daafe3b4186f6b6457e0",
            "0x0000000000000000000000000000000000000000000000000000000000000000",
            "0x000000000000000000000000000ef5f21dc574226a06c76aae7060642a30eb74"
          ],
          "data": "0x",
          "blockHash": "0x7943a4031801014dd8011d8bcb268475528b32fdd00b912b510f4d37dbb81437",
          "blockNumber": "0x13112c8",
          "transactionHash": "0x2ecf96851b2971e963a3d8f93238b46cc0f857fbbd14a3ddad03219ba35bad61",
          "transactionIndex": "0x2",
          "logIndex": "0x2",
          "removed": false
        }
      ],
      "logsBloom": "0x00000000000000000000000000000000000000000000000000800000000000000000000000020000000000000000000000000000000000000000000000000000000000000000000000000000000100000001080000000000000000000000000000000000020000000000000400000800000000000000000000000000000000400000000000000000000000000000000000000000000000000000000000000000000000000000000000000000000000000000000000000000000000000000000000000000000000000000000000000000000000000000000000000000040020000080000000000000000000000000000000000000000000000000000000000000",
      "type": "0x2",
      "transactionHash": "0x2ecf96851b2971e963a3d8f93238b46cc0f857fbbd14a3ddad03219ba35bad61",
      "transactionIndex": "0x2",
      "blockHash": "0x7943a4031801014dd8011d8bcb268475528b32fdd00b912b510f4d37dbb81437",
      "blockNumber": "0x13112c8",
      "gasUsed": "0xdbcfd",
      "effectiveGasPrice": "0xf6a4e",
      "from": "0x000ef5f21dc574226a06c76aae7060642a30eb74",
      "to": null,
      "contractAddress": "0xbc1334118db099327fb0a2d2a6a3e701af28bf17",
      "l1BaseFeeScalar": "0x1db0",
      "l1BlobBaseFee": "0x1",
      "l1BlobBaseFeeScalar": "0xd2730",
      "l1Fee": "0xf5e258e6e",
      "l1GasPrice": "0xd21f549",
      "l1GasUsed": "0x99f9"
    },
    {
      "status": "0x1",
      "cumulativeGasUsed": "0x10ccdd",
      "logs": [],
      "logsBloom": "0x00000000000000000000000000000000000000000000000000000000000000000000000000000000000000000000000000000000000000000000000000000000000000000000000000000000000000000000000000000000000000000000000000000000000000000000000000000000000000000000000000000000000000000000000000000000000000000000000000000000000000000000000000000000000000000000000000000000000000000000000000000000000000000000000000000000000000000000000000000000000000000000000000000000000000000000000000000000000000000000000000000000000000000000000000000000",
      "type": "0x2",
      "transactionHash": "0x082482f5d42fe946e4cf3a754dfe8a58380efb0a039279ad83683c311eb150f0",
      "transactionIndex": "0x3",
      "blockHash": "0x7943a4031801014dd8011d8bcb268475528b32fdd00b912b510f4d37dbb81437",
      "blockNumber": "0x13112c8",
      "gasUsed": "0x10bf7",
      "effectiveGasPrice": "0xf6a4e",
      "from": "0x000ef5f21dc574226a06c76aae7060642a30eb74",
      "to": "0xbc1334118db099327fb0a2d2a6a3e701af28bf17",
      "contractAddress": null,
      "l1BaseFeeScalar": "0x1db0",
      "l1BlobBaseFee": "0x1",
      "l1BlobBaseFeeScalar": "0xd2730",
      "l1Fee": "0x9fb16990",
      "l1GasPrice": "0xd21f549",
      "l1GasUsed": "0x640"
    },
    {
      "status": "0x1",
      "cumulativeGasUsed": "0x4c463",
      "logs": [
        {
          "address": "0xba397efef3914ab025f7f5706fade61f240a9ebc",
          "topics": [
            "0xddf252ad1be2c89b69c2b068fc378daa952ba7f163c4a11628f55a4df523b3ef",
            "0x0000000000000000000000000000000000000000000000000000000000000000",
            "0x000000000000000000000000bc1334118db099327fb0a2d2a6a3e701af28bf17"
          ],
          "data": "0x000000000000000000000000000000000000007e37be2022c0914b2680000000",
          "blockHash": "0x551a8b8e2b1381c8180a58c727955150beefc696ce12b1e7b132a496d2194ca7",
          "blockNumber": "0x13112ca",
          "transactionHash": "0x59d28f6590505358c12625de29f3b41f39f487d19541b13b486be34ff62433ea",
          "transactionIndex": "0x3",
          "logIndex": "0x5",
          "removed": false
        }
      ],
      "logsBloom": "0x00000000000000000000000000000000000000000000000000000000000000000000000000010000000000000000000000000000000000000000000020000000000000000000000000000008004000000000000000000400000000000000000000080000020000000000000000000800000000000000000000000010000000000000000000000000000000000000000000000000000000000000000000000080000000000000000000000000000000000000000000000000000000000000000000000002000000000000000000000000000000000000000000000000000020000000000000000000000000000000000000000000000000000000000000000000",
      "type": "0x2",
      "transactionHash": "0x59d28f6590505358c12625de29f3b41f39f487d19541b13b486be34ff62433ea",
      "transactionIndex": "0x3",
      "blockHash": "0x551a8b8e2b1381c8180a58c727955150beefc696ce12b1e7b132a496d2194ca7",
      "blockNumber": "0x13112ca",
      "gasUsed": "0xd19a",
      "effectiveGasPrice": "0xf6a4e",
      "from": "0x000ef5f21dc574226a06c76aae7060642a30eb74",
      "to": "0xba397efef3914ab025f7f5706fade61f240a9ebc",
      "contractAddress": null,
      "l1BaseFeeScalar": "0x1db0",
      "l1BlobBaseFee": "0x1",
      "l1BlobBaseFeeScalar": "0xd2730",
      "l1Fee": "0x920c5d86",
      "l1GasPrice": "0xc02b374",
      "l1GasUsed": "0x640"
    }
  ],
  "libraries": [],
  "pending": [],
  "returns": {},
  "timestamp": 1731789121,
  "chain": 11155420,
  "commit": "f193f39"
}