{
  "transactions": [
    {
      "hash": "0x11ca20e6c2e07aeb80b87cf049c48cb895477134387d47f7b1057a4ad8686d95",
      "transactionType": "CREATE",
      "contractName": "OmniSwapSpoke",
      "contractAddress": "0x2664ab83e3a9f22804be7e5d6a5c61e171bd702d",
      "function": null,
      "arguments": [
        "0x6EDCE65403992e310A62460808c4b910D972f10f"
      ],
      "transaction": {
        "from": "0x000ef5f21dc574226a06c76aae7060642a30eb74",
        "gas": "0xf970d",
        "value": "0x0",
        "input": "0x60803460cd57601f610d3f38819003918201601f19168301916001600160401b0383118484101760d15780849260209460405283398101031260cd57516001600160a01b0381169081900360cd57331560ba575f8054336001600160a01b0319821681178355604051939290916001600160a01b0316907f8be0079c531659141344cd1fd0a4f28419497f9722a3daafe3b4186f6b6457e09080a3600380546001600160a01b031916919091179055610c5990816100e68239f35b631e4fbdf760e01b5f525f60045260245ffd5b5f80fd5b634e487b7160e01b5f52604160045260245ffdfe60806040526004361015610011575f80fd5b5f3560e01c8063542524dd146100b45780636c1a032c146100af578063715018a6146100aa5780637f5a7c7b146100a55780638da5cb5b146100a0578063b353aaa71461009b578063c31c9c0714610096578063c7b8e15d14610091578063d0a102601461008c5763f2fde38b14610087575f80fd5b6106f1565b6102b1565b610264565b61023c565b610214565b6101ed565b6101c5565b61016e565b61010b565b346100e2575f3660031901126100e257602060405173fffd8963efd1fc6a506488495d951d5263988d258152f35b5f80fd5b634e487b7160e01b5f52601160045260245ffd5b6001600160a01b038116036100e257565b346100e25760403660031901126100e257600435610128816100fa565b60243590610135826100fa565b61013d610a18565b600180546001600160a01b039283166001600160a01b03199182161790915560028054939092169216919091179055005b346100e2575f3660031901126100e257610186610a18565b5f80546001600160a01b0319811682556001600160a01b03167f8be0079c531659141344cd1fd0a4f28419497f9722a3daafe3b4186f6b6457e08280a3005b346100e2575f3660031901126100e2576002546040516001600160a01b039091168152602090f35b346100e2575f3660031901126100e2575f546040516001600160a01b039091168152602090f35b346100e2575f3660031901126100e2576003546040516001600160a01b039091168152602090f35b346100e2575f3660031901126100e2576001546040516001600160a01b039091168152602090f35b346100e2575f3660031901126100e25760206040516401000276a48152f35b9181601f840112156100e25782359167ffffffffffffffff83116100e257602083818601950101116100e257565b60a03660031901126100e2576004356102c9816100fa565b60443567ffffffffffffffff81116100e2576102e9903690600401610283565b906102f56064356100fa565b60843567ffffffffffffffff81116100e257610315903690600401610283565b505060035461032e906001600160a01b0316331461077a565b6103388282610a3e565b916103556103468284610a4d565b602080825183010191016107c6565b60405163095ea7b360e01b815273536527976e98e253b424a3655e695d144e34334160048201525f1960248201526001600160a01b0391821696929091169491906020816044815f7315906379703940bc51a5881ad1a5fc481ebc8bb15af1801561065c576106d4575b5060405163095ea7b360e01b815273536527976e98e253b424a3655e695d144e34334160048201525f1960248201526020816044815f73ba397efef3914ab025f7f5706fade61f240a9ebc5af1801561065c576106b7575b5060405163095ea7b360e01b815273440d0bee5706987be528fec5c4ca5947e38161d26004820152602481018390526020816044815f7315906379703940bc51a5881ad1a5fc481ebc8bb15af1801561065c5761069a575b5060405163095ea7b360e01b815273440d0bee5706987be528fec5c4ca5947e38161d2600482015260248101839052926020846044815f73ba397efef3914ab025f7f5706fade61f240a9ebc5af191821561065c57869460c09361066d575b506001600160a01b0316948588111561066157610544886080885b600254610524906001600160a01b03169361051461050561084c565b6001600160a01b039094168452565b6001600160a01b03166020830152565b610bb86040820152607860608201525b6001600160a01b03909216910152565b6105686105518560011c90565b9261056261055d610a97565b610ab3565b92610bb3565b9161058061057461085d565b63ffffffff9094168452565b8560208401528060408401526060830152608082015261059e610897565b60a08201526105ab610897565b828201526105b761086c565b3481525f602082015260405163c7c7f5b360e01b815294859283926105e0929160048501610979565b038134895af190811561065c577fd6fad783f6ce60919b6ee64c639cbdcedc0dd52b96be62e1df509272cdd4e4a2926106299261062e575b506040519081529081906020820190565b0390a4005b61064f9060c03d60c011610655575b6106478183610802565b8101906108e4565b50610618565b503d61063d565b610841565b6105448660808a6104e9565b61068e9060203d602011610693575b6106868183610802565b810190610829565b6104ce565b503d61067c565b6106b29060203d602011610693576106868183610802565b61046f565b6106cf9060203d602011610693576106868183610802565b610417565b6106ec9060203d602011610693576106868183610802565b6103bf565b346100e25760203660031901126100e25760043561070e816100fa565b610716610a18565b6001600160a01b03168015610767575f80546001600160a01b03198116831782556001600160a01b0316907f8be0079c531659141344cd1fd0a4f28419497f9722a3daafe3b4186f6b6457e09080a3005b631e4fbdf760e01b5f525f60045260245ffd5b1561078157565b60405162461bcd60e51b815260206004820152601c60248201527f4f6e6c79204c5a20656e64706f696e742063616e20636f6d706f7365000000006044820152606490fd5b91908260409103126100e257602082516107df816100fa565b9201516107eb816100fa565b90565b634e487b7160e01b5f52604160045260245ffd5b90601f8019910116810190811067ffffffffffffffff82111761082457604052565b6107ee565b908160209103126100e2575180151581036100e25790565b6040513d5f823e3d90fd5b6040519061085b60a083610802565b565b6040519061085b60e083610802565b6040519061085b604083610802565b67ffffffffffffffff811161082457601f01601f191660200190565b604051906108a6602083610802565b5f8252565b91908260409103126100e2576040516040810181811067ffffffffffffffff821117610824576040526020808294805184520151910152565b919082810360c081126100e2576080136100e257604051906060820182811067ffffffffffffffff8211176108245760405283518252602084015167ffffffffffffffff811681036100e2578260809160206107eb95015261094983604088016108ab565b604082015294016108ab565b805180835260209291819084018484015e5f828201840152601f01601f1916010190565b606090610534610a0361085b959796946080845263ffffffff8151166080850152602081015160a0850152604081015160c08501528481015160e085015260c06109ee6109d7608084015160e0610100890152610160880190610955565b60a0840151878203607f1901610120890152610955565b910151848203607f1901610140860152610955565b96602083019060208091805184520151910152565b5f546001600160a01b03163303610a2b57565b63118cdaa760e01b5f523360045260245ffd5b90602c116100e257600c013590565b9080604c116100e257604c8201604b19820191610a698361087b565b93610a776040519586610802565b83855236908201116100e2575f9260209283860137830101604b19015290565b604051600360f01b6020820152600281526107eb602282610802565b600361ffff610ac183610bc5565b1603610ba757604051610c3560861b602082015260108152610ae4603082610802565b600361ffff610af284610bc5565b1603610b8857805161ffff8111610b715761ffff60019116019161ffff8311610b6c57610b5e6107eb926004610b32956040519687956020870190610c11565b600160f81b80825260f09290921b6001600160f01b031916600182015260038101919091520190610c11565b03601f198101835282610802565b6100e6565b6306dfcc6560e41b5f52601060045260245260445ffd5b61ffff610b9483610bc5565b633a51740d60e01b5f521660045260245ffd5b610b9461ffff91610bc5565b90600c116100e2576008013560e01c90565b6002815110610bd5576002015190565b60405162461bcd60e51b8152602060048201526014602482015273746f55696e7431365f6f75744f66426f756e647360601b6044820152606490fd5b805191908290602001825e015f81529056fea2646970667358221220f8a94554d23cf1543f4a867dbfce8d9c789c551fb7ab7110b5bbf2ed897c697464736f6c634300081a00330000000000000000000000006edce65403992e310a62460808c4b910d972f10f",
        "nonce": "0x8e",
        "chainId": "0xaa37dc"
      },
      "additionalContracts": [],
      "isFixedGasLimit": false
    },
    {
      "hash": "0x58a4689239561fdbec214699d0787c9823bd56b83392641daa92c2dcf0af5f08",
      "transactionType": "CALL",
      "contractName": "OmniSwapSpoke",
      "contractAddress": "0x2664ab83e3a9f22804be7e5d6a5c61e171bd702d",
      "function": "configurePool(address,address)",
      "arguments": [
        "0x69801C169647Ad125707Dd40096D4EDC20Bb521a",
        "0xBbd735DB53cE42a7423B0861864dAD6253588040"
      ],
      "transaction": {
        "from": "0x000ef5f21dc574226a06c76aae7060642a30eb74",
        "to": "0x2664ab83e3a9f22804be7e5d6a5c61e171bd702d",
        "gas": "0x171f2",
        "value": "0x0",
        "input": "0x6c1a032c00000000000000000000000069801c169647ad125707dd40096d4edc20bb521a000000000000000000000000bbd735db53ce42a7423b0861864dad6253588040",
        "nonce": "0x8f",
        "chainId": "0xaa37dc"
      },
      "additionalContracts": [],
      "isFixedGasLimit": false
    },
    {
      "hash": "0x7cb95a0cd86fceb1bafe876d6edb0f081ba95e9d27b62f95e84a176d292438dc",
      "transactionType": "CALL",
      "contractName": null,
      "contractAddress": "0x15906379703940bc51a5881ad1a5fc481ebc8bb1",
      "function": "mint(address,uint256)",
      "arguments": [
        "0x2664aB83e3A9F22804bE7E5d6a5c61E171bd702d",
        "10000000000000000000000000000000"
      ],
      "transaction": {
        "from": "0x000ef5f21dc574226a06c76aae7060642a30eb74",
        "to": "0x15906379703940bc51a5881ad1a5fc481ebc8bb1",
        "gas": "0x1328a",
        "value": "0x0",
        "input": "0x40c10f190000000000000000000000002664ab83e3a9f22804be7e5d6a5c61e171bd702d000000000000000000000000000000000000007e37be2022c0914b2680000000",
        "nonce": "0x90",
        "chainId": "0xaa37dc"
      },
      "additionalContracts": [],
      "isFixedGasLimit": false
    },
    {
      "hash": "0x690083822242910428d9ccbcde499b053e52458d71a6b41ecdc76dbdaf5091d7",
      "transactionType": "CALL",
      "contractName": null,
      "contractAddress": "0xba397efef3914ab025f7f5706fade61f240a9ebc",
      "function": "mint(address,uint256)",
      "arguments": [
        "0x2664aB83e3A9F22804bE7E5d6a5c61E171bd702d",
        "10000000000000000000000000000000"
      ],
      "transaction": {
        "from": "0x000ef5f21dc574226a06c76aae7060642a30eb74",
        "to": "0xba397efef3914ab025f7f5706fade61f240a9ebc",
        "gas": "0x1328a",
        "value": "0x0",
        "input": "0x40c10f190000000000000000000000002664ab83e3a9f22804be7e5d6a5c61e171bd702d000000000000000000000000000000000000007e37be2022c0914b2680000000",
        "nonce": "0x91",
        "chainId": "0xaa37dc"
      },
      "additionalContracts": [],
      "isFixedGasLimit": false
    }
  ],
  "receipts": [
    {
      "status": "0x1",
      "cumulativeGasUsed": "0xca931",
      "logs": [
        {
          "address": "0x2664ab83e3a9f22804be7e5d6a5c61e171bd702d",
          "topics": [
            "0x8be0079c531659141344cd1fd0a4f28419497f9722a3daafe3b4186f6b6457e0",
            "0x0000000000000000000000000000000000000000000000000000000000000000",
            "0x000000000000000000000000000ef5f21dc574226a06c76aae7060642a30eb74"
          ],
          "data": "0x",
          "blockHash": "0xa9594bb107359503fe600c3cb03f5850dab3f5943ed9ff4633b057b49daeef16",
          "blockNumber": "0x1312890",
          "transactionHash": "0x11ca20e6c2e07aeb80b87cf049c48cb895477134387d47f7b1057a4ad8686d95",
          "transactionIndex": "0x1",
          "logIndex": "0x0",
          "removed": false
        }
      ],
      "logsBloom": "0x00000000000000000000000000000000000000000100000000800000000000000000000000020000000000000000000000000000000000000000000000000000000000000000000000000000000000000001000000000001000000000000000000000000020000000000000400000800000000000000000000000000000000400000000000000000000000000000000000000000000000000000000000000000000000000000000000000000000000000000000000000000000000000000000000000000000000000000000000000000000000000000000000000000040020000000000000000010000000000000000000000000000000000000000000000000",
      "type": "0x2",
      "transactionHash": "0x11ca20e6c2e07aeb80b87cf049c48cb895477134387d47f7b1057a4ad8686d95",
      "transactionIndex": "0x1",
      "blockHash": "0xa9594bb107359503fe600c3cb03f5850dab3f5943ed9ff4633b057b49daeef16",
      "blockNumber": "0x1312890",
      "gasUsed": "0xbfe0a",
      "effectiveGasPrice": "0xf6a4d",
      "from": "0x000ef5f21dc574226a06c76aae7060642a30eb74",
      "to": null,
      "contractAddress": "0x2664ab83e3a9f22804be7e5d6a5c61e171bd702d",
      "l1BaseFeeScalar": "0x1db0",
      "l1BlobBaseFee": "0x1",
      "l1BlobBaseFeeScalar": "0xd2730",
      "l1Fee": "0xabf2edf",
      "l1GasPrice": "0xaf8d0",
      "l1GasUsed": "0x80e0"
    },
    {
      "status": "0x1",
      "cumulativeGasUsed": "0x1a0a25",
      "logs": [],
      "logsBloom": "0x00000000000000000000000000000000000000000000000000000000000000000000000000000000000000000000000000000000000000000000000000000000000000000000000000000000000000000000000000000000000000000000000000000000000000000000000000000000000000000000000000000000000000000000000000000000000000000000000000000000000000000000000000000000000000000000000000000000000000000000000000000000000000000000000000000000000000000000000000000000000000000000000000000000000000000000000000000000000000000000000000000000000000000000000000000000",
      "type": "0x2",
      "transactionHash": "0x58a4689239561fdbec214699d0787c9823bd56b83392641daa92c2dcf0af5f08",
      "transactionIndex": "0x2",
      "blockHash": "0xa78c908a3abd4076e02d6eafd5e49d6eb793fd1b2d8cff4fbcf2af63d81ab5ac",
      "blockNumber": "0x1312891",
      "gasUsed": "0x10bd6",
      "effectiveGasPrice": "0xf6a4d",
      "from": "0x000ef5f21dc574226a06c76aae7060642a30eb74",
      "to": "0x2664ab83e3a9f22804be7e5d6a5c61e171bd702d",
      "contractAddress": null,
      "l1BaseFeeScalar": "0x1db0",
      "l1BlobBaseFee": "0x1",
      "l1BlobBaseFeeScalar": "0xd2730",
      "l1Fee": "0x860736",
      "l1GasPrice": "0xaf8d0",
      "l1GasUsed": "0x647"
    },
    {
      "status": "0x1",
      "cumulativeGasUsed": "0x1adbbf",
      "logs": [
        {
          "address": "0x15906379703940bc51a5881ad1a5fc481ebc8bb1",
          "topics": [
            "0xddf252ad1be2c89b69c2b068fc378daa952ba7f163c4a11628f55a4df523b3ef",
            "0x0000000000000000000000000000000000000000000000000000000000000000",
            "0x0000000000000000000000002664ab83e3a9f22804be7e5d6a5c61e171bd702d"
          ],
          "data": "0x000000000000000000000000000000000000007e37be2022c0914b2680000000",
          "blockHash": "0xa78c908a3abd4076e02d6eafd5e49d6eb793fd1b2d8cff4fbcf2af63d81ab5ac",
          "blockNumber": "0x1312891",
          "transactionHash": "0x7cb95a0cd86fceb1bafe876d6edb0f081ba95e9d27b62f95e84a176d292438dc",
          "transactionIndex": "0x3",
          "logIndex": "0x9",
          "removed": false
        }
      ],
      "logsBloom": "0x00000000000000000000000000000000000000000000000000000000000000000000000000000000000000000000000000000000000000000000000000000008000000000000000000000008000000000000000000000000000000000000000000000000020000000000000000000800000000000000008000000010000000000000000000000000100000000000000000000000000000000000000000000000000000000000000000000000000000000000000000000000000000000000080000000002000000000000000000000000000000000002000000000000000020000000000000010000000000000000000000000000000000000000000000000000",
      "type": "0x2",
      "transactionHash": "0x7cb95a0cd86fceb1bafe876d6edb0f081ba95e9d27b62f95e84a176d292438dc",
      "transactionIndex": "0x3",
      "blockHash": "0xa78c908a3abd4076e02d6eafd5e49d6eb793fd1b2d8cff4fbcf2af63d81ab5ac",
      "blockNumber": "0x1312891",
      "gasUsed": "0xd19a",
      "effectiveGasPrice": "0xf6a4d",
      "from": "0x000ef5f21dc574226a06c76aae7060642a30eb74",
      "to": "0x15906379703940bc51a5881ad1a5fc481ebc8bb1",
      "contractAddress": null,
      "l1BaseFeeScalar": "0x1db0",
      "l1BlobBaseFee": "0x1",
      "l1BlobBaseFeeScalar": "0xd2730",
      "l1Fee": "0x856b7f",
      "l1GasPrice": "0xaf8d0",
      "l1GasUsed": "0x640"
    },
    {
      "status": "0x1",
      "cumulativeGasUsed": "0x1bad59",
      "logs": [
        {
          "address": "0xba397efef3914ab025f7f5706fade61f240a9ebc",
          "topics": [
            "0xddf252ad1be2c89b69c2b068fc378daa952ba7f163c4a11628f55a4df523b3ef",
            "0x0000000000000000000000000000000000000000000000000000000000000000",
            "0x0000000000000000000000002664ab83e3a9f22804be7e5d6a5c61e171bd702d"
          ],
          "data": "0x000000000000000000000000000000000000007e37be2022c0914b2680000000",
          "blockHash": "0xa78c908a3abd4076e02d6eafd5e49d6eb793fd1b2d8cff4fbcf2af63d81ab5ac",
          "blockNumber": "0x1312891",
          "transactionHash": "0x690083822242910428d9ccbcde499b053e52458d71a6b41ecdc76dbdaf5091d7",
          "transactionIndex": "0x4",
          "logIndex": "0xa",
          "removed": false
        }
      ],
      "logsBloom": "0x00000000000000000000000000000000000000000000000000000000000000000000000000010000000000000000000000000000000000000000000020000000000000000000000000000008004000000000000000000000000000000000000000000000020000000000000000000800000000000000008000000010000000000000000000000000000000000000000000000000000000000000000000000000000000000000000000000000000000000000000000000000000000000000000000000002000000000000000000000000000000000002000000000000000020000000000000010000000000000000000000000000000000000000000000000000",
      "type": "0x2",
      "transactionHash": "0x690083822242910428d9ccbcde499b053e52458d71a6b41ecdc76dbdaf5091d7",
      "transactionIndex": "0x4",
      "blockHash": "0xa78c908a3abd4076e02d6eafd5e49d6eb793fd1b2d8cff4fbcf2af63d81ab5ac",
      "blockNumber": "0x1312891",
      "gasUsed": "0xd19a",
      "effectiveGasPrice": "0xf6a4d",
      "from": "0x000ef5f21dc574226a06c76aae7060642a30eb74",
      "to": "0xba397efef3914ab025f7f5706fade61f240a9ebc",
      "contractAddress": null,
      "l1BaseFeeScalar": "0x1db0",
      "l1BlobBaseFee": "0x1",
      "l1BlobBaseFeeScalar": "0xd2730",
      "l1Fee": "0x856b7f",
      "l1GasPrice": "0xaf8d0",
      "l1GasUsed": "0x640"
    }
  ],
  "libraries": [],
  "pending": [],
  "returns": {},
  "timestamp": 1731800271,
  "chain": 11155420,
  "commit": "f193f39"
}