{
  "transactions": [
    {
      "hash": "0x23dee05030eda26d15a9beb39d9e85e93e91c7e7d505f2a573470e00a1f867b3",
      "transactionType": "CREATE",
      "contractName": "OmniSwapSpoke",
      "contractAddress": "0xaf6d8b4577b61a3f389f96d9932156ea9632ccc8",
      "function": null,
      "arguments": [
        "0x6EDCE65403992e310A62460808c4b910D972f10f"
      ],
      "transaction": {
        "from": "0x000ef5f21dc574226a06c76aae7060642a30eb74",
        "gas": "0x1147e5",
        "value": "0x0",
        "input": "0x60803460cd57601f610ec738819003918201601f19168301916001600160401b0383118484101760d15780849260209460405283398101031260cd57516001600160a01b0381169081900360cd57331560ba575f8054336001600160a01b0319821681178355604051939290916001600160a01b0316907f8be0079c531659141344cd1fd0a4f28419497f9722a3daafe3b4186f6b6457e09080a3600380546001600160a01b031916919091179055610de190816100e68239f35b631e4fbdf760e01b5f525f60045260245ffd5b5f80fd5b634e487b7160e01b5f52604160045260245ffdfe60806040526004361015610011575f80fd5b5f3560e01c8063542524dd146100c45780636c1a032c146100bf578063715018a6146100ba5780637f5a7c7b146100b55780638b02705d146100b05780638da5cb5b146100ab578063b353aaa7146100a6578063c31c9c07146100a1578063c7b8e15d1461009c578063d0a10260146100975763f2fde38b14610092575f80fd5b6106e9565b610305565b6102b7565b61028f565b610267565b610240565b61020f565b6101e7565b610190565b610148565b6100dd565b634e487b7160e01b5f52601160045260245ffd5b3461010b575f36600319011261010b57602060405173fffd8963efd1fc6a506488495d951d5263988d258152f35b5f80fd5b6001600160a01b0381160361010b57565b604090600319011261010b576004356101388161010f565b906024356101458161010f565b90565b3461010b5761015636610120565b9061015f610aee565b600180546001600160a01b039283166001600160a01b03199182161790915560028054939092169216919091179055005b3461010b575f36600319011261010b576101a8610aee565b5f80546001600160a01b0319811682556001600160a01b03167f8be0079c531659141344cd1fd0a4f28419497f9722a3daafe3b4186f6b6457e08280a3005b3461010b575f36600319011261010b576002546040516001600160a01b039091168152602090f35b3461010b57604061022861022236610120565b90610772565b82516001600160a01b03928316815291166020820152f35b3461010b575f36600319011261010b575f546040516001600160a01b039091168152602090f35b3461010b575f36600319011261010b576003546040516001600160a01b039091168152602090f35b3461010b575f36600319011261010b576001546040516001600160a01b039091168152602090f35b3461010b575f36600319011261010b5760206401000276a4604051908152f35b9181601f8401121561010b5782359167ffffffffffffffff831161010b576020838186019501011161010b57565b60a036600319011261010b5760043561031d8161010f565b60443567ffffffffffffffff811161010b5761033d9036906004016102d7565b909161034a60643561010f565b6084359167ffffffffffffffff831161010b5761036e6104289336906004016102d7565b505060035461039890610391906001600160a01b03165b6001600160a01b031690565b331461078c565b6103a28185610b14565b6103be6103af8387610b23565b602080825183010191016107d8565b6001600160a01b0390811696911694906103d88786610772565b6001546001600160a01b0397881697919492916020916103f89116610385565b60405163095ea7b360e01b81526001600160a01b0390911660048201525f19602482015292839081906044820190565b03815f8b5af191821561066f57610457926106cc575b506001546020906103f8906001600160a01b0316610385565b03815f8d5af1801561066f57610543946020936104cd926106a1575b506002546104ae906001600160a01b03169161049f61049061085b565b6001600160a01b039096168652565b6001600160a01b031684860152565b610bb86040840152607860608401526001600160a01b03166080830152565b6001546104e2906001600160a01b0316610385565b6401000276a46105136104f361086c565b6001815291655af3107a4000838701526001600160a01b03166040830152565b5f61051c61087b565b81815285810182905260405163088a742d60e21b81529788958694859391600485016108a8565b03925af1801561066f57869460c09361057a92610674575b5061057461056f61056a610b6d565b610b89565b610c89565b92610d3b565b9061059261058661088a565b63ffffffff9093168352565b8460208301525f60408301525f606083015260808201526105b161095d565b60a08201526105be61095d565b828201526105ca61087b565b3481525f602082015260405163c7c7f5b360e01b815294859283926105f3929160048501610a3f565b038134895af190811561066f577fd6fad783f6ce60919b6ee64c639cbdcedc0dd52b96be62e1df509272cdd4e4a29261063c92610641575b506040519081529081906020820190565b0390a4005b6106629060c03d60c011610668575b61065a8183610811565b8101906109aa565b5061062b565b503d610650565b610850565b6106959060203d60201161069a575b61068d8183610811565b810190610899565b61055b565b503d610683565b6106c090853d87116106c5575b6106b88183610811565b810190610838565b610473565b503d6106ae565b6106e49060203d6020116106c5576106b88183610811565b61043e565b3461010b57602036600319011261010b576004356107068161010f565b61070e610aee565b6001600160a01b0316801561075f575f80546001600160a01b03198116831782556001600160a01b0316907f8be0079c531659141344cd1fd0a4f28419497f9722a3daafe3b4186f6b6457e09080a3005b631e4fbdf760e01b5f525f60045260245ffd5b6001600160a01b0391821692911682811115610145579190565b1561079357565b60405162461bcd60e51b815260206004820152601c60248201527f4f6e6c79204c5a20656e64706f696e742063616e20636f6d706f7365000000006044820152606490fd5b919082604091031261010b57602082516107f18161010f565b9201516101458161010f565b634e487b7160e01b5f52604160045260245ffd5b90601f8019910116810190811067ffffffffffffffff82111761083357604052565b6107fd565b9081602091031261010b5751801515810361010b5790565b6040513d5f823e3d90fd5b6040519061086a60a083610811565b565b6040519061086a606083610811565b6040519061086a604083610811565b6040519061086a60e083610811565b9081602091031261010b575190565b81516001600160a01b03908116825260208084015182168184015260408085015162ffffff168185015260608086015160020b908501526080948501518316948401949094528451151560a084015284015160c083015291909201511660e082015261014591610160919061092f9080511515610100840152602001511515610120830152565b81610140820152016020905f81520190565b67ffffffffffffffff811161083357601f01601f191660200190565b6040519061096c602083610811565b5f8252565b919082604091031261010b576040516040810181811067ffffffffffffffff821117610833576040526020808294805184520151910152565b919082810360c0811261010b5760801361010b57604051906060820182811067ffffffffffffffff8211176108335760405283518252602084015167ffffffffffffffff8116810361010b57826080916020610145950152610a0f8360408801610971565b60408201529401610971565b805180835260209291819084018484015e5f828201840152601f01601f1916010190565b606090610ade610ac961086a959796946080845263ffffffff8151166080850152602081015160a0850152604081015160c08501528481015160e085015260c0610ab4610a9d608084015160e0610100890152610160880190610a1b565b60a0840151878203607f1901610120890152610a1b565b910151848203607f1901610140860152610a1b565b96602083019060208091805184520151910152565b6001600160a01b03909216910152565b5f546001600160a01b03163303610b0157565b63118cdaa760e01b5f523360045260245ffd5b90602c1161010b57600c013590565b9080604c1161010b57604c8201604b19820191610b3f83610941565b93610b4d6040519586610811565b838552369082011161010b575f9260209283860137830101604b19015290565b604051600360f01b602082015260028152610145602282610811565b600361ffff610b9783610d4d565b1603610c7d57604051610c3560861b602082015260108152610bba603082610811565b600361ffff610bc884610d4d565b1603610c5e57805161ffff8111610c475761ffff60019116019161ffff8311610c4257610c34610145926004610c08956040519687956020870190610d99565b600160f81b80825260f09290921b6001600160f01b031916600182015260038101919091520190610d99565b03601f198101835282610811565b6100c9565b6306dfcc6560e41b5f52601060045260245260445ffd5b61ffff610c6a83610d4d565b633a51740d60e01b5f521660045260245ffd5b610c6a61ffff91610d4d565b600361ffff610c9783610d4d565b1603610c7d576040515f6020820152613d0960851b602282015260128152610cc0603282610811565b600361ffff610cce84610d4d565b1603610c5e57805161ffff8111610c475761ffff60019116019161ffff8311610c4257610c34610145926004610d0e956040519687956020870190610d99565b600160f81b815260f09190911b6001600160f01b0319166001820152600360f81b60038201520190610d99565b90600c1161010b576008013560e01c90565b6002815110610d5d576002015190565b60405162461bcd60e51b8152602060048201526014602482015273746f55696e7431365f6f75744f66426f756e647360601b6044820152606490fd5b805191908290602001825e015f81529056fea264697066735822122094eb26842848ee78192d69f6e325f002f358519c85c9f03ab47c1e17230cbdbd64736f6c634300081a00330000000000000000000000006edce65403992e310a62460808c4b910d972f10f",
        "nonce": "0x6c",
        "chainId": "0xaa37dc"
      },
      "additionalContracts": [],
      "isFixedGasLimit": false
    },
    {
      "hash": "0x6bc9819c8086d1dfe6dc48fb41300d2f6ef21a384e21a14a3f2b8affbaaf7176",
      "transactionType": "CALL",
      "contractName": "OmniSwapSpoke",
      "contractAddress": "0xaf6d8b4577b61a3f389f96d9932156ea9632ccc8",
      "function": "configurePool(address,address)",
      "arguments": [
        "0x69801C169647Ad125707Dd40096D4EDC20Bb521a",
        "0xBbd735DB53cE42a7423B0861864dAD6253588040"
      ],
      "transaction": {
        "from": "0x000ef5f21dc574226a06c76aae7060642a30eb74",
        "to": "0xaf6d8b4577b61a3f389f96d9932156ea9632ccc8",
        "gas": "0x1721f",
        "value": "0x0",
        "input": "0x6c1a032c00000000000000000000000069801c169647ad125707dd40096d4edc20bb521a000000000000000000000000bbd735db53ce42a7423b0861864dad6253588040",
        "nonce": "0x6d",
        "chainId": "0xaa37dc"
      },
      "additionalContracts": [],
      "isFixedGasLimit": false
    },
    {
      "hash": "0x17a16cdd1291ae21fff13d081cf884a43b061f433cb23fceb26359fa5d608c92",
      "transactionType": "CALL",
      "contractName": null,
      "contractAddress": "0xba397efef3914ab025f7f5706fade61f240a9ebc",
      "function": "mint(address,uint256)",
      "arguments": [
        "0xAF6D8B4577b61A3F389f96D9932156Ea9632CcC8",
        "10000000000000000000000000000000"
      ],
      "transaction": {
        "from": "0x000ef5f21dc574226a06c76aae7060642a30eb74",
        "to": "0xba397efef3914ab025f7f5706fade61f240a9ebc",
        "gas": "0x1328a",
        "value": "0x0",
        "input": "0x40c10f19000000000000000000000000af6d8b4577b61a3f389f96d9932156ea9632ccc8000000000000000000000000000000000000007e37be2022c0914b2680000000",
        "nonce": "0x6e",
        "chainId": "0xaa37dc"
      },
      "additionalContracts": [],
      "isFixedGasLimit": false
    }
  ],
  "receipts": [
    {
      "status": "0x1",
      "cumulativeGasUsed": "0x1c7029",
      "logs": [
        {
          "address": "0xaf6d8b4577b61a3f389f96d9932156ea9632ccc8",
          "topics": [
            "0x8be0079c531659141344cd1fd0a4f28419497f9722a3daafe3b4186f6b6457e0",
            "0x0000000000000000000000000000000000000000000000000000000000000000",
            "0x000000000000000000000000000ef5f21dc574226a06c76aae7060642a30eb74"
          ],
          "data": "0x",
          "blockHash": "0x0e2f038c7a130bd8852595c7f6627dcdca7b5b8867ce7d3099b8a9d919f1f222",
          "blockNumber": "0x1311e17",
          "transactionHash": "0x23dee05030eda26d15a9beb39d9e85e93e91c7e7d505f2a573470e00a1f867b3",
          "transactionIndex": "0x3",
          "logIndex": "0xa",
          "removed": false
        }
      ],
      "logsBloom": "0x000000000000001000000000000000000000000000000000008000000000000000000000000200000000000000000000000000000000000000000000000000000000000000000000000000000000000000010000000000000000000000000000000000000200000000000004000008000000000000000000000000000000004000000000000000004000000000000000000000000000000000000000000000000000000000000000000000000000000000000000000000000000000000000000000000000000000000000000000000000000000000000000000000000400a0000000000000000000000000000000000000000000000000000000000000000000",
      "type": "0x2",
      "transactionHash": "0x23dee05030eda26d15a9beb39d9e85e93e91c7e7d505f2a573470e00a1f867b3",
      "transactionIndex": "0x3",
      "blockHash": "0x0e2f038c7a130bd8852595c7f6627dcdca7b5b8867ce7d3099b8a9d919f1f222",
      "blockNumber": "0x1311e17",
      "gasUsed": "0xd4aff",
      "effectiveGasPrice": "0xf6a50",
      "from": "0x000ef5f21dc574226a06c76aae7060642a30eb74",
      "to": null,
      "contractAddress": "0xaf6d8b4577b61a3f389f96d9932156ea9632ccc8",
      "l1BaseFeeScalar": "0x1db0",
      "l1BlobBaseFee": "0x1",
      "l1BlobBaseFeeScalar": "0xd2730",
      "l1Fee": "0x4169b4cc",
      "l1GasPrice": "0x3a6074",
      "l1GasUsed": "0x9370"
    },
    {
      "status": "0x1",
      "cumulativeGasUsed": "0x30fe0",
      "logs": [],
      "logsBloom": "0x00000000000000000000000000000000000000000000000000000000000000000000000000000000000000000000000000000000000000000000000000000000000000000000000000000000000000000000000000000000000000000000000000000000000000000000000000000000000000000000000000000000000000000000000000000000000000000000000000000000000000000000000000000000000000000000000000000000000000000000000000000000000000000000000000000000000000000000000000000000000000000000000000000000000000000000000000000000000000000000000000000000000000000000000000000000",
      "type": "0x2",
      "transactionHash": "0x6bc9819c8086d1dfe6dc48fb41300d2f6ef21a384e21a14a3f2b8affbaaf7176",
      "transactionIndex": "0x2",
      "blockHash": "0x2220851a6fc76b0e9029379a4ee2d5a1e40bf9a6b6194d3f24ea98fb34cd4351",
      "blockNumber": "0x1311e18",
      "gasUsed": "0x10bf7",
      "effectiveGasPrice": "0xf6a50",
      "from": "0x000ef5f21dc574226a06c76aae7060642a30eb74",
      "to": "0xaf6d8b4577b61a3f389f96d9932156ea9632ccc8",
      "contractAddress": null,
      "l1BaseFeeScalar": "0x1db0",
      "l1BlobBaseFee": "0x1",
      "l1BlobBaseFeeScalar": "0xd2730",
      "l1Fee": "0x2c5dce3",
      "l1GasPrice": "0x3a6074",
      "l1GasUsed": "0x640"
    },
    {
      "status": "0x1",
      "cumulativeGasUsed": "0x3e17a",
      "logs": [
        {
          "address": "0xba397efef3914ab025f7f5706fade61f240a9ebc",
          "topics": [
            "0xddf252ad1be2c89b69c2b068fc378daa952ba7f163c4a11628f55a4df523b3ef",
            "0x0000000000000000000000000000000000000000000000000000000000000000",
            "0x000000000000000000000000af6d8b4577b61a3f389f96d9932156ea9632ccc8"
          ],
          "data": "0x000000000000000000000000000000000000007e37be2022c0914b2680000000",
          "blockHash": "0x2220851a6fc76b0e9029379a4ee2d5a1e40bf9a6b6194d3f24ea98fb34cd4351",
          "blockNumber": "0x1311e18",
          "transactionHash": "0x17a16cdd1291ae21fff13d081cf884a43b061f433cb23fceb26359fa5d608c92",
          "transactionIndex": "0x3",
          "logIndex": "0x2",
          "removed": false
        }
      ],
      "logsBloom": "0x00000000000000000000000000000000000000000000000000000000000000000000000000010000000000000000000000020000000000000000001020000000400000000000000000000008004000000000000000000000000000000000000000000000020000000000000000000800000000000000000000000010000000000000000000000000000000000000000000000000000000000000000000000000000000000000000000000000000000000000000000000000000000000000000000000002000000000000000000000000000000000000000000000000000020000000000000000000000000000000000000000000000000000000000000000000",
      "type": "0x2",
      "transactionHash": "0x17a16cdd1291ae21fff13d081cf884a43b061f433cb23fceb26359fa5d608c92",
      "transactionIndex": "0x3",
      "blockHash": "0x2220851a6fc76b0e9029379a4ee2d5a1e40bf9a6b6194d3f24ea98fb34cd4351",
      "blockNumber": "0x1311e18",
      "gasUsed": "0xd19a",
      "effectiveGasPrice": "0xf6a50",
      "from": "0x000ef5f21dc574226a06c76aae7060642a30eb74",
      "to": "0xba397efef3914ab025f7f5706fade61f240a9ebc",
      "contractAddress": null,
      "l1BaseFeeScalar": "0x1db0",
      "l1BlobBaseFee": "0x1",
      "l1BlobBaseFeeScalar": "0xd2730",
      "l1Fee": "0x2c5dce3",
      "l1GasPrice": "0x3a6074",
      "l1GasUsed": "0x640"
    }
  ],
  "libraries": [],
  "pending": [],
  "returns": {},
  "timestamp": 1731794909,
  "chain": 11155420,
  "commit": "f193f39"
}