{
  "transactions": [
    {
      "hash": "0x901a723518c312f3e88e40abcb581a28c0a0a47a237b7e3b33d016fbdebcbf96",
      "transactionType": "CREATE",
      "contractName": "OmniSwapSpoke",
      "contractAddress": "0x3ce22d98795c84973f152afdb12578606254cc31",
      "function": null,
      "arguments": [
        "0x6EDCE65403992e310A62460808c4b910D972f10f"
      ],
      "transaction": {
        "from": "0x000ef5f21dc574226a06c76aae7060642a30eb74",
        "gas": "0x10e809",
        "value": "0x0",
        "input": "0x60803460cd57601f610e7238819003918201601f19168301916001600160401b0383118484101760d15780849260209460405283398101031260cd57516001600160a01b0381169081900360cd57331560ba575f8054336001600160a01b0319821681178355604051939290916001600160a01b0316907f8be0079c531659141344cd1fd0a4f28419497f9722a3daafe3b4186f6b6457e09080a3600380546001600160a01b031916919091179055610d8c90816100e68239f35b631e4fbdf760e01b5f525f60045260245ffd5b5f80fd5b634e487b7160e01b5f52604160045260245ffdfe60806040526004361015610011575f80fd5b5f3560e01c8063542524dd146100b45780636c1a032c146100af578063715018a6146100aa5780637f5a7c7b146100a55780638da5cb5b146100a0578063b353aaa71461009b578063c31c9c0714610096578063c7b8e15d14610091578063d0a102601461008c5763f2fde38b14610087575f80fd5b6106cb565b6102b2565b610264565b61023c565b610214565b6101ed565b6101c5565b61016e565b61010b565b346100e2575f3660031901126100e257602060405173fffd8963efd1fc6a506488495d951d5263988d258152f35b5f80fd5b634e487b7160e01b5f52601160045260245ffd5b6001600160a01b038116036100e257565b346100e25760403660031901126100e257600435610128816100fa565b60243590610135826100fa565b61013d610a99565b600180546001600160a01b039283166001600160a01b03199182161790915560028054939092169216919091179055005b346100e2575f3660031901126100e257610186610a99565b5f80546001600160a01b0319811682556001600160a01b03167f8be0079c531659141344cd1fd0a4f28419497f9722a3daafe3b4186f6b6457e08280a3005b346100e2575f3660031901126100e2576002546040516001600160a01b039091168152602090f35b346100e2575f3660031901126100e2575f546040516001600160a01b039091168152602090f35b346100e2575f3660031901126100e2576003546040516001600160a01b039091168152602090f35b346100e2575f3660031901126100e2576001546040516001600160a01b039091168152602090f35b346100e2575f3660031901126100e25760206401000276a4604051908152f35b9181601f840112156100e25782359167ffffffffffffffff83116100e257602083818601950101116100e257565b60a03660031901126100e2576004356102ca816100fa565b60443567ffffffffffffffff81116100e2576102ea903690600401610284565b6102f86064939293356100fa565b60843567ffffffffffffffff81116100e257610318903690600401610284565b5050600354610331906001600160a01b03163314610754565b61033b8184610abf565b906103586103498286610ace565b602080825183010191016107a0565b60405163095ea7b360e01b815273536527976e98e253b424a3655e695d144e34334160048201525f1960248201526001600160a01b0391821696929091169491906020816044815f7315906379703940bc51a5881ad1a5fc481ebc8bb15af1801561064f576106ae575b5060405163095ea7b360e01b815273536527976e98e253b424a3655e695d144e34334160048201525f1960248201526020816044815f73ba397efef3914ab025f7f5706fade61f240a9ebc5af1801561064f57610681575b506002546001600160a01b031692610484610433610826565b7315906379703940bc51a5881ad1a5fc481ebc8bb181529473ba397efef3914ab025f7f5706fade61f240a9ebc6020870152610bb86040870152607860608701526001600160a01b03166080860152565b60206401000276a46104b2610497610837565b60018152918284018990526001600160a01b03166040830152565b6040516001600160a01b0389168382019081528190038082529096906104db90602001886107dc565b6104f96040519788938493633cf3645360e21b855260048501610897565b03815f73536527976e98e253b424a3655e695d144e3433415af191821561064f57869460c093610654575b506105516105328760011c90565b9261054b610546610541610b18565b610b34565b610c34565b92610ce6565b9161056961055d610846565b63ffffffff9094168452565b8560208401528060408401526060830152608082015261058761092c565b60a082015261059461092c565b828201526105a0610855565b3481525f602082015260405163c7c7f5b360e01b815294859283926105c99291600485016109ea565b038134895af190811561064f577fd6fad783f6ce60919b6ee64c639cbdcedc0dd52b96be62e1df509272cdd4e4a29261061c92610621575b506040519384526001600160a01b0316929081906020820190565b0390a4005b6106429060c03d60c011610648575b61063a81836107dc565b810190610979565b50610601565b503d610630565b61081b565b6106759060203d60201161067a575b61066d81836107dc565b810190610864565b610524565b503d610663565b6106a29060203d6020116106a7575b61069a81836107dc565b810190610803565b61041a565b503d610690565b6106c69060203d6020116106a75761069a81836107dc565b6103c2565b346100e25760203660031901126100e2576004356106e8816100fa565b6106f0610a99565b6001600160a01b03168015610741575f80546001600160a01b03198116831782556001600160a01b0316907f8be0079c531659141344cd1fd0a4f28419497f9722a3daafe3b4186f6b6457e09080a3005b631e4fbdf760e01b5f525f60045260245ffd5b1561075b57565b60405162461bcd60e51b815260206004820152601c60248201527f4f6e6c79204c5a20656e64706f696e742063616e20636f6d706f7365000000006044820152606490fd5b91908260409103126100e257602082516107b9816100fa565b9201516107c5816100fa565b90565b634e487b7160e01b5f52604160045260245ffd5b90601f8019910116810190811067ffffffffffffffff8211176107fe57604052565b6107c8565b908160209103126100e2575180151581036100e25790565b6040513d5f823e3d90fd5b6040519061083560a0836107dc565b565b604051906108356060836107dc565b6040519061083560e0836107dc565b604051906108356040836107dc565b908160209103126100e2575190565b805180835260209291819084018484015e5f828201840152601f01601f1916010190565b81516001600160a01b03908116825260208084015182168184015260408085015162ffffff168185015260608086015160020b908501526080948501518316948401949094528451151560a084015284015160c083015291909201511660e08201526107c5919061012090816101008201520190610873565b67ffffffffffffffff81116107fe57601f01601f191660200190565b6040519061093b6020836107dc565b5f8252565b91908260409103126100e2576040516040810181811067ffffffffffffffff8211176107fe576040526020808294805184520151910152565b919082810360c081126100e2576080136100e257604051906060820182811067ffffffffffffffff8211176107fe5760405283518252602084015167ffffffffffffffff811681036100e2578260809160206107c59501526109de8360408801610940565b60408201529401610940565b606090610a89610a74610835959796946080845263ffffffff8151166080850152602081015160a0850152604081015160c08501528481015160e085015260c0610a5f610a48608084015160e0610100890152610160880190610873565b60a0840151878203607f1901610120890152610873565b910151848203607f1901610140860152610873565b96602083019060208091805184520151910152565b6001600160a01b03909216910152565b5f546001600160a01b03163303610aac57565b63118cdaa760e01b5f523360045260245ffd5b90602c116100e257600c013590565b9080604c116100e257604c8201604b19820191610aea83610910565b93610af860405195866107dc565b83855236908201116100e2575f9260209283860137830101604b19015290565b604051600360f01b6020820152600281526107c56022826107dc565b600361ffff610b4283610cf8565b1603610c2857604051610c3560861b602082015260108152610b656030826107dc565b600361ffff610b7384610cf8565b1603610c0957805161ffff8111610bf25761ffff60019116019161ffff8311610bed57610bdf6107c5926004610bb3956040519687956020870190610d44565b600160f81b80825260f09290921b6001600160f01b031916600182015260038101919091520190610d44565b03601f1981018352826107dc565b6100e6565b6306dfcc6560e41b5f52601060045260245260445ffd5b61ffff610c1583610cf8565b633a51740d60e01b5f521660045260245ffd5b610c1561ffff91610cf8565b600361ffff610c4283610cf8565b1603610c28576040515f6020820152613d0960851b602282015260128152610c6b6032826107dc565b600361ffff610c7984610cf8565b1603610c0957805161ffff8111610bf25761ffff60019116019161ffff8311610bed57610bdf6107c5926004610cb9956040519687956020870190610d44565b600160f81b815260f09190911b6001600160f01b0319166001820152600360f81b60038201520190610d44565b90600c116100e2576008013560e01c90565b6002815110610d08576002015190565b60405162461bcd60e51b8152602060048201526014602482015273746f55696e7431365f6f75744f66426f756e647360601b6044820152606490fd5b805191908290602001825e015f81529056fea2646970667358221220e5abe0dae20e4964d599cd3c171afc872ff61b29b7b4dd94981023f2079aea9264736f6c634300081a00330000000000000000000000006edce65403992e310a62460808c4b910d972f10f",
        "nonce": "0x84",
        "chainId": "0xaa37dc"
      },
      "additionalContracts": [],
      "isFixedGasLimit": false
    },
    {
      "hash": "0x0e93f573344233f79bb9eb2297445ecc60f30586c4f09a151aa6d66bd45b4931",
      "transactionType": "CALL",
      "contractName": "OmniSwapSpoke",
      "contractAddress": "0x3ce22d98795c84973f152afdb12578606254cc31",
      "function": "configurePool(address,address)",
      "arguments": [
        "0x69801C169647Ad125707Dd40096D4EDC20Bb521a",
        "0xBbd735DB53cE42a7423B0861864dAD6253588040"
      ],
      "transaction": {
        "from": "0x000ef5f21dc574226a06c76aae7060642a30eb74",
        "to": "0x3ce22d98795c84973f152afdb12578606254cc31",
        "gas": "0x171f2",
        "value": "0x0",
        "input": "0x6c1a032c00000000000000000000000069801c169647ad125707dd40096d4edc20bb521a000000000000000000000000bbd735db53ce42a7423b0861864dad6253588040",
        "nonce": "0x85",
        "chainId": "0xaa37dc"
      },
      "additionalContracts": [],
      "isFixedGasLimit": false
    },
    {
      "hash": "0x87d5abbd6c864c1866acfb64c28c12f43b943710324120d9082ba83eb89a77ec",
      "transactionType": "CALL",
      "contractName": null,
      "contractAddress": "0xba397efef3914ab025f7f5706fade61f240a9ebc",
      "function": "mint(address,uint256)",
      "arguments": [
        "0x3cE22D98795c84973f152afdB12578606254cC31",
        "10000000000000000000000000000000"
      ],
      "transaction": {
        "from": "0x000ef5f21dc574226a06c76aae7060642a30eb74",
        "to": "0xba397efef3914ab025f7f5706fade61f240a9ebc",
        "gas": "0x1328a",
        "value": "0x0",
        "input": "0x40c10f190000000000000000000000003ce22d98795c84973f152afdb12578606254cc31000000000000000000000000000000000000007e37be2022c0914b2680000000",
        "nonce": "0x86",
        "chainId": "0xaa37dc"
      },
      "additionalContracts": [],
      "isFixedGasLimit": false
    }
  ],
  "receipts": [
    {
      "status": "0x1",
      "cumulativeGasUsed": "0x29d773",
      "logs": [
        {
          "address": "0x3ce22d98795c84973f152afdb12578606254cc31",
          "topics": [
            "0x8be0079c531659141344cd1fd0a4f28419497f9722a3daafe3b4186f6b6457e0",
            "0x0000000000000000000000000000000000000000000000000000000000000000",
            "0x000000000000000000000000000ef5f21dc574226a06c76aae7060642a30eb74"
          ],
          "data": "0x",
          "blockHash": "0xb72f89213ccc8604341fc1ce05cc1ae3bf6eeb31ef3450ce81bfea3ec08b4a2e",
          "blockNumber": "0x1312540",
          "transactionHash": "0x901a723518c312f3e88e40abcb581a28c0a0a47a237b7e3b33d016fbdebcbf96",
          "transactionIndex": "0x2",
          "logIndex": "0xf",
          "removed": false
        }
      ],
      "logsBloom": "0x00000000000000000000000000000000040000000000000000800000000000000000000000020000000000000000000000000000000000000000000000000000000000000000000000000000000000000001000000000000000000000000000000000000020000000000000400000800000000000000000000000000000000400000000000000000000000000000000000000000000000000000000000000000000000000000000000000000000000000000000000000000000000000000000000000000000000000000000000000000000000000000000000000000040020000000000000000000000000000000000000100000000000800000000000000000",
      "type": "0x2",
      "transactionHash": "0x901a723518c312f3e88e40abcb581a28c0a0a47a237b7e3b33d016fbdebcbf96",
      "transactionIndex": "0x2",
      "blockHash": "0xb72f89213ccc8604341fc1ce05cc1ae3bf6eeb31ef3450ce81bfea3ec08b4a2e",
      "blockNumber": "0x1312540",
      "gasUsed": "0xd0142",
      "effectiveGasPrice": "0xf6a4d",
      "from": "0x000ef5f21dc574226a06c76aae7060642a30eb74",
      "to": null,
      "contractAddress": "0x3ce22d98795c84973f152afdb12578606254cc31",
      "l1BaseFeeScalar": "0x1db0",
      "l1BlobBaseFee": "0x1",
      "l1BlobBaseFeeScalar": "0xd2730",
      "l1Fee": "0xc312e9c",
      "l1GasPrice": "0xb6fa8",
      "l1GasUsed": "0x8c46"
    },
    {
      "status": "0x1",
      "cumulativeGasUsed": "0x2ae349",
      "logs": [],
      "logsBloom": "0x00000000000000000000000000000000000000000000000000000000000000000000000000000000000000000000000000000000000000000000000000000000000000000000000000000000000000000000000000000000000000000000000000000000000000000000000000000000000000000000000000000000000000000000000000000000000000000000000000000000000000000000000000000000000000000000000000000000000000000000000000000000000000000000000000000000000000000000000000000000000000000000000000000000000000000000000000000000000000000000000000000000000000000000000000000000",
      "type": "0x2",
      "transactionHash": "0x0e93f573344233f79bb9eb2297445ecc60f30586c4f09a151aa6d66bd45b4931",
      "transactionIndex": "0x3",
      "blockHash": "0xb72f89213ccc8604341fc1ce05cc1ae3bf6eeb31ef3450ce81bfea3ec08b4a2e",
      "blockNumber": "0x1312540",
      "gasUsed": "0x10bd6",
      "effectiveGasPrice": "0xf6a4d",
      "from": "0x000ef5f21dc574226a06c76aae7060642a30eb74",
      "to": "0x3ce22d98795c84973f152afdb12578606254cc31",
      "contractAddress": null,
      "l1BaseFeeScalar": "0x1db0",
      "l1BlobBaseFee": "0x1",
      "l1BlobBaseFeeScalar": "0xd2730",
      "l1Fee": "0x8bb2f0",
      "l1GasPrice": "0xb6fa8",
      "l1GasUsed": "0x647"
    },
    {
      "status": "0x1",
      "cumulativeGasUsed": "0x2bb4e3",
      "logs": [
        {
          "address": "0xba397efef3914ab025f7f5706fade61f240a9ebc",
          "topics": [
            "0xddf252ad1be2c89b69c2b068fc378daa952ba7f163c4a11628f55a4df523b3ef",
            "0x0000000000000000000000000000000000000000000000000000000000000000",
            "0x0000000000000000000000003ce22d98795c84973f152afdb12578606254cc31"
          ],
          "data": "0x000000000000000000000000000000000000007e37be2022c0914b2680000000",
          "blockHash": "0xb72f89213ccc8604341fc1ce05cc1ae3bf6eeb31ef3450ce81bfea3ec08b4a2e",
          "blockNumber": "0x1312540",
          "transactionHash": "0x87d5abbd6c864c1866acfb64c28c12f43b943710324120d9082ba83eb89a77ec",
          "transactionIndex": "0x4",
          "logIndex": "0x10",
          "removed": false
        }
      ],
      "logsBloom": "0x00000000002000000000000000000000000000000000000000000000000000000000000000010000000000000000000000100000000000200000000020000000000000000000000000000008004000000000000000000000000000000000000000000000020000000000000000000800000000000000000000000010000000000000000000000000000000000000000000000000000000000000000000000000000000000000000000000000000000000000000000000000000000000000000000000002000000000000000000000000000000000000000000000000000020000000000000000000000000000000000000000000000000000000000000000000",
      "type": "0x2",
      "transactionHash": "0x87d5abbd6c864c1866acfb64c28c12f43b943710324120d9082ba83eb89a77ec",
      "transactionIndex": "0x4",
      "blockHash": "0xb72f89213ccc8604341fc1ce05cc1ae3bf6eeb31ef3450ce81bfea3ec08b4a2e",
      "blockNumber": "0x1312540",
      "gasUsed": "0xd19a",
      "effectiveGasPrice": "0xf6a4d",
      "from": "0x000ef5f21dc574226a06c76aae7060642a30eb74",
      "to": "0xba397efef3914ab025f7f5706fade61f240a9ebc",
      "contractAddress": null,
      "l1BaseFeeScalar": "0x1db0",
      "l1BlobBaseFee": "0x1",
      "l1BlobBaseFeeScalar": "0xd2730",
      "l1Fee": "0x8b10a3",
      "l1GasPrice": "0xb6fa8",
      "l1GasUsed": "0x640"
    }
  ],
  "libraries": [],
  "pending": [],
  "returns": {},
  "timestamp": 1731798574,
  "chain": 11155420,
  "commit": "f193f39"
}