{
  "transactions": [
    {
      "hash": "0x6cec394a102a77915a3d2f9f6b12a53400834fc4889dc6cbaf36c08dc6712987",
      "transactionType": "CREATE",
      "contractName": "OmniSwapSpoke",
      "contractAddress": "0x13e6c57dfb85ec68b1f9aec427a272e2e2ee2836",
      "function": null,
      "arguments": [
        "0x6EDCE65403992e310A62460808c4b910D972f10f"
      ],
      "transaction": {
        "from": "0x000ef5f21dc574226a06c76aae7060642a30eb74",
        "gas": "0xd3189",
        "value": "0x0",
        "input": "0x60803460cd57601f610b1038819003918201601f19168301916001600160401b0383118484101760d15780849260209460405283398101031260cd57516001600160a01b0381169081900360cd57331560ba575f8054336001600160a01b0319821681178355604051939290916001600160a01b0316907f8be0079c531659141344cd1fd0a4f28419497f9722a3daafe3b4186f6b6457e09080a3600380546001600160a01b031916919091179055610a2a90816100e68239f35b631e4fbdf760e01b5f525f60045260245ffd5b5f80fd5b634e487b7160e01b5f52604160045260245ffdfe60806040526004361015610011575f80fd5b5f3560e01c80636c1a032c14610094578063715018a61461008f5780637f5a7c7b1461008a5780638da5cb5b14610085578063b353aaa714610080578063c31c9c071461007b578063d0a10260146100765763f2fde38b14610071575f80fd5b610413565b610230565b6101da565b6101b2565b61018b565b610163565b61010c565b346100f75760403660031901126100f7576004356100b1816100fb565b602435906100be826100fb565b6100c6610737565b600180546001600160a01b039283166001600160a01b03199182161790915560028054939092169216919091179055005b5f80fd5b6001600160a01b038116036100f757565b346100f7575f3660031901126100f757610124610737565b5f80546001600160a01b0319811682556001600160a01b03167f8be0079c531659141344cd1fd0a4f28419497f9722a3daafe3b4186f6b6457e08280a3005b346100f7575f3660031901126100f7576002546040516001600160a01b039091168152602090f35b346100f7575f3660031901126100f7575f546040516001600160a01b039091168152602090f35b346100f7575f3660031901126100f7576003546040516001600160a01b039091168152602090f35b346100f7575f3660031901126100f7576001546040516001600160a01b039091168152602090f35b9181601f840112156100f75782359167ffffffffffffffff83116100f757602083818601950101116100f757565b60a03660031901126100f757600435610248816100fb565b60443567ffffffffffffffff81116100f757610268903690600401610202565b90916102756064356100fb565b60843567ffffffffffffffff81116100f757610295903690600401610202565b50506003546102ae906001600160a01b0316331461049c565b60c06102ba838561075d565b916102d76102c8858761076c565b602080825183010191016104e8565b6001600160a01b0390811696911694859391610310600187901c9261030a6103056103006107b6565b6107d2565b6108d2565b92610984565b9161032861031c61055f565b63ffffffff9094168452565b8560208401528060408401526060830152608082015261034661059b565b60a082015261035361059b565b8282015261035f610570565b3481525f602082015260405163c7c7f5b360e01b8152948592839261038892916004850161067d565b038134895af190811561040e577fd6fad783f6ce60919b6ee64c639cbdcedc0dd52b96be62e1df509272cdd4e4a2926103db926103e0575b506040519384526001600160a01b0316929081906020820190565b0390a4005b6104019060c03d60c011610407575b6103f98183610538565b8101906105e8565b506103c0565b503d6103ef565b61072c565b346100f75760203660031901126100f757600435610430816100fb565b610438610737565b6001600160a01b03168015610489575f80546001600160a01b03198116831782556001600160a01b0316907f8be0079c531659141344cd1fd0a4f28419497f9722a3daafe3b4186f6b6457e09080a3005b631e4fbdf760e01b5f525f60045260245ffd5b156104a357565b60405162461bcd60e51b815260206004820152601c60248201527f4f6e6c79204c5a20656e64706f696e742063616e20636f6d706f7365000000006044820152606490fd5b91908260409103126100f75760208251610501816100fb565b92015161050d816100fb565b90565b634e487b7160e01b5f52601160045260245ffd5b634e487b7160e01b5f52604160045260245ffd5b90601f8019910116810190811067ffffffffffffffff82111761055a57604052565b610524565b6040519061056e60e083610538565b565b6040519061056e604083610538565b67ffffffffffffffff811161055a57601f01601f191660200190565b604051906105aa602083610538565b5f8252565b91908260409103126100f7576040516040810181811067ffffffffffffffff82111761055a576040526020808294805184520151910152565b919082810360c081126100f7576080136100f757604051906060820182811067ffffffffffffffff82111761055a5760405283518252602084015167ffffffffffffffff811681036100f75782608091602061050d95015261064d83604088016105af565b604082015294016105af565b805180835260209291819084018484015e5f828201840152601f01601f1916010190565b60609061071c61070761056e959796946080845263ffffffff8151166080850152602081015160a0850152604081015160c08501528481015160e085015260c06106f26106db608084015160e0610100890152610160880190610659565b60a0840151878203607f1901610120890152610659565b910151848203607f1901610140860152610659565b96602083019060208091805184520151910152565b6001600160a01b03909216910152565b6040513d5f823e3d90fd5b5f546001600160a01b0316330361074a57565b63118cdaa760e01b5f523360045260245ffd5b90602c116100f757600c013590565b9080604c116100f757604c8201604b198201916107888361057f565b936107966040519586610538565b83855236908201116100f7575f9260209283860137830101604b19015290565b604051600360f01b60208201526002815261050d602282610538565b600361ffff6107e083610996565b16036108c657604051610c3560861b602082015260108152610803603082610538565b600361ffff61081184610996565b16036108a757805161ffff81116108905761ffff60019116019161ffff831161088b5761087d61050d9260046108519560405196879560208701906109e2565b600160f81b80825260f09290921b6001600160f01b0319166001820152600381019190915201906109e2565b03601f198101835282610538565b610510565b6306dfcc6560e41b5f52601060045260245260445ffd5b61ffff6108b383610996565b633a51740d60e01b5f521660045260245ffd5b6108b361ffff91610996565b600361ffff6108e083610996565b16036108c6576040515f6020820152613d0960851b602282015260128152610909603282610538565b600361ffff61091784610996565b16036108a757805161ffff81116108905761ffff60019116019161ffff831161088b5761087d61050d9260046109579560405196879560208701906109e2565b600160f81b815260f09190911b6001600160f01b0319166001820152600360f81b600382015201906109e2565b90600c116100f7576008013560e01c90565b60028151106109a6576002015190565b60405162461bcd60e51b8152602060048201526014602482015273746f55696e7431365f6f75744f66426f756e647360601b6044820152606490fd5b805191908290602001825e015f81529056fea264697066735822122016fc211f8f4f8edd18aa4911bdbf35a9324a96a6edda63c404b2a1843372f56a64736f6c634300081a00330000000000000000000000006edce65403992e310a62460808c4b910d972f10f",
        "nonce": "0x7e",
        "chainId": "0xaa37dc"
      },
      "additionalContracts": [],
      "isFixedGasLimit": false
    },
    {
      "hash": "0xa30b72829f8d33e56911be5ba746b8e5be3c8b1beb28428a07228178fe4641e8",
      "transactionType": "CALL",
      "contractName": "OmniSwapSpoke",
      "contractAddress": "0x13e6c57dfb85ec68b1f9aec427a272e2e2ee2836",
      "function": "configurePool(address,address)",
      "arguments": [
        "0x69801C169647Ad125707Dd40096D4EDC20Bb521a",
        "0xBbd735DB53cE42a7423B0861864dAD6253588040"
      ],
      "transaction": {
        "from": "0x000ef5f21dc574226a06c76aae7060642a30eb74",
        "to": "0x13e6c57dfb85ec68b1f9aec427a272e2e2ee2836",
        "gas": "0x171c3",
        "value": "0x0",
        "input": "0x6c1a032c00000000000000000000000069801c169647ad125707dd40096d4edc20bb521a000000000000000000000000bbd735db53ce42a7423b0861864dad6253588040",
        "nonce": "0x7f",
        "chainId": "0xaa37dc"
      },
      "additionalContracts": [],
      "isFixedGasLimit": false
    },
    {
      "hash": "0xbf77491ba936a322aaae5eaf2264a64676ce7df80f96c6c6ee27654919f56c13",
      "transactionType": "CALL",
      "contractName": null,
      "contractAddress": "0xba397efef3914ab025f7f5706fade61f240a9ebc",
      "function": "mint(address,uint256)",
      "arguments": [
        "0x13E6C57dFb85Ec68b1F9AEC427A272E2e2eE2836",
        "10000000000000000000000000000000"
      ],
      "transaction": {
        "from": "0x000ef5f21dc574226a06c76aae7060642a30eb74",
        "to": "0xba397efef3914ab025f7f5706fade61f240a9ebc",
        "gas": "0x1328a",
        "value": "0x0",
        "input": "0x40c10f1900000000000000000000000013e6c57dfb85ec68b1f9aec427a272e2e2ee2836000000000000000000000000000000000000007e37be2022c0914b2680000000",
        "nonce": "0x80",
        "chainId": "0xaa37dc"
      },
      "additionalContracts": [],
      "isFixedGasLimit": false
    }
  ],
  "receipts": [
    {
      "status": "0x1",
      "cumulativeGasUsed": "0xad142",
      "logs": [
        {
          "address": "0x13e6c57dfb85ec68b1f9aec427a272e2e2ee2836",
          "topics": [
            "0x8be0079c531659141344cd1fd0a4f28419497f9722a3daafe3b4186f6b6457e0",
            "0x0000000000000000000000000000000000000000000000000000000000000000",
            "0x000000000000000000000000000ef5f21dc574226a06c76aae7060642a30eb74"
          ],
          "data": "0x",
          "blockHash": "0xbe519600748a2e85b72491605c65107fd5aac086739a12a05cfe3fa60d76966e",
          "blockNumber": "0x13122b2",
          "transactionHash": "0x6cec394a102a77915a3d2f9f6b12a53400834fc4889dc6cbaf36c08dc6712987",
          "transactionIndex": "0x1",
          "logIndex": "0x0",
          "removed": false
        }
      ],
      "logsBloom": "0x00000000000000000000000000000000000000000000000000800000000000000000000000020000000000000000000000000000000000000000000000000000000000000000000000000000000000000001000000000000000000000000000000000000020000000000000400000800000000000000000000000000000000400000000000000000000020000000000000000000000000000000000000000000000000000000000000000000000800000000000000000000000004000000000000000000000000000000000000000000000000000000000000000000040020000000000000000000000000000000000000000000000000000000000000000000",
      "type": "0x2",
      "transactionHash": "0x6cec394a102a77915a3d2f9f6b12a53400834fc4889dc6cbaf36c08dc6712987",
      "transactionIndex": "0x1",
      "blockHash": "0xbe519600748a2e85b72491605c65107fd5aac086739a12a05cfe3fa60d76966e",
      "blockNumber": "0x13122b2",
      "gasUsed": "0xa261b",
      "effectiveGasPrice": "0xf6a4e",
      "from": "0x000ef5f21dc574226a06c76aae7060642a30eb74",
      "to": null,
      "contractAddress": "0x13e6c57dfb85ec68b1f9aec427a272e2e2ee2836",
      "l1BaseFeeScalar": "0x1db0",
      "l1BlobBaseFee": "0x1",
      "l1BlobBaseFeeScalar": "0xd2730",
      "l1Fee": "0xc701768",
      "l1GasPrice": "0xeb921",
      "l1GasUsed": "0x6f27"
    },
    {
      "status": "0x1",
      "cumulativeGasUsed": "0x1275f3",
      "logs": [],
      "logsBloom": "0x00000000000000000000000000000000000000000000000000000000000000000000000000000000000000000000000000000000000000000000000000000000000000000000000000000000000000000000000000000000000000000000000000000000000000000000000000000000000000000000000000000000000000000000000000000000000000000000000000000000000000000000000000000000000000000000000000000000000000000000000000000000000000000000000000000000000000000000000000000000000000000000000000000000000000000000000000000000000000000000000000000000000000000000000000000000",
      "type": "0x2",
      "transactionHash": "0xa30b72829f8d33e56911be5ba746b8e5be3c8b1beb28428a07228178fe4641e8",
      "transactionIndex": "0x3",
      "blockHash": "0xbe519600748a2e85b72491605c65107fd5aac086739a12a05cfe3fa60d76966e",
      "blockNumber": "0x13122b2",
      "gasUsed": "0x10bb4",
      "effectiveGasPrice": "0xf6a4e",
      "from": "0x000ef5f21dc574226a06c76aae7060642a30eb74",
      "to": "0x13e6c57dfb85ec68b1f9aec427a272e2e2ee2836",
      "contractAddress": null,
      "l1BaseFeeScalar": "0x1db0",
      "l1BlobBaseFee": "0x1",
      "l1BlobBaseFeeScalar": "0xd2730",
      "l1Fee": "0xb308f1",
      "l1GasPrice": "0xeb921",
      "l1GasUsed": "0x640"
    },
    {
      "status": "0x1",
      "cumulativeGasUsed": "0x2435c3",
      "logs": [
        {
          "address": "0xba397efef3914ab025f7f5706fade61f240a9ebc",
          "topics": [
            "0xddf252ad1be2c89b69c2b068fc378daa952ba7f163c4a11628f55a4df523b3ef",
            "0x0000000000000000000000000000000000000000000000000000000000000000",
            "0x00000000000000000000000013e6c57dfb85ec68b1f9aec427a272e2e2ee2836"
          ],
          "data": "0x000000000000000000000000000000000000007e37be2022c0914b2680000000",
          "blockHash": "0xbe519600748a2e85b72491605c65107fd5aac086739a12a05cfe3fa60d76966e",
          "blockNumber": "0x13122b2",
          "transactionHash": "0xbf77491ba936a322aaae5eaf2264a64676ce7df80f96c6c6ee27654919f56c13",
          "transactionIndex": "0x5",
          "logIndex": "0x15",
          "removed": false
        }
      ],
      "logsBloom": "0x00000000000000000000000000000000000000000000000000000000000000000000000000010000000000000000000000000000000000000000000020000000000000000000000000000008004000000000000400000000000000000000000000400000020000000000000000000800000000000000000000000010000000000000000000000000000000000000000000000000000000000000000000000000000000000000000000000000000000000000000000000000000000000000000000000002000000000000000000000000000000000000000000000000000020000000000000000000000000000000000000000002000000000000000000000000",
      "type": "0x2",
      "transactionHash": "0xbf77491ba936a322aaae5eaf2264a64676ce7df80f96c6c6ee27654919f56c13",
      "transactionIndex": "0x5",
      "blockHash": "0xbe519600748a2e85b72491605c65107fd5aac086739a12a05cfe3fa60d76966e",
      "blockNumber": "0x13122b2",
      "gasUsed": "0xd19a",
      "effectiveGasPrice": "0xf6a4e",
      "from": "0x000ef5f21dc574226a06c76aae7060642a30eb74",
      "to": "0xba397efef3914ab025f7f5706fade61f240a9ebc",
      "contractAddress": null,
      "l1BaseFeeScalar": "0x1db0",
      "l1BlobBaseFee": "0x1",
      "l1BlobBaseFeeScalar": "0xd2730",
      "l1Fee": "0xb308f1",
      "l1GasPrice": "0xeb921",
      "l1GasUsed": "0x640"
    }
  ],
  "libraries": [],
  "pending": [],
  "returns": {},
  "timestamp": 1731797265,
  "chain": 11155420,
  "commit": "f193f39"
}