{
  "transactions": [
    {
      "hash": "0x3cb5ee66b4a746a20d0d6afd395cd59390426bd6c87718cbc65681b6be3efe08",
      "transactionType": "CREATE",
      "contractName": "OmniSwapSpoke",
      "contractAddress": "0x39d901dfef58bd85a3a54af55a68f40a274ed02a",
      "function": null,
      "arguments": [
        "0x6EDCE65403992e310A62460808c4b910D972f10f"
      ],
      "transaction": {
        "from": "0x000ef5f21dc574226a06c76aae7060642a30eb74",
        "gas": "0xf8f4f",
        "value": "0x0",
        "input": "0x60803460cd57601f610d3838819003918201601f19168301916001600160401b0383118484101760d15780849260209460405283398101031260cd57516001600160a01b0381169081900360cd57331560ba575f8054336001600160a01b0319821681178355604051939290916001600160a01b0316907f8be0079c531659141344cd1fd0a4f28419497f9722a3daafe3b4186f6b6457e09080a3600380546001600160a01b031916919091179055610c5290816100e68239f35b631e4fbdf760e01b5f525f60045260245ffd5b5f80fd5b634e487b7160e01b5f52604160045260245ffdfe60806040526004361015610011575f80fd5b5f3560e01c8063542524dd146100b45780636c1a032c146100af578063715018a6146100aa5780637f5a7c7b146100a55780638da5cb5b146100a0578063b353aaa71461009b578063c31c9c0714610096578063c7b8e15d14610091578063d0a102601461008c5763f2fde38b14610087575f80fd5b6105a9565b6102b2565b610264565b61023c565b610214565b6101ed565b6101c5565b61016e565b61010b565b346100e2575f3660031901126100e257602060405173fffd8963efd1fc6a506488495d951d5263988d258152f35b5f80fd5b634e487b7160e01b5f52601160045260245ffd5b6001600160a01b038116036100e257565b346100e25760403660031901126100e257600435610128816100fa565b60243590610135826100fa565b61013d61095f565b600180546001600160a01b039283166001600160a01b03199182161790915560028054939092169216919091179055005b346100e2575f3660031901126100e25761018661095f565b5f80546001600160a01b0319811682556001600160a01b03167f8be0079c531659141344cd1fd0a4f28419497f9722a3daafe3b4186f6b6457e08280a3005b346100e2575f3660031901126100e2576002546040516001600160a01b039091168152602090f35b346100e2575f3660031901126100e2575f546040516001600160a01b039091168152602090f35b346100e2575f3660031901126100e2576003546040516001600160a01b039091168152602090f35b346100e2575f3660031901126100e2576001546040516001600160a01b039091168152602090f35b346100e2575f3660031901126100e25760206401000276a4604051908152f35b9181601f840112156100e25782359167ffffffffffffffff83116100e257602083818601950101116100e257565b60a03660031901126100e2576004356102ca816100fa565b60443567ffffffffffffffff81116100e2576102ea903690600401610284565b906102f66064356100fa565b60843567ffffffffffffffff81116100e257610316903690600401610284565b505060035461032f906001600160a01b03163314610632565b6103398282610985565b916103566103478284610994565b6020808251830101910161067e565b6002546001600160a01b039182169692821695928216949116926103b661037b6106e1565b6001600160a01b0387168152946001600160a01b0389166020870152610bb86040870152607860608701526001600160a01b03166080860152565b60206401000276a46103e46103c96106f2565b60018152918284018790526001600160a01b03166040830152565b6040516001600160a01b03891683820190815281900380825290969061040d90602001886106ba565b61042b6040519788938493633cf3645360e21b855260048501610752565b03815f73536527976e98e253b424a3655e695d144e3433415af191821561057757869460c09361057c575b506104836104648560011c90565b9261047d6104786104736109de565b6109fa565b610afa565b92610bac565b9161049b61048f610701565b63ffffffff9094168452565b856020840152806040840152606083015260808201526104b96107f2565b60a08201526104c66107f2565b828201526104d2610710565b3481525f602082015260405163c7c7f5b360e01b815294859283926104fb9291600485016108b0565b038134895af1908115610577577fd6fad783f6ce60919b6ee64c639cbdcedc0dd52b96be62e1df509272cdd4e4a29261054492610549575b506040519081529081906020820190565b0390a4005b61056a9060c03d60c011610570575b61056281836106ba565b81019061083f565b50610533565b503d610558565b6107cb565b61059d9060203d6020116105a2575b61059581836106ba565b81019061071f565b610456565b503d61058b565b346100e25760203660031901126100e2576004356105c6816100fa565b6105ce61095f565b6001600160a01b0316801561061f575f80546001600160a01b03198116831782556001600160a01b0316907f8be0079c531659141344cd1fd0a4f28419497f9722a3daafe3b4186f6b6457e09080a3005b631e4fbdf760e01b5f525f60045260245ffd5b1561063957565b60405162461bcd60e51b815260206004820152601c60248201527f4f6e6c79204c5a20656e64706f696e742063616e20636f6d706f7365000000006044820152606490fd5b91908260409103126100e25760208251610697816100fa565b9201516106a3816100fa565b90565b634e487b7160e01b5f52604160045260245ffd5b90601f8019910116810190811067ffffffffffffffff8211176106dc57604052565b6106a6565b604051906106f060a0836106ba565b565b604051906106f06060836106ba565b604051906106f060e0836106ba565b604051906106f06040836106ba565b908160209103126100e2575190565b805180835260209291819084018484015e5f828201840152601f01601f1916010190565b81516001600160a01b03908116825260208084015182168184015260408085015162ffffff168185015260608086015160020b908501526080948501518316948401949094528451151560a084015284015160c083015291909201511660e08201526106a391906101209081610100820152019061072e565b6040513d5f823e3d90fd5b67ffffffffffffffff81116106dc57601f01601f191660200190565b604051906108016020836106ba565b5f8252565b91908260409103126100e2576040516040810181811067ffffffffffffffff8211176106dc576040526020808294805184520151910152565b919082810360c081126100e2576080136100e257604051906060820182811067ffffffffffffffff8211176106dc5760405283518252602084015167ffffffffffffffff811681036100e2578260809160206106a39501526108a48360408801610806565b60408201529401610806565b60609061094f61093a6106f0959796946080845263ffffffff8151166080850152602081015160a0850152604081015160c08501528481015160e085015260c061092561090e608084015160e061010089015261016088019061072e565b60a0840151878203607f190161012089015261072e565b910151848203607f190161014086015261072e565b96602083019060208091805184520151910152565b6001600160a01b03909216910152565b5f546001600160a01b0316330361097257565b63118cdaa760e01b5f523360045260245ffd5b90602c116100e257600c013590565b9080604c116100e257604c8201604b198201916109b0836107d6565b936109be60405195866106ba565b83855236908201116100e2575f9260209283860137830101604b19015290565b604051600360f01b6020820152600281526106a36022826106ba565b600361ffff610a0883610bbe565b1603610aee57604051610c3560861b602082015260108152610a2b6030826106ba565b600361ffff610a3984610bbe565b1603610acf57805161ffff8111610ab85761ffff60019116019161ffff8311610ab357610aa56106a3926004610a79956040519687956020870190610c0a565b600160f81b80825260f09290921b6001600160f01b031916600182015260038101919091520190610c0a565b03601f1981018352826106ba565b6100e6565b6306dfcc6560e41b5f52601060045260245260445ffd5b61ffff610adb83610bbe565b633a51740d60e01b5f521660045260245ffd5b610adb61ffff91610bbe565b600361ffff610b0883610bbe565b1603610aee576040515f6020820152613d0960851b602282015260128152610b316032826106ba565b600361ffff610b3f84610bbe565b1603610acf57805161ffff8111610ab85761ffff60019116019161ffff8311610ab357610aa56106a3926004610b7f956040519687956020870190610c0a565b600160f81b815260f09190911b6001600160f01b0319166001820152600360f81b60038201520190610c0a565b90600c116100e2576008013560e01c90565b6002815110610bce576002015190565b60405162461bcd60e51b8152602060048201526014602482015273746f55696e7431365f6f75744f66426f756e647360601b6044820152606490fd5b805191908290602001825e015f81529056fea264697066735822122099f40d0e7650c56c2fec6f78d0b98234bed48c5111fa62099fe1a9c27dc1b36964736f6c634300081a00330000000000000000000000006edce65403992e310a62460808c4b910d972f10f",
        "nonce": "0x81",
        "chainId": "0xaa37dc"
      },
      "additionalContracts": [],
      "isFixedGasLimit": false
    },
    {
      "hash": "0x7a494e70127de808552eee8c8aac5ddf430eb0d77dc43f32036e5c5a72b140b2",
      "transactionType": "CALL",
      "contractName": "OmniSwapSpoke",
      "contractAddress": "0x39d901dfef58bd85a3a54af55a68f40a274ed02a",
      "function": "configurePool(address,address)",
      "arguments": [
        "0x69801C169647Ad125707Dd40096D4EDC20Bb521a",
        "0xBbd735DB53cE42a7423B0861864dAD6253588040"
      ],
      "transaction": {
        "from": "0x000ef5f21dc574226a06c76aae7060642a30eb74",
        "to": "0x39d901dfef58bd85a3a54af55a68f40a274ed02a",
        "gas": "0x171f2",
        "value": "0x0",
        "input": "0x6c1a032c00000000000000000000000069801c169647ad125707dd40096d4edc20bb521a000000000000000000000000bbd735db53ce42a7423b0861864dad6253588040",
        "nonce": "0x82",
        "chainId": "0xaa37dc"
      },
      "additionalContracts": [],
      "isFixedGasLimit": false
    },
    {
      "hash": "0xf1950d156ba6bc887844e2e330c8349810358cfc55e4cae48cbe23c59eb381d3",
      "transactionType": "CALL",
      "contractName": null,
      "contractAddress": "0xba397efef3914ab025f7f5706fade61f240a9ebc",
      "function": "mint(address,uint256)",
      "arguments": [
        "0x39d901dfEf58Bd85A3A54aF55a68F40A274eD02a",
        "10000000000000000000000000000000"
      ],
      "transaction": {
        "from": "0x000ef5f21dc574226a06c76aae7060642a30eb74",
        "to": "0xba397efef3914ab025f7f5706fade61f240a9ebc",
        "gas": "0x1328a",
        "value": "0x0",
        "input": "0x40c10f1900000000000000000000000039d901dfef58bd85a3a54af55a68f40a274ed02a000000000000000000000000000000000000007e37be2022c0914b2680000000",
        "nonce": "0x83",
        "chainId": "0xaa37dc"
      },
      "additionalContracts": [],
      "isFixedGasLimit": false
    }
  ],
  "receipts": [
    {
      "status": "0x1",
      "cumulativeGasUsed": "0x174183",
      "logs": [
        {
          "address": "0x39d901dfef58bd85a3a54af55a68f40a274ed02a",
          "topics": [
            "0x8be0079c531659141344cd1fd0a4f28419497f9722a3daafe3b4186f6b6457e0",
            "0x0000000000000000000000000000000000000000000000000000000000000000",
            "0x000000000000000000000000000ef5f21dc574226a06c76aae7060642a30eb74"
          ],
          "data": "0x",
          "blockHash": "0x591b49d98708fb0fe164500ef75d25c0c62a519223cd3ac467102c4b487ad73b",
          "blockNumber": "0x1312471",
          "transactionHash": "0x3cb5ee66b4a746a20d0d6afd395cd59390426bd6c87718cbc65681b6be3efe08",
          "transactionIndex": "0x2",
          "logIndex": "0x5",
          "removed": false
        }
      ],
      "logsBloom": "0x00000000000000000000000000000000000000000000000000800000000000000000000000020000000000000000000000008000000000000000000000000000000000000000000000000000000000000001000000400000000000000000000000080000020000000000000400000800000000000000000000000000000000400000000000000000000000000000000000000000000000000000000000000000000000000000000000000000000000000000000000000000000000000000000000000000000000000000000000000000000000000000000000000000040020000000000000000000000000000000000000000000000000000000000000000000",
      "type": "0x2",
      "transactionHash": "0x3cb5ee66b4a746a20d0d6afd395cd59390426bd6c87718cbc65681b6be3efe08",
      "transactionIndex": "0x2",
      "blockHash": "0x591b49d98708fb0fe164500ef75d25c0c62a519223cd3ac467102c4b487ad73b",
      "blockNumber": "0x1312471",
      "gasUsed": "0xbf816",
      "effectiveGasPrice": "0xf6a4e",
      "from": "0x000ef5f21dc574226a06c76aae7060642a30eb74",
      "to": null,
      "contractAddress": "0x39d901dfef58bd85a3a54af55a68f40a274ed02a",
      "l1BaseFeeScalar": "0x1db0",
      "l1BlobBaseFee": "0x1",
      "l1BlobBaseFeeScalar": "0xd2730",
      "l1Fee": "0xda0807d",
      "l1GasPrice": "0xd90d4",
      "l1GasUsed": "0x842b"
    },
    {
      "status": "0x1",
      "cumulativeGasUsed": "0x184d59",
      "logs": [],
      "logsBloom": "0x00000000000000000000000000000000000000000000000000000000000000000000000000000000000000000000000000000000000000000000000000000000000000000000000000000000000000000000000000000000000000000000000000000000000000000000000000000000000000000000000000000000000000000000000000000000000000000000000000000000000000000000000000000000000000000000000000000000000000000000000000000000000000000000000000000000000000000000000000000000000000000000000000000000000000000000000000000000000000000000000000000000000000000000000000000000",
      "type": "0x2",
      "transactionHash": "0x7a494e70127de808552eee8c8aac5ddf430eb0d77dc43f32036e5c5a72b140b2",
      "transactionIndex": "0x3",
      "blockHash": "0x591b49d98708fb0fe164500ef75d25c0c62a519223cd3ac467102c4b487ad73b",
      "blockNumber": "0x1312471",
      "gasUsed": "0x10bd6",
      "effectiveGasPrice": "0xf6a4e",
      "from": "0x000ef5f21dc574226a06c76aae7060642a30eb74",
      "to": "0x39d901dfef58bd85a3a54af55a68f40a274ed02a",
      "contractAddress": null,
      "l1BaseFeeScalar": "0x1db0",
      "l1BlobBaseFee": "0x1",
      "l1BlobBaseFeeScalar": "0xd2730",
      "l1Fee": "0xa5b673",
      "l1GasPrice": "0xd90d4",
      "l1GasUsed": "0x647"
    },
    {
      "status": "0x1",
      "cumulativeGasUsed": "0x191ef3",
      "logs": [
        {
          "address": "0xba397efef3914ab025f7f5706fade61f240a9ebc",
          "topics": [
            "0xddf252ad1be2c89b69c2b068fc378daa952ba7f163c4a11628f55a4df523b3ef",
            "0x0000000000000000000000000000000000000000000000000000000000000000",
            "0x00000000000000000000000039d901dfef58bd85a3a54af55a68f40a274ed02a"
          ],
          "data": "0x000000000000000000000000000000000000007e37be2022c0914b2680000000",
          "blockHash": "0x591b49d98708fb0fe164500ef75d25c0c62a519223cd3ac467102c4b487ad73b",
          "blockNumber": "0x1312471",
          "transactionHash": "0xf1950d156ba6bc887844e2e330c8349810358cfc55e4cae48cbe23c59eb381d3",
          "transactionIndex": "0x4",
          "logIndex": "0x6",
          "removed": false
        }
      ],
      "logsBloom": "0x00000000000000000000000000000000000000000000000000000000000000000000000000010000000000000000000000000000000000000000000020000000000000000000000000000008004000000000000000000000000000000000001000000000020000000000000000000800000000000000000000000010000000000000000000000000000000000000000000000000000000000000000000000000000000000004000000000000000000000000000000000000000000000000000000000002000000000000000000000000000000000000000000000000000020000000000000000000000000000000000000200000000000000000000000000000",
      "type": "0x2",
      "transactionHash": "0xf1950d156ba6bc887844e2e330c8349810358cfc55e4cae48cbe23c59eb381d3",
      "transactionIndex": "0x4",
      "blockHash": "0x591b49d98708fb0fe164500ef75d25c0c62a519223cd3ac467102c4b487ad73b",
      "blockNumber": "0x1312471",
      "gasUsed": "0xd19a",
      "effectiveGasPrice": "0xf6a4e",
      "from": "0x000ef5f21dc574226a06c76aae7060642a30eb74",
      "to": "0xba397efef3914ab025f7f5706fade61f240a9ebc",
      "contractAddress": null,
      "l1BaseFeeScalar": "0x1db0",
      "l1BlobBaseFee": "0x1",
      "l1BlobBaseFeeScalar": "0xd2730",
      "l1Fee": "0xa4f5ed",
      "l1GasPrice": "0xd90d4",
      "l1GasUsed": "0x640"
    }
  ],
  "libraries": [],
  "pending": [],
  "returns": {},
  "timestamp": 1731798159,
  "chain": 11155420,
  "commit": "f193f39"
}