{
  "transactions": [
    {
      "hash": "0x756cb94f6e60246f72671ca6e6c5850e150e399597de2704efe99a56a7573bf3",
      "transactionType": "CREATE",
      "contractName": "OmniSwapSpoke",
      "contractAddress": "0xfff10350da68466f5abeccda400f9b79bb450caf",
      "function": null,
      "arguments": [
        "0x6EDCE65403992e310A62460808c4b910D972f10f"
      ],
      "transaction": {
        "from": "0x000ef5f21dc574226a06c76aae7060642a30eb74",
        "gas": "0x117d62",
        "value": "0x0",
        "input": "0x60803460cd57601f610efa38819003918201601f19168301916001600160401b0383118484101760d15780849260209460405283398101031260cd57516001600160a01b0381169081900360cd57331560ba575f8054336001600160a01b0319821681178355604051939290916001600160a01b0316907f8be0079c531659141344cd1fd0a4f28419497f9722a3daafe3b4186f6b6457e09080a3600380546001600160a01b031916919091179055610e1490816100e68239f35b631e4fbdf760e01b5f525f60045260245ffd5b5f80fd5b634e487b7160e01b5f52604160045260245ffdfe60806040526004361015610011575f80fd5b5f3560e01c8063542524dd146100b45780636c1a032c146100af578063715018a6146100aa5780637f5a7c7b146100a55780638da5cb5b146100a0578063b353aaa71461009b578063c31c9c0714610096578063c7b8e15d14610091578063d0a102601461008c5763f2fde38b14610087575f80fd5b6107e8565b6102b2565b610264565b61023c565b610214565b6101ed565b6101c5565b61016e565b61010b565b346100e2575f3660031901126100e257602060405173fffd8963efd1fc6a506488495d951d5263988d258152f35b5f80fd5b634e487b7160e01b5f52601160045260245ffd5b6001600160a01b038116036100e257565b346100e25760403660031901126100e257600435610128816100fa565b60243590610135826100fa565b61013d610bd3565b600180546001600160a01b039283166001600160a01b03199182161790915560028054939092169216919091179055005b346100e2575f3660031901126100e257610186610bd3565b5f80546001600160a01b0319811682556001600160a01b03167f8be0079c531659141344cd1fd0a4f28419497f9722a3daafe3b4186f6b6457e08280a3005b346100e2575f3660031901126100e2576002546040516001600160a01b039091168152602090f35b346100e2575f3660031901126100e2575f546040516001600160a01b039091168152602090f35b346100e2575f3660031901126100e2576003546040516001600160a01b039091168152602090f35b346100e2575f3660031901126100e2576001546040516001600160a01b039091168152602090f35b346100e2575f3660031901126100e25760206401000276a4604051908152f35b9181601f840112156100e25782359167ffffffffffffffff83116100e257602083818601950101116100e257565b60a03660031901126100e2576004356102ca816100fa565b60443567ffffffffffffffff81116100e2576102ea903690600401610284565b906102f66064356100fa565b60843567ffffffffffffffff81116100e257610316903690600401610284565b505060035461034090610339906001600160a01b03165b6001600160a01b031690565b3314610871565b61034a8282610bf9565b906103676103588483610c08565b602080825183010191016108bd565b60405163095ea7b360e01b815273536527976e98e253b424a3655e695d144e34334160048201525f1960248201526001600160a01b0391821696929091169491906020816044815f7315906379703940bc51a5881ad1a5fc481ebc8bb15af18015610728576107cb575b5060405163095ea7b360e01b815273536527976e98e253b424a3655e695d144e34334160048201525f1960248201526020816044815f73ba397efef3914ab025f7f5706fade61f240a9ebc5af18015610728576107ae575b5060405163095ea7b360e01b815273440d0bee5706987be528fec5c4ca5947e38161d26004820152602481018590526020816044815f7315906379703940bc51a5881ad1a5fc481ebc8bb15af1801561072857610791575b5060405163095ea7b360e01b815273440d0bee5706987be528fec5c4ca5947e38161d26004820152602481018590526020816044815f73ba397efef3914ab025f7f5706fade61f240a9ebc5af1801561072857610764575b506001600160a01b0316908186111561075a576105bc908692965b6002546020906001600160a01b031661054861050e610943565b6001600160a01b038c168152916001600160a01b03881683850152610bb86040840152607860608401526001600160a01b03166080830152565b60015461055d906001600160a01b031661032d565b6401000276a461058961056e610954565b60018152918286018c90526001600160a01b03166040830152565b5f610592610963565b9381855281868601526105ca8d6040519a8b91898301919091602081019260018060a01b03169052565b03601f1981018b528a6108f9565b6105ea604051998a968795869463088a742d60e21b8652600486016109b4565b03925af19182156107285761069e9560c094899461072d575b506106286106118960011c90565b9261062261061d610c52565b610c6e565b92610d6e565b91610640610634610972565b63ffffffff9094168452565b8460208401528060408401526060830152608082015261065e610a66565b60a082015261066b610a66565b84820152610677610963565b3481525f602082015260405163c7c7f5b360e01b8152968794859384939060048501610b24565b039134905af1908115610728577fd6fad783f6ce60919b6ee64c639cbdcedc0dd52b96be62e1df509272cdd4e4a2926106f5926106fa575b506040519384526001600160a01b039081169516929081906020820190565b0390a4005b61071b9060c03d60c011610721575b61071381836108f9565b810190610ab3565b506106d6565b503d610709565b610938565b61074e9060203d602011610753575b61074681836108f9565b810190610981565b610603565b503d61073c565b6105bc90866104f4565b6107859060203d60201161078a575b61077d81836108f9565b810190610920565b6104d9565b503d610773565b6107a99060203d60201161078a5761077d81836108f9565b610481565b6107c69060203d60201161078a5761077d81836108f9565b610429565b6107e39060203d60201161078a5761077d81836108f9565b6103d1565b346100e25760203660031901126100e257600435610805816100fa565b61080d610bd3565b6001600160a01b0316801561085e575f80546001600160a01b03198116831782556001600160a01b0316907f8be0079c531659141344cd1fd0a4f28419497f9722a3daafe3b4186f6b6457e09080a3005b631e4fbdf760e01b5f525f60045260245ffd5b1561087857565b60405162461bcd60e51b815260206004820152601c60248201527f4f6e6c79204c5a20656e64706f696e742063616e20636f6d706f7365000000006044820152606490fd5b91908260409103126100e257602082516108d6816100fa565b9201516108e2816100fa565b90565b634e487b7160e01b5f52604160045260245ffd5b90601f8019910116810190811067ffffffffffffffff82111761091b57604052565b6108e5565b908160209103126100e2575180151581036100e25790565b6040513d5f823e3d90fd5b6040519061095260a0836108f9565b565b604051906109526060836108f9565b604051906109526040836108f9565b6040519061095260e0836108f9565b908160209103126100e2575190565b805180835260209291819084018484015e5f828201840152601f01601f1916010190565b81516001600160a01b03908116825260208084015182168184015260408085015162ffffff168185015260608086015160020b908501526080948501518316948401949094528451151560a084015284015160c083015291909201511660e08201526108e292916101609190610a3c9080511515610100840152602001511515610120830152565b816101408201520190610990565b67ffffffffffffffff811161091b57601f01601f191660200190565b60405190610a756020836108f9565b5f8252565b91908260409103126100e2576040516040810181811067ffffffffffffffff82111761091b576040526020808294805184520151910152565b919082810360c081126100e2576080136100e257604051906060820182811067ffffffffffffffff82111761091b5760405283518252602084015167ffffffffffffffff811681036100e2578260809160206108e2950152610b188360408801610a7a565b60408201529401610a7a565b606090610bc3610bae610952959796946080845263ffffffff8151166080850152602081015160a0850152604081015160c08501528481015160e085015260c0610b99610b82608084015160e0610100890152610160880190610990565b60a0840151878203607f1901610120890152610990565b910151848203607f1901610140860152610990565b96602083019060208091805184520151910152565b6001600160a01b03909216910152565b5f546001600160a01b03163303610be657565b63118cdaa760e01b5f523360045260245ffd5b90602c116100e257600c013590565b9080604c116100e257604c8201604b19820191610c2483610a4a565b93610c3260405195866108f9565b83855236908201116100e2575f9260209283860137830101604b19015290565b604051600360f01b6020820152600281526108e26022826108f9565b600361ffff610c7c83610d80565b1603610d6257604051610c3560861b602082015260108152610c9f6030826108f9565b600361ffff610cad84610d80565b1603610d4357805161ffff8111610d2c5761ffff60019116019161ffff8311610d2757610d196108e2926004610ced956040519687956020870190610dcc565b600160f81b80825260f09290921b6001600160f01b031916600182015260038101919091520190610dcc565b03601f1981018352826108f9565b6100e6565b6306dfcc6560e41b5f52601060045260245260445ffd5b61ffff610d4f83610d80565b633a51740d60e01b5f521660045260245ffd5b610d4f61ffff91610d80565b90600c116100e2576008013560e01c90565b6002815110610d90576002015190565b60405162461bcd60e51b8152602060048201526014602482015273746f55696e7431365f6f75744f66426f756e647360601b6044820152606490fd5b805191908290602001825e015f81529056fea2646970667358221220a1a88a6d09284ccbaec8150181042184bc85fbe6c3316f67159b5ad7096739d164736f6c634300081a00330000000000000000000000006edce65403992e310a62460808c4b910d972f10f",
        "nonce": "0x96",
        "chainId": "0xaa37dc"
      },
      "additionalContracts": [],
      "isFixedGasLimit": false
    },
    {
      "hash": "0xa18b5fcb148230a6421759f64ac6144b2ebb8c38fb968ada8b2de946a0004f95",
      "transactionType": "CALL",
      "contractName": "OmniSwapSpoke",
      "contractAddress": "0xfff10350da68466f5abeccda400f9b79bb450caf",
      "function": "configurePool(address,address)",
      "arguments": [
        "0x69801C169647Ad125707Dd40096D4EDC20Bb521a",
        "0xBbd735DB53cE42a7423B0861864dAD6253588040"
      ],
      "transaction": {
        "from": "0x000ef5f21dc574226a06c76aae7060642a30eb74",
        "to": "0xfff10350da68466f5abeccda400f9b79bb450caf",
        "gas": "0x171f2",
        "value": "0x0",
        "input": "0x6c1a032c00000000000000000000000069801c169647ad125707dd40096d4edc20bb521a000000000000000000000000bbd735db53ce42a7423b0861864dad6253588040",
        "nonce": "0x97",
        "chainId": "0xaa37dc"
      },
      "additionalContracts": [],
      "isFixedGasLimit": false
    },
    {
      "hash": "0x6ebcf3d9058c46041e8e247366eac2a71afc005154099f1717bd274c17908f78",
      "transactionType": "CALL",
      "contractName": null,
      "contractAddress": "0x15906379703940bc51a5881ad1a5fc481ebc8bb1",
      "function": "mint(address,uint256)",
      "arguments": [
        "0xFFf10350Da68466F5abeCCdA400F9B79bB450CaF",
        "10000000000000000000000000000000"
      ],
      "transaction": {
        "from": "0x000ef5f21dc574226a06c76aae7060642a30eb74",
        "to": "0x15906379703940bc51a5881ad1a5fc481ebc8bb1",
        "gas": "0x1328a",
        "value": "0x0",
        "input": "0x40c10f19000000000000000000000000fff10350da68466f5abeccda400f9b79bb450caf000000000000000000000000000000000000007e37be2022c0914b2680000000",
        "nonce": "0x98",
        "chainId": "0xaa37dc"
      },
      "additionalContracts": [],
      "isFixedGasLimit": false
    },
    {
      "hash": "0x74b76efdd3cf43ee5f20201a59cfabbd7abaaf9b3187a1a3ff17febd0d61e089",
      "transactionType": "CALL",
      "contractName": null,
      "contractAddress": "0xba397efef3914ab025f7f5706fade61f240a9ebc",
      "function": "mint(address,uint256)",
      "arguments": [
        "0xFFf10350Da68466F5abeCCdA400F9B79bB450CaF",
        "10000000000000000000000000000000"
      ],
      "transaction": {
        "from": "0x000ef5f21dc574226a06c76aae7060642a30eb74",
        "to": "0xba397efef3914ab025f7f5706fade61f240a9ebc",
        "gas": "0x1328a",
        "value": "0x0",
        "input": "0x40c10f19000000000000000000000000fff10350da68466f5abeccda400f9b79bb450caf000000000000000000000000000000000000007e37be2022c0914b2680000000",
        "nonce": "0x99",
        "chainId": "0xaa37dc"
      },
      "additionalContracts": [],
      "isFixedGasLimit": false
    }
  ],
  "receipts": [
    {
      "status": "0x1",
      "cumulativeGasUsed": "0xe1f33",
      "logs": [
        {
          "address": "0xfff10350da68466f5abeccda400f9b79bb450caf",
          "topics": [
            "0x8be0079c531659141344cd1fd0a4f28419497f9722a3daafe3b4186f6b6457e0",
            "0x0000000000000000000000000000000000000000000000000000000000000000",
            "0x000000000000000000000000000ef5f21dc574226a06c76aae7060642a30eb74"
          ],
          "data": "0x",
          "blockHash": "0xec89ae231f4958754cee1d07b880c185c2921b91dcfb9694b36703525285f1a4",
          "blockNumber": "0x1312967",
          "transactionHash": "0x756cb94f6e60246f72671ca6e6c5850e150e399597de2704efe99a56a7573bf3",
          "transactionIndex": "0x1",
          "logIndex": "0x0",
          "removed": false
        }
      ],
      "logsBloom": "0x00000000000100000000100000000000000000000000000000800000000000000000000000020000000000000000000000000000000000000000000000000000000000000000000000000000000000000001000000000000000000000000000000000000020000000000000400000800000000000000000000000000000000400000000000000000000000000000000000000000000000000000000000000000000000000000000000000000000000000000000800000000000000000000000000000000000000000000000000000000000000000000000000000000040020000000000000000000000000000000000000000000000000000000000000000000",
      "type": "0x2",
      "transactionHash": "0x756cb94f6e60246f72671ca6e6c5850e150e399597de2704efe99a56a7573bf3",
      "transactionIndex": "0x1",
      "blockHash": "0xec89ae231f4958754cee1d07b880c185c2921b91dcfb9694b36703525285f1a4",
      "blockNumber": "0x1312967",
      "gasUsed": "0xd7424",
      "effectiveGasPrice": "0xf6a4e",
      "from": "0x000ef5f21dc574226a06c76aae7060642a30eb74",
      "to": null,
      "contractAddress": "0xfff10350da68466f5abeccda400f9b79bb450caf",
      "l1BaseFeeScalar": "0x1db0",
      "l1BlobBaseFee": "0x1",
      "l1BlobBaseFeeScalar": "0xd2730",
      "l1Fee": "0x9b623f2",
      "l1GasPrice": "0x8c35b",
      "l1GasUsed": "0x91d1"
    },
    {
      "status": "0x1",
      "cumulativeGasUsed": "0x200466",
      "logs": [],
      "logsBloom": "0x00000000000000000000000000000000000000000000000000000000000000000000000000000000000000000000000000000000000000000000000000000000000000000000000000000000000000000000000000000000000000000000000000000000000000000000000000000000000000000000000000000000000000000000000000000000000000000000000000000000000000000000000000000000000000000000000000000000000000000000000000000000000000000000000000000000000000000000000000000000000000000000000000000000000000000000000000000000000000000000000000000000000000000000000000000000",
      "type": "0x2",
      "transactionHash": "0xa18b5fcb148230a6421759f64ac6144b2ebb8c38fb968ada8b2de946a0004f95",
      "transactionIndex": "0x3",
      "blockHash": "0xec89ae231f4958754cee1d07b880c185c2921b91dcfb9694b36703525285f1a4",
      "blockNumber": "0x1312967",
      "gasUsed": "0x10bd6",
      "effectiveGasPrice": "0xf6a4e",
      "from": "0x000ef5f21dc574226a06c76aae7060642a30eb74",
      "to": "0xfff10350da68466f5abeccda400f9b79bb450caf",
      "contractAddress": null,
      "l1BaseFeeScalar": "0x1db0",
      "l1BlobBaseFee": "0x1",
      "l1BlobBaseFeeScalar": "0xd2730",
      "l1Fee": "0x6b0be8",
      "l1GasPrice": "0x8c35b",
      "l1GasUsed": "0x647"
    },
    {
      "status": "0x1",
      "cumulativeGasUsed": "0x20d600",
      "logs": [
        {
          "address": "0x15906379703940bc51a5881ad1a5fc481ebc8bb1",
          "topics": [
            "0xddf252ad1be2c89b69c2b068fc378daa952ba7f163c4a11628f55a4df523b3ef",
            "0x0000000000000000000000000000000000000000000000000000000000000000",
            "0x000000000000000000000000fff10350da68466f5abeccda400f9b79bb450caf"
          ],
          "data": "0x000000000000000000000000000000000000007e37be2022c0914b2680000000",
          "blockHash": "0xec89ae231f4958754cee1d07b880c185c2921b91dcfb9694b36703525285f1a4",
          "blockNumber": "0x1312967",
          "transactionHash": "0x6ebcf3d9058c46041e8e247366eac2a71afc005154099f1717bd274c17908f78",
          "transactionIndex": "0x4",
          "logIndex": "0x11",
          "removed": false
        }
      ],
      "logsBloom": "0x00000000000000000000000000020000000000000000000000000100000000000000000000000000000000000000000000000000000000000000000000000008000000000000000000000008000000000000000000000000000000000000000000000000020000000000000000000800000000000004000000000010000000000000000000000000100000000000000000000000000000000000000000000000000000000000000000000000000000000000000000000000000000000000080000000002000000000000000000000000000000000000000000000000000020000000000000000000000000000000000000000000000000000000000000000000",
      "type": "0x2",
      "transactionHash": "0x6ebcf3d9058c46041e8e247366eac2a71afc005154099f1717bd274c17908f78",
      "transactionIndex": "0x4",
      "blockHash": "0xec89ae231f4958754cee1d07b880c185c2921b91dcfb9694b36703525285f1a4",
      "blockNumber": "0x1312967",
      "gasUsed": "0xd19a",
      "effectiveGasPrice": "0xf6a4e",
      "from": "0x000ef5f21dc574226a06c76aae7060642a30eb74",
      "to": "0x15906379703940bc51a5881ad1a5fc481ebc8bb1",
      "contractAddress": null,
      "l1BaseFeeScalar": "0x1db0",
      "l1BlobBaseFee": "0x1",
      "l1BlobBaseFeeScalar": "0xd2730",
      "l1Fee": "0x6a8f8a",
      "l1GasPrice": "0x8c35b",
      "l1GasUsed": "0x640"
    },
    {
      "status": "0x1",
      "cumulativeGasUsed": "0x21a79a",
      "logs": [
        {
          "address": "0xba397efef3914ab025f7f5706fade61f240a9ebc",
          "topics": [
            "0xddf252ad1be2c89b69c2b068fc378daa952ba7f163c4a11628f55a4df523b3ef",
            "0x0000000000000000000000000000000000000000000000000000000000000000",
            "0x000000000000000000000000fff10350da68466f5abeccda400f9b79bb450caf"
          ],
          "data": "0x000000000000000000000000000000000000007e37be2022c0914b2680000000",
          "blockHash": "0xec89ae231f4958754cee1d07b880c185c2921b91dcfb9694b36703525285f1a4",
          "blockNumber": "0x1312967",
          "transactionHash": "0x74b76efdd3cf43ee5f20201a59cfabbd7abaaf9b3187a1a3ff17febd0d61e089",
          "transactionIndex": "0x5",
          "logIndex": "0x12",
          "removed": false
        }
      ],
      "logsBloom": "0x00000000000000000000000000020000000000000000000000000100000000000000000000010000000000000000000000000000000000000000000020000000000000000000000000000008004000000000000000000000000000000000000000000000020000000000000000000800000000000004000000000010000000000000000000000000000000000000000000000000000000000000000000000000000000000000000000000000000000000000000000000000000000000000000000000002000000000000000000000000000000000000000000000000000020000000000000000000000000000000000000000000000000000000000000000000",
      "type": "0x2",
      "transactionHash": "0x74b76efdd3cf43ee5f20201a59cfabbd7abaaf9b3187a1a3ff17febd0d61e089",
      "transactionIndex": "0x5",
      "blockHash": "0xec89ae231f4958754cee1d07b880c185c2921b91dcfb9694b36703525285f1a4",
      "blockNumber": "0x1312967",
      "gasUsed": "0xd19a",
      "effectiveGasPrice": "0xf6a4e",
      "from": "0x000ef5f21dc574226a06c76aae7060642a30eb74",
      "to": "0xba397efef3914ab025f7f5706fade61f240a9ebc",
      "contractAddress": null,
      "l1BaseFeeScalar": "0x1db0",
      "l1BlobBaseFee": "0x1",
      "l1BlobBaseFeeScalar": "0xd2730",
      "l1Fee": "0x6a8f8a",
      "l1GasPrice": "0x8c35b",
      "l1GasUsed": "0x640"
    }
  ],
  "libraries": [],
  "pending": [],
  "returns": {},
  "timestamp": 1731800699,
  "chain": 11155420,
  "commit": "f193f39"
}