{
  "transactions": [
    {
      "hash": "0x18a347aa4370db9a852e8d502a54555bf1adcc8cbd1a2f0350574269c5a00985",
      "transactionType": "CREATE",
      "contractName": "OmniSwapSpoke",
      "contractAddress": "0xdf19233e44d03641032abf20ab7b64d2c884003e",
      "function": null,
      "arguments": [
        "0x6EDCE65403992e310A62460808c4b910D972f10f"
      ],
      "transaction": {
        "from": "0x000ef5f21dc574226a06c76aae7060642a30eb74",
        "gas": "0xb731b",
        "value": "0x0",
        "input": "0x60803460cd57601f61097738819003918201601f19168301916001600160401b0383118484101760d15780849260209460405283398101031260cd57516001600160a01b0381169081900360cd57331560ba575f8054336001600160a01b0319821681178355604051939290916001600160a01b0316907f8be0079c531659141344cd1fd0a4f28419497f9722a3daafe3b4186f6b6457e09080a3600380546001600160a01b03191691909117905561089190816100e68239f35b631e4fbdf760e01b5f525f60045260245ffd5b5f80fd5b634e487b7160e01b5f52604160045260245ffdfe6080806040526004361015610012575f80fd5b5f905f3560e01c908163542524dd1461072e575080636c1a032c146106d3578063715018a61461067c5780637f5a7c7b146106545780638b02705d146106105780638da5cb5b146105e9578063b353aaa7146105c1578063c31c9c0714610599578063c7b8e15d14610579578063d0a102601461011f5763f2fde38b14610097575f80fd5b3461011c57602036600319011261011c576100b061075a565b6100b8610835565b6001600160a01b031680156101085781546001600160a01b03198116821783556001600160a01b03167f8be0079c531659141344cd1fd0a4f28419497f9722a3daafe3b4186f6b6457e08380a380f35b631e4fbdf760e01b82526004829052602482fd5b80fd5b60a03660031901126104c45761013361075a565b60443567ffffffffffffffff81116104c45761015390369060040161079c565b919061015d610786565b5060843567ffffffffffffffff81116104c45761017e90369060040161079c565b50506003546001600160a01b031633036105345782602c116104c457600c8101602090359184604c116104c457604b198501604c820167ffffffffffffffff82116104da57604051966101db602c198201601f19168601896107fb565b8288528488019336908201116104c4575f9285928537604b199088010101526040858051810103126104c457604061021561021c926107e7565b95016107e7565b60015460405163095ea7b360e01b81526001600160a01b0390911660048201525f19602482015290919081816044815f7315906379703940bc51a5881ad1a5fc481ebc8bb15af180156104cf57610519575b5060015460405163095ea7b360e01b81526001600160a01b0390911660048201525f19602482015281816044815f73ba397efef3914ab025f7f5706fade61f240a9ebc5af180156104cf576104ee575b5060025460405192906001600160a01b031660a0840167ffffffffffffffff8111858210176104da576040527315906379703940bc51a5881ad1a5fc481ebc8bb184528284019373ba397efef3914ab025f7f5706fade61f240a9ebc85526040810191610bb883526060820192607884526080830191825260018060a01b0360015416916401000276a46040516060810181811067ffffffffffffffff8211176104da5760405260018152888101906601c6bf52634000825260408101928352604051936040850198858a1067ffffffffffffffff8b11176104da576040998a525f808752868d018181529a5163088a742d60e21b815299516001600160a01b0390811660048c01529d518e1660248b0152965162ffffff1660448a01525160020b6064890152518b16608488015251151560a48701525160c48601525190971660e4840152955115156101048301529151151561012482015261016061014482015261016481019490945282908490815a610184925f91f180156104cf5761047f575b6040519384526001600160a01b039081169581169416927fd6fad783f6ce60919b6ee64c639cbdcedc0dd52b96be62e1df509272cdd4e4a29250a4005b8183813d83116104c8575b61049481836107fb565b810103126104c4577fd6fad783f6ce60919b6ee64c639cbdcedc0dd52b96be62e1df509272cdd4e4a29250610442565b5f80fd5b503d61048a565b6040513d5f823e3d90fd5b634e487b7160e01b5f52604160045260245ffd5b61050d90823d8411610512575b61050581836107fb565b81019061081d565b6102be565b503d6104fb565b61052f90823d84116105125761050581836107fb565b61026e565b60405162461bcd60e51b815260206004820152601c60248201527f4f6e6c79204c5a20656e64706f696e742063616e20636f6d706f7365000000006044820152606490fd5b346104c4575f3660031901126104c45760206401000276a4604051908152f35b346104c4575f3660031901126104c4576001546040516001600160a01b039091168152602090f35b346104c4575f3660031901126104c4576003546040516001600160a01b039091168152602090f35b346104c4575f3660031901126104c4575f546040516001600160a01b039091168152602090f35b346104c45760403660031901126104c457604061063c61062e61075a565b610636610770565b906107ca565b82516001600160a01b03928316815291166020820152f35b346104c4575f3660031901126104c4576002546040516001600160a01b039091168152602090f35b346104c4575f3660031901126104c457610694610835565b5f80546001600160a01b0319811682556001600160a01b03167f8be0079c531659141344cd1fd0a4f28419497f9722a3daafe3b4186f6b6457e08280a3005b346104c45760403660031901126104c4576106ec61075a565b6106f4610770565b906106fd610835565b600180546001600160a01b039283166001600160a01b03199182161790915560028054939092169216919091179055005b346104c4575f3660031901126104c4578073fffd8963efd1fc6a506488495d951d5263988d2560209252f35b600435906001600160a01b03821682036104c457565b602435906001600160a01b03821682036104c457565b606435906001600160a01b03821682036104c457565b9181601f840112156104c45782359167ffffffffffffffff83116104c457602083818601950101116104c457565b6001600160a01b03918216929116828111156107e4579190565b90565b51906001600160a01b03821682036104c457565b90601f8019910116810190811067ffffffffffffffff8211176104da57604052565b908160209103126104c4575180151581036104c45790565b5f546001600160a01b0316330361084857565b63118cdaa760e01b5f523360045260245ffdfea2646970667358221220a046232431de2090c61834b3f9c26a9bc9955789f27e203d49158a814e42699264736f6c634300081a00330000000000000000000000006edce65403992e310a62460808c4b910d972f10f",
        "nonce": "0x7b",
        "chainId": "0xaa37dc"
      },
      "additionalContracts": [],
      "isFixedGasLimit": false
    },
    {
      "hash": "0xb1b8b466ec7d39c30360c3169aa53671fc6ad7903fd9087c2807c5bb7b19c4be",
      "transactionType": "CALL",
      "contractName": "OmniSwapSpoke",
      "contractAddress": "0xdf19233e44d03641032abf20ab7b64d2c884003e",
      "function": "configurePool(address,address)",
      "arguments": [
        "0x69801C169647Ad125707Dd40096D4EDC20Bb521a",
        "0xBbd735DB53cE42a7423B0861864dAD6253588040"
      ],
      "transaction": {
        "from": "0x000ef5f21dc574226a06c76aae7060642a30eb74",
        "to": "0xdf19233e44d03641032abf20ab7b64d2c884003e",
        "gas": "0x171fb",
        "value": "0x0",
        "input": "0x6c1a032c00000000000000000000000069801c169647ad125707dd40096d4edc20bb521a000000000000000000000000bbd735db53ce42a7423b0861864dad6253588040",
        "nonce": "0x7c",
        "chainId": "0xaa37dc"
      },
      "additionalContracts": [],
      "isFixedGasLimit": false
    },
    {
      "hash": "0x3772267a906913ec35e954b77c77cb254f26be083cb405e8c21f010f512c8334",
      "transactionType": "CALL",
      "contractName": null,
      "contractAddress": "0xba397efef3914ab025f7f5706fade61f240a9ebc",
      "function": "mint(address,uint256)",
      "arguments": [
        "0xDf19233E44d03641032abf20aB7B64D2C884003E",
        "10000000000000000000000000000000"
      ],
      "transaction": {
        "from": "0x000ef5f21dc574226a06c76aae7060642a30eb74",
        "to": "0xba397efef3914ab025f7f5706fade61f240a9ebc",
        "gas": "0x12171",
        "value": "0x0",
        "input": "0x40c10f19000000000000000000000000df19233e44d03641032abf20ab7b64d2c884003e000000000000000000000000000000000000007e37be2022c0914b2680000000",
        "nonce": "0x7d",
        "chainId": "0xaa37dc"
      },
      "additionalContracts": [],
      "isFixedGasLimit": false
    }
  ],
  "receipts": [
    {
      "status": "0x1",
      "cumulativeGasUsed": "0x28af50",
      "logs": [
        {
          "address": "0xdf19233e44d03641032abf20ab7b64d2c884003e",
          "topics": [
            "0x8be0079c531659141344cd1fd0a4f28419497f9722a3daafe3b4186f6b6457e0",
            "0x0000000000000000000000000000000000000000000000000000000000000000",
            "0x000000000000000000000000000ef5f21dc574226a06c76aae7060642a30eb74"
          ],
          "data": "0x",
          "blockHash": "0xe065cf9e6748b8589336f4209ad5b6f0879c2744832e2eb880462b90a97c1c50",
          "blockNumber": "0x1311f7d",
          "transactionHash": "0x18a347aa4370db9a852e8d502a54555bf1adcc8cbd1a2f0350574269c5a00985",
          "transactionIndex": "0x4",
          "logIndex": "0x1e",
          "removed": false
        }
      ],
      "logsBloom": "0x00000000000000000000000000000000000000000000000000800000000000000000000000020000000000000000000000000000000000000000000000000000000000000000000000000000000100000001000000000000000000000000000000000000020000000000000400000800000000000000000000000000000000400000000000000000000000000200000000000000000000000000000000000000000000000000000000000000000000000000000000000000000001000000000000000000000000000000000000000000000000000000000000000000040020000000000000000000000000000000000000000000000000000000000000000000",
      "type": "0x2",
      "transactionHash": "0x18a347aa4370db9a852e8d502a54555bf1adcc8cbd1a2f0350574269c5a00985",
      "transactionIndex": "0x4",
      "blockHash": "0xe065cf9e6748b8589336f4209ad5b6f0879c2744832e2eb880462b90a97c1c50",
      "blockNumber": "0x1311f7d",
      "gasUsed": "0x8ceb3",
      "effectiveGasPrice": "0xf6a4f",
      "from": "0x000ef5f21dc574226a06c76aae7060642a30eb74",
      "to": null,
      "contractAddress": "0xdf19233e44d03641032abf20ab7b64d2c884003e",
      "l1BaseFeeScalar": "0x1db0",
      "l1BlobBaseFee": "0x1",
      "l1BlobBaseFeeScalar": "0xd2730",
      "l1Fee": "0x9cee2e8",
      "l1GasPrice": "0xe16ae",
      "l1GasUsed": "0x5b99"
    },
    {
      "status": "0x1",
      "cumulativeGasUsed": "0x29bb2d",
      "logs": [],
      "logsBloom": "0x00000000000000000000000000000000000000000000000000000000000000000000000000000000000000000000000000000000000000000000000000000000000000000000000000000000000000000000000000000000000000000000000000000000000000000000000000000000000000000000000000000000000000000000000000000000000000000000000000000000000000000000000000000000000000000000000000000000000000000000000000000000000000000000000000000000000000000000000000000000000000000000000000000000000000000000000000000000000000000000000000000000000000000000000000000000",
      "type": "0x2",
      "transactionHash": "0xb1b8b466ec7d39c30360c3169aa53671fc6ad7903fd9087c2807c5bb7b19c4be",
      "transactionIndex": "0x5",
      "blockHash": "0xe065cf9e6748b8589336f4209ad5b6f0879c2744832e2eb880462b90a97c1c50",
      "blockNumber": "0x1311f7d",
      "gasUsed": "0x10bdd",
      "effectiveGasPrice": "0xf6a4f",
      "from": "0x000ef5f21dc574226a06c76aae7060642a30eb74",
      "to": "0xdf19233e44d03641032abf20ab7b64d2c884003e",
      "contractAddress": null,
      "l1BaseFeeScalar": "0x1db0",
      "l1BlobBaseFee": "0x1",
      "l1BlobBaseFeeScalar": "0xd2730",
      "l1Fee": "0xab518f",
      "l1GasPrice": "0xe16ae",
      "l1GasUsed": "0x640"
    },
    {
      "status": "0x1",
      "cumulativeGasUsed": "0x2a8cbb",
      "logs": [
        {
          "address": "0xba397efef3914ab025f7f5706fade61f240a9ebc",
          "topics": [
            "0xddf252ad1be2c89b69c2b068fc378daa952ba7f163c4a11628f55a4df523b3ef",
            "0x0000000000000000000000000000000000000000000000000000000000000000",
            "0x000000000000000000000000df19233e44d03641032abf20ab7b64d2c884003e"
          ],
          "data": "0x000000000000000000000000000000000000007e37be2022c0914b2680000000",
          "blockHash": "0xe065cf9e6748b8589336f4209ad5b6f0879c2744832e2eb880462b90a97c1c50",
          "blockNumber": "0x1311f7d",
          "transactionHash": "0x3772267a906913ec35e954b77c77cb254f26be083cb405e8c21f010f512c8334",
          "transactionIndex": "0x6",
          "logIndex": "0x1f",
          "removed": false
        }
      ],
      "logsBloom": "0x00000000000000000000000000000000000000000000000000000000000000000000000000010000000000000000000000000001000000000000000020000000000000000000000000000008004000000000000000000000000000000000000000000000020000000000040000000800000000000000000000000010000000000000000000000000000000000000000000000000000000000000000000000000000000000000000000000000000000000000000000000000000000000000000000000002000000000000000000000001000000000000000000000000000020000000000000000000000000000000000000000000000000000000000000000000",
      "type": "0x2",
      "transactionHash": "0x3772267a906913ec35e954b77c77cb254f26be083cb405e8c21f010f512c8334",
      "transactionIndex": "0x6",
      "blockHash": "0xe065cf9e6748b8589336f4209ad5b6f0879c2744832e2eb880462b90a97c1c50",
      "blockNumber": "0x1311f7d",
      "gasUsed": "0xd18e",
      "effectiveGasPrice": "0xf6a4f",
      "from": "0x000ef5f21dc574226a06c76aae7060642a30eb74",
      "to": "0xba397efef3914ab025f7f5706fade61f240a9ebc",
      "contractAddress": null,
      "l1BaseFeeScalar": "0x1db0",
      "l1BlobBaseFee": "0x1",
      "l1BlobBaseFeeScalar": "0xd2730",
      "l1Fee": "0xab518f",
      "l1GasPrice": "0xe16ae",
      "l1GasUsed": "0x640"
    }
  ],
  "libraries": [],
  "pending": [],
  "returns": {},
  "timestamp": 1731795624,
  "chain": 11155420,
  "commit": "f193f39"
}