{
  "transactions": [
    {
      "hash": "0xe1e0a29fcb0bbf60b4812d4f668082a58071b960454b4349ae755be004162dc4",
      "transactionType": "CREATE",
      "contractName": "OmniSwapHub",
      "contractAddress": "0xaef9f30d2e16da364af2b9d396db92f17eb46a89",
      "function": null,
      "arguments": [
        "0x000ef5F21dC574226A06C76AAE7060642A30eB74"
      ],
      "transaction": {
        "from": "0x000ef5f21dc574226a06c76aae7060642a30eb74",
        "gas": "0xca03a",
        "value": "0x0",
        "input": "0x60803460b857601f610ac038819003918201601f19168301916001600160401b0383118484101760bc5780849260209460405283398101031260b857516001600160a01b0381169081900360b857801560a5575f80546001600160a01b031981168317825560405192916001600160a01b03909116907f8be0079c531659141344cd1fd0a4f28419497f9722a3daafe3b4186f6b6457e09080a36109ef90816100d18239f35b631e4fbdf760e01b5f525f60045260245ffd5b5f80fd5b634e487b7160e01b5f52604160045260245ffdfe60806040526004361015610011575f80fd5b5f3560e01c80632161b35b146100745780636196dfc11461006f578063715018a61461006a5780638da5cb5b14610065578063d4b94d2b146100605763f2fde38b1461005b575f80fd5b61041f565b6103e2565b6103bb565b610364565b610308565b60803660031901126102b2576100886102b6565b6100906102cc565b6100986102e2565b6370a0823160e01b608090815233608452606435936001600160a01b031690602090602481845afa801561024b57845f9161027d575b6100d991101561051f565b6040516323b872dd60e01b815233600482015230602482015260448101859052926020846064815f865af190811561024b5761020f9560c09561015b93610250575b5061016961013761013261012d610743565b61075f565b61085f565b604080513360208201526001600160a01b0390951690850152929384906060820190565b03601f1981018552846104e0565b6101a361019761019761018a8863ffffffff165f52600160205260405f2090565b546001600160a01b031690565b6001600160a01b031690565b6101ba6101ae61058f565b63ffffffff9097168752565b60208601528060408601526060850152608084015260a08301526101dc6105af565b838301526101e86105a0565b3481525f602082015260405180958194829363c7c7f5b360e01b8452339160048501610694565b039134905af1801561024b5761022157005b6102429060c03d60c011610244575b61023a81836104e0565b8101906105fc565b005b503d610230565b610514565b6102719060203d602011610276575b61026981836104e0565b810190610577565b61011b565b503d61025f565b50506020843d6020116102aa575b6102a38261029b6100d9946104b8565b608001610502565b91506100ce565b3d915061028b565b5f80fd5b600435906001600160a01b03821682036102b257565b602435906001600160a01b03821682036102b257565b6044359063ffffffff821682036102b257565b6004359063ffffffff821682036102b257565b346102b25760403660031901126102b2576103216102f5565b63ffffffff61032e6102cc565b91610337610921565b165f90815260016020526040902080546001600160a01b0319166001600160a01b03909216919091179055005b346102b2575f3660031901126102b25761037c610921565b5f80546001600160a01b0319811682556001600160a01b03167f8be0079c531659141344cd1fd0a4f28419497f9722a3daafe3b4186f6b6457e08280a3005b346102b2575f3660031901126102b2575f546040516001600160a01b039091168152602090f35b346102b25760203660031901126102b25763ffffffff6104006102f5565b165f526001602052602060018060a01b0360405f205416604051908152f35b346102b25760203660031901126102b2576104386102b6565b610440610921565b6001600160a01b03168015610491575f80546001600160a01b03198116831782556001600160a01b0316907f8be0079c531659141344cd1fd0a4f28419497f9722a3daafe3b4186f6b6457e09080a3005b631e4fbdf760e01b5f525f60045260245ffd5b634e487b7160e01b5f52604160045260245ffd5b601f80199101166080016080811067ffffffffffffffff8211176104db57604052565b6104a4565b90601f8019910116810190811067ffffffffffffffff8211176104db57604052565b602090607f1901126102b25760805190565b6040513d5f823e3d90fd5b1561052657565b60405162461bcd60e51b815260206004820152602360248201527f496e73756666696369656e742042616c616e6365206f6620496e70757420546f60448201526235b2b760e91b6064820152608490fd5b908160209103126102b2575180151581036102b25790565b6040519061059e60e0836104e0565b565b6040519061059e6040836104e0565b604051906105be6020836104e0565b5f8252565b91908260409103126102b2576040516040810181811067ffffffffffffffff8211176104db576040526020808294805184520151910152565b919082810360c081126102b2576080136102b257604051906060820182811067ffffffffffffffff8211176104db5760405283518252602084015167ffffffffffffffff811681036102b25782608091602061066d95015261066183604088016105c3565b604082015294016105c3565b90565b805180835260209291819084018484015e5f828201840152601f01601f1916010190565b60609061073361071e61059e959796946080845263ffffffff8151166080850152602081015160a0850152604081015160c08501528481015160e085015260c06107096106f2608084015160e0610100890152610160880190610670565b60a0840151878203607f1901610120890152610670565b910151848203607f1901610140860152610670565b96602083019060208091805184520151910152565b6001600160a01b03909216910152565b604051600360f01b60208201526002815261066d6022826104e0565b600361ffff61076d8361095b565b160361085357604051610c3560861b6020820152601081526107906030826104e0565b600361ffff61079e8461095b565b160361083457805161ffff811161081d5761ffff60019116019161ffff83116108185761080a61066d9260046107de9560405196879560208701906109a7565b600160f81b80825260f09290921b6001600160f01b0319166001820152600381019190915201906109a7565b03601f1981018352826104e0565b610947565b6306dfcc6560e41b5f52601060045260245260445ffd5b61ffff6108408361095b565b633a51740d60e01b5f521660045260245ffd5b61084061ffff9161095b565b600361ffff61086d8361095b565b1603610853576040515f602082015261249f60861b602280830191909152642386f26fc1608f1b603283015281526108a66042826104e0565b600361ffff6108b48461095b565b160361083457805161ffff811161081d5761ffff60019116019161ffff83116108185761080a61066d9260046108f49560405196879560208701906109a7565b600160f81b815260f09190911b6001600160f01b0319166001820152600360f81b600382015201906109a7565b5f546001600160a01b0316330361093457565b63118cdaa760e01b5f523360045260245ffd5b634e487b7160e01b5f52601160045260245ffd5b600281511061096b576002015190565b60405162461bcd60e51b8152602060048201526014602482015273746f55696e7431365f6f75744f66426f756e647360601b6044820152606490fd5b805191908290602001825e015f81529056fea26469706673582212200684b7154f331a47087ab14dbca4c8c2d98806c68e16bf6d2a3ea6d8cc1243dc64736f6c634300081a0033000000000000000000000000000ef5f21dc574226a06c76aae7060642a30eb74",
        "nonce": "0xd9",
        "chainId": "0x66eee"
      },
      "additionalContracts": [],
      "isFixedGasLimit": false
    },
    {
      "hash": "0x5ff5037d9b3bf8d5a78e320a4b4c2fc6f35dace0810ef89d53963e404ec3a682",
      "transactionType": "CALL",
      "contractName": "OmniSwapHub",
      "contractAddress": "0xaef9f30d2e16da364af2b9d396db92f17eb46a89",
      "function": "setSwapper(uint32,address)",
      "arguments": [
        "40232",
        "0x11d1e6FAb5be8365a9e2b09b7fbce17Eb2f85425"
      ],
      "transaction": {
        "from": "0x000ef5f21dc574226a06c76aae7060642a30eb74",
        "to": "0xaef9f30d2e16da364af2b9d396db92f17eb46a89",
        "gas": "0x6e73",
        "value": "0x0",
        "input": "0x6196dfc10000000000000000000000000000000000000000000000000000000000009d2800000000000000000000000011d1e6fab5be8365a9e2b09b7fbce17eb2f85425",
        "nonce": "0xda",
        "chainId": "0x66eee"
      },
      "additionalContracts": [],
      "isFixedGasLimit": false
    },
    {
      "hash": "0x4300fc54d6f55a526aaf0674c70c2f68dc0f372be772cc77cced505500537857",
      "transactionType": "CALL",
      "contractName": null,
      "contractAddress": "0x6fd36fd6d6f1d8a5e43b33b1881fd4ef167b6588",
      "function": "approve(address,uint256)",
      "arguments": [
        "0xaEf9f30d2E16DA364AF2B9d396db92F17EB46a89",
        "1000000000000000"
      ],
      "transaction": {
        "from": "0x000ef5f21dc574226a06c76aae7060642a30eb74",
        "to": "0x6fd36fd6d6f1d8a5e43b33b1881fd4ef167b6588",
        "gas": "0xeda0",
        "value": "0x0",
        "input": "0x095ea7b3000000000000000000000000aef9f30d2e16da364af2b9d396db92f17eb46a8900000000000000000000000000000000000000000000000000038d7ea4c68000",
        "nonce": "0xdb",
        "chainId": "0x66eee"
      },
      "additionalContracts": [],
      "isFixedGasLimit": false
    },
    {
      "hash": "0x5f9386c0a0e7366a50ee8e1c0e96de77c4bc37c0178f92df0a49ef30ea658149",
      "transactionType": "CALL",
      "contractName": "OmniSwapHub",
      "contractAddress": "0xaef9f30d2e16da364af2b9d396db92f17eb46a89",
      "function": "swapTokenOn(address,address,uint32,uint256)",
      "arguments": [
        "0x6fD36fd6D6f1D8a5E43B33b1881fd4EF167b6588",
        "0xbA397eFEF3914aB025F7f5706fADE61f240A9EbC",
        "40232",
        "1000000000000000"
      ],
      "transaction": {
        "from": "0x000ef5f21dc574226a06c76aae7060642a30eb74",
        "to": "0xaef9f30d2e16da364af2b9d396db92f17eb46a89",
        "gas": "0x7231",
        "value": "0x6a94d74f430000",
        "input": "0x2161b35b0000000000000000000000006fd36fd6d6f1d8a5e43b33b1881fd4ef167b6588000000000000000000000000ba397efef3914ab025f7f5706fade61f240a9ebc0000000000000000000000000000000000000000000000000000000000009d2800000000000000000000000000000000000000000000000000038d7ea4c68000",
        "nonce": "0xdc",
        "chainId": "0x66eee"
      },
      "additionalContracts": [],
      "isFixedGasLimit": false
    }
  ],
  "receipts": [
    {
      "status": "0x1",
      "cumulativeGasUsed": "0x99e3a",
      "logs": [
        {
          "address": "0xaef9f30d2e16da364af2b9d396db92f17eb46a89",
          "topics": [
            "0x8be0079c531659141344cd1fd0a4f28419497f9722a3daafe3b4186f6b6457e0",
            "0x0000000000000000000000000000000000000000000000000000000000000000",
            "0x000000000000000000000000000ef5f21dc574226a06c76aae7060642a30eb74"
          ],
          "data": "0x",
          "blockHash": "0xe0eb8b530bdfa3f0c13a18feaa97686736c830cbb32215711c87dfe042face38",
          "blockNumber": "0x5d6d9e2",
          "transactionHash": "0xe1e0a29fcb0bbf60b4812d4f668082a58071b960454b4349ae755be004162dc4",
          "transactionIndex": "0x1",
          "logIndex": "0x0",
          "removed": false
        }
      ],
      "logsBloom": "0x00000000000000000000000000000000000000000000000000800000000000000000000000020000000000000000000000000000000000000000000000000000000000000000000000000000000000000001000000000000000000000000000000000000020000000000000400000800000000000000000000000000000000400000008000000000000000000008000000000000000000000000000000000000000000000000000000000000000000000000000000000000000000000000000000000000000000000000000000000000000000000000000000000000040020000008000000000000000000000000000000000000000000000000000000000000",
      "type": "0x2",
      "transactionHash": "0xe1e0a29fcb0bbf60b4812d4f668082a58071b960454b4349ae755be004162dc4",
      "transactionIndex": "0x1",
      "blockHash": "0xe0eb8b530bdfa3f0c13a18feaa97686736c830cbb32215711c87dfe042face38",
      "blockNumber": "0x5d6d9e2",
      "gasUsed": "0x99e3a",
      "effectiveGasPrice": "0x5f5e100",
      "from": "0x000ef5f21dc574226a06c76aae7060642a30eb74",
      "to": null,
      "contractAddress": "0xaef9f30d2e16da364af2b9d396db92f17eb46a89",
      "gasUsedForL1": "0x0",
      "l1BlockNumber": "0x6c3509"
    },
    {
      "status": "0x1",
      "cumulativeGasUsed": "0xb4c4",
      "logs": [],
      "logsBloom": "0x00000000000000000000000000000000000000000000000000000000000000000000000000000000000000000000000000000000000000000000000000000000000000000000000000000000000000000000000000000000000000000000000000000000000000000000000000000000000000000000000000000000000000000000000000000000000000000000000000000000000000000000000000000000000000000000000000000000000000000000000000000000000000000000000000000000000000000000000000000000000000000000000000000000000000000000000000000000000000000000000000000000000000000000000000000000",
      "type": "0x2",
      "transactionHash": "0x5ff5037d9b3bf8d5a78e320a4b4c2fc6f35dace0810ef89d53963e404ec3a682",
      "transactionIndex": "0x1",
      "blockHash": "0x8840c91d2042ad16bc427e272f8528fb08d0b311339267981d62530c3ed99ae3",
      "blockNumber": "0x5d6d9e6",
      "gasUsed": "0xb4c4",
      "effectiveGasPrice": "0x5f5e100",
      "from": "0x000ef5f21dc574226a06c76aae7060642a30eb74",
      "to": "0xaef9f30d2e16da364af2b9d396db92f17eb46a89",
      "contractAddress": null,
      "gasUsedForL1": "0x0",
      "l1BlockNumber": "0x6c3509"
    },
    {
      "status": "0x1",
      "cumulativeGasUsed": "0x5f5e2",
      "logs": [
        {
          "address": "0x6fd36fd6d6f1d8a5e43b33b1881fd4ef167b6588",
          "topics": [
            "0x8c5be1e5ebec7d5bd14f71427d1e84f3dd0314c0f7b2291e5b200ac8c7c3b925",
            "0x000000000000000000000000000ef5f21dc574226a06c76aae7060642a30eb74",
            "0x000000000000000000000000aef9f30d2e16da364af2b9d396db92f17eb46a89"
          ],
          "data": "0x00000000000000000000000000000000000000000000000000038d7ea4c68000",
          "blockHash": "0xa077bc0d9860fda17a506c98677f134ca664495c2fc486fe66bc03291fd5a710",
          "blockNumber": "0x5d6d9ed",
          "transactionHash": "0x4300fc54d6f55a526aaf0674c70c2f68dc0f372be772cc77cced505500537857",
          "transactionIndex": "0x3",
          "logIndex": "0x3",
          "removed": false
        }
      ],
      "logsBloom": "0x00000000000000000000000000000004000000000000000000004000000000000000000000020000000000000000000000000000000000000000000000200000000000000000010000000000000000000000000000000000000000000000000000000000000000000000000400000000000000000000000000000000000000000000000000000000000000000000000000000000000000000000000000000000020000000000000000000000000000000000000000000000000000000000000000000000000000000000000000000000000000000000000000008000040000000010000800000000000000000000000000000000000000800000000000000000",
      "type": "0x2",
      "transactionHash": "0x4300fc54d6f55a526aaf0674c70c2f68dc0f372be772cc77cced505500537857",
      "transactionIndex": "0x3",
      "blockHash": "0xa077bc0d9860fda17a506c98677f134ca664495c2fc486fe66bc03291fd5a710",
      "blockNumber": "0x5d6d9ed",
      "gasUsed": "0xb54b",
      "effectiveGasPrice": "0x5f5e100",
      "from": "0x000ef5f21dc574226a06c76aae7060642a30eb74",
      "to": "0x6fd36fd6d6f1d8a5e43b33b1881fd4ef167b6588",
      "contractAddress": null,
      "gasUsedForL1": "0x0",
      "l1BlockNumber": "0x6c3509"
    },
    {
      "status": "0x1",
      "cumulativeGasUsed": "0x401fe",
      "logs": [
        {
          "address": "0x6fd36fd6d6f1d8a5e43b33b1881fd4ef167b6588",
          "topics": [
            "0xddf252ad1be2c89b69c2b068fc378daa952ba7f163c4a11628f55a4df523b3ef",
            "0x000000000000000000000000000ef5f21dc574226a06c76aae7060642a30eb74",
            "0x000000000000000000000000aef9f30d2e16da364af2b9d396db92f17eb46a89"
          ],
          "data": "0x00000000000000000000000000000000000000000000000000038d7ea4c68000",
          "blockHash": "0x703032b9968abb670ea15b4a9ec597bf53fc382be0d467e8f09fa80b29e65f0f",
          "blockNumber": "0x5d6d9f3",
          "transactionHash": "0x5f9386c0a0e7366a50ee8e1c0e96de77c4bc37c0178f92df0a49ef30ea658149",
          "transactionIndex": "0x1",
          "logIndex": "0x0",
          "removed": false
        },
        {
          "address": "0x6fd36fd6d6f1d8a5e43b33b1881fd4ef167b6588",
          "topics": [
            "0xddf252ad1be2c89b69c2b068fc378daa952ba7f163c4a11628f55a4df523b3ef",
            "0x000000000000000000000000aef9f30d2e16da364af2b9d396db92f17eb46a89",
            "0x0000000000000000000000000000000000000000000000000000000000000000"
          ],
          "data": "0x00000000000000000000000000000000000000000000000000038d7ea4c68000",
          "blockHash": "0x703032b9968abb670ea15b4a9ec597bf53fc382be0d467e8f09fa80b29e65f0f",
          "blockNumber": "0x5d6d9f3",
          "transactionHash": "0x5f9386c0a0e7366a50ee8e1c0e96de77c4bc37c0178f92df0a49ef30ea658149",
          "transactionIndex": "0x1",
          "logIndex": "0x1",
          "removed": false
        },
        {
          "address": "0x4f7cd4da19abb31b0ec98b9066b9e857b1bf9c0e",
          "topics": [
            "0x61ed099e74a97a1d7f8bb0952a88ca8b7b8ebd00c126ea04671f92a81213318a"
          ],
          "data": "0x0000000000000000000000005df3a1cebbd9c8ba7f8df51fd632a9aef830889700000000000000000000000000000000000000000000000000158d82b5077f84",
          "blockHash": "0x703032b9968abb670ea15b4a9ec597bf53fc382be0d467e8f09fa80b29e65f0f",
          "blockNumber": "0x5d6d9f3",
          "transactionHash": "0x5f9386c0a0e7366a50ee8e1c0e96de77c4bc37c0178f92df0a49ef30ea658149",
          "transactionIndex": "0x1",
          "logIndex": "0x2",
          "removed": false
        },
        {
          "address": "0x4f7cd4da19abb31b0ec98b9066b9e857b1bf9c0e",
          "topics": [
            "0x07ea52d82345d6e838192107d8fd7123d9c2ec8e916cd0aad13fd2b60db24644"
          ],
          "data": "0x000000000000000000000000000000000000000000000000000000000000006000000000000000000000000000000000000000000000000000000000000000a000000000000000000000000000000000000000000000000000000000000000c0000000000000000000000000000000000000000000000000000000000000000100000000000000000000000053f488e93b4f1b60e8e83aa374dbe1780a1ee8a80000000000000000000000000000000000000000000000000000000000000000000000000000000000000000000000000000000000000000000000000000000100000000000000000000000000000000000000000000000000000312813e0532",
          "blockHash": "0x703032b9968abb670ea15b4a9ec597bf53fc382be0d467e8f09fa80b29e65f0f",
          "blockNumber": "0x5d6d9f3",
          "transactionHash": "0x5f9386c0a0e7366a50ee8e1c0e96de77c4bc37c0178f92df0a49ef30ea658149",
          "transactionIndex": "0x1",
          "logIndex": "0x3",
          "removed": false
        },
        {
          "address": "0x6edce65403992e310a62460808c4b910d972f10f",
          "topics": [
            "0x1ab700d4ced0c005b164c0f789fd09fcbb0156d4c2041b8a3bfbcd961cd1567f"
          ],
          "data": "0x000000000000000000000000000000000000000000000000000000000000006000000000000000000000000000000000000000000000000000000000000001800000000000000000000000004f7cd4da19abb31b0ec98b9066b9e857b1bf9c0e00000000000000000000000000000000000000000000000000000000000000f901000000000000000600009d270000000000000000000000006fd36fd6d6f1d8a5e43b33b1881fd4ef167b658800009d2800000000000000000000000015906379703940bc51a5881ad1a5fc481ebc8bb1cc7e5724327e38d2c3c77cdc0055d75819e7717c050329f2506e6374e206c59300000000000000000000000011d1e6fab5be8365a9e2b09b7fbce17eb2f8542500000000000003e8000000000000000000000000aef9f30d2e16da364af2b9d396db92f17eb46a89000000000000000000000000000ef5f21dc574226a06c76aae7060642a30eb74000000000000000000000000ba397efef3914ab025f7f5706fade61f240a9ebc00000000000000000000000000000000000000000000000000000000000000000000000000003c00030100110100000000000000000000000000030d40010023030000000000000000000000000000000927c000000000000000000011c37937e0800000000000",
          "blockHash": "0x703032b9968abb670ea15b4a9ec597bf53fc382be0d467e8f09fa80b29e65f0f",
          "blockNumber": "0x5d6d9f3",
          "transactionHash": "0x5f9386c0a0e7366a50ee8e1c0e96de77c4bc37c0178f92df0a49ef30ea658149",
          "transactionIndex": "0x1",
          "logIndex": "0x4",
          "removed": false
        },
        {
          "address": "0x6fd36fd6d6f1d8a5e43b33b1881fd4ef167b6588",
          "topics": [
            "0x85496b760a4b7f8d66384b9df21b381f5d1b1e79f229a47aaf4c232edc2fe59a",
            "0xcc7e5724327e38d2c3c77cdc0055d75819e7717c050329f2506e6374e206c593",
            "0x000000000000000000000000aef9f30d2e16da364af2b9d396db92f17eb46a89"
          ],
          "data": "0x0000000000000000000000000000000000000000000000000000000000009d2800000000000000000000000000000000000000000000000000038d7ea4c6800000000000000000000000000000000000000000000000000000038d7ea4c68000",
          "blockHash": "0x703032b9968abb670ea15b4a9ec597bf53fc382be0d467e8f09fa80b29e65f0f",
          "blockNumber": "0x5d6d9f3",
          "transactionHash": "0x5f9386c0a0e7366a50ee8e1c0e96de77c4bc37c0178f92df0a49ef30ea658149",
          "transactionIndex": "0x1",
          "logIndex": "0x5",
          "removed": false
        }
      ],
      "logsBloom": "0x00000000000000000000000000000004000000000000000000004000000000000000000000020000200000000000000000000000008020000000000000000000000002000000010000000008000000000000000000000000000000000000000000000000020000008200000400000800000000000000000000000010000000000000000000000020000000080000000000000000000400010000000000000000000000008000000000102000000000000000000000400000000440004000000000000002000000000000000080000000000000000000000000008000040020000000040800000000000000000000002000000000008000800000000000000000",
      "type": "0x2",
      "transactionHash": "0x5f9386c0a0e7366a50ee8e1c0e96de77c4bc37c0178f92df0a49ef30ea658149",
      "transactionIndex": "0x1",
      "blockHash": "0x703032b9968abb670ea15b4a9ec597bf53fc382be0d467e8f09fa80b29e65f0f",
      "blockNumber": "0x5d6d9f3",
      "gasUsed": "0x401fe",
      "effectiveGasPrice": "0x5f5e100",
      "from": "0x000ef5f21dc574226a06c76aae7060642a30eb74",
      "to": "0xaef9f30d2e16da364af2b9d396db92f17eb46a89",
      "contractAddress": null,
      "gasUsedForL1": "0x0",
      "l1BlockNumber": "0x6c3509"
    }
  ],
  "libraries": [],
  "pending": [],
  "returns": {},
  "timestamp": 1731794578,
  "chain": 421614,
  "commit": "f193f39"
}