{
  "transactions": [
    {
      "hash": "0xf69cbfc4f8457918b432a8e791c7b332b61392811a8ac1c8c022cc936146407c",
      "transactionType": "CREATE",
      "contractName": "OmniSwapHub",
      "contractAddress": "0x4e9de45c73d5808fc767c42fc6d80562979a5dc4",
      "function": null,
      "arguments": [
        "0x000ef5F21dC574226A06C76AAE7060642A30eB74"
      ],
      "transaction": {
        "from": "0x000ef5f21dc574226a06c76aae7060642a30eb74",
        "gas": "0xda5d8",
        "value": "0x0",
        "input": "0x608060405234801561001057600080fd5b50604051610bcd380380610bcd83398101604081905261002f916100be565b806001600160a01b03811661005e57604051631e4fbdf760e01b81526000600482015260240160405180910390fd5b6100678161006e565b50506100ee565b600080546001600160a01b038381166001600160a01b0319831681178455604051919092169283917f8be0079c531659141344cd1fd0a4f28419497f9722a3daafe3b4186f6b6457e09190a35050565b6000602082840312156100d057600080fd5b81516001600160a01b03811681146100e757600080fd5b9392505050565b610ad0806100fd6000396000f3fe6080604052600436106100555760003560e01c80632161b35b1461005a5780636196dfc11461006f578063715018a61461008f5780638da5cb5b146100a4578063d4b94d2b146100da578063f2fde38b14610110575b600080fd5b61006d610068366004610710565b610130565b005b34801561007b57600080fd5b5061006d61008a36600461075b565b6102ff565b34801561009b57600080fd5b5061006d61033d565b3480156100b057600080fd5b506000546001600160a01b03165b6040516001600160a01b03909116815260200160405180910390f35b3480156100e657600080fd5b506100be6100f536600461078e565b6001602052600090815260409020546001600160a01b031681565b34801561011c57600080fd5b5061006d61012b3660046107a9565b610351565b6040516323b872dd60e01b8152336004820152306024820152604481018290526001600160a01b038516906323b872dd906064016020604051808303816000875af1158015610183573d6000803e3d6000fd5b505050506040513d601f19601f820116820180604052508101906101a791906107c4565b5060006101f360006207a12060006101eb62030d4060006101e460408051600360f01b602082015281516002818303018152602290910190915290565b9190610394565b9291906103fc565b604080513360208083018290526001600160a01b03898116848601528451808503860181526101408501865263ffffffff8a1660608601818152600091825260018552878220548416608088015260a087018b905260c087018b905260e0870189905261010087018390528751808601895282815261012090970196909652865180880188523480825294810191909152955163c7c7f5b360e01b8152969750959394908b169363c7c7f5b3936102b1928792909190600401610836565b60c06040518083038185885af11580156102cf573d6000803e3d6000fd5b50505050506040513d601f19601f820116820180604052508101906102f4919061094f565b505050505050505050565b610307610446565b63ffffffff91909116600090815260016020526040902080546001600160a01b0319166001600160a01b03909216919091179055565b610345610446565b61034f6000610473565b565b610359610446565b6001600160a01b03811661038857604051631e4fbdf760e01b8152600060048201526024015b60405180910390fd5b61039181610473565b50565b60608360036103a48260006104c3565b61ffff16146103d8576103b88160006104c3565b604051633a51740d60e01b815261ffff909116600482015260240161037f565b60006103e48585610526565b90506103f28660018361059f565b9695505050505050565b606084600361040c8260006104c3565b61ffff1614610420576103b88160006104c3565b600061042d86868661060a565b905061043b8760038361059f565b979650505050505050565b6000546001600160a01b0316331461034f5760405163118cdaa760e01b815233600482015260240161037f565b600080546001600160a01b038381166001600160a01b0319831681178455604051919092169283917f8be0079c531659141344cd1fd0a4f28419497f9722a3daafe3b4186f6b6457e09190a35050565b60006104d08260026109fe565b835110156105175760405162461bcd60e51b8152602060048201526014602482015273746f55696e7431365f6f75744f66426f756e647360601b604482015260640161037f565b50818101600201515b92915050565b60606001600160801b0382161561056e57604080516001600160801b0319608086811b8216602084015285901b16603082015201604051602081830303815290604052610598565b6040516001600160801b0319608085901b1660208201526030016040516020818303038152906040525b9392505050565b60608360036105af8260006104c3565b61ffff16146105c3576103b88160006104c3565b8460016105d085516106ad565b6105db906001610a11565b86866040516020016105f1959493929190610a33565b6040516020818303038152906040529150509392505050565b60606001600160801b03821615610667576040516001600160f01b031960f086901b1660208201526001600160801b0319608085811b8216602284015284901b1660328201526042016040516020818303038152906040526106a5565b6040516001600160f01b031960f086901b1660208201526001600160801b0319608085901b1660228201526032016040516020818303038152906040525b949350505050565b600061ffff8211156106dc576040516306dfcc6560e41b8152601060048201526024810183905260440161037f565b5090565b80356001600160a01b03811681146106f757600080fd5b919050565b803563ffffffff811681146106f757600080fd5b6000806000806080858703121561072657600080fd5b61072f856106e0565b935061073d602086016106e0565b925061074b604086016106fc565b9396929550929360600135925050565b6000806040838503121561076e57600080fd5b610777836106fc565b9150610785602084016106e0565b90509250929050565b6000602082840312156107a057600080fd5b610598826106fc565b6000602082840312156107bb57600080fd5b610598826106e0565b6000602082840312156107d657600080fd5b8151801515811461059857600080fd5b60005b838110156108015781810151838201526020016107e9565b50506000910152565b600081518084526108228160208601602086016107e6565b601f01601f19169290920160200192915050565b6080815263ffffffff8451166080820152602084015160a0820152604084015160c0820152606084015160e08201526000608085015160e061010084015261088261016084018261080a565b905060a0860151607f1980858403016101208601526108a1838361080a565b925060c088015191508085840301610140860152506108c0828261080a565b925050506108db602083018580518252602090810151910152565b6001600160a01b0383166060830152949350505050565b60006040828403121561090457600080fd5b6040516040810181811067ffffffffffffffff8211171561093557634e487b7160e01b600052604160045260246000fd5b604052825181526020928301519281019290925250919050565b60008082840360c081121561096357600080fd5b608081121561097157600080fd5b506040516060810167ffffffffffffffff82821081831117156109a457634e487b7160e01b600052604160045260246000fd5b81604052855183526020860151915080821682146109c157600080fd5b5060208201526109d485604086016108f2565b6040820152915061078584608085016108f2565b634e487b7160e01b600052601160045260246000fd5b80820180821115610520576105206109e8565b61ffff818116838216019080821115610a2c57610a2c6109e8565b5092915050565b60008651610a45818460208b016107e6565b6001600160f81b031960f888811b82169285019283526001600160f01b031960f089901b16600184015286901b1660038201528351610a8b8160048401602088016107e6565b0160040197965050505050505056fea2646970667358221220c6e106b8291a308f447bb9a98b097680cad234e2f3fc4e893bb9f495778986bb64736f6c63430008160033000000000000000000000000000ef5f21dc574226a06c76aae7060642a30eb74",
        "nonce": "0xc3",
        "chainId": "0x66eee"
      },
      "additionalContracts": [],
      "isFixedGasLimit": false
    },
    {
      "hash": "0xad86220c4ca644daa87ff636b2636d03c41560197315a6be66caa5fce27c9607",
      "transactionType": "CALL",
      "contractName": "OmniSwapHub",
      "contractAddress": "0x4e9de45c73d5808fc767c42fc6d80562979a5dc4",
      "function": "setSwapper(uint32,address)",
      "arguments": [
        "40232",
        "0x64e8C6db52bC99c39d7c2DEB0F9CD52848a5772b"
      ],
      "transaction": {
        "from": "0x000ef5f21dc574226a06c76aae7060642a30eb74",
        "to": "0x4e9de45c73d5808fc767c42fc6d80562979a5dc4",
        "gas": "0x6fd8",
        "value": "0x0",
        "input": "0x6196dfc10000000000000000000000000000000000000000000000000000000000009d2800000000000000000000000064e8c6db52bc99c39d7c2deb0f9cd52848a5772b",
        "nonce": "0xc4",
        "chainId": "0x66eee"
      },
      "additionalContracts": [],
      "isFixedGasLimit": false
    },
    {
      "hash": "0xae1f54973326397a1944e3cfc320b7795a2a6fa437107bd33a3a008ac2145d26",
      "transactionType": "CALL",
      "contractName": null,
      "contractAddress": "0x6fd36fd6d6f1d8a5e43b33b1881fd4ef167b6588",
      "function": "approve(address,uint256)",
      "arguments": [
        "0x4e9dE45c73D5808fC767c42fC6D80562979A5DC4",
        "1000000000000000"
      ],
      "transaction": {
        "from": "0x000ef5f21dc574226a06c76aae7060642a30eb74",
        "to": "0x6fd36fd6d6f1d8a5e43b33b1881fd4ef167b6588",
        "gas": "0xef05",
        "value": "0x0",
        "input": "0x095ea7b30000000000000000000000004e9de45c73d5808fc767c42fc6d80562979a5dc400000000000000000000000000000000000000000000000000038d7ea4c68000",
        "nonce": "0xc5",
        "chainId": "0x66eee"
      },
      "additionalContracts": [],
      "isFixedGasLimit": false
    },
    {
      "hash": "0x6cf5235565a984f66c982ceaa80f77249137b8428479f24d92ddad7ccc7790f2",
      "transactionType": "CALL",
      "contractName": "OmniSwapHub",
      "contractAddress": "0x4e9de45c73d5808fc767c42fc6d80562979a5dc4",
      "function": "swapTokenOn(address,address,uint32,uint256)",
      "arguments": [
        "0x6fD36fd6D6f1D8a5E43B33b1881fd4EF167b6588",
        "0xbA397eFEF3914aB025F7f5706fADE61f240A9EbC",
        "40232",
        "1000000000000000"
      ],
      "transaction": {
        "from": "0x000ef5f21dc574226a06c76aae7060642a30eb74",
        "to": "0x4e9de45c73d5808fc767c42fc6d80562979a5dc4",
        "gas": "0x7412",
        "value": "0x2386f26fc10000",
        "input": "0x2161b35b0000000000000000000000006fd36fd6d6f1d8a5e43b33b1881fd4ef167b6588000000000000000000000000ba397efef3914ab025f7f5706fade61f240a9ebc0000000000000000000000000000000000000000000000000000000000009d2800000000000000000000000000000000000000000000000000038d7ea4c68000",
        "nonce": "0xc6",
        "chainId": "0x66eee"
      },
      "additionalContracts": [],
      "isFixedGasLimit": false
    }
  ],
  "receipts": [
    {
      "status": "0x1",
      "cumulativeGasUsed": "0xa64b9",
      "logs": [
        {
          "address": "0x4e9de45c73d5808fc767c42fc6d80562979a5dc4",
          "topics": [
            "0x8be0079c531659141344cd1fd0a4f28419497f9722a3daafe3b4186f6b6457e0",
            "0x0000000000000000000000000000000000000000000000000000000000000000",
            "0x000000000000000000000000000ef5f21dc574226a06c76aae7060642a30eb74"
          ],
          "data": "0x",
          "blockHash": "0xe061ec5d17a4f82f77c8fa8c33b8b8ad0750b613dd18ad97a33803e6d137c736",
          "blockNumber": "0x5d467c2",
          "transactionHash": "0xf69cbfc4f8457918b432a8e791c7b332b61392811a8ac1c8c022cc936146407c",
          "transactionIndex": "0x1",
          "logIndex": "0x0",
          "removed": false
        }
      ],
      "logsBloom": "0x00000000000000000000000000000000000000000000000000800000000000000000000000020000000000000000000000000000000000000000000000000000000000000000000000000000000000000001000000000000000000000000000000000000020000000000000400000800000000000000000000000000000000400800000000000000000000000000000000000000000000000000000000000001000000000000000000000000000000000000000000000000000000000000000000000000000000010000000000000000000000000000000000000000040020000000000000000000000000000000000000000000000000000000000000000000",
      "type": "0x2",
      "transactionHash": "0xf69cbfc4f8457918b432a8e791c7b332b61392811a8ac1c8c022cc936146407c",
      "transactionIndex": "0x1",
      "blockHash": "0xe061ec5d17a4f82f77c8fa8c33b8b8ad0750b613dd18ad97a33803e6d137c736",
      "blockNumber": "0x5d467c2",
      "gasUsed": "0xa64b9",
      "effectiveGasPrice": "0x5f5e100",
      "from": "0x000ef5f21dc574226a06c76aae7060642a30eb74",
      "to": null,
      "contractAddress": "0x4e9de45c73d5808fc767c42fc6d80562979a5dc4",
      "gasUsedForL1": "0x95a",
      "l1BlockNumber": "0x6c261c"
    },
    {
      "status": "0x1",
      "cumulativeGasUsed": "0xb609",
      "logs": [],
      "logsBloom": "0x00000000000000000000000000000000000000000000000000000000000000000000000000000000000000000000000000000000000000000000000000000000000000000000000000000000000000000000000000000000000000000000000000000000000000000000000000000000000000000000000000000000000000000000000000000000000000000000000000000000000000000000000000000000000000000000000000000000000000000000000000000000000000000000000000000000000000000000000000000000000000000000000000000000000000000000000000000000000000000000000000000000000000000000000000000000",
      "type": "0x2",
      "transactionHash": "0xad86220c4ca644daa87ff636b2636d03c41560197315a6be66caa5fce27c9607",
      "transactionIndex": "0x1",
      "blockHash": "0xa7b55ecb962214676f6c2ae25f09927cae56a31491542bdf5aa2cebe365dbc13",
      "blockNumber": "0x5d467c9",
      "gasUsed": "0xb609",
      "effectiveGasPrice": "0x5f5e100",
      "from": "0x000ef5f21dc574226a06c76aae7060642a30eb74",
      "to": "0x4e9de45c73d5808fc767c42fc6d80562979a5dc4",
      "contractAddress": null,
      "gasUsedForL1": "0xd6",
      "l1BlockNumber": "0x6c261d"
    },
    {
      "status": "0x1",
      "cumulativeGasUsed": "0xb621",
      "logs": [
        {
          "address": "0x6fd36fd6d6f1d8a5e43b33b1881fd4ef167b6588",
          "topics": [
            "0x8c5be1e5ebec7d5bd14f71427d1e84f3dd0314c0f7b2291e5b200ac8c7c3b925",
            "0x000000000000000000000000000ef5f21dc574226a06c76aae7060642a30eb74",
            "0x0000000000000000000000004e9de45c73d5808fc767c42fc6d80562979a5dc4"
          ],
          "data": "0x00000000000000000000000000000000000000000000000000038d7ea4c68000",
          "blockHash": "0xc46ee2709e30ea8a4c9c80e4fbe46ff50a65b6ae32fa54b24bfb13f97315f162",
          "blockNumber": "0x5d467cf",
          "transactionHash": "0xae1f54973326397a1944e3cfc320b7795a2a6fa437107bd33a3a008ac2145d26",
          "transactionIndex": "0x1",
          "logIndex": "0x0",
          "removed": false
        }
      ],
      "logsBloom": "0x00000000000000000000000000000000000000000000000000004000000000000000080000020000000000000000000000000000000000000000000000200000000000000000010000000000000000000000000000000000000000000000000000000000000000000000000400000000000000000000000000000000000000000000000000000000000000000000000000000000000000000200000000000000020000000000000000000000000000000000000000000000000000000000000008000000000000000000000000000000000000000000000000000000040000000010000000000000000000000000000000000000000000800000000000000000",
      "type": "0x2",
      "transactionHash": "0xae1f54973326397a1944e3cfc320b7795a2a6fa437107bd33a3a008ac2145d26",
      "transactionIndex": "0x1",
      "blockHash": "0xc46ee2709e30ea8a4c9c80e4fbe46ff50a65b6ae32fa54b24bfb13f97315f162",
      "blockNumber": "0x5d467cf",
      "gasUsed": "0xb621",
      "effectiveGasPrice": "0x5f5e100",
      "from": "0x000ef5f21dc574226a06c76aae7060642a30eb74",
      "to": "0x6fd36fd6d6f1d8a5e43b33b1881fd4ef167b6588",
      "contractAddress": null,
      "gasUsedForL1": "0xd6",
      "l1BlockNumber": "0x6c261d"
    },
    {
      "status": "0x1",
      "cumulativeGasUsed": "0x44422",
      "logs": [
        {
          "address": "0x6fd36fd6d6f1d8a5e43b33b1881fd4ef167b6588",
          "topics": [
            "0xddf252ad1be2c89b69c2b068fc378daa952ba7f163c4a11628f55a4df523b3ef",
            "0x000000000000000000000000000ef5f21dc574226a06c76aae7060642a30eb74",
            "0x0000000000000000000000004e9de45c73d5808fc767c42fc6d80562979a5dc4"
          ],
          "data": "0x00000000000000000000000000000000000000000000000000038d7ea4c68000",
          "blockHash": "0xe26196e567c4b34e25988be4478984fb5a43b7d603489ee6fb60864c9e682dde",
          "blockNumber": "0x5d467d4",
          "transactionHash": "0x6cf5235565a984f66c982ceaa80f77249137b8428479f24d92ddad7ccc7790f2",
          "transactionIndex": "0x1",
          "logIndex": "0x0",
          "removed": false
        },
        {
          "address": "0x6fd36fd6d6f1d8a5e43b33b1881fd4ef167b6588",
          "topics": [
            "0xddf252ad1be2c89b69c2b068fc378daa952ba7f163c4a11628f55a4df523b3ef",
            "0x0000000000000000000000004e9de45c73d5808fc767c42fc6d80562979a5dc4",
            "0x0000000000000000000000000000000000000000000000000000000000000000"
          ],
          "data": "0x00000000000000000000000000000000000000000000000000038d7ea4c68000",
          "blockHash": "0xe26196e567c4b34e25988be4478984fb5a43b7d603489ee6fb60864c9e682dde",
          "blockNumber": "0x5d467d4",
          "transactionHash": "0x6cf5235565a984f66c982ceaa80f77249137b8428479f24d92ddad7ccc7790f2",
          "transactionIndex": "0x1",
          "logIndex": "0x1",
          "removed": false
        },
        {
          "address": "0x4f7cd4da19abb31b0ec98b9066b9e857b1bf9c0e",
          "topics": [
            "0x61ed099e74a97a1d7f8bb0952a88ca8b7b8ebd00c126ea04671f92a81213318a"
          ],
          "data": "0x0000000000000000000000005df3a1cebbd9c8ba7f8df51fd632a9aef830889700000000000000000000000000000000000000000000000000003c738e42ec64",
          "blockHash": "0xe26196e567c4b34e25988be4478984fb5a43b7d603489ee6fb60864c9e682dde",
          "blockNumber": "0x5d467d4",
          "transactionHash": "0x6cf5235565a984f66c982ceaa80f77249137b8428479f24d92ddad7ccc7790f2",
          "transactionIndex": "0x1",
          "logIndex": "0x2",
          "removed": false
        },
        {
          "address": "0x4f7cd4da19abb31b0ec98b9066b9e857b1bf9c0e",
          "topics": [
            "0x07ea52d82345d6e838192107d8fd7123d9c2ec8e916cd0aad13fd2b60db24644"
          ],
          "data": "0x000000000000000000000000000000000000000000000000000000000000006000000000000000000000000000000000000000000000000000000000000000a000000000000000000000000000000000000000000000000000000000000000c0000000000000000000000000000000000000000000000000000000000000000100000000000000000000000053f488e93b4f1b60e8e83aa374dbe1780a1ee8a80000000000000000000000000000000000000000000000000000000000000000000000000000000000000000000000000000000000000000000000000000000100000000000000000000000000000000000000000000000000000312813e0532",
          "blockHash": "0xe26196e567c4b34e25988be4478984fb5a43b7d603489ee6fb60864c9e682dde",
          "blockNumber": "0x5d467d4",
          "transactionHash": "0x6cf5235565a984f66c982ceaa80f77249137b8428479f24d92ddad7ccc7790f2",
          "transactionIndex": "0x1",
          "logIndex": "0x3",
          "removed": false
        },
        {
          "address": "0x6edce65403992e310a62460808c4b910d972f10f",
          "topics": [
            "0x1ab700d4ced0c005b164c0f789fd09fcbb0156d4c2041b8a3bfbcd961cd1567f"
          ],
          "data": "0x000000000000000000000000000000000000000000000000000000000000006000000000000000000000000000000000000000000000000000000000000001800000000000000000000000004f7cd4da19abb31b0ec98b9066b9e857b1bf9c0e00000000000000000000000000000000000000000000000000000000000000f901000000000000000100009d270000000000000000000000006fd36fd6d6f1d8a5e43b33b1881fd4ef167b658800009d2800000000000000000000000015906379703940bc51a5881ad1a5fc481ebc8bb1d16215e504ca8ca19a86718f16f0de77e055f9dd7dda983eedc9dc3aa1c0214c00000000000000000000000064e8c6db52bc99c39d7c2deb0f9cd52848a5772b00000000000003e80000000000000000000000004e9de45c73d5808fc767c42fc6d80562979a5dc4000000000000000000000000000ef5f21dc574226a06c76aae7060642a30eb74000000000000000000000000ba397efef3914ab025f7f5706fade61f240a9ebc00000000000000000000000000000000000000000000000000000000000000000000000000002c00030100110100000000000000000000000000030d400100130300000000000000000000000000000007a1200000000000000000000000000000000000000000",
          "blockHash": "0xe26196e567c4b34e25988be4478984fb5a43b7d603489ee6fb60864c9e682dde",
          "blockNumber": "0x5d467d4",
          "transactionHash": "0x6cf5235565a984f66c982ceaa80f77249137b8428479f24d92ddad7ccc7790f2",
          "transactionIndex": "0x1",
          "logIndex": "0x4",
          "removed": false
        },
        {
          "address": "0x6fd36fd6d6f1d8a5e43b33b1881fd4ef167b6588",
          "topics": [
            "0x85496b760a4b7f8d66384b9df21b381f5d1b1e79f229a47aaf4c232edc2fe59a",
            "0xd16215e504ca8ca19a86718f16f0de77e055f9dd7dda983eedc9dc3aa1c0214c",
            "0x0000000000000000000000004e9de45c73d5808fc767c42fc6d80562979a5dc4"
          ],
          "data": "0x0000000000000000000000000000000000000000000000000000000000009d2800000000000000000000000000000000000000000000000000038d7ea4c6800000000000000000000000000000000000000000000000000000038d7ea4c68000",
          "blockHash": "0xe26196e567c4b34e25988be4478984fb5a43b7d603489ee6fb60864c9e682dde",
          "blockNumber": "0x5d467d4",
          "transactionHash": "0x6cf5235565a984f66c982ceaa80f77249137b8428479f24d92ddad7ccc7790f2",
          "transactionIndex": "0x1",
          "logIndex": "0x5",
          "removed": false
        }
      ],
      "logsBloom": "0x00000000000000000000000000000000000000000000000000004000000000000000080000020000200000000000000000000000008000000000000000000000000002000000010000000008000000000000000000000000000000000000000000000000020004008200000400000800000000000000000000000010000000000000000000000020000000080000000000000000000000010200000200000000000000008000000000102000000000000000000000400000000440000000000008000002000000000000000080000000000000000000000000000000040020000000040000000000000000400000002000000000008000800000000000000000",
      "type": "0x2",
      "transactionHash": "0x6cf5235565a984f66c982ceaa80f77249137b8428479f24d92ddad7ccc7790f2",
      "transactionIndex": "0x1",
      "blockHash": "0xe26196e567c4b34e25988be4478984fb5a43b7d603489ee6fb60864c9e682dde",
      "blockNumber": "0x5d467d4",
      "gasUsed": "0x44422",
      "effectiveGasPrice": "0x5f5e100",
      "from": "0x000ef5f21dc574226a06c76aae7060642a30eb74",
      "to": "0x4e9de45c73d5808fc767c42fc6d80562979a5dc4",
      "contractAddress": null,
      "gasUsedForL1": "0x12a",
      "l1BlockNumber": "0x6c261d"
    }
  ],
  "libraries": [],
  "pending": [],
  "returns": {},
  "timestamp": 1731745821,
  "chain": 421614,
  "commit": "4ab1abf"
}