{
  "transactions": [
    {
      "hash": "0xf7c35433925eff8b1b747a2a6d2cb662e1c721de3676108933b91a6e519212c6",
      "transactionType": "CREATE",
      "contractName": "OmniSwapHub",
      "contractAddress": "0x7b59080b27a659aec847121de8eb402024f4be48",
      "function": null,
      "arguments": [
        "0x000ef5F21dC574226A06C76AAE7060642A30eB74"
      ],
      "transaction": {
        "from": "0x000ef5f21dc574226a06c76aae7060642a30eb74",
        "gas": "0xdae78",
        "value": "0x0",
        "input": "0x608060405234801561001057600080fd5b50604051610bd3380380610bd383398101604081905261002f916100be565b806001600160a01b03811661005e57604051631e4fbdf760e01b81526000600482015260240160405180910390fd5b6100678161006e565b50506100ee565b600080546001600160a01b038381166001600160a01b0319831681178455604051919092169283917f8be0079c531659141344cd1fd0a4f28419497f9722a3daafe3b4186f6b6457e09190a35050565b6000602082840312156100d057600080fd5b81516001600160a01b03811681146100e757600080fd5b9392505050565b610ad6806100fd6000396000f3fe6080604052600436106100555760003560e01c80632161b35b1461005a5780636196dfc11461006f578063715018a61461008f5780638da5cb5b146100a4578063d4b94d2b146100da578063f2fde38b14610110575b600080fd5b61006d610068366004610716565b610130565b005b34801561007b57600080fd5b5061006d61008a366004610761565b610305565b34801561009b57600080fd5b5061006d610343565b3480156100b057600080fd5b506000546001600160a01b03165b6040516001600160a01b03909116815260200160405180910390f35b3480156100e657600080fd5b506100be6100f5366004610794565b6001602052600090815260409020546001600160a01b031681565b34801561011c57600080fd5b5061006d61012b3660046107af565b610357565b6040516323b872dd60e01b8152336004820152306024820152604481018290526001600160a01b038516906323b872dd906064016020604051808303816000875af1158015610183573d6000803e3d6000fd5b505050506040513d601f19601f820116820180604052508101906101a791906107ca565b5060006101f960006207a12066038d7ea4c680006101f162030d4060006101ea60408051600360f01b602082015281516002818303018152602290910190915290565b919061039a565b929190610402565b604080513360208083018290526001600160a01b03898116848601528451808503860181526101408501865263ffffffff8a1660608601818152600091825260018552878220548416608088015260a087018b905260c087018b905260e0870189905261010087018390528751808601895282815261012090970196909652865180880188523480825294810191909152955163c7c7f5b360e01b8152969750959394908b169363c7c7f5b3936102b792879290919060040161083c565b60c06040518083038185885af11580156102d5573d6000803e3d6000fd5b50505050506040513d601f19601f820116820180604052508101906102fa9190610955565b505050505050505050565b61030d61044c565b63ffffffff91909116600090815260016020526040902080546001600160a01b0319166001600160a01b03909216919091179055565b61034b61044c565b6103556000610479565b565b61035f61044c565b6001600160a01b03811661038e57604051631e4fbdf760e01b8152600060048201526024015b60405180910390fd5b61039781610479565b50565b60608360036103aa8260006104c9565b61ffff16146103de576103be8160006104c9565b604051633a51740d60e01b815261ffff9091166004820152602401610385565b60006103ea858561052c565b90506103f8866001836105a5565b9695505050505050565b60608460036104128260006104c9565b61ffff1614610426576103be8160006104c9565b6000610433868686610610565b9050610441876003836105a5565b979650505050505050565b6000546001600160a01b031633146103555760405163118cdaa760e01b8152336004820152602401610385565b600080546001600160a01b038381166001600160a01b0319831681178455604051919092169283917f8be0079c531659141344cd1fd0a4f28419497f9722a3daafe3b4186f6b6457e09190a35050565b60006104d6826002610a04565b8351101561051d5760405162461bcd60e51b8152602060048201526014602482015273746f55696e7431365f6f75744f66426f756e647360601b6044820152606401610385565b50818101600201515b92915050565b60606001600160801b0382161561057457604080516001600160801b0319608086811b8216602084015285901b1660308201520160405160208183030381529060405261059e565b6040516001600160801b0319608085901b1660208201526030016040516020818303038152906040525b9392505050565b60608360036105b58260006104c9565b61ffff16146105c9576103be8160006104c9565b8460016105d685516106b3565b6105e1906001610a17565b86866040516020016105f7959493929190610a39565b6040516020818303038152906040529150509392505050565b60606001600160801b0382161561066d576040516001600160f01b031960f086901b1660208201526001600160801b0319608085811b8216602284015284901b1660328201526042016040516020818303038152906040526106ab565b6040516001600160f01b031960f086901b1660208201526001600160801b0319608085901b1660228201526032016040516020818303038152906040525b949350505050565b600061ffff8211156106e2576040516306dfcc6560e41b81526010600482015260248101839052604401610385565b5090565b80356001600160a01b03811681146106fd57600080fd5b919050565b803563ffffffff811681146106fd57600080fd5b6000806000806080858703121561072c57600080fd5b610735856106e6565b9350610743602086016106e6565b925061075160408601610702565b9396929550929360600135925050565b6000806040838503121561077457600080fd5b61077d83610702565b915061078b602084016106e6565b90509250929050565b6000602082840312156107a657600080fd5b61059e82610702565b6000602082840312156107c157600080fd5b61059e826106e6565b6000602082840312156107dc57600080fd5b8151801515811461059e57600080fd5b60005b838110156108075781810151838201526020016107ef565b50506000910152565b600081518084526108288160208601602086016107ec565b601f01601f19169290920160200192915050565b6080815263ffffffff8451166080820152602084015160a0820152604084015160c0820152606084015160e08201526000608085015160e0610100840152610888610160840182610810565b905060a0860151607f1980858403016101208601526108a78383610810565b925060c088015191508085840301610140860152506108c68282610810565b925050506108e1602083018580518252602090810151910152565b6001600160a01b0383166060830152949350505050565b60006040828403121561090a57600080fd5b6040516040810181811067ffffffffffffffff8211171561093b57634e487b7160e01b600052604160045260246000fd5b604052825181526020928301519281019290925250919050565b60008082840360c081121561096957600080fd5b608081121561097757600080fd5b506040516060810167ffffffffffffffff82821081831117156109aa57634e487b7160e01b600052604160045260246000fd5b81604052855183526020860151915080821682146109c757600080fd5b5060208201526109da85604086016108f8565b6040820152915061078b84608085016108f8565b634e487b7160e01b600052601160045260246000fd5b80820180821115610526576105266109ee565b61ffff818116838216019080821115610a3257610a326109ee565b5092915050565b60008651610a4b818460208b016107ec565b6001600160f81b031960f888811b82169285019283526001600160f01b031960f089901b16600184015286901b1660038201528351610a918160048401602088016107ec565b0160040197965050505050505056fea2646970667358221220d9c2c0865eb953f329318f8334cff42e14717061d2e56c896dac88acb1a76dae64736f6c63430008160033000000000000000000000000000ef5f21dc574226a06c76aae7060642a30eb74",
        "nonce": "0xc7",
        "chainId": "0x66eee"
      },
      "additionalContracts": [],
      "isFixedGasLimit": false
    },
    {
      "hash": "0xbb9f5f67b2a081b2f37d996c9d5fa85866fd3dc7c4bbc7302a724f84971487f9",
      "transactionType": "CALL",
      "contractName": "OmniSwapHub",
      "contractAddress": "0x7b59080b27a659aec847121de8eb402024f4be48",
      "function": "setSwapper(uint32,address)",
      "arguments": [
        "40232",
        "0x9586FA0a7B039531411ceAD42616c7751Ceec296"
      ],
      "transaction": {
        "from": "0x000ef5f21dc574226a06c76aae7060642a30eb74",
        "to": "0x7b59080b27a659aec847121de8eb402024f4be48",
        "gas": "0x700b",
        "value": "0x0",
        "input": "0x6196dfc10000000000000000000000000000000000000000000000000000000000009d280000000000000000000000009586fa0a7b039531411cead42616c7751ceec296",
        "nonce": "0xc8",
        "chainId": "0x66eee"
      },
      "additionalContracts": [],
      "isFixedGasLimit": false
    },
    {
      "hash": "0xee02d1e624f48bfb3fc9658debba43508059a013e175a1bf52a2595c0379fc14",
      "transactionType": "CALL",
      "contractName": null,
      "contractAddress": "0x6fd36fd6d6f1d8a5e43b33b1881fd4ef167b6588",
      "function": "approve(address,uint256)",
      "arguments": [
        "0x7b59080B27A659AEC847121De8eb402024F4bE48",
        "1000000000000000"
      ],
      "transaction": {
        "from": "0x000ef5f21dc574226a06c76aae7060642a30eb74",
        "to": "0x6fd36fd6d6f1d8a5e43b33b1881fd4ef167b6588",
        "gas": "0xef38",
        "value": "0x0",
        "input": "0x095ea7b30000000000000000000000007b59080b27a659aec847121de8eb402024f4be4800000000000000000000000000000000000000000000000000038d7ea4c68000",
        "nonce": "0xc9",
        "chainId": "0x66eee"
      },
      "additionalContracts": [],
      "isFixedGasLimit": false
    },
    {
      "hash": "0x84d3c2813b483c2333aa6db2dd6ab43671f7c8d5d07421d8a49b1d51cfe135db",
      "transactionType": "CALL",
      "contractName": "OmniSwapHub",
      "contractAddress": "0x7b59080b27a659aec847121de8eb402024f4be48",
      "function": "swapTokenOn(address,address,uint32,uint256)",
      "arguments": [
        "0x6fD36fd6D6f1D8a5E43B33b1881fd4EF167b6588",
        "0xbA397eFEF3914aB025F7f5706fADE61f240A9EbC",
        "40232",
        "1000000000000000"
      ],
      "transaction": {
        "from": "0x000ef5f21dc574226a06c76aae7060642a30eb74",
        "to": "0x7b59080b27a659aec847121de8eb402024f4be48",
        "gas": "0x7454",
        "value": "0x2386f26fc10000",
        "input": "0x2161b35b0000000000000000000000006fd36fd6d6f1d8a5e43b33b1881fd4ef167b6588000000000000000000000000ba397efef3914ab025f7f5706fade61f240a9ebc0000000000000000000000000000000000000000000000000000000000009d2800000000000000000000000000000000000000000000000000038d7ea4c68000",
        "nonce": "0xca",
        "chainId": "0x66eee"
      },
      "additionalContracts": [],
      "isFixedGasLimit": false
    }
  ],
  "receipts": [
    {
      "status": "0x1",
      "cumulativeGasUsed": "0xa6b23",
      "logs": [
        {
          "address": "0x7b59080b27a659aec847121de8eb402024f4be48",
          "topics": [
            "0x8be0079c531659141344cd1fd0a4f28419497f9722a3daafe3b4186f6b6457e0",
            "0x0000000000000000000000000000000000000000000000000000000000000000",
            "0x000000000000000000000000000ef5f21dc574226a06c76aae7060642a30eb74"
          ],
          "data": "0x",
          "blockHash": "0xee6d30b044d103e623e896e6625b9100194c3e9bfe4f7da18c17b67e37e346c3",
          "blockNumber": "0x5d48c1f",
          "transactionHash": "0xf7c35433925eff8b1b747a2a6d2cb662e1c721de3676108933b91a6e519212c6",
          "transactionIndex": "0x1",
          "logIndex": "0x0",
          "removed": false
        }
      ],
      "logsBloom": "0x00000000000000200000000000000000000000000000000000c00001000000000000000000020000000000000000000000000000000000000000000000000000000000000000000000000000000000000001000000000000000000000000000000000000020000000000000400000800000000000000000000000000000000400000000000000000000000000000000000000000000000000000000000000000000000000000000000000000000000000000000000000000000000000000000000000000000000000000000000000000000000000000000000000000040020000000000000000000000000000000000000000000000000000000000000000000",
      "type": "0x2",
      "transactionHash": "0xf7c35433925eff8b1b747a2a6d2cb662e1c721de3676108933b91a6e519212c6",
      "transactionIndex": "0x1",
      "blockHash": "0xee6d30b044d103e623e896e6625b9100194c3e9bfe4f7da18c17b67e37e346c3",
      "blockNumber": "0x5d48c1f",
      "gasUsed": "0xa6b23",
      "effectiveGasPrice": "0x5f5e100",
      "from": "0x000ef5f21dc574226a06c76aae7060642a30eb74",
      "to": null,
      "contractAddress": "0x7b59080b27a659aec847121de8eb402024f4be48",
      "gasUsedForL1": "0xab4",
      "l1BlockNumber": "0x6c2705"
    },
    {
      "status": "0x1",
      "cumulativeGasUsed": "0xb627",
      "logs": [],
      "logsBloom": "0x00000000000000000000000000000000000000000000000000000000000000000000000000000000000000000000000000000000000000000000000000000000000000000000000000000000000000000000000000000000000000000000000000000000000000000000000000000000000000000000000000000000000000000000000000000000000000000000000000000000000000000000000000000000000000000000000000000000000000000000000000000000000000000000000000000000000000000000000000000000000000000000000000000000000000000000000000000000000000000000000000000000000000000000000000000000",
      "type": "0x2",
      "transactionHash": "0xbb9f5f67b2a081b2f37d996c9d5fa85866fd3dc7c4bbc7302a724f84971487f9",
      "transactionIndex": "0x1",
      "blockHash": "0x6224abc53cf42f32fa6adc0a4ceb5b34f7655a43661fc23db7c2ac5e1b752b27",
      "blockNumber": "0x5d48c25",
      "gasUsed": "0xb627",
      "effectiveGasPrice": "0x5f5e100",
      "from": "0x000ef5f21dc574226a06c76aae7060642a30eb74",
      "to": "0x7b59080b27a659aec847121de8eb402024f4be48",
      "contractAddress": null,
      "gasUsedForL1": "0xf4",
      "l1BlockNumber": "0x6c2705"
    },
    {
      "status": "0x1",
      "cumulativeGasUsed": "0xb63f",
      "logs": [
        {
          "address": "0x6fd36fd6d6f1d8a5e43b33b1881fd4ef167b6588",
          "topics": [
            "0x8c5be1e5ebec7d5bd14f71427d1e84f3dd0314c0f7b2291e5b200ac8c7c3b925",
            "0x000000000000000000000000000ef5f21dc574226a06c76aae7060642a30eb74",
            "0x0000000000000000000000007b59080b27a659aec847121de8eb402024f4be48"
          ],
          "data": "0x00000000000000000000000000000000000000000000000000038d7ea4c68000",
          "blockHash": "0xf880655da2318e8bcbb833dc2d3ef878621297d2a5789d83fc8f2966a879d255",
          "blockNumber": "0x5d48c2b",
          "transactionHash": "0xee02d1e624f48bfb3fc9658debba43508059a013e175a1bf52a2595c0379fc14",
          "transactionIndex": "0x1",
          "logIndex": "0x0",
          "removed": false
        }
      ],
      "logsBloom": "0x00000000000000000000000000000000000000000000000000004000000000000000000000020000000000000000000000000000000000000000000000200000000000000000010000000000000000000000000000000000000000000000000000000000000000000000000400000000000000000000000000000000000000000000000000000000000000000000000000000000000000000000000000000000020000000000000000000000000000000800000000000000000000000000000000001000000000000000000000000000000000000000000000008000040000000010000000000000000000000000000000000000000000800000000000000000",
      "type": "0x2",
      "transactionHash": "0xee02d1e624f48bfb3fc9658debba43508059a013e175a1bf52a2595c0379fc14",
      "transactionIndex": "0x1",
      "blockHash": "0xf880655da2318e8bcbb833dc2d3ef878621297d2a5789d83fc8f2966a879d255",
      "blockNumber": "0x5d48c2b",
      "gasUsed": "0xb63f",
      "effectiveGasPrice": "0x5f5e100",
      "from": "0x000ef5f21dc574226a06c76aae7060642a30eb74",
      "to": "0x6fd36fd6d6f1d8a5e43b33b1881fd4ef167b6588",
      "contractAddress": null,
      "gasUsedForL1": "0xf4",
      "l1BlockNumber": "0x6c2705"
    },
    {
      "status": "0x1",
      "cumulativeGasUsed": "0x40455",
      "logs": [
        {
          "address": "0x6fd36fd6d6f1d8a5e43b33b1881fd4ef167b6588",
          "topics": [
            "0xddf252ad1be2c89b69c2b068fc378daa952ba7f163c4a11628f55a4df523b3ef",
            "0x000000000000000000000000000ef5f21dc574226a06c76aae7060642a30eb74",
            "0x0000000000000000000000007b59080b27a659aec847121de8eb402024f4be48"
          ],
          "data": "0x00000000000000000000000000000000000000000000000000038d7ea4c68000",
          "blockHash": "0x3769f20555d718f66417d4f1017da2e0eca6d1e62ce4f3745e24cc6864ac300d",
          "blockNumber": "0x5d48c33",
          "transactionHash": "0x84d3c2813b483c2333aa6db2dd6ab43671f7c8d5d07421d8a49b1d51cfe135db",
          "transactionIndex": "0x1",
          "logIndex": "0x0",
          "removed": false
        },
        {
          "address": "0x6fd36fd6d6f1d8a5e43b33b1881fd4ef167b6588",
          "topics": [
            "0xddf252ad1be2c89b69c2b068fc378daa952ba7f163c4a11628f55a4df523b3ef",
            "0x0000000000000000000000007b59080b27a659aec847121de8eb402024f4be48",
            "0x0000000000000000000000000000000000000000000000000000000000000000"
          ],
          "data": "0x00000000000000000000000000000000000000000000000000038d7ea4c68000",
          "blockHash": "0x3769f20555d718f66417d4f1017da2e0eca6d1e62ce4f3745e24cc6864ac300d",
          "blockNumber": "0x5d48c33",
          "transactionHash": "0x84d3c2813b483c2333aa6db2dd6ab43671f7c8d5d07421d8a49b1d51cfe135db",
          "transactionIndex": "0x1",
          "logIndex": "0x1",
          "removed": false
        },
        {
          "address": "0x4f7cd4da19abb31b0ec98b9066b9e857b1bf9c0e",
          "topics": [
            "0x61ed099e74a97a1d7f8bb0952a88ca8b7b8ebd00c126ea04671f92a81213318a"
          ],
          "data": "0x0000000000000000000000005df3a1cebbd9c8ba7f8df51fd632a9aef830889700000000000000000000000000000000000000000000000000047fd853fdec64",
          "blockHash": "0x3769f20555d718f66417d4f1017da2e0eca6d1e62ce4f3745e24cc6864ac300d",
          "blockNumber": "0x5d48c33",
          "transactionHash": "0x84d3c2813b483c2333aa6db2dd6ab43671f7c8d5d07421d8a49b1d51cfe135db",
          "transactionIndex": "0x1",
          "logIndex": "0x2",
          "removed": false
        },
        {
          "address": "0x4f7cd4da19abb31b0ec98b9066b9e857b1bf9c0e",
          "topics": [
            "0x07ea52d82345d6e838192107d8fd7123d9c2ec8e916cd0aad13fd2b60db24644"
          ],
          "data": "0x000000000000000000000000000000000000000000000000000000000000006000000000000000000000000000000000000000000000000000000000000000a000000000000000000000000000000000000000000000000000000000000000c0000000000000000000000000000000000000000000000000000000000000000100000000000000000000000053f488e93b4f1b60e8e83aa374dbe1780a1ee8a80000000000000000000000000000000000000000000000000000000000000000000000000000000000000000000000000000000000000000000000000000000100000000000000000000000000000000000000000000000000000312813e0532",
          "blockHash": "0x3769f20555d718f66417d4f1017da2e0eca6d1e62ce4f3745e24cc6864ac300d",
          "blockNumber": "0x5d48c33",
          "transactionHash": "0x84d3c2813b483c2333aa6db2dd6ab43671f7c8d5d07421d8a49b1d51cfe135db",
          "transactionIndex": "0x1",
          "logIndex": "0x3",
          "removed": false
        },
        {
          "address": "0x6edce65403992e310a62460808c4b910d972f10f",
          "topics": [
            "0x1ab700d4ced0c005b164c0f789fd09fcbb0156d4c2041b8a3bfbcd961cd1567f"
          ],
          "data": "0x000000000000000000000000000000000000000000000000000000000000006000000000000000000000000000000000000000000000000000000000000001800000000000000000000000004f7cd4da19abb31b0ec98b9066b9e857b1bf9c0e00000000000000000000000000000000000000000000000000000000000000f901000000000000000200009d270000000000000000000000006fd36fd6d6f1d8a5e43b33b1881fd4ef167b658800009d2800000000000000000000000015906379703940bc51a5881ad1a5fc481ebc8bb1a1f3b17233408660815b88078e3cd9106ec7863da618f84c078aa33ccf39c3a70000000000000000000000009586fa0a7b039531411cead42616c7751ceec29600000000000003e80000000000000000000000007b59080b27a659aec847121de8eb402024f4be48000000000000000000000000000ef5f21dc574226a06c76aae7060642a30eb74000000000000000000000000ba397efef3914ab025f7f5706fade61f240a9ebc00000000000000000000000000000000000000000000000000000000000000000000000000003c00030100110100000000000000000000000000030d400100230300000000000000000000000000000007a120000000000000000000038d7ea4c6800000000000",
          "blockHash": "0x3769f20555d718f66417d4f1017da2e0eca6d1e62ce4f3745e24cc6864ac300d",
          "blockNumber": "0x5d48c33",
          "transactionHash": "0x84d3c2813b483c2333aa6db2dd6ab43671f7c8d5d07421d8a49b1d51cfe135db",
          "transactionIndex": "0x1",
          "logIndex": "0x4",
          "removed": false
        },
        {
          "address": "0x6fd36fd6d6f1d8a5e43b33b1881fd4ef167b6588",
          "topics": [
            "0x85496b760a4b7f8d66384b9df21b381f5d1b1e79f229a47aaf4c232edc2fe59a",
            "0xa1f3b17233408660815b88078e3cd9106ec7863da618f84c078aa33ccf39c3a7",
            "0x0000000000000000000000007b59080b27a659aec847121de8eb402024f4be48"
          ],
          "data": "0x0000000000000000000000000000000000000000000000000000000000009d2800000000000000000000000000000000000000000000000000038d7ea4c6800000000000000000000000000000000000000000000000000000038d7ea4c68000",
          "blockHash": "0x3769f20555d718f66417d4f1017da2e0eca6d1e62ce4f3745e24cc6864ac300d",
          "blockNumber": "0x5d48c33",
          "transactionHash": "0x84d3c2813b483c2333aa6db2dd6ab43671f7c8d5d07421d8a49b1d51cfe135db",
          "transactionIndex": "0x1",
          "logIndex": "0x5",
          "removed": false
        }
      ],
      "logsBloom": "0x00000000000000000000000000000000000000000000000000004000000000000000000000120000200000000000000000000000008000000000000000000000000002000000010000000008000000000000000000000000000000000000000000000000020000008200000400000800000000000000000000000010000000000000000000000020000000080000000000000000000000010000000000000000000000008000000000102000000000000800000000400000000442000000000000001002000000000000000080000000000000000000000000008000040020000000040000000000000000000000002000000000008000800000010000000000",
      "type": "0x2",
      "transactionHash": "0x84d3c2813b483c2333aa6db2dd6ab43671f7c8d5d07421d8a49b1d51cfe135db",
      "transactionIndex": "0x1",
      "blockHash": "0x3769f20555d718f66417d4f1017da2e0eca6d1e62ce4f3745e24cc6864ac300d",
      "blockNumber": "0x5d48c33",
      "gasUsed": "0x40455",
      "effectiveGasPrice": "0x5f5e100",
      "from": "0x000ef5f21dc574226a06c76aae7060642a30eb74",
      "to": "0x7b59080b27a659aec847121de8eb402024f4be48",
      "contractAddress": null,
      "gasUsedForL1": "0x154",
      "l1BlockNumber": "0x6c2707"
    }
  ],
  "libraries": [],
  "pending": [],
  "returns": {},
  "timestamp": 1731748805,
  "chain": 421614,
  "commit": "4ab1abf"
}