{
  "transactions": [
    {
      "hash": "0x191c29dcafb8f699f917141c3de731277cf95b4bbfdb7c257f9fef7dd8019b46",
      "transactionType": "CALL",
      "contractName": null,
      "contractAddress": "0x15906379703940bc51a5881ad1a5fc481ebc8bb1",
      "function": "approve(address,uint256)",
      "arguments": [
        "0x440D0bEe5706987be528Fec5C4cA5947E38161d2",
        "115792089237316195423570985008687907853269984665640564039457584007913129639935"
      ],
      "transaction": {
        "from": "0x000ef5f21dc574226a06c76aae7060642a30eb74",
        "to": "0x15906379703940bc51a5881ad1a5fc481ebc8bb1",
        "gas": "0x10aeb",
        "value": "0x0",
        "input": "0x095ea7b3000000000000000000000000440d0bee5706987be528fec5c4ca5947e38161d2ffffffffffffffffffffffffffffffffffffffffffffffffffffffffffffffff",
        "nonce": "0x3e",
        "chainId": "0xaa37dc"
      },
      "additionalContracts": [],
      "isFixedGasLimit": false
    },
    {
      "hash": "0xc20773058864cd76a107983b0fe4e867b59e5e4fff11d209289a2c2bd2efd14e",
      "transactionType": "CALL",
      "contractName": null,
      "contractAddress": "0xba397efef3914ab025f7f5706fade61f240a9ebc",
      "function": "approve(address,uint256)",
      "arguments": [
        "0x440D0bEe5706987be528Fec5C4cA5947E38161d2",
        "115792089237316195423570985008687907853269984665640564039457584007913129639935"
      ],
      "transaction": {
        "from": "0x000ef5f21dc574226a06c76aae7060642a30eb74",
        "to": "0xba397efef3914ab025f7f5706fade61f240a9ebc",
        "gas": "0x10aeb",
        "value": "0x0",
        "input": "0x095ea7b3000000000000000000000000440d0bee5706987be528fec5c4ca5947e38161d2ffffffffffffffffffffffffffffffffffffffffffffffffffffffffffffffff",
        "nonce": "0x3f",
        "chainId": "0xaa37dc"
      },
      "additionalContracts": [],
      "isFixedGasLimit": false
    },
    {
      "hash": "0x72354c6370eba6d81325481786b2806f9515f992bf73f3ba79ab76e932fd526f",
      "transactionType": "CALL",
      "contractName": null,
      "contractAddress": "0x15906379703940bc51a5881ad1a5fc481ebc8bb1",
      "function": "approve(address,uint256)",
      "arguments": [
        "0x69801C169647Ad125707Dd40096D4EDC20Bb521a",
        "115792089237316195423570985008687907853269984665640564039457584007913129639935"
      ],
      "transaction": {
        "from": "0x000ef5f21dc574226a06c76aae7060642a30eb74",
        "to": "0x15906379703940bc51a5881ad1a5fc481ebc8bb1",
        "gas": "0x10aeb",
        "value": "0x0",
        "input": "0x095ea7b300000000000000000000000069801c169647ad125707dd40096d4edc20bb521affffffffffffffffffffffffffffffffffffffffffffffffffffffffffffffff",
        "nonce": "0x40",
        "chainId": "0xaa37dc"
      },
      "additionalContracts": [],
      "isFixedGasLimit": false
    },
    {
      "hash": "0x7e1076b67efb4421b4e1b28593f777e7b31d9dc2371d477150ee9b3ab2190625",
      "transactionType": "CALL",
      "contractName": null,
      "contractAddress": "0xba397efef3914ab025f7f5706fade61f240a9ebc",
      "function": "approve(address,uint256)",
      "arguments": [
        "0x69801C169647Ad125707Dd40096D4EDC20Bb521a",
        "115792089237316195423570985008687907853269984665640564039457584007913129639935"
      ],
      "transaction": {
        "from": "0x000ef5f21dc574226a06c76aae7060642a30eb74",
        "to": "0xba397efef3914ab025f7f5706fade61f240a9ebc",
        "gas": "0x10aeb",
        "value": "0x0",
        "input": "0x095ea7b300000000000000000000000069801c169647ad125707dd40096d4edc20bb521affffffffffffffffffffffffffffffffffffffffffffffffffffffffffffffff",
        "nonce": "0x41",
        "chainId": "0xaa37dc"
      },
      "additionalContracts": [],
      "isFixedGasLimit": false
    },
    {
      "hash": "0xc3dd43b25ed11b5a4fdaa958f2301cfd43b3b3c433ca26e4f49c1932a70731b6",
      "transactionType": "CALL",
      "contractName": null,
      "contractAddress": "0x15906379703940bc51a5881ad1a5fc481ebc8bb1",
      "function": "mint(address,uint256)",
      "arguments": [
        "0x000ef5F21dC574226A06C76AAE7060642A30eB74",
        "1000000000000000000000000000000000"
      ],
      "transaction": {
        "from": "0x000ef5f21dc574226a06c76aae7060642a30eb74",
        "to": "0x15906379703940bc51a5881ad1a5fc481ebc8bb1",
        "gas": "0xd0c8",
        "value": "0x0",
        "input": "0x40c10f19000000000000000000000000000ef5f21dc574226a06c76aae7060642a30eb74000000000000000000000000000000000000314dc6448d9338c15b0a00000000",
        "nonce": "0x42",
        "chainId": "0xaa37dc"
      },
      "additionalContracts": [],
      "isFixedGasLimit": false
    },
    {
      "hash": "0x3d7853331e704eb5ca39ebf763ae41f94a6559683d77a5b29dd577fd169e641a",
      "transactionType": "CALL",
      "contractName": null,
      "contractAddress": "0xba397efef3914ab025f7f5706fade61f240a9ebc",
      "function": "mint(address,uint256)",
      "arguments": [
        "0x000ef5F21dC574226A06C76AAE7060642A30eB74",
        "1000000000000000000000000000000000"
      ],
      "transaction": {
        "from": "0x000ef5f21dc574226a06c76aae7060642a30eb74",
        "to": "0xba397efef3914ab025f7f5706fade61f240a9ebc",
        "gas": "0xd0c8",
        "value": "0x0",
        "input": "0x40c10f19000000000000000000000000000ef5f21dc574226a06c76aae7060642a30eb74000000000000000000000000000000000000314dc6448d9338c15b0a00000000",
        "nonce": "0x43",
        "chainId": "0xaa37dc"
      },
      "additionalContracts": [],
      "isFixedGasLimit": false
    },
    {
      "hash": "0x6989c40e895fa13ec4f3ce8746dfc3c14534a1c490164dc13e8d23f270371d35",
      "transactionType": "CREATE2",
      "contractName": "RewardHook",
      "contractAddress": "0xbbd735db53ce42a7423b0861864dad6253588040",
      "function": null,
      "arguments": [
        "0x536527976E98E253B424a3655E695D144E343341"
      ],
      "transaction": {
        "from": "0x000ef5f21dc574226a06c76aae7060642a30eb74",
        "to": "0x4e59b44847b379578588920ca78fbf26c0b4956c",
        "gas": "0x10efd9",
        "value": "0x0",
        "input": "0x000000000000000000000000000000000000000000000000000000000000669660a060405234801561000f575f80fd5b5060405161104938038061104983398101604081905261002e9161032b565b6001600160a01b038116608052338161004630610084565b506001600160a01b03811661007457604051631e4fbdf760e01b81525f600482015260240160405180910390fd5b61007d81610177565b5050610358565b6101748161016f604080516101c0810182525f80825260208201819052918101829052606081018290526080810182905260a0810182905260c0810182905260e08101829052610100810182905261012081018290526101408101829052610160810182905261018081018290526101a081019190915250604080516101c0810182525f80825260208201819052918101829052606081018290526080810182905260a0810182905260c08101829052600160e0820152610100810182905261012081018290526101408101829052610160810182905261018081018290526101a081019190915290565b6101c6565b50565b5f80546001600160a01b038381166001600160a01b0319831681178455604051919092169283917f8be0079c531659141344cd1fd0a4f28419497f9722a3daafe3b4186f6b6457e09190a35050565b80511515612000831615151415806101ea5750602081015115156110008316151514155b806102015750604081015115156108008316151514155b806102185750606081015115156104008316151514155b8061022f5750608081015115156102008316151514155b80610246575060a081015115156101008316151514155b8061025c575060c0810151151560808316151514155b80610272575060e0810151151560408316151514155b806102895750610100810151151560208316151514155b806102a05750610120810151151560108316151514155b806102b75750610140810151151560088316151514155b806102ce5750610160810151151560048316151514155b806102e55750610180810151151560028316151514155b806102fc57506101a0810151151560018316151514155b1561031257610312630732d7b560e51b83610316565b5050565b815f526001600160a01b03811660045260245ffd5b5f6020828403121561033b575f80fd5b81516001600160a01b0381168114610351575f80fd5b9392505050565b608051610cd26103775f395f818161039201526104460152610cd25ff3fe608060405234801561000f575f80fd5b5060043610610106575f3560e01c806391dd73461161009e578063c4e833ce1161006e578063c4e833ce14610299578063dc4c90d31461038d578063dc98354e146103b4578063e1b4af691461028b578063f2fde38b146103c2575f80fd5b806391dd7346146102355780639f063efc146101c8578063b47b2fb114610255578063b6a8b0fa1461028b575f80fd5b80636c2bbe7e116100d95780636c2bbe7e146101c85780636fe7e6eb146101fb578063715018a6146102095780638da5cb5b14610211575f80fd5b8063065c981a1461010a57806321d0ee7014610159578063259982e514610159578063575e24b41461018a575b5f80fd5b610157610118366004610708565b600180546001600160a01b039485166001600160a01b031991821617909155600280549385169382169390931790925560038054919093169116179055565b005b61016c6101673660046107bb565b6103d5565b6040516001600160e01b031990911681526020015b60405180910390f35b61019d610198366004610842565b6103ef565b604080516001600160e01b03199094168452602084019290925262ffffff1690820152606001610181565b6101db6101d636600461089c565b61040b565b604080516001600160e01b03199093168352602083019190915201610181565b61016c610167366004610927565b610157610426565b5f546001600160a01b03165b6040516001600160a01b039091168152602001610181565b610248610243366004610986565b610439565b60405161018191906109c5565b6102686102633660046109fa565b610497565b604080516001600160e01b03199093168352600f9190910b602083015201610181565b61016c610167366004610a7b565b610380604080516101c0810182525f80825260208201819052918101829052606081018290526080810182905260a0810182905260c0810182905260e08101829052610100810182905261012081018290526101408101829052610160810182905261018081018290526101a081019190915250604080516101c0810182525f80825260208201819052918101829052606081018290526080810182905260a0810182905260c08101829052600160e0820152610100810182905261012081018290526101408101829052610160810182905261018081018290526101a081019190915290565b6040516101819190610ad5565b61021d7f000000000000000000000000000000000000000000000000000000000000000081565b61016c610167366004610bf6565b6101576103d0366004610c32565b61051b565b5f604051630a85dc2960e01b815260040160405180910390fd5b5f805f604051630a85dc2960e01b815260040160405180910390fd5b5f80604051630a85dc2960e01b815260040160405180910390fd5b61042e61055d565b6104375f610589565b565b6060336001600160a01b037f000000000000000000000000000000000000000000000000000000000000000016146104845760405163570c108560e11b815260040160405180910390fd5b61048e83836105d8565b90505b92915050565b5f806104a66020880188610c32565b6002546001600160a01b0390811691161480156104e057506104ce6040880160208901610c32565b6003546001600160a01b039081169116145b156105055761050584846104f48860801d90565b6104fd90610c54565b600f0b610671565b5063b47b2fb160e01b975f975095505050505050565b61052361055d565b6001600160a01b03811661055157604051631e4fbdf760e01b81525f60048201526024015b60405180910390fd5b61055a81610589565b50565b5f546001600160a01b031633146104375760405163118cdaa760e01b8152336004820152602401610548565b5f80546001600160a01b038381166001600160a01b0319831681178455604051919092169283917f8be0079c531659141344cd1fd0a4f28419497f9722a3daafe3b4186f6b6457e09190a35050565b60605f80306001600160a01b031685856040516105f6929190610c8d565b5f604051808303815f865af19150503d805f811461062f576040519150601f19603f3d011682016040523d82523d5f602084013e610634565b606091505b509150915081156106485791506104919050565b80515f03610669576040516314815f4760e31b815260040160405180910390fd5b805160208201fd5b5f82900361067e57505050565b5f61068b83850185610c32565b6001546040516340c10f1960e01b81526001600160a01b038084166004830152602482018690529293509116906340c10f19906044015f604051808303815f87803b1580156106d8575f80fd5b505af11580156106ea573d5f803e3d5ffd5b5050505050505050565b6001600160a01b038116811461055a575f80fd5b5f805f6060848603121561071a575f80fd5b8335610725816106f4565b92506020840135610735816106f4565b91506040840135610745816106f4565b809150509250925092565b5f60a08284031215610760575f80fd5b50919050565b5f60808284031215610760575f80fd5b5f8083601f840112610786575f80fd5b50813567ffffffffffffffff81111561079d575f80fd5b6020830191508360208285010111156107b4575f80fd5b9250929050565b5f805f805f61016086880312156107d0575f80fd5b85356107db816106f4565b94506107ea8760208801610750565b93506107f98760c08801610766565b925061014086013567ffffffffffffffff811115610815575f80fd5b61082188828901610776565b969995985093965092949392505050565b5f60608284031215610760575f80fd5b5f805f805f6101408688031215610857575f80fd5b8535610862816106f4565b94506108718760208801610750565b93506108808760c08801610832565b925061012086013567ffffffffffffffff811115610815575f80fd5b5f805f805f805f6101a0888a0312156108b3575f80fd5b87356108be816106f4565b96506108cd8960208a01610750565b95506108dc8960c08a01610766565b94506101408801359350610160880135925061018088013567ffffffffffffffff811115610908575f80fd5b6109148a828b01610776565b989b979a50959850939692959293505050565b5f805f80610100858703121561093b575f80fd5b8435610946816106f4565b93506109558660208701610750565b925060c0850135610965816106f4565b915060e0850135600281900b811461097b575f80fd5b939692955090935050565b5f8060208385031215610997575f80fd5b823567ffffffffffffffff8111156109ad575f80fd5b6109b985828601610776565b90969095509350505050565b602081525f82518060208401528060208501604085015e5f604082850101526040601f19601f83011684010191505092915050565b5f805f805f806101608789031215610a10575f80fd5b8635610a1b816106f4565b9550610a2a8860208901610750565b9450610a398860c08901610832565b9350610120870135925061014087013567ffffffffffffffff811115610a5d575f80fd5b610a6989828a01610776565b979a9699509497509295939492505050565b5f805f805f806101208789031215610a91575f80fd5b8635610a9c816106f4565b9550610aab8860208901610750565b945060c0870135935060e0870135925061010087013567ffffffffffffffff811115610a5d575f80fd5b8151151581526101c081016020830151610af3602084018215159052565b506040830151610b07604084018215159052565b506060830151610b1b606084018215159052565b506080830151610b2f608084018215159052565b5060a0830151610b4360a084018215159052565b5060c0830151610b5760c084018215159052565b5060e0830151610b6b60e084018215159052565b50610100830151610b8161010084018215159052565b50610120830151610b9761012084018215159052565b50610140830151610bad61014084018215159052565b50610160830151610bc361016084018215159052565b50610180830151610bd961018084018215159052565b506101a0830151610bef6101a084018215159052565b5092915050565b5f805f60e08486031215610c08575f80fd5b8335610c13816106f4565b9250610c228560208601610750565b915060c0840135610745816106f4565b5f60208284031215610c42575f80fd5b8135610c4d816106f4565b9392505050565b5f81600f0b6f7fffffffffffffffffffffffffffffff198103610c8557634e487b7160e01b5f52601160045260245ffd5b5f0392915050565b818382375f910190815291905056fea2646970667358221220bed7c3f2411f4185847493b971fb8748949e5260102b9a2b95c85114cac3729e64736f6c634300081a0033000000000000000000000000536527976e98e253b424a3655e695d144e343341",
        "nonce": "0x44",
        "chainId": "0xaa37dc"
      },
      "additionalContracts": [],
      "isFixedGasLimit": false
    },
    {
      "hash": "0x44c1a700299bdcb660d41ba5943aa67a4977ab3d3965180003c5787e046f7220",
      "transactionType": "CALL",
      "contractName": "RewardHook",
      "contractAddress": "0xbbd735db53ce42a7423b0861864dad6253588040",
      "function": "setRewardToken(address,address,address)",
      "arguments": [
        "0xbA397eFEF3914aB025F7f5706fADE61f240A9EbC",
        "0x15906379703940bc51a5881Ad1a5fc481Ebc8bB1",
        "0x15906379703940bc51a5881Ad1a5fc481Ebc8bB1"
      ],
      "transaction": {
        "from": "0x000ef5f21dc574226a06c76aae7060642a30eb74",
        "to": "0xbbd735db53ce42a7423b0861864dad6253588040",
        "gas": "0x1e0bf",
        "value": "0x0",
        "input": "0x065c981a000000000000000000000000ba397efef3914ab025f7f5706fade61f240a9ebc00000000000000000000000015906379703940bc51a5881ad1a5fc481ebc8bb100000000000000000000000015906379703940bc51a5881ad1a5fc481ebc8bb1",
        "nonce": "0x45",
        "chainId": "0xaa37dc"
      },
      "additionalContracts": [],
      "isFixedGasLimit": false
    },
    {
      "hash": "0x959a9313f8ba53e966e97449d626c2bc78643b883d1cf633c15ca385dac57338",
      "transactionType": "CALL",
      "contractName": null,
      "contractAddress": "0x536527976e98e253b424a3655e695d144e343341",
      "function": "initialize((address,address,uint24,int24,address),uint160)",
      "arguments": [
        "(0x15906379703940bc51a5881Ad1a5fc481Ebc8bB1, 0xbA397eFEF3914aB025F7f5706fADE61f240A9EbC, 3000, 120, 0xBbd735DB53cE42a7423B0861864dAD6253588040)",
        "79228162514264337593543950336"
      ],
      "transaction": {
        "from": "0x000ef5f21dc574226a06c76aae7060642a30eb74",
        "to": "0x536527976e98e253b424a3655e695d144e343341",
        "gas": "0x11d42",
        "value": "0x0",
        "input": "0x6276cbbe00000000000000000000000015906379703940bc51a5881ad1a5fc481ebc8bb1000000000000000000000000ba397efef3914ab025f7f5706fade61f240a9ebc0000000000000000000000000000000000000000000000000000000000000bb80000000000000000000000000000000000000000000000000000000000000078000000000000000000000000bbd735db53ce42a7423b0861864dad62535880400000000000000000000000000000000000000001000000000000000000000000",
        "nonce": "0x46",
        "chainId": "0xaa37dc"
      },
      "additionalContracts": [],
      "isFixedGasLimit": false
    },
    {
      "hash": "0x7b757a8ebd5c8c99a7d75ab8f770e8dc2a007e74f18264c6e2bc7e113802aa25",
      "transactionType": "CALL",
      "contractName": null,
      "contractAddress": "0x440d0bee5706987be528fec5c4ca5947e38161d2",
      "function": "modifyLiquidity((address,address,uint24,int24,address),(int24,int24,int256,bytes32),bytes)",
      "arguments": [
        "(0x15906379703940bc51a5881Ad1a5fc481Ebc8bB1, 0xbA397eFEF3914aB025F7f5706fADE61f240A9EbC, 3000, 120, 0xBbd735DB53cE42a7423B0861864dAD6253588040)",
        "(-120, 120, 10000000000000000000000, 0x0000000000000000000000000000000000000000000000000000000000000000)",
        "0x"
      ],
      "transaction": {
        "from": "0x000ef5f21dc574226a06c76aae7060642a30eb74",
        "to": "0x440d0bee5706987be528fec5c4ca5947e38161d2",
        "gas": "0x657d2",
        "value": "0x0",
        "input": "0x5a6bcfda00000000000000000000000015906379703940bc51a5881ad1a5fc481ebc8bb1000000000000000000000000ba397efef3914ab025f7f5706fade61f240a9ebc0000000000000000000000000000000000000000000000000000000000000bb80000000000000000000000000000000000000000000000000000000000000078000000000000000000000000bbd735db53ce42a7423b0861864dad6253588040ffffffffffffffffffffffffffffffffffffffffffffffffffffffffffffff88000000000000000000000000000000000000000000000000000000000000007800000000000000000000000000000000000000000000021e19e0c9bab2400000000000000000000000000000000000000000000000000000000000000000000000000000000000000000000000000000000000000000000000000000000001400000000000000000000000000000000000000000000000000000000000000000",
        "nonce": "0x47",
        "chainId": "0xaa37dc"
      },
      "additionalContracts": [],
      "isFixedGasLimit": false
    }
  ],
  "receipts": [
    {
      "status": "0x1",
      "cumulativeGasUsed": "0x110aa3",
      "logs": [
        {
          "address": "0x15906379703940bc51a5881ad1a5fc481ebc8bb1",
          "topics": [
            "0x8c5be1e5ebec7d5bd14f71427d1e84f3dd0314c0f7b2291e5b200ac8c7c3b925",
            "0x000000000000000000000000000ef5f21dc574226a06c76aae7060642a30eb74",
            "0x000000000000000000000000440d0bee5706987be528fec5c4ca5947e38161d2"
          ],
          "data": "0xffffffffffffffffffffffffffffffffffffffffffffffffffffffffffffffff",
          "blockHash": "0x1f29022ff9188040a4bc2c0b37211b8a0e6e9b8efcbd63da36159aacc32576fe",
          "blockNumber": "0x130ff1e",
          "transactionHash": "0x191c29dcafb8f699f917141c3de731277cf95b4bbfdb7c257f9fef7dd8019b46",
          "transactionIndex": "0x3",
          "logIndex": "0xe",
          "removed": false
        }
      ],
      "logsBloom": "0x00000000000000000000000000000000000000000000000000000000000000000000000000020000000000000000000000000000000000000000000000200008000000000000000000000000000000000008000000000000000000000000000000000000000000000000000400000000000000000000000000000000000002000000000000000000100000000000000000000000000000000000000000000000020000000000000000000000000000000000000000000000000000000000080000000000000000000000000000000000800000000000000000000000040000000010000000000000000000000000000000000000000000000000000000000000",
      "type": "0x2",
      "transactionHash": "0x191c29dcafb8f699f917141c3de731277cf95b4bbfdb7c257f9fef7dd8019b46",
      "transactionIndex": "0x3",
      "blockHash": "0x1f29022ff9188040a4bc2c0b37211b8a0e6e9b8efcbd63da36159aacc32576fe",
      "blockNumber": "0x130ff1e",
      "gasUsed": "0xb683",
      "effectiveGasPrice": "0xf56c5",
      "from": "0x000ef5f21dc574226a06c76aae7060642a30eb74",
      "to": "0x15906379703940bc51a5881ad1a5fc481ebc8bb1",
      "contractAddress": null,
      "l1BaseFeeScalar": "0x1db0",
      "l1BlobBaseFee": "0x1",
      "l1BlobBaseFeeScalar": "0xd2730",
      "l1Fee": "0x1b6eb1d54",
      "l1GasPrice": "0x2418633a",
      "l1GasUsed": "0x640"
    },
    {
      "status": "0x1",
      "cumulativeGasUsed": "0x11c126",
      "logs": [
        {
          "address": "0xba397efef3914ab025f7f5706fade61f240a9ebc",
          "topics": [
            "0x8c5be1e5ebec7d5bd14f71427d1e84f3dd0314c0f7b2291e5b200ac8c7c3b925",
            "0x000000000000000000000000000ef5f21dc574226a06c76aae7060642a30eb74",
            "0x000000000000000000000000440d0bee5706987be528fec5c4ca5947e38161d2"
          ],
          "data": "0xffffffffffffffffffffffffffffffffffffffffffffffffffffffffffffffff",
          "blockHash": "0x1f29022ff9188040a4bc2c0b37211b8a0e6e9b8efcbd63da36159aacc32576fe",
          "blockNumber": "0x130ff1e",
          "transactionHash": "0xc20773058864cd76a107983b0fe4e867b59e5e4fff11d209289a2c2bd2efd14e",
          "transactionIndex": "0x4",
          "logIndex": "0xf",
          "removed": false
        }
      ],
      "logsBloom": "0x00000000000000000000000000000000000000000000000000000000000000000000000000030000000000000000000000000000000000000000000020200000000000000000000000000000004000000008000000000000000000000000000000000000000000000000000400000000000000000000000000000000000002000000000000000000000000000000000000000000000000000000000000000000020000000000000000000000000000000000000000000000000000000000000000000000000000000000000000000000800000000000000000000000040000000010000000000000000000000000000000000000000000000000000000000000",
      "type": "0x2",
      "transactionHash": "0xc20773058864cd76a107983b0fe4e867b59e5e4fff11d209289a2c2bd2efd14e",
      "transactionIndex": "0x4",
      "blockHash": "0x1f29022ff9188040a4bc2c0b37211b8a0e6e9b8efcbd63da36159aacc32576fe",
      "blockNumber": "0x130ff1e",
      "gasUsed": "0xb683",
      "effectiveGasPrice": "0xf56c5",
      "from": "0x000ef5f21dc574226a06c76aae7060642a30eb74",
      "to": "0xba397efef3914ab025f7f5706fade61f240a9ebc",
      "contractAddress": null,
      "l1BaseFeeScalar": "0x1db0",
      "l1BlobBaseFee": "0x1",
      "l1BlobBaseFeeScalar": "0xd2730",
      "l1Fee": "0x1b6eb1d54",
      "l1GasPrice": "0x2418633a",
      "l1GasUsed": "0x640"
    },
    {
      "status": "0x1",
      "cumulativeGasUsed": "0x380285",
      "logs": [
        {
          "address": "0x15906379703940bc51a5881ad1a5fc481ebc8bb1",
          "topics": [
            "0x8c5be1e5ebec7d5bd14f71427d1e84f3dd0314c0f7b2291e5b200ac8c7c3b925",
            "0x000000000000000000000000000ef5f21dc574226a06c76aae7060642a30eb74",
            "0x00000000000000000000000069801c169647ad125707dd40096d4edc20bb521a"
          ],
          "data": "0xffffffffffffffffffffffffffffffffffffffffffffffffffffffffffffffff",
          "blockHash": "0x2e9c3416c726a068f7d2cd2b292ce4bb36331980e7d6141bac9f4a420c254a2a",
          "blockNumber": "0x130ff1f",
          "transactionHash": "0x72354c6370eba6d81325481786b2806f9515f992bf73f3ba79ab76e932fd526f",
          "transactionIndex": "0x4",
          "logIndex": "0x23",
          "removed": false
        }
      ],
      "logsBloom": "0x00000000000000000000000000000000000000000000000000000000000000000000000000020000000800000000000000000000000000000000000000200008000000000000000000000000000000000000000000000000000000000000000000000000000000000000000400000000000000000000000000000000000000000000000000000000100000000000000000000000000000000000000000000000020000000000000000000000000000000000000000000000000000000000080010000000000000000100000000000000000000000000000000000000040000000010000000000000000000000000000000000000000000000000000000000000",
      "type": "0x2",
      "transactionHash": "0x72354c6370eba6d81325481786b2806f9515f992bf73f3ba79ab76e932fd526f",
      "transactionIndex": "0x4",
      "blockHash": "0x2e9c3416c726a068f7d2cd2b292ce4bb36331980e7d6141bac9f4a420c254a2a",
      "blockNumber": "0x130ff1f",
      "gasUsed": "0xb683",
      "effectiveGasPrice": "0xf56c5",
      "from": "0x000ef5f21dc574226a06c76aae7060642a30eb74",
      "to": "0x15906379703940bc51a5881ad1a5fc481ebc8bb1",
      "contractAddress": null,
      "l1BaseFeeScalar": "0x1db0",
      "l1BlobBaseFee": "0x1",
      "l1BlobBaseFeeScalar": "0xd2730",
      "l1Fee": "0x1b6eb1d54",
      "l1GasPrice": "0x2418633a",
      "l1GasUsed": "0x640"
    },
    {
      "status": "0x1",
      "cumulativeGasUsed": "0x38b908",
      "logs": [
        {
          "address": "0xba397efef3914ab025f7f5706fade61f240a9ebc",
          "topics": [
            "0x8c5be1e5ebec7d5bd14f71427d1e84f3dd0314c0f7b2291e5b200ac8c7c3b925",
            "0x000000000000000000000000000ef5f21dc574226a06c76aae7060642a30eb74",
            "0x00000000000000000000000069801c169647ad125707dd40096d4edc20bb521a"
          ],
          "data": "0xffffffffffffffffffffffffffffffffffffffffffffffffffffffffffffffff",
          "blockHash": "0x2e9c3416c726a068f7d2cd2b292ce4bb36331980e7d6141bac9f4a420c254a2a",
          "blockNumber": "0x130ff1f",
          "transactionHash": "0x7e1076b67efb4421b4e1b28593f777e7b31d9dc2371d477150ee9b3ab2190625",
          "transactionIndex": "0x5",
          "logIndex": "0x24",
          "removed": false
        }
      ],
      "logsBloom": "0x00000000000000000000000000000000000000000000000000000000000000000000000000030000000800000000000000000000000000000000000020200000000000000000000000000000004000000000000000000000000000000000000000000000000000000000000400000000000000000000000000000000000000000000000000000000000000000000000000000000000000000000000000000000020000000000000000000000000000000000000000000000000000000000000010000000000000000100000000000000000000000000000000000000040000000010000000000000000000000000000000000000000000000000000000000000",
      "type": "0x2",
      "transactionHash": "0x7e1076b67efb4421b4e1b28593f777e7b31d9dc2371d477150ee9b3ab2190625",
      "transactionIndex": "0x5",
      "blockHash": "0x2e9c3416c726a068f7d2cd2b292ce4bb36331980e7d6141bac9f4a420c254a2a",
      "blockNumber": "0x130ff1f",
      "gasUsed": "0xb683",
      "effectiveGasPrice": "0xf56c5",
      "from": "0x000ef5f21dc574226a06c76aae7060642a30eb74",
      "to": "0xba397efef3914ab025f7f5706fade61f240a9ebc",
      "contractAddress": null,
      "l1BaseFeeScalar": "0x1db0",
      "l1BlobBaseFee": "0x1",
      "l1BlobBaseFeeScalar": "0xd2730",
      "l1Fee": "0x1b6eb1d54",
      "l1GasPrice": "0x2418633a",
      "l1GasUsed": "0x640"
    },
    {
      "status": "0x1",
      "cumulativeGasUsed": "0x3947ca",
      "logs": [
        {
          "address": "0x15906379703940bc51a5881ad1a5fc481ebc8bb1",
          "topics": [
            "0xddf252ad1be2c89b69c2b068fc378daa952ba7f163c4a11628f55a4df523b3ef",
            "0x0000000000000000000000000000000000000000000000000000000000000000",
            "0x000000000000000000000000000ef5f21dc574226a06c76aae7060642a30eb74"
          ],
          "data": "0x000000000000000000000000000000000000314dc6448d9338c15b0a00000000",
          "blockHash": "0x2e9c3416c726a068f7d2cd2b292ce4bb36331980e7d6141bac9f4a420c254a2a",
          "blockNumber": "0x130ff1f",
          "transactionHash": "0xc3dd43b25ed11b5a4fdaa958f2301cfd43b3b3c433ca26e4f49c1932a70731b6",
          "transactionIndex": "0x6",
          "logIndex": "0x25",
          "removed": false
        }
      ],
      "logsBloom": "0x00000000000000000000000000000000000000000000000000000000000000000000000000020000000000000000000000000000000000000000000000000008000000000000000000000008000000000000000000000000000000000000000000000000020000000000000400000800000000000000000000000010000000000000000000000000100000000000000000000000000000000000000000000000000000000000000000000000000000000000000000000000000000000000080000000002000000000000000000000000000000000000000000000000040020000000000000000000000000000000000000000000000000000000000000000000",
      "type": "0x2",
      "transactionHash": "0xc3dd43b25ed11b5a4fdaa958f2301cfd43b3b3c433ca26e4f49c1932a70731b6",
      "transactionIndex": "0x6",
      "blockHash": "0x2e9c3416c726a068f7d2cd2b292ce4bb36331980e7d6141bac9f4a420c254a2a",
      "blockNumber": "0x130ff1f",
      "gasUsed": "0x8ec2",
      "effectiveGasPrice": "0xf56c5",
      "from": "0x000ef5f21dc574226a06c76aae7060642a30eb74",
      "to": "0x15906379703940bc51a5881ad1a5fc481ebc8bb1",
      "contractAddress": null,
      "l1BaseFeeScalar": "0x1db0",
      "l1BlobBaseFee": "0x1",
      "l1BlobBaseFeeScalar": "0xd2730",
      "l1Fee": "0x1b6eb1d54",
      "l1GasPrice": "0x2418633a",
      "l1GasUsed": "0x640"
    },
    {
      "status": "0x1",
      "cumulativeGasUsed": "0x39d68c",
      "logs": [
        {
          "address": "0xba397efef3914ab025f7f5706fade61f240a9ebc",
          "topics": [
            "0xddf252ad1be2c89b69c2b068fc378daa952ba7f163c4a11628f55a4df523b3ef",
            "0x0000000000000000000000000000000000000000000000000000000000000000",
            "0x000000000000000000000000000ef5f21dc574226a06c76aae7060642a30eb74"
          ],
          "data": "0x000000000000000000000000000000000000314dc6448d9338c15b0a00000000",
          "blockHash": "0x2e9c3416c726a068f7d2cd2b292ce4bb36331980e7d6141bac9f4a420c254a2a",
          "blockNumber": "0x130ff1f",
          "transactionHash": "0x3d7853331e704eb5ca39ebf763ae41f94a6559683d77a5b29dd577fd169e641a",
          "transactionIndex": "0x7",
          "logIndex": "0x26",
          "removed": false
        }
      ],
      "logsBloom": "0x00000000000000000000000000000000000000000000000000000000000000000000000000030000000000000000000000000000000000000000000020000000000000000000000000000008004000000000000000000000000000000000000000000000020000000000000400000800000000000000000000000010000000000000000000000000000000000000000000000000000000000000000000000000000000000000000000000000000000000000000000000000000000000000000000000002000000000000000000000000000000000000000000000000040020000000000000000000000000000000000000000000000000000000000000000000",
      "type": "0x2",
      "transactionHash": "0x3d7853331e704eb5ca39ebf763ae41f94a6559683d77a5b29dd577fd169e641a",
      "transactionIndex": "0x7",
      "blockHash": "0x2e9c3416c726a068f7d2cd2b292ce4bb36331980e7d6141bac9f4a420c254a2a",
      "blockNumber": "0x130ff1f",
      "gasUsed": "0x8ec2",
      "effectiveGasPrice": "0xf56c5",
      "from": "0x000ef5f21dc574226a06c76aae7060642a30eb74",
      "to": "0xba397efef3914ab025f7f5706fade61f240a9ebc",
      "contractAddress": null,
      "l1BaseFeeScalar": "0x1db0",
      "l1BlobBaseFee": "0x1",
      "l1BlobBaseFeeScalar": "0xd2730",
      "l1Fee": "0x1b6eb1d54",
      "l1GasPrice": "0x2418633a",
      "l1GasUsed": "0x640"
    },
    {
      "status": "0x1",
      "cumulativeGasUsed": "0x4619a0",
      "logs": [
        {
          "address": "0xbbd735db53ce42a7423b0861864dad6253588040",
          "topics": [
            "0x8be0079c531659141344cd1fd0a4f28419497f9722a3daafe3b4186f6b6457e0",
            "0x0000000000000000000000000000000000000000000000000000000000000000",
            "0x0000000000000000000000004e59b44847b379578588920ca78fbf26c0b4956c"
          ],
          "data": "0x",
          "blockHash": "0x2e9c3416c726a068f7d2cd2b292ce4bb36331980e7d6141bac9f4a420c254a2a",
          "blockNumber": "0x130ff1f",
          "transactionHash": "0x6989c40e895fa13ec4f3ce8746dfc3c14534a1c490164dc13e8d23f270371d35",
          "transactionIndex": "0x8",
          "logIndex": "0x27",
          "removed": false
        }
      ],
      "logsBloom": "0x00000000000000000000000000000000000000000000000000800000000000000000000000000000000000000000000000000000000000000000000000000000000000000000000000000000000080000001000000000000000000000000000000000000220000000000000000000800000000000000000000000000000000400000000000000000000000000000000000000000001000000000000000000000000000000001000000000000000000000000000000000000000000000000000000000000000000000000000000000100000000000000000000000000000020000000000000000000000000000000000080000000000000000000000000000000",
      "type": "0x2",
      "transactionHash": "0x6989c40e895fa13ec4f3ce8746dfc3c14534a1c490164dc13e8d23f270371d35",
      "transactionIndex": "0x8",
      "blockHash": "0x2e9c3416c726a068f7d2cd2b292ce4bb36331980e7d6141bac9f4a420c254a2a",
      "blockNumber": "0x130ff1f",
      "gasUsed": "0xc4314",
      "effectiveGasPrice": "0xf56c5",
      "from": "0x000ef5f21dc574226a06c76aae7060642a30eb74",
      "to": "0x4e59b44847b379578588920ca78fbf26c0b4956c",
      "contractAddress": null,
      "l1BaseFeeScalar": "0x1db0",
      "l1BlobBaseFee": "0x1",
      "l1BlobBaseFeeScalar": "0xd2730",
      "l1Fee": "0x279d294a3d",
      "l1GasPrice": "0x2418633a",
      "l1GasUsed": "0x9067"
    },
    {
      "status": "0x1",
      "cumulativeGasUsed": "0x4775ae",
      "logs": [],
      "logsBloom": "0x00000000000000000000000000000000000000000000000000000000000000000000000000000000000000000000000000000000000000000000000000000000000000000000000000000000000000000000000000000000000000000000000000000000000000000000000000000000000000000000000000000000000000000000000000000000000000000000000000000000000000000000000000000000000000000000000000000000000000000000000000000000000000000000000000000000000000000000000000000000000000000000000000000000000000000000000000000000000000000000000000000000000000000000000000000000",
      "type": "0x2",
      "transactionHash": "0x44c1a700299bdcb660d41ba5943aa67a4977ab3d3965180003c5787e046f7220",
      "transactionIndex": "0x9",
      "blockHash": "0x2e9c3416c726a068f7d2cd2b292ce4bb36331980e7d6141bac9f4a420c254a2a",
      "blockNumber": "0x130ff1f",
      "gasUsed": "0x15c0e",
      "effectiveGasPrice": "0xf56c5",
      "from": "0x000ef5f21dc574226a06c76aae7060642a30eb74",
      "to": "0xbbd735db53ce42a7423b0861864dad6253588040",
      "contractAddress": null,
      "l1BaseFeeScalar": "0x1db0",
      "l1BlobBaseFee": "0x1",
      "l1BlobBaseFeeScalar": "0xd2730",
      "l1Fee": "0x1d64ab7b7",
      "l1GasPrice": "0x2418633a",
      "l1GasUsed": "0x6b2"
    },
    {
      "status": "0x1",
      "cumulativeGasUsed": "0x484434",
      "logs": [
        {
          "address": "0x536527976e98e253b424a3655e695d144e343341",
          "topics": [
            "0xdd466e674ea557f56295e2d0218a125ea4b4f0f6f3307b95f85e6110838d6438",
            "0x90aa240e15ba025cea34cc5e314e0bbe1bd10d88fe6615ee1eb7b1b0cf89faca",
            "0x00000000000000000000000015906379703940bc51a5881ad1a5fc481ebc8bb1",
            "0x000000000000000000000000ba397efef3914ab025f7f5706fade61f240a9ebc"
          ],
          "data": "0x0000000000000000000000000000000000000000000000000000000000000bb80000000000000000000000000000000000000000000000000000000000000078000000000000000000000000bbd735db53ce42a7423b0861864dad625358804000000000000000000000000000000000000000010000000000000000000000000000000000000000000000000000000000000000000000000000000000000000",
          "blockHash": "0x2e9c3416c726a068f7d2cd2b292ce4bb36331980e7d6141bac9f4a420c254a2a",
          "blockNumber": "0x130ff1f",
          "transactionHash": "0x959a9313f8ba53e966e97449d626c2bc78643b883d1cf633c15ca385dac57338",
          "transactionIndex": "0xa",
          "logIndex": "0x28",
          "removed": false
        }
      ],
      "logsBloom": "0x00000000004200000000000000000000000000000000000000000000000000000000000000000000000000000000000000000000000200000000000000000000000000000000000000000200000000000000000000000000000000000000000000000000000000000000000000000000000000000000000000000000000000040000000000000008000000000000000000000001000000000040000000200000000000000000000000004000000000000000000000000000000000000000000000000000000200080000000000000000000000000000000000000000000000000000002000000000008000000000000000000000080000000000000000000000",
      "type": "0x2",
      "transactionHash": "0x959a9313f8ba53e966e97449d626c2bc78643b883d1cf633c15ca385dac57338",
      "transactionIndex": "0xa",
      "blockHash": "0x2e9c3416c726a068f7d2cd2b292ce4bb36331980e7d6141bac9f4a420c254a2a",
      "blockNumber": "0x130ff1f",
      "gasUsed": "0xce86",
      "effectiveGasPrice": "0xf56c5",
      "from": "0x000ef5f21dc574226a06c76aae7060642a30eb74",
      "to": "0x536527976e98e253b424a3655e695d144e343341",
      "contractAddress": null,
      "l1BaseFeeScalar": "0x1db0",
      "l1BlobBaseFee": "0x1",
      "l1BlobBaseFeeScalar": "0xd2730",
      "l1Fee": "0x277d715e9",
      "l1GasPrice": "0x2418633a",
      "l1GasUsed": "0x8ff"
    },
    {
      "status": "0x1",
      "cumulativeGasUsed": "0x4cdbd3",
      "logs": [
        {
          "address": "0x536527976e98e253b424a3655e695d144e343341",
          "topics": [
            "0xf208f4912782fd25c7f114ca3723a2d5dd6f3bcc3ac8db5af63baa85f711d5ec",
            "0x90aa240e15ba025cea34cc5e314e0bbe1bd10d88fe6615ee1eb7b1b0cf89faca",
            "0x000000000000000000000000440d0bee5706987be528fec5c4ca5947e38161d2"
          ],
          "data": "0xffffffffffffffffffffffffffffffffffffffffffffffffffffffffffffff88000000000000000000000000000000000000000000000000000000000000007800000000000000000000000000000000000000000000021e19e0c9bab24000000000000000000000000000000000000000000000000000000000000000000000",
          "blockHash": "0x2e9c3416c726a068f7d2cd2b292ce4bb36331980e7d6141bac9f4a420c254a2a",
          "blockNumber": "0x130ff1f",
          "transactionHash": "0x7b757a8ebd5c8c99a7d75ab8f770e8dc2a007e74f18264c6e2bc7e113802aa25",
          "transactionIndex": "0xb",
          "logIndex": "0x29",
          "removed": false
        },
        {
          "address": "0x15906379703940bc51a5881ad1a5fc481ebc8bb1",
          "topics": [
            "0xddf252ad1be2c89b69c2b068fc378daa952ba7f163c4a11628f55a4df523b3ef",
            "0x000000000000000000000000000ef5f21dc574226a06c76aae7060642a30eb74",
            "0x000000000000000000000000536527976e98e253b424a3655e695d144e343341"
          ],
          "data": "0x0000000000000000000000000000000000000000000000033e2204017b30d746",
          "blockHash": "0x2e9c3416c726a068f7d2cd2b292ce4bb36331980e7d6141bac9f4a420c254a2a",
          "blockNumber": "0x130ff1f",
          "transactionHash": "0x7b757a8ebd5c8c99a7d75ab8f770e8dc2a007e74f18264c6e2bc7e113802aa25",
          "transactionIndex": "0xb",
          "logIndex": "0x2a",
          "removed": false
        },
        {
          "address": "0xba397efef3914ab025f7f5706fade61f240a9ebc",
          "topics": [
            "0xddf252ad1be2c89b69c2b068fc378daa952ba7f163c4a11628f55a4df523b3ef",
            "0x000000000000000000000000000ef5f21dc574226a06c76aae7060642a30eb74",
            "0x000000000000000000000000536527976e98e253b424a3655e695d144e343341"
          ],
          "data": "0x0000000000000000000000000000000000000000000000033e2204017b30d746",
          "blockHash": "0x2e9c3416c726a068f7d2cd2b292ce4bb36331980e7d6141bac9f4a420c254a2a",
          "blockNumber": "0x130ff1f",
          "transactionHash": "0x7b757a8ebd5c8c99a7d75ab8f770e8dc2a007e74f18264c6e2bc7e113802aa25",
          "transactionIndex": "0xb",
          "logIndex": "0x2b",
          "removed": false
        }
      ],
      "logsBloom": "0x00000000004000000000000000000000000000000000000000000000000000000000000000030000000000000000000000000000000000000000000020000008000000000000000000000208004000000008000000000000000000000000000000000000000000000000000400000000040000000000000000000010000002000000020001000000100000000000000000000000000000000040000000000000000004000000000000004000000000000000000000000000000000000000080000000002000200000000000000000000800000000000000000000000040000000000000000000000008000000000000004000000008000000000000000000000",
      "type": "0x2",
      "transactionHash": "0x7b757a8ebd5c8c99a7d75ab8f770e8dc2a007e74f18264c6e2bc7e113802aa25",
      "transactionIndex": "0xb",
      "blockHash": "0x2e9c3416c726a068f7d2cd2b292ce4bb36331980e7d6141bac9f4a420c254a2a",
      "blockNumber": "0x130ff1f",
      "gasUsed": "0x4979f",
      "effectiveGasPrice": "0xf56c5",
      "from": "0x000ef5f21dc574226a06c76aae7060642a30eb74",
      "to": "0x440d0bee5706987be528fec5c4ca5947e38161d2",
      "contractAddress": null,
      "l1BaseFeeScalar": "0x1db0",
      "l1BlobBaseFee": "0x1",
      "l1BlobBaseFeeScalar": "0xd2730",
      "l1Fee": "0x2daf8db59",
      "l1GasPrice": "0x2418633a",
      "l1GasUsed": "0xa68"
    }
  ],
  "libraries": [],
  "pending": [],
  "returns": {},
  "timestamp": 1731779052,
  "chain": 11155420,
  "commit": "93d8b93"
}