{
  "transactions": [
    {
      "hash": "0x8c1dd6cdf17cc35334c1b346bdef2d987c4fc20efab3f7bf16eeb8849092b796",
      "transactionType": "CALL",
      "contractName": null,
      "contractAddress": "0x15906379703940bc51a5881ad1a5fc481ebc8bb1",
      "function": "approve(address,uint256)",
      "arguments": [
        "0x5F1933923909C6a65a6769fA0d6F157857e33c48",
        "115792089237316195423570985008687907853269984665640564039457584007913129639935"
      ],
      "transaction": {
        "from": "0x000ef5f21dc574226a06c76aae7060642a30eb74",
        "to": "0x15906379703940bc51a5881ad1a5fc481ebc8bb1",
        "gas": "0x10aeb",
        "value": "0x0",
        "input": "0x095ea7b30000000000000000000000005f1933923909c6a65a6769fa0d6f157857e33c48ffffffffffffffffffffffffffffffffffffffffffffffffffffffffffffffff",
        "nonce": "0x25",
        "chainId": "0xaa37dc"
      },
      "additionalContracts": [],
      "isFixedGasLimit": false
    },
    {
      "hash": "0x239d4eeca9b12d27f5079182e7d48f3f6a5c982120911e105d52f56a81033bf9",
      "transactionType": "CALL",
      "contractName": null,
      "contractAddress": "0xba397efef3914ab025f7f5706fade61f240a9ebc",
      "function": "approve(address,uint256)",
      "arguments": [
        "0x5F1933923909C6a65a6769fA0d6F157857e33c48",
        "115792089237316195423570985008687907853269984665640564039457584007913129639935"
      ],
      "transaction": {
        "from": "0x000ef5f21dc574226a06c76aae7060642a30eb74",
        "to": "0xba397efef3914ab025f7f5706fade61f240a9ebc",
        "gas": "0x10aeb",
        "value": "0x0",
        "input": "0x095ea7b30000000000000000000000005f1933923909c6a65a6769fa0d6f157857e33c48ffffffffffffffffffffffffffffffffffffffffffffffffffffffffffffffff",
        "nonce": "0x26",
        "chainId": "0xaa37dc"
      },
      "additionalContracts": [],
      "isFixedGasLimit": false
    },
    {
      "hash": "0x0c5510cec0a2b64c7b7c0df559ca706f78831c3ec7d60656b1a28b02de78510d",
      "transactionType": "CALL",
      "contractName": null,
      "contractAddress": "0x15906379703940bc51a5881ad1a5fc481ebc8bb1",
      "function": "approve(address,uint256)",
      "arguments": [
        "0x9d8F28B52504112A8C89df9095ca3BF346286787",
        "115792089237316195423570985008687907853269984665640564039457584007913129639935"
      ],
      "transaction": {
        "from": "0x000ef5f21dc574226a06c76aae7060642a30eb74",
        "to": "0x15906379703940bc51a5881ad1a5fc481ebc8bb1",
        "gas": "0x10aeb",
        "value": "0x0",
        "input": "0x095ea7b30000000000000000000000009d8f28b52504112a8c89df9095ca3bf346286787ffffffffffffffffffffffffffffffffffffffffffffffffffffffffffffffff",
        "nonce": "0x27",
        "chainId": "0xaa37dc"
      },
      "additionalContracts": [],
      "isFixedGasLimit": false
    },
    {
      "hash": "0x83677544e18e58016baf480305ad3103294ea539c76d46c4bf0ee98c26f91138",
      "transactionType": "CALL",
      "contractName": null,
      "contractAddress": "0xba397efef3914ab025f7f5706fade61f240a9ebc",
      "function": "approve(address,uint256)",
      "arguments": [
        "0x9d8F28B52504112A8C89df9095ca3BF346286787",
        "115792089237316195423570985008687907853269984665640564039457584007913129639935"
      ],
      "transaction": {
        "from": "0x000ef5f21dc574226a06c76aae7060642a30eb74",
        "to": "0xba397efef3914ab025f7f5706fade61f240a9ebc",
        "gas": "0x10aeb",
        "value": "0x0",
        "input": "0x095ea7b30000000000000000000000009d8f28b52504112a8c89df9095ca3bf346286787ffffffffffffffffffffffffffffffffffffffffffffffffffffffffffffffff",
        "nonce": "0x28",
        "chainId": "0xaa37dc"
      },
      "additionalContracts": [],
      "isFixedGasLimit": false
    },
    {
      "hash": "0x1c3e9fcba1af1a5db89d4dd7cf3c34c457da38cf2c4c2c30ce1f95b94eb3bc16",
      "transactionType": "CALL",
      "contractName": null,
      "contractAddress": "0x15906379703940bc51a5881ad1a5fc481ebc8bb1",
      "function": "mint(address,uint256)",
      "arguments": [
        "0x000ef5F21dC574226A06C76AAE7060642A30eB74",
        "100000000000000000000"
      ],
      "transaction": {
        "from": "0x000ef5f21dc574226a06c76aae7060642a30eb74",
        "to": "0x15906379703940bc51a5881ad1a5fc481ebc8bb1",
        "gas": "0xc4fc",
        "value": "0x0",
        "input": "0x40c10f19000000000000000000000000000ef5f21dc574226a06c76aae7060642a30eb740000000000000000000000000000000000000000000000056bc75e2d63100000",
        "nonce": "0x29",
        "chainId": "0xaa37dc"
      },
      "additionalContracts": [],
      "isFixedGasLimit": false
    },
    {
      "hash": "0x7d9b7ec9e9dcf42d8b996fa8d9df5fd647eb8bdb2432c18fc26f2bb828c1dc8a",
      "transactionType": "CALL",
      "contractName": null,
      "contractAddress": "0xba397efef3914ab025f7f5706fade61f240a9ebc",
      "function": "mint(address,uint256)",
      "arguments": [
        "0x000ef5F21dC574226A06C76AAE7060642A30eB74",
        "100000000000000000000"
      ],
      "transaction": {
        "from": "0x000ef5f21dc574226a06c76aae7060642a30eb74",
        "to": "0xba397efef3914ab025f7f5706fade61f240a9ebc",
        "gas": "0xc4fc",
        "value": "0x0",
        "input": "0x40c10f19000000000000000000000000000ef5f21dc574226a06c76aae7060642a30eb740000000000000000000000000000000000000000000000056bc75e2d63100000",
        "nonce": "0x2a",
        "chainId": "0xaa37dc"
      },
      "additionalContracts": [],
      "isFixedGasLimit": false
    },
    {
      "hash": "0x7c08158f63288ccff5bc98f769956bc5a153a6a09944396dfa89892004587500",
      "transactionType": "CREATE2",
      "contractName": "RewardHook",
      "contractAddress": "0x9deb19c2942bf08678c9c82b188b9b4f82e3c040",
      "function": null,
      "arguments": [
        "0x74Bb711D032B5Df4F63dc04EA4422807D768aC08"
      ],
      "transaction": {
        "from": "0x000ef5f21dc574226a06c76aae7060642a30eb74",
        "to": "0x4e59b44847b379578588920ca78fbf26c0b4956c",
        "gas": "0x10feff",
        "value": "0x0",
        "input": "0x0000000000000000000000000000000000000000000000000000000000012beb60a060405234801561000f575f80fd5b5060405161105638038061105683398101604081905261002e9161032b565b6001600160a01b038116608052338161004630610084565b506001600160a01b03811661007457604051631e4fbdf760e01b81525f600482015260240160405180910390fd5b61007d81610177565b5050610358565b6101748161016f604080516101c0810182525f80825260208201819052918101829052606081018290526080810182905260a0810182905260c0810182905260e08101829052610100810182905261012081018290526101408101829052610160810182905261018081018290526101a081019190915250604080516101c0810182525f80825260208201819052918101829052606081018290526080810182905260a0810182905260c08101829052600160e0820152610100810182905261012081018290526101408101829052610160810182905261018081018290526101a081019190915290565b6101c6565b50565b5f80546001600160a01b038381166001600160a01b0319831681178455604051919092169283917f8be0079c531659141344cd1fd0a4f28419497f9722a3daafe3b4186f6b6457e09190a35050565b80511515612000831615151415806101ea5750602081015115156110008316151514155b806102015750604081015115156108008316151514155b806102185750606081015115156104008316151514155b8061022f5750608081015115156102008316151514155b80610246575060a081015115156101008316151514155b8061025c575060c0810151151560808316151514155b80610272575060e0810151151560408316151514155b806102895750610100810151151560208316151514155b806102a05750610120810151151560108316151514155b806102b75750610140810151151560088316151514155b806102ce5750610160810151151560048316151514155b806102e55750610180810151151560028316151514155b806102fc57506101a0810151151560018316151514155b1561031257610312630732d7b560e51b83610316565b5050565b815f526001600160a01b03811660045260245ffd5b5f6020828403121561033b575f80fd5b81516001600160a01b0381168114610351575f80fd5b9392505050565b608051610cdf6103775f395f818161035801526104530152610cdf5ff3fe608060405234801561000f575f80fd5b5060043610610106575f3560e01c806391dd73461161009e578063c4e833ce1161006e578063c4e833ce1461025f578063dc4c90d314610353578063dc98354e1461037a578063e1b4af6914610251578063f2fde38b14610388575f80fd5b806391dd7346146101fb5780639f063efc1461018e578063b47b2fb11461021b578063b6a8b0fa14610251575f80fd5b80636c2bbe7e116100d95780636c2bbe7e1461018e5780636fe7e6eb146101c1578063715018a6146101cf5780638da5cb5b146101d7575f80fd5b8063065c981a1461010a57806321d0ee701461011f578063259982e51461011f578063575e24b414610150575b5f80fd5b61011d610118366004610715565b61039b565b005b61013261012d3660046107c8565b6103e2565b6040516001600160e01b031990911681526020015b60405180910390f35b61016361015e36600461084f565b6103fc565b604080516001600160e01b03199094168452602084019290925262ffffff1690820152606001610147565b6101a161019c3660046108a9565b610418565b604080516001600160e01b03199093168352602083019190915201610147565b61013261012d366004610934565b61011d610433565b5f546001600160a01b03165b6040516001600160a01b039091168152602001610147565b61020e610209366004610993565b610446565b60405161014791906109d2565b61022e610229366004610a07565b6104a4565b604080516001600160e01b03199093168352600f9190910b602083015201610147565b61013261012d366004610a88565b610346604080516101c0810182525f80825260208201819052918101829052606081018290526080810182905260a0810182905260c0810182905260e08101829052610100810182905261012081018290526101408101829052610160810182905261018081018290526101a081019190915250604080516101c0810182525f80825260208201819052918101829052606081018290526080810182905260a0810182905260c08101829052600160e0820152610100810182905261012081018290526101408101829052610160810182905261018081018290526101a081019190915290565b6040516101479190610ae2565b6101e37f000000000000000000000000000000000000000000000000000000000000000081565b61013261012d366004610c03565b61011d610396366004610c3f565b610528565b6103a361056a565b600180546001600160a01b039485166001600160a01b031991821617909155600280549385169382169390931790925560038054919093169116179055565b5f604051630a85dc2960e01b815260040160405180910390fd5b5f805f604051630a85dc2960e01b815260040160405180910390fd5b5f80604051630a85dc2960e01b815260040160405180910390fd5b61043b61056a565b6104445f610596565b565b6060336001600160a01b037f000000000000000000000000000000000000000000000000000000000000000016146104915760405163570c108560e11b815260040160405180910390fd5b61049b83836105e5565b90505b92915050565b5f806104b36020880188610c3f565b6002546001600160a01b0390811691161480156104ed57506104db6040880160208901610c3f565b6003546001600160a01b039081169116145b156105125761051284846105018860801d90565b61050a90610c61565b600f0b61067e565b5063b47b2fb160e01b975f975095505050505050565b61053061056a565b6001600160a01b03811661055e57604051631e4fbdf760e01b81525f60048201526024015b60405180910390fd5b61056781610596565b50565b5f546001600160a01b031633146104445760405163118cdaa760e01b8152336004820152602401610555565b5f80546001600160a01b038381166001600160a01b0319831681178455604051919092169283917f8be0079c531659141344cd1fd0a4f28419497f9722a3daafe3b4186f6b6457e09190a35050565b60605f80306001600160a01b03168585604051610603929190610c9a565b5f604051808303815f865af19150503d805f811461063c576040519150601f19603f3d011682016040523d82523d5f602084013e610641565b606091505b5091509150811561065557915061049e9050565b80515f03610676576040516314815f4760e31b815260040160405180910390fd5b805160208201fd5b5f82900361068b57505050565b5f61069883850185610c3f565b6001546040516340c10f1960e01b81526001600160a01b038084166004830152602482018690529293509116906340c10f19906044015f604051808303815f87803b1580156106e5575f80fd5b505af11580156106f7573d5f803e3d5ffd5b5050505050505050565b6001600160a01b0381168114610567575f80fd5b5f805f60608486031215610727575f80fd5b833561073281610701565b9250602084013561074281610701565b9150604084013561075281610701565b809150509250925092565b5f60a0828403121561076d575f80fd5b50919050565b5f6080828403121561076d575f80fd5b5f8083601f840112610793575f80fd5b50813567ffffffffffffffff8111156107aa575f80fd5b6020830191508360208285010111156107c1575f80fd5b9250929050565b5f805f805f61016086880312156107dd575f80fd5b85356107e881610701565b94506107f7876020880161075d565b93506108068760c08801610773565b925061014086013567ffffffffffffffff811115610822575f80fd5b61082e88828901610783565b969995985093965092949392505050565b5f6060828403121561076d575f80fd5b5f805f805f6101408688031215610864575f80fd5b853561086f81610701565b945061087e876020880161075d565b935061088d8760c0880161083f565b925061012086013567ffffffffffffffff811115610822575f80fd5b5f805f805f805f6101a0888a0312156108c0575f80fd5b87356108cb81610701565b96506108da8960208a0161075d565b95506108e98960c08a01610773565b94506101408801359350610160880135925061018088013567ffffffffffffffff811115610915575f80fd5b6109218a828b01610783565b989b979a50959850939692959293505050565b5f805f806101008587031215610948575f80fd5b843561095381610701565b9350610962866020870161075d565b925060c085013561097281610701565b915060e0850135600281900b8114610988575f80fd5b939692955090935050565b5f80602083850312156109a4575f80fd5b823567ffffffffffffffff8111156109ba575f80fd5b6109c685828601610783565b90969095509350505050565b602081525f82518060208401528060208501604085015e5f604082850101526040601f19601f83011684010191505092915050565b5f805f805f806101608789031215610a1d575f80fd5b8635610a2881610701565b9550610a37886020890161075d565b9450610a468860c0890161083f565b9350610120870135925061014087013567ffffffffffffffff811115610a6a575f80fd5b610a7689828a01610783565b979a9699509497509295939492505050565b5f805f805f806101208789031215610a9e575f80fd5b8635610aa981610701565b9550610ab8886020890161075d565b945060c0870135935060e0870135925061010087013567ffffffffffffffff811115610a6a575f80fd5b8151151581526101c081016020830151610b00602084018215159052565b506040830151610b14604084018215159052565b506060830151610b28606084018215159052565b506080830151610b3c608084018215159052565b5060a0830151610b5060a084018215159052565b5060c0830151610b6460c084018215159052565b5060e0830151610b7860e084018215159052565b50610100830151610b8e61010084018215159052565b50610120830151610ba461012084018215159052565b50610140830151610bba61014084018215159052565b50610160830151610bd061016084018215159052565b50610180830151610be661018084018215159052565b506101a0830151610bfc6101a084018215159052565b5092915050565b5f805f60e08486031215610c15575f80fd5b8335610c2081610701565b9250610c2f856020860161075d565b915060c084013561075281610701565b5f60208284031215610c4f575f80fd5b8135610c5a81610701565b9392505050565b5f81600f0b6f7fffffffffffffffffffffffffffffff198103610c9257634e487b7160e01b5f52601160045260245ffd5b5f0392915050565b818382375f910190815291905056fea26469706673582212208b28b5dc775d8d191bd92c90754a9fdacf455c82bd68d1fba503cbf59df6a99664736f6c634300081a003300000000000000000000000074bb711d032b5df4f63dc04ea4422807d768ac08",
        "nonce": "0x2b",
        "chainId": "0xaa37dc"
      },
      "additionalContracts": [],
      "isFixedGasLimit": false
    },
    {
      "hash": "0xfcb72bcae9d141321529b9cba831f70a0d23690244059b950d532c8ca6c15c1f",
      "transactionType": "CALL",
      "contractName": null,
      "contractAddress": "0x74bb711d032b5df4f63dc04ea4422807d768ac08",
      "function": "initialize((address,address,uint24,int24,address),uint160)",
      "arguments": [
        "(0x15906379703940bc51a5881Ad1a5fc481Ebc8bB1, 0xbA397eFEF3914aB025F7f5706fADE61f240A9EbC, 3000, 120, 0x9DEB19C2942Bf08678c9C82B188b9b4F82e3C040)",
        "79228162514264337593543950336"
      ],
      "transaction": {
        "from": "0x000ef5f21dc574226a06c76aae7060642a30eb74",
        "to": "0x74bb711d032b5df4f63dc04ea4422807d768ac08",
        "gas": "0x11d42",
        "value": "0x0",
        "input": "0x6276cbbe00000000000000000000000015906379703940bc51a5881ad1a5fc481ebc8bb1000000000000000000000000ba397efef3914ab025f7f5706fade61f240a9ebc0000000000000000000000000000000000000000000000000000000000000bb800000000000000000000000000000000000000000000000000000000000000780000000000000000000000009deb19c2942bf08678c9c82b188b9b4f82e3c0400000000000000000000000000000000000000001000000000000000000000000",
        "nonce": "0x2c",
        "chainId": "0xaa37dc"
      },
      "additionalContracts": [],
      "isFixedGasLimit": false
    },
    {
      "hash": "0x15d8d3ce05b97690266f2a6056fdd74ef220ca939911b52ad0bd42cd067a0581",
      "transactionType": "CALL",
      "contractName": null,
      "contractAddress": "0x5f1933923909c6a65a6769fa0d6f157857e33c48",
      "function": "modifyLiquidity((address,address,uint24,int24,address),(int24,int24,int256,bytes32),bytes)",
      "arguments": [
        "(0x15906379703940bc51a5881Ad1a5fc481Ebc8bB1, 0xbA397eFEF3914aB025F7f5706fADE61f240A9EbC, 3000, 120, 0x9DEB19C2942Bf08678c9C82B188b9b4F82e3C040)",
        "(-120, 120, 10000000000000000000, 0x0000000000000000000000000000000000000000000000000000000000000000)",
        "0x"
      ],
      "transaction": {
        "from": "0x000ef5f21dc574226a06c76aae7060642a30eb74",
        "to": "0x5f1933923909c6a65a6769fa0d6f157857e33c48",
        "gas": "0x65614",
        "value": "0x0",
        "input": "0x5a6bcfda00000000000000000000000015906379703940bc51a5881ad1a5fc481ebc8bb1000000000000000000000000ba397efef3914ab025f7f5706fade61f240a9ebc0000000000000000000000000000000000000000000000000000000000000bb800000000000000000000000000000000000000000000000000000000000000780000000000000000000000009deb19c2942bf08678c9c82b188b9b4f82e3c040ffffffffffffffffffffffffffffffffffffffffffffffffffffffffffffff8800000000000000000000000000000000000000000000000000000000000000780000000000000000000000000000000000000000000000008ac7230489e80000000000000000000000000000000000000000000000000000000000000000000000000000000000000000000000000000000000000000000000000000000001400000000000000000000000000000000000000000000000000000000000000000",
        "nonce": "0x2d",
        "chainId": "0xaa37dc"
      },
      "additionalContracts": [],
      "isFixedGasLimit": false
    }
  ],
  "receipts": [
    {
      "status": "0x1",
      "cumulativeGasUsed": "0x19e742",
      "logs": [
        {
          "address": "0x15906379703940bc51a5881ad1a5fc481ebc8bb1",
          "topics": [
            "0x8c5be1e5ebec7d5bd14f71427d1e84f3dd0314c0f7b2291e5b200ac8c7c3b925",
            "0x000000000000000000000000000ef5f21dc574226a06c76aae7060642a30eb74",
            "0x0000000000000000000000005f1933923909c6a65a6769fa0d6f157857e33c48"
          ],
          "data": "0xffffffffffffffffffffffffffffffffffffffffffffffffffffffffffffffff",
          "blockHash": "0xe61f6acab307c594dbc605699a85d2dffb04a220692f8e404d729a263de19230",
          "blockNumber": "0x130fa3a",
          "transactionHash": "0x8c1dd6cdf17cc35334c1b346bdef2d987c4fc20efab3f7bf16eeb8849092b796",
          "transactionIndex": "0x3",
          "logIndex": "0x12",
          "removed": false
        }
      ],
      "logsBloom": "0x00000000000000000000000000000000000000000000000000000000000000000000000000020000000000000000000000000000000000000000000000200008000000000000000000000000000000000000000000000000000000000000000000000000000000000000000400000000000000000000000000000000000000000000000000000000100000000000000000000000000000000000000000000000020000000000000000000000000000000000000000000000000000000000080000000000000000001000000000000000000000000000000000000000040000000010000000000000000000000000000000000100000000000000002000000000",
      "type": "0x2",
      "transactionHash": "0x8c1dd6cdf17cc35334c1b346bdef2d987c4fc20efab3f7bf16eeb8849092b796",
      "transactionIndex": "0x3",
      "blockHash": "0xe61f6acab307c594dbc605699a85d2dffb04a220692f8e404d729a263de19230",
      "blockNumber": "0x130fa3a",
      "gasUsed": "0xb683",
      "effectiveGasPrice": "0xf6a4d",
      "from": "0x000ef5f21dc574226a06c76aae7060642a30eb74",
      "to": "0x15906379703940bc51a5881ad1a5fc481ebc8bb1",
      "contractAddress": null,
      "l1BaseFeeScalar": "0x1db0",
      "l1BlobBaseFee": "0x1",
      "l1BlobBaseFeeScalar": "0xd2730",
      "l1Fee": "0x1bd75e437",
      "l1GasPrice": "0x24a21db0",
      "l1GasUsed": "0x640"
    },
    {
      "status": "0x1",
      "cumulativeGasUsed": "0x17a012",
      "logs": [
        {
          "address": "0xba397efef3914ab025f7f5706fade61f240a9ebc",
          "topics": [
            "0x8c5be1e5ebec7d5bd14f71427d1e84f3dd0314c0f7b2291e5b200ac8c7c3b925",
            "0x000000000000000000000000000ef5f21dc574226a06c76aae7060642a30eb74",
            "0x0000000000000000000000005f1933923909c6a65a6769fa0d6f157857e33c48"
          ],
          "data": "0xffffffffffffffffffffffffffffffffffffffffffffffffffffffffffffffff",
          "blockHash": "0xbeb18edb2f067dfe9e128604bfe46054bb32423c6230707c63a3d994d8f3a79a",
          "blockNumber": "0x130fa3b",
          "transactionHash": "0x239d4eeca9b12d27f5079182e7d48f3f6a5c982120911e105d52f56a81033bf9",
          "transactionIndex": "0x2",
          "logIndex": "0x10",
          "removed": false
        }
      ],
      "logsBloom": "0x00000000000000000000000000000000000000000000000000000000000000000000000000030000000000000000000000000000000000000000000020200000000000000000000000000000004000000000000000000000000000000000000000000000000000000000000400000000000000000000000000000000000000000000000000000000000000000000000000000000000000000000000000000000020000000000000000000000000000000000000000000000000000000000000000000000000000001000000000000000000000000000000000000000040000000010000000000000000000000000000000000100000000000000002000000000",
      "type": "0x2",
      "transactionHash": "0x239d4eeca9b12d27f5079182e7d48f3f6a5c982120911e105d52f56a81033bf9",
      "transactionIndex": "0x2",
      "blockHash": "0xbeb18edb2f067dfe9e128604bfe46054bb32423c6230707c63a3d994d8f3a79a",
      "blockNumber": "0x130fa3b",
      "gasUsed": "0xb683",
      "effectiveGasPrice": "0xf6a4d",
      "from": "0x000ef5f21dc574226a06c76aae7060642a30eb74",
      "to": "0xba397efef3914ab025f7f5706fade61f240a9ebc",
      "contractAddress": null,
      "l1BaseFeeScalar": "0x1db0",
      "l1BlobBaseFee": "0x1",
      "l1BlobBaseFeeScalar": "0xd2730",
      "l1Fee": "0x1b5f58f5b",
      "l1GasPrice": "0x240431a8",
      "l1GasUsed": "0x640"
    },
    {
      "status": "0x1",
      "cumulativeGasUsed": "0x185695",
      "logs": [
        {
          "address": "0x15906379703940bc51a5881ad1a5fc481ebc8bb1",
          "topics": [
            "0x8c5be1e5ebec7d5bd14f71427d1e84f3dd0314c0f7b2291e5b200ac8c7c3b925",
            "0x000000000000000000000000000ef5f21dc574226a06c76aae7060642a30eb74",
            "0x0000000000000000000000009d8f28b52504112a8c89df9095ca3bf346286787"
          ],
          "data": "0xffffffffffffffffffffffffffffffffffffffffffffffffffffffffffffffff",
          "blockHash": "0xbeb18edb2f067dfe9e128604bfe46054bb32423c6230707c63a3d994d8f3a79a",
          "blockNumber": "0x130fa3b",
          "transactionHash": "0x0c5510cec0a2b64c7b7c0df559ca706f78831c3ec7d60656b1a28b02de78510d",
          "transactionIndex": "0x3",
          "logIndex": "0x11",
          "removed": false
        }
      ],
      "logsBloom": "0x00000000000000000000000000000000000000000000000000000000000000000000000000020000000000000000000000000000000000000000000000200008000000000000000000000000000000000000000000000000000000000000000000000000000000000400000400000000000000000000000000000000000000000000000000000000100000000000000000000000000000000001000000000000020000000000000000000000000000000000000000000000000000000000080000000000000000000000000000000000000000000000000000000000040000000010000000000000000000000000010000000000000000000000000000000000",
      "type": "0x2",
      "transactionHash": "0x0c5510cec0a2b64c7b7c0df559ca706f78831c3ec7d60656b1a28b02de78510d",
      "transactionIndex": "0x3",
      "blockHash": "0xbeb18edb2f067dfe9e128604bfe46054bb32423c6230707c63a3d994d8f3a79a",
      "blockNumber": "0x130fa3b",
      "gasUsed": "0xb683",
      "effectiveGasPrice": "0xf6a4d",
      "from": "0x000ef5f21dc574226a06c76aae7060642a30eb74",
      "to": "0x15906379703940bc51a5881ad1a5fc481ebc8bb1",
      "contractAddress": null,
      "l1BaseFeeScalar": "0x1db0",
      "l1BlobBaseFee": "0x1",
      "l1BlobBaseFeeScalar": "0xd2730",
      "l1Fee": "0x1b5f58f5b",
      "l1GasPrice": "0x240431a8",
      "l1GasUsed": "0x640"
    },
    {
      "status": "0x1",
      "cumulativeGasUsed": "0x190d18",
      "logs": [
        {
          "address": "0xba397efef3914ab025f7f5706fade61f240a9ebc",
          "topics": [
            "0x8c5be1e5ebec7d5bd14f71427d1e84f3dd0314c0f7b2291e5b200ac8c7c3b925",
            "0x000000000000000000000000000ef5f21dc574226a06c76aae7060642a30eb74",
            "0x0000000000000000000000009d8f28b52504112a8c89df9095ca3bf346286787"
          ],
          "data": "0xffffffffffffffffffffffffffffffffffffffffffffffffffffffffffffffff",
          "blockHash": "0xbeb18edb2f067dfe9e128604bfe46054bb32423c6230707c63a3d994d8f3a79a",
          "blockNumber": "0x130fa3b",
          "transactionHash": "0x83677544e18e58016baf480305ad3103294ea539c76d46c4bf0ee98c26f91138",
          "transactionIndex": "0x4",
          "logIndex": "0x12",
          "removed": false
        }
      ],
      "logsBloom": "0x00000000000000000000000000000000000000000000000000000000000000000000000000030000000000000000000000000000000000000000000020200000000000000000000000000000004000000000000000000000000000000000000000000000000000000400000400000000000000000000000000000000000000000000000000000000000000000000000000000000000000000001000000000000020000000000000000000000000000000000000000000000000000000000000000000000000000000000000000000000000000000000000000000000040000000010000000000000000000000000010000000000000000000000000000000000",
      "type": "0x2",
      "transactionHash": "0x83677544e18e58016baf480305ad3103294ea539c76d46c4bf0ee98c26f91138",
      "transactionIndex": "0x4",
      "blockHash": "0xbeb18edb2f067dfe9e128604bfe46054bb32423c6230707c63a3d994d8f3a79a",
      "blockNumber": "0x130fa3b",
      "gasUsed": "0xb683",
      "effectiveGasPrice": "0xf6a4d",
      "from": "0x000ef5f21dc574226a06c76aae7060642a30eb74",
      "to": "0xba397efef3914ab025f7f5706fade61f240a9ebc",
      "contractAddress": null,
      "l1BaseFeeScalar": "0x1db0",
      "l1BlobBaseFee": "0x1",
      "l1BlobBaseFeeScalar": "0xd2730",
      "l1Fee": "0x1b5f58f5b",
      "l1GasPrice": "0x240431a8",
      "l1GasUsed": "0x640"
    },
    {
      "status": "0x1",
      "cumulativeGasUsed": "0x199bb6",
      "logs": [
        {
          "address": "0x15906379703940bc51a5881ad1a5fc481ebc8bb1",
          "topics": [
            "0xddf252ad1be2c89b69c2b068fc378daa952ba7f163c4a11628f55a4df523b3ef",
            "0x0000000000000000000000000000000000000000000000000000000000000000",
            "0x000000000000000000000000000ef5f21dc574226a06c76aae7060642a30eb74"
          ],
          "data": "0x0000000000000000000000000000000000000000000000056bc75e2d63100000",
          "blockHash": "0xbeb18edb2f067dfe9e128604bfe46054bb32423c6230707c63a3d994d8f3a79a",
          "blockNumber": "0x130fa3b",
          "transactionHash": "0x1c3e9fcba1af1a5db89d4dd7cf3c34c457da38cf2c4c2c30ce1f95b94eb3bc16",
          "transactionIndex": "0x5",
          "logIndex": "0x13",
          "removed": false
        }
      ],
      "logsBloom": "0x00000000000000000000000000000000000000000000000000000000000000000000000000020000000000000000000000000000000000000000000000000008000000000000000000000008000000000000000000000000000000000000000000000000020000000000000400000800000000000000000000000010000000000000000000000000100000000000000000000000000000000000000000000000000000000000000000000000000000000000000000000000000000000000080000000002000000000000000000000000000000000000000000000000040020000000000000000000000000000000000000000000000000000000000000000000",
      "type": "0x2",
      "transactionHash": "0x1c3e9fcba1af1a5db89d4dd7cf3c34c457da38cf2c4c2c30ce1f95b94eb3bc16",
      "transactionIndex": "0x5",
      "blockHash": "0xbeb18edb2f067dfe9e128604bfe46054bb32423c6230707c63a3d994d8f3a79a",
      "blockNumber": "0x130fa3b",
      "gasUsed": "0x8e9e",
      "effectiveGasPrice": "0xf6a4d",
      "from": "0x000ef5f21dc574226a06c76aae7060642a30eb74",
      "to": "0x15906379703940bc51a5881ad1a5fc481ebc8bb1",
      "contractAddress": null,
      "l1BaseFeeScalar": "0x1db0",
      "l1BlobBaseFee": "0x1",
      "l1BlobBaseFeeScalar": "0xd2730",
      "l1Fee": "0x1b5f58f5b",
      "l1GasPrice": "0x240431a8",
      "l1GasUsed": "0x640"
    },
    {
      "status": "0x1",
      "cumulativeGasUsed": "0x1a2a54",
      "logs": [
        {
          "address": "0xba397efef3914ab025f7f5706fade61f240a9ebc",
          "topics": [
            "0xddf252ad1be2c89b69c2b068fc378daa952ba7f163c4a11628f55a4df523b3ef",
            "0x0000000000000000000000000000000000000000000000000000000000000000",
            "0x000000000000000000000000000ef5f21dc574226a06c76aae7060642a30eb74"
          ],
          "data": "0x0000000000000000000000000000000000000000000000056bc75e2d63100000",
          "blockHash": "0xbeb18edb2f067dfe9e128604bfe46054bb32423c6230707c63a3d994d8f3a79a",
          "blockNumber": "0x130fa3b",
          "transactionHash": "0x7d9b7ec9e9dcf42d8b996fa8d9df5fd647eb8bdb2432c18fc26f2bb828c1dc8a",
          "transactionIndex": "0x6",
          "logIndex": "0x14",
          "removed": false
        }
      ],
      "logsBloom": "0x00000000000000000000000000000000000000000000000000000000000000000000000000030000000000000000000000000000000000000000000020000000000000000000000000000008004000000000000000000000000000000000000000000000020000000000000400000800000000000000000000000010000000000000000000000000000000000000000000000000000000000000000000000000000000000000000000000000000000000000000000000000000000000000000000000002000000000000000000000000000000000000000000000000040020000000000000000000000000000000000000000000000000000000000000000000",
      "type": "0x2",
      "transactionHash": "0x7d9b7ec9e9dcf42d8b996fa8d9df5fd647eb8bdb2432c18fc26f2bb828c1dc8a",
      "transactionIndex": "0x6",
      "blockHash": "0xbeb18edb2f067dfe9e128604bfe46054bb32423c6230707c63a3d994d8f3a79a",
      "blockNumber": "0x130fa3b",
      "gasUsed": "0x8e9e",
      "effectiveGasPrice": "0xf6a4d",
      "from": "0x000ef5f21dc574226a06c76aae7060642a30eb74",
      "to": "0xba397efef3914ab025f7f5706fade61f240a9ebc",
      "contractAddress": null,
      "l1BaseFeeScalar": "0x1db0",
      "l1BlobBaseFee": "0x1",
      "l1BlobBaseFeeScalar": "0xd2730",
      "l1Fee": "0x1b5f58f5b",
      "l1GasPrice": "0x240431a8",
      "l1GasUsed": "0x640"
    },
    {
      "status": "0x1",
      "cumulativeGasUsed": "0x3691f2",
      "logs": [
        {
          "address": "0x9deb19c2942bf08678c9c82b188b9b4f82e3c040",
          "topics": [
            "0x8be0079c531659141344cd1fd0a4f28419497f9722a3daafe3b4186f6b6457e0",
            "0x0000000000000000000000000000000000000000000000000000000000000000",
            "0x0000000000000000000000004e59b44847b379578588920ca78fbf26c0b4956c"
          ],
          "data": "0x",
          "blockHash": "0xbeb18edb2f067dfe9e128604bfe46054bb32423c6230707c63a3d994d8f3a79a",
          "blockNumber": "0x130fa3b",
          "transactionHash": "0x7c08158f63288ccff5bc98f769956bc5a153a6a09944396dfa89892004587500",
          "transactionIndex": "0x8",
          "logIndex": "0x24",
          "removed": false
        }
      ],
      "logsBloom": "0x00000000000000000000000000000000000000000000000000800000000000000000000000000000000000000000000000000000000000000000000000000000000000000000000000000000000000000001000000000000000000000000000000000000020000000000000000000800000000000000000000000000000000400000000000000000000000000000000000000000001000000000000000000000000000000021000000000000000000008000000000000000000000000000000000000000000000000000000000000000000000000000000000000000000020000000000000000000000000000000000080000000000000000000000000000400",
      "type": "0x2",
      "transactionHash": "0x7c08158f63288ccff5bc98f769956bc5a153a6a09944396dfa89892004587500",
      "transactionIndex": "0x8",
      "blockHash": "0xbeb18edb2f067dfe9e128604bfe46054bb32423c6230707c63a3d994d8f3a79a",
      "blockNumber": "0x130fa3b",
      "gasUsed": "0xc4e0c",
      "effectiveGasPrice": "0xf6a4d",
      "from": "0x000ef5f21dc574226a06c76aae7060642a30eb74",
      "to": "0x4e59b44847b379578588920ca78fbf26c0b4956c",
      "contractAddress": null,
      "l1BaseFeeScalar": "0x1db0",
      "l1BlobBaseFee": "0x1",
      "l1BlobBaseFeeScalar": "0xd2730",
      "l1Fee": "0x27a0a4d27a",
      "l1GasPrice": "0x240431a8",
      "l1GasUsed": "0x90c5"
    },
    {
      "status": "0x1",
      "cumulativeGasUsed": "0x376078",
      "logs": [
        {
          "address": "0x74bb711d032b5df4f63dc04ea4422807d768ac08",
          "topics": [
            "0xdd466e674ea557f56295e2d0218a125ea4b4f0f6f3307b95f85e6110838d6438",
            "0x8e887fac8ee2b396c8e3e9b0476d94e951b1250d60e5e02aeb01d84b194d6e9b",
            "0x00000000000000000000000015906379703940bc51a5881ad1a5fc481ebc8bb1",
            "0x000000000000000000000000ba397efef3914ab025f7f5706fade61f240a9ebc"
          ],
          "data": "0x0000000000000000000000000000000000000000000000000000000000000bb800000000000000000000000000000000000000000000000000000000000000780000000000000000000000009deb19c2942bf08678c9c82b188b9b4f82e3c04000000000000000000000000000000000000000010000000000000000000000000000000000000000000000000000000000000000000000000000000000000000",
          "blockHash": "0xbeb18edb2f067dfe9e128604bfe46054bb32423c6230707c63a3d994d8f3a79a",
          "blockNumber": "0x130fa3b",
          "transactionHash": "0xfcb72bcae9d141321529b9cba831f70a0d23690244059b950d532c8ca6c15c1f",
          "transactionIndex": "0x9",
          "logIndex": "0x25",
          "removed": false
        }
      ],
      "logsBloom": "0x00020000000200000000000000000000000000000000000200000000000000000000000000000000000000000000000000000000400200000000000000000000000000000000000000000000008000000000000000000000000000000000200000800000000000000000000000000000000000000000000000000000000000040000000000000008000000000000000000000001000000000000000000200000000000000000000000000000000000000000000000000000000000000000000000000000000000080000000000000000000000000000000000000000000000000000002000000000000000000000000000000000080000000000000000000000",
      "type": "0x2",
      "transactionHash": "0xfcb72bcae9d141321529b9cba831f70a0d23690244059b950d532c8ca6c15c1f",
      "transactionIndex": "0x9",
      "blockHash": "0xbeb18edb2f067dfe9e128604bfe46054bb32423c6230707c63a3d994d8f3a79a",
      "blockNumber": "0x130fa3b",
      "gasUsed": "0xce86",
      "effectiveGasPrice": "0xf6a4d",
      "from": "0x000ef5f21dc574226a06c76aae7060642a30eb74",
      "to": "0x74bb711d032b5df4f63dc04ea4422807d768ac08",
      "contractAddress": null,
      "l1BaseFeeScalar": "0x1db0",
      "l1BlobBaseFee": "0x1",
      "l1BlobBaseFeeScalar": "0xd2730",
      "l1Fee": "0x2767599a5",
      "l1GasPrice": "0x240431a8",
      "l1GasUsed": "0x8ff"
    },
    {
      "status": "0x1",
      "cumulativeGasUsed": "0x3bf6d4",
      "logs": [
        {
          "address": "0x74bb711d032b5df4f63dc04ea4422807d768ac08",
          "topics": [
            "0xf208f4912782fd25c7f114ca3723a2d5dd6f3bcc3ac8db5af63baa85f711d5ec",
            "0x8e887fac8ee2b396c8e3e9b0476d94e951b1250d60e5e02aeb01d84b194d6e9b",
            "0x0000000000000000000000005f1933923909c6a65a6769fa0d6f157857e33c48"
          ],
          "data": "0xffffffffffffffffffffffffffffffffffffffffffffffffffffffffffffff8800000000000000000000000000000000000000000000000000000000000000780000000000000000000000000000000000000000000000008ac7230489e800000000000000000000000000000000000000000000000000000000000000000000",
          "blockHash": "0xbeb18edb2f067dfe9e128604bfe46054bb32423c6230707c63a3d994d8f3a79a",
          "blockNumber": "0x130fa3b",
          "transactionHash": "0x15d8d3ce05b97690266f2a6056fdd74ef220ca939911b52ad0bd42cd067a0581",
          "transactionIndex": "0xa",
          "logIndex": "0x26",
          "removed": false
        },
        {
          "address": "0x15906379703940bc51a5881ad1a5fc481ebc8bb1",
          "topics": [
            "0xddf252ad1be2c89b69c2b068fc378daa952ba7f163c4a11628f55a4df523b3ef",
            "0x000000000000000000000000000ef5f21dc574226a06c76aae7060642a30eb74",
            "0x00000000000000000000000074bb711d032b5df4f63dc04ea4422807d768ac08"
          ],
          "data": "0x00000000000000000000000000000000000000000000000000d48396878c14b2",
          "blockHash": "0xbeb18edb2f067dfe9e128604bfe46054bb32423c6230707c63a3d994d8f3a79a",
          "blockNumber": "0x130fa3b",
          "transactionHash": "0x15d8d3ce05b97690266f2a6056fdd74ef220ca939911b52ad0bd42cd067a0581",
          "transactionIndex": "0xa",
          "logIndex": "0x27",
          "removed": false
        },
        {
          "address": "0xba397efef3914ab025f7f5706fade61f240a9ebc",
          "topics": [
            "0xddf252ad1be2c89b69c2b068fc378daa952ba7f163c4a11628f55a4df523b3ef",
            "0x000000000000000000000000000ef5f21dc574226a06c76aae7060642a30eb74",
            "0x00000000000000000000000074bb711d032b5df4f63dc04ea4422807d768ac08"
          ],
          "data": "0x00000000000000000000000000000000000000000000000000d48396878c14b2",
          "blockHash": "0xbeb18edb2f067dfe9e128604bfe46054bb32423c6230707c63a3d994d8f3a79a",
          "blockNumber": "0x130fa3b",
          "transactionHash": "0x15d8d3ce05b97690266f2a6056fdd74ef220ca939911b52ad0bd42cd067a0581",
          "transactionIndex": "0xa",
          "logIndex": "0x28",
          "removed": false
        }
      ],
      "logsBloom": "0x0002000000000000000000000000000000000000000000020000000000400000000000000003000000000000000000000000000040000000000000002000000800000000000000000000000800c000000000000000000000000000000000200000800000000000000000000400000000000000000000000000000010000000000000000001000000100000000000000000000000000000000000000000000000000004000000000000000000000000000000000000000000000000000000080000000082000000001000000000000000000000000000000000000000040000000000000000000000000000000000000004000100000000000000002800000000",
      "type": "0x2",
      "transactionHash": "0x15d8d3ce05b97690266f2a6056fdd74ef220ca939911b52ad0bd42cd067a0581",
      "transactionIndex": "0xa",
      "blockHash": "0xbeb18edb2f067dfe9e128604bfe46054bb32423c6230707c63a3d994d8f3a79a",
      "blockNumber": "0x130fa3b",
      "gasUsed": "0x4965c",
      "effectiveGasPrice": "0xf6a4d",
      "from": "0x000ef5f21dc574226a06c76aae7060642a30eb74",
      "to": "0x5f1933923909c6a65a6769fa0d6f157857e33c48",
      "contractAddress": null,
      "l1BaseFeeScalar": "0x1db0",
      "l1BlobBaseFee": "0x1",
      "l1BlobBaseFeeScalar": "0xd2730",
      "l1Fee": "0x2d5b60c5d",
      "l1GasPrice": "0x240431a8",
      "l1GasUsed": "0xa5b"
    }
  ],
  "libraries": [],
  "pending": [],
  "returns": {},
  "timestamp": 1731776549,
  "chain": 11155420,
  "commit": "93d8b93"
}