{
  "transactions": [
    {
      "hash": "0xb2fc6af775f42c5c6c9b10f3bfbc855927661fde2f845d403cfd3bd8dd2f816c",
      "transactionType": "CREATE",
      "contractName": "OmniSwapSpoke",
      "contractAddress": "0xe8fa696fc058826f001c9b35627b548d94f85bba",
      "function": null,
      "arguments": [
        "0x6EDCE65403992e310A62460808c4b910D972f10f"
      ],
      "transaction": {
        "from": "0x000ef5f21dc574226a06c76aae7060642a30eb74",
        "gas": "0xd895b",
        "value": "0x0",
        "input": "0x60803460cd57601f610b4238819003918201601f19168301916001600160401b0383118484101760d15780849260209460405283398101031260cd57516001600160a01b0381169081900360cd57331560ba575f8054336001600160a01b0319821681178355604051939290916001600160a01b0316907f8be0079c531659141344cd1fd0a4f28419497f9722a3daafe3b4186f6b6457e09080a3600380546001600160a01b031916919091179055610a5c90816100e68239f35b631e4fbdf760e01b5f525f60045260245ffd5b5f80fd5b634e487b7160e01b5f52604160045260245ffdfe60806040526004361015610011575f80fd5b5f3560e01c8063542524dd146100b45780636c1a032c146100af578063715018a6146100aa5780637f5a7c7b146100a55780638da5cb5b146100a0578063b353aaa71461009b578063c31c9c0714610096578063c7b8e15d14610091578063d0a102601461008c5763f2fde38b14610087575f80fd5b61050c565b6102b1565b610264565b61023c565b610214565b6101ed565b6101c5565b61016e565b61010b565b346100e2575f3660031901126100e257602060405173fffd8963efd1fc6a506488495d951d5263988d258152f35b5f80fd5b634e487b7160e01b5f52601160045260245ffd5b6001600160a01b038116036100e257565b346100e25760403660031901126100e257600435610128816100fa565b60243590610135826100fa565b61013d61081b565b600180546001600160a01b039283166001600160a01b03199182161790915560028054939092169216919091179055005b346100e2575f3660031901126100e25761018661081b565b5f80546001600160a01b0319811682556001600160a01b03167f8be0079c531659141344cd1fd0a4f28419497f9722a3daafe3b4186f6b6457e08280a3005b346100e2575f3660031901126100e2576002546040516001600160a01b039091168152602090f35b346100e2575f3660031901126100e2575f546040516001600160a01b039091168152602090f35b346100e2575f3660031901126100e2576003546040516001600160a01b039091168152602090f35b346100e2575f3660031901126100e2576001546040516001600160a01b039091168152602090f35b346100e2575f3660031901126100e25760206040516401000276a48152f35b9181601f840112156100e25782359167ffffffffffffffff83116100e257602083818601950101116100e257565b60a03660031901126100e2576004356102c9816100fa565b60443567ffffffffffffffff81116100e2576102e9903690600401610283565b6102f76064939293356100fa565b60843567ffffffffffffffff81116100e257610317903690600401610283565b5050600354610330906001600160a01b03163314610595565b61047261033d8285610841565b9161035a61034b8287610850565b602080825183010191016105e1565b6001600160a01b0391821695821691869116828111156105015760c092938194985b6002546103d8906001600160a01b031660808c6103a961039a610644565b6001600160a01b039092168252565b6001600160a01b038a166020820152610bb86040820152607860608201525b6001600160a01b03909216910152565b6103fc6103e58960011c90565b926103f66103f161089a565b6108b6565b926109b6565b91610414610408610655565b63ffffffff9094168452565b8460208401528060408401526060830152608082015261043261068f565b60a082015261043f61068f565b8482015261044b610664565b3481525f602082015260405163c7c7f5b360e01b8152968794859384939060048501610771565b039134905af19081156104fc577fd6fad783f6ce60919b6ee64c639cbdcedc0dd52b96be62e1df509272cdd4e4a2926104c9926104ce575b506040519384526001600160a01b039081169516929081906020820190565b0390a4005b6104ef9060c03d60c0116104f5575b6104e7818361061d565b8101906106dc565b506104aa565b503d6104dd565b610810565b60c09293819861037c565b346100e25760203660031901126100e257600435610529816100fa565b61053161081b565b6001600160a01b03168015610582575f80546001600160a01b03198116831782556001600160a01b0316907f8be0079c531659141344cd1fd0a4f28419497f9722a3daafe3b4186f6b6457e09080a3005b631e4fbdf760e01b5f525f60045260245ffd5b1561059c57565b60405162461bcd60e51b815260206004820152601c60248201527f4f6e6c79204c5a20656e64706f696e742063616e20636f6d706f7365000000006044820152606490fd5b91908260409103126100e257602082516105fa816100fa565b920151610606816100fa565b90565b634e487b7160e01b5f52604160045260245ffd5b90601f8019910116810190811067ffffffffffffffff82111761063f57604052565b610609565b6040519061065360a08361061d565b565b6040519061065360e08361061d565b6040519061065360408361061d565b67ffffffffffffffff811161063f57601f01601f191660200190565b6040519061069e60208361061d565b5f8252565b91908260409103126100e2576040516040810181811067ffffffffffffffff82111761063f576040526020808294805184520151910152565b919082810360c081126100e2576080136100e257604051906060820182811067ffffffffffffffff82111761063f5760405283518252602084015167ffffffffffffffff811681036100e25782608091602061060695015261074183604088016106a3565b604082015294016106a3565b805180835260209291819084018484015e5f828201840152601f01601f1916010190565b6060906103c86107fb610653959796946080845263ffffffff8151166080850152602081015160a0850152604081015160c08501528481015160e085015260c06107e66107cf608084015160e061010089015261016088019061074d565b60a0840151878203607f190161012089015261074d565b910151848203607f190161014086015261074d565b96602083019060208091805184520151910152565b6040513d5f823e3d90fd5b5f546001600160a01b0316330361082e57565b63118cdaa760e01b5f523360045260245ffd5b90602c116100e257600c013590565b9080604c116100e257604c8201604b1982019161086c83610673565b9361087a604051958661061d565b83855236908201116100e2575f9260209283860137830101604b19015290565b604051600360f01b60208201526002815261060660228261061d565b600361ffff6108c4836109c8565b16036109aa57604051610c3560861b6020820152601081526108e760308261061d565b600361ffff6108f5846109c8565b160361098b57805161ffff81116109745761ffff60019116019161ffff831161096f57610961610606926004610935956040519687956020870190610a14565b600160f81b80825260f09290921b6001600160f01b031916600182015260038101919091520190610a14565b03601f19810183528261061d565b6100e6565b6306dfcc6560e41b5f52601060045260245260445ffd5b61ffff610997836109c8565b633a51740d60e01b5f521660045260245ffd5b61099761ffff916109c8565b90600c116100e2576008013560e01c90565b60028151106109d8576002015190565b60405162461bcd60e51b8152602060048201526014602482015273746f55696e7431365f6f75744f66426f756e647360601b6044820152606490fd5b805191908290602001825e015f81529056fea26469706673582212204cf1d9e2e42cb2a6c59cf26944539e6d4d11ff9d8705385b4c34d3e80423ec8d64736f6c634300081a00330000000000000000000000006edce65403992e310a62460808c4b910d972f10f",
        "nonce": "0xff",
        "chainId": "0x66eee"
      },
      "additionalContracts": [],
      "isFixedGasLimit": false
    },
    {
      "hash": "0xb6b1b437c693463ca6ead9d38175fabb600f37364c4781af8fb6a530195d30ea",
      "transactionType": "CALL",
      "contractName": "OmniSwapSpoke",
      "contractAddress": "0xe8fa696fc058826f001c9b35627b548d94f85bba",
      "function": "configurePool(address,address)",
      "arguments": [
        "0x69801C169647Ad125707Dd40096D4EDC20Bb521a",
        "0xBbd735DB53cE42a7423B0861864dAD6253588040"
      ],
      "transaction": {
        "from": "0x000ef5f21dc574226a06c76aae7060642a30eb74",
        "to": "0xe8fa696fc058826f001c9b35627b548d94f85bba",
        "gas": "0x6f8b",
        "value": "0x0",
        "input": "0x6c1a032c00000000000000000000000069801c169647ad125707dd40096d4edc20bb521a000000000000000000000000bbd735db53ce42a7423b0861864dad6253588040",
        "nonce": "0x100",
        "chainId": "0x66eee"
      },
      "additionalContracts": [],
      "isFixedGasLimit": false
    },
    {
      "hash": "0xf199dc87802e0440b0b84e8ea741c6823fab137e0d9780bb33b27e636386632e",
      "transactionType": "CALL",
      "contractName": null,
      "contractAddress": "0x6fd36fd6d6f1d8a5e43b33b1881fd4ef167b6588",
      "function": "mint(address,uint256)",
      "arguments": [
        "0xe8fA696FC058826f001c9B35627b548D94F85BbA",
        "10000000000000000000000000000000"
      ],
      "transaction": {
        "from": "0x000ef5f21dc574226a06c76aae7060642a30eb74",
        "to": "0x6fd36fd6d6f1d8a5e43b33b1881fd4ef167b6588",
        "gas": "0x11476",
        "value": "0x0",
        "input": "0x40c10f19000000000000000000000000e8fa696fc058826f001c9b35627b548d94f85bba000000000000000000000000000000000000007e37be2022c0914b2680000000",
        "nonce": "0x101",
        "chainId": "0x66eee"
      },
      "additionalContracts": [],
      "isFixedGasLimit": false
    },
    {
      "hash": "0x26718b43f7d22fbe04330c1fb0b6734ec9dfd2753ea00669cf803099ab6b6f27",
      "transactionType": "CALL",
      "contractName": null,
      "contractAddress": "0xa56f2eb760131c39f2ddf4c6d4d245e3d5a1d796",
      "function": "mint(address,uint256)",
      "arguments": [
        "0xe8fA696FC058826f001c9B35627b548D94F85BbA",
        "10000000000000000000000000000000"
      ],
      "transaction": {
        "from": "0x000ef5f21dc574226a06c76aae7060642a30eb74",
        "to": "0xa56f2eb760131c39f2ddf4c6d4d245e3d5a1d796",
        "gas": "0x11476",
        "value": "0x0",
        "input": "0x40c10f19000000000000000000000000e8fa696fc058826f001c9b35627b548d94f85bba000000000000000000000000000000000000007e37be2022c0914b2680000000",
        "nonce": "0x102",
        "chainId": "0x66eee"
      },
      "additionalContracts": [],
      "isFixedGasLimit": false
    }
  ],
  "receipts": [
    {
      "status": "0x1",
      "cumulativeGasUsed": "0xa5026",
      "logs": [
        {
          "address": "0xe8fa696fc058826f001c9b35627b548d94f85bba",
          "topics": [
            "0x8be0079c531659141344cd1fd0a4f28419497f9722a3daafe3b4186f6b6457e0",
            "0x0000000000000000000000000000000000000000000000000000000000000000",
            "0x000000000000000000000000000ef5f21dc574226a06c76aae7060642a30eb74"
          ],
          "data": "0x",
          "blockHash": "0x21c1de8dd6bb9ce1472463d9c587a0fa5dfe9a72de299d6db712169eb85e9ff2",
          "blockNumber": "0x5d774d2",
          "transactionHash": "0xb2fc6af775f42c5c6c9b10f3bfbc855927661fde2f845d403cfd3bd8dd2f816c",
          "transactionIndex": "0x1",
          "logIndex": "0x0",
          "removed": false
        }
      ],
      "logsBloom": "0x00000000000000000000000000000000000000000000000000800000000000000000000000020000000000000000000000000040000000000000000000000000000000000000000000000000000000000001000000000000000000000000000000000000020000000000000400000800000000000000000000000000000000400000000000000000000000000000000000000008000000000000000000000000000000000000000000000000000000000000000000000000000000000000000000000000000000000000000000000000000000000000000000000000040020000000000000000000000000000000000000000000000000000000000000400000",
      "type": "0x2",
      "transactionHash": "0xb2fc6af775f42c5c6c9b10f3bfbc855927661fde2f845d403cfd3bd8dd2f816c",
      "transactionIndex": "0x1",
      "blockHash": "0x21c1de8dd6bb9ce1472463d9c587a0fa5dfe9a72de299d6db712169eb85e9ff2",
      "blockNumber": "0x5d774d2",
      "gasUsed": "0xa5026",
      "effectiveGasPrice": "0x5f5e100",
      "from": "0x000ef5f21dc574226a06c76aae7060642a30eb74",
      "to": null,
      "contractAddress": "0xe8fa696fc058826f001c9b35627b548d94f85bba",
      "gasUsedForL1": "0x0",
      "l1BlockNumber": "0x6c38f0"
    },
    {
      "status": "0x1",
      "cumulativeGasUsed": "0x10bd6",
      "logs": [],
      "logsBloom": "0x00000000000000000000000000000000000000000000000000000000000000000000000000000000000000000000000000000000000000000000000000000000000000000000000000000000000000000000000000000000000000000000000000000000000000000000000000000000000000000000000000000000000000000000000000000000000000000000000000000000000000000000000000000000000000000000000000000000000000000000000000000000000000000000000000000000000000000000000000000000000000000000000000000000000000000000000000000000000000000000000000000000000000000000000000000000",
      "type": "0x2",
      "transactionHash": "0xb6b1b437c693463ca6ead9d38175fabb600f37364c4781af8fb6a530195d30ea",
      "transactionIndex": "0x1",
      "blockHash": "0xdef5fe674f915bf24726069d49670e01c878bf6086a5f568ead578db7f9a5633",
      "blockNumber": "0x5d774d9",
      "gasUsed": "0x10bd6",
      "effectiveGasPrice": "0x5f5e100",
      "from": "0x000ef5f21dc574226a06c76aae7060642a30eb74",
      "to": "0xe8fa696fc058826f001c9b35627b548d94f85bba",
      "contractAddress": null,
      "gasUsedForL1": "0x0",
      "l1BlockNumber": "0x6c38f0"
    },
    {
      "status": "0x1",
      "cumulativeGasUsed": "0xd18e",
      "logs": [
        {
          "address": "0x6fd36fd6d6f1d8a5e43b33b1881fd4ef167b6588",
          "topics": [
            "0xddf252ad1be2c89b69c2b068fc378daa952ba7f163c4a11628f55a4df523b3ef",
            "0x0000000000000000000000000000000000000000000000000000000000000000",
            "0x000000000000000000000000e8fa696fc058826f001c9b35627b548d94f85bba"
          ],
          "data": "0x000000000000000000000000000000000000007e37be2022c0914b2680000000",
          "blockHash": "0xe8d26455d164edffc0f7f2eb07cab36b5b12732a2baa04530a2744a60a2ca140",
          "blockNumber": "0x5d774df",
          "transactionHash": "0xf199dc87802e0440b0b84e8ea741c6823fab137e0d9780bb33b27e636386632e",
          "transactionIndex": "0x1",
          "logIndex": "0x0",
          "removed": false
        }
      ],
      "logsBloom": "0x00000000000000000000000000000000000000000000000000004000000000000000000000000000000000000000000000000000000000000000000000000000000000000000010000000008000000000000000000000000000000000000000000000000020000000000000000000800000000000000000000000010000000000000000000000000000000000000000000000000000000000000000000000000000000000000000000000000000000000000000000000000000000000000000000000002000000000000000000000000000000800000000000000000000020000000000000000000000100000000000002000000000000800000000000000000",
      "type": "0x2",
      "transactionHash": "0xf199dc87802e0440b0b84e8ea741c6823fab137e0d9780bb33b27e636386632e",
      "transactionIndex": "0x1",
      "blockHash": "0xe8d26455d164edffc0f7f2eb07cab36b5b12732a2baa04530a2744a60a2ca140",
      "blockNumber": "0x5d774df",
      "gasUsed": "0xd18e",
      "effectiveGasPrice": "0x5f5e100",
      "from": "0x000ef5f21dc574226a06c76aae7060642a30eb74",
      "to": "0x6fd36fd6d6f1d8a5e43b33b1881fd4ef167b6588",
      "contractAddress": null,
      "gasUsedForL1": "0x0",
      "l1BlockNumber": "0x6c38f0"
    },
    {
      "status": "0x1",
      "cumulativeGasUsed": "0x22a44",
      "logs": [
        {
          "address": "0xa56f2eb760131c39f2ddf4c6d4d245e3d5a1d796",
          "topics": [
            "0xddf252ad1be2c89b69c2b068fc378daa952ba7f163c4a11628f55a4df523b3ef",
            "0x0000000000000000000000000000000000000000000000000000000000000000",
            "0x000000000000000000000000e8fa696fc058826f001c9b35627b548d94f85bba"
          ],
          "data": "0x000000000000000000000000000000000000007e37be2022c0914b2680000000",
          "blockHash": "0x731297c936944b52951c96d30c26ce11fa52134375f0e67551c20502a62c4b0f",
          "blockNumber": "0x5d774e7",
          "transactionHash": "0x26718b43f7d22fbe04330c1fb0b6734ec9dfd2753ea00669cf803099ab6b6f27",
          "transactionIndex": "0x2",
          "logIndex": "0x2",
          "removed": false
        }
      ],
      "logsBloom": "0x00000000000000000000000000000000000000000000000000000000000000000000000000000000000000000000000000000000000000000000000000000000000000000000000000000008000000000000000000000000000000000000000000000000020000000000000000000800000000000000000000000010000000000000000000000000000000000000000000000000000000000000000000000000000000000000000000000000000000000000000000000000000000000000000000000002000000000000000000000000040000800000000000000000000020000000000000008000000100000000000002000000000080000000000000000000",
      "type": "0x2",
      "transactionHash": "0x26718b43f7d22fbe04330c1fb0b6734ec9dfd2753ea00669cf803099ab6b6f27",
      "transactionIndex": "0x2",
      "blockHash": "0x731297c936944b52951c96d30c26ce11fa52134375f0e67551c20502a62c4b0f",
      "blockNumber": "0x5d774e7",
      "gasUsed": "0xd18e",
      "effectiveGasPrice": "0x5f5e100",
      "from": "0x000ef5f21dc574226a06c76aae7060642a30eb74",
      "to": "0xa56f2eb760131c39f2ddf4c6d4d245e3d5a1d796",
      "contractAddress": null,
      "gasUsedForL1": "0x0",
      "l1BlockNumber": "0x6c38f0"
    }
  ],
  "libraries": [],
  "pending": [],
  "returns": {},
  "timestamp": 1731807453,
  "chain": 421614,
  "commit": "f193f39"
}